:100000006F40402E1300000013000000130000009A
:100010001300000013000000130000001300000094
:100020001300000013000000130000001300000084
:08003000130000007300100032
:100038000000000000000000D6410000E64100007A
:10004800000000002A42000000000000000000003C
:100058002C4200002E4200000000000000000000BA
:1000680030420000000000003242000000000000A2
:100078003442000036420000384200003A42000094
:100088003C4200003E420000F63800006A39000099
:10009800DE390000523A0000C63A00004A42000029
:1000A8004C4200004E420000504200005242000004
:1000B8005442000056420000584200005A420000D4
:1000C8005C4200005E420000604200003A3B0000D3
:1000D80064420000E63C0000684200006A420000FA
:1000E800663D0000E63D0000663E000072420000EA
:1000F8007442000076420000784200007A42000014
:100108007C4200000E3400009234000044350000A8
:10011800123C000086420000884200008A4200002B
:100128005E4000008E4200009042000092420000B3
:100138009442000096420000E63E00009A42000009
:10014800C83500004C360000663F0000DE3F000066
:10015800A4420000A6420000A8420000AA420000F3
:10016800AC420000AE420000B0420000B2420000C3
:10017800B4420000B6420000B84200008C540000AF
:10018800BC420000BE42000068380000CC360000C7
:1001980050370000EC370000C8420000DE40000085
:1001A800CC420000CE420000D04200005E41000078
:1001B800D4420000D6420000D8420000DA420000D3
:1001C800DC420000DE420000E0420000E2420000A3
:1001D8000000000000000000000000000000000017
:1001E8000000000000000000000000000000000007
:0801F8000000000000000000FF
:10020000737504308280B76200009382820873A005
:10021000023082803D432A876373C3029377F700DD
:10022000BDEFADE5937606FF3D8ABA960CC34CC38D
:100230000CC74CC74107E36BD7FE11E28280B306BF
:10024000C3408A069702000096966780A60023079F
:10025000B700A306B7002306B700A305B700230520
:10026000B700A304B7002304B700A303B700230318
:10027000B700A302B7002302B700A301B700230110
:10028000B700A300B7002300B700828093F5F50FF5
:1002900093968500D58D93960501D58D61B793967C
:1002A00027009702000096968682E78086FA96805D
:1002B000C1171D8F3E96E374C3F8A5B7011122CE76
:1002C00000102324A4FE2326B4FEB7F700E023A0E9
:1002D0000700B7F700E08146014794C7D8C7B7F7D2
:1002E00000E0054798C30100B7F700E003A8C70086
:1002F0009C470327C4FEC286636CD7000327C4FE55
:10030000C286E313D7FE032784FE6363F700E9BFC9
:100310000100724405618280011106CE22CC0010DA
:10032000AA8E2E8E32833685BA853E86C286468751
:10033000F687A307F4FEF2872307F4FE9A87A30645
:10034000F4FEAA872306F4FEAE87A305F4FEB28767
:100350002305F4FEB687A304F4FEBA872304F4FE53
:100360008347F4FE93068004014681453E85992C1F
:100370008347E4FE93068004014681453E85992427
:100380008347D4FE93068004014681453E851D2C9B
:100390008347C4FE93068004014681453E851D24A3
:1003A0008347B4FE93068004014681453E85192C9F
:1003B0008347A4FE93068004014681453E851924A7
:1003C000834794FE93068004014681453E85DD2ADD
:1003D000834784FE93068004014681453E85DD22E5
:1003E0008347440093068004014681453E85D92A0F
:1003F0008347040093068004014681453E85D92247
:100400008347840093068004014681453E855D2A2A
:100410000100F240624405618280011106CE22CCC7
:1004200000102326A4FE2324B4FEB28736872313AC
:10043000F4FEBA872312F4FE85450965EF40806219
:10044000B707055083C7070013F7F70FB707055025
:100450001377F7FC1377F70F2380E700B7070550F2
:1004600083C7070013F7F70FB70705501367270473
:100470001377F70F2380E700B707055083C71700EE
:1004800013F7F70FB7070550659B1377F70FA38096
:10049000E700B7070550035744FE2392E700B7076C
:1004A0000550035764FE2393E700B7070550032761
:1004B000C4FE98C7B7070550032784FED8C7B707FF
:1004C000055083C7170013F7F70FB70705501377C9
:1004D000F7031377F70FA380E70037070550B70737
:1004E0000550034717001377F70FA380E700B707FE
:1004F000055083C7270013F7F70FB7070550136799
:1005000047001377F70F2381E700B707055083C72C
:10051000170013F7F70FB707055013671700137786
:10052000F70FA380E700B707055083C7070013F74D
:10053000F70FB7070550136717001377F70F2380DE
:10054000E7008D4513056005EF20B06313056005D6
:10055000EF20B05F0100F240624405618280797152
:1005600022D60018232EA4FC8327C4FD958393F77D
:10057000F70F9D8BA307F4FE8327C4FD93F7F70FB6
:10058000BD8B2307F4FE0347F4FEB5670A07938784
:100590000775BA979C43DC470347E4FE85463397CB
:1005A000E600420741833A868346F4FE35678A06B1
:1005B0001307077536971843B18F5CC70100325493
:1005C00045618280797106D622D40018232EA4FCBE
:1005D000232CB4FC232AC4FC2328D4FC232004FEAF
:1005E000232204FE232404FE8327C4FD958393F76E
:1005F000F70F9D8BA307F4FE8327C4FD93F7F70F36
:10060000BD8B2307F4FE0327C4FD9307F00F63059A
:10061000F7140327C4FD9307F00F6301F714834712
:10062000F4FE91E785451145EF40204841A003477E
:10063000F4FE85476317F70085452145EF40E04606
:10064000B5A00347F4FE89476317F7008545414588
:10065000EF40A045A1A80347F4FE8D476318F700BB
:10066000854513050002EF40404489A00347F4FE8E
:1006700091476318F700854513050004EF40E042F9
:1006800035A00347F4FE95476318F7008545130529
:100690000008EF40804119A80347F4FE994763170B
:1006A000F700854513050010EF4020408347E4FE26
:1006B0000547B317F700C207C1832310F4FE0327D1
:1006C00084FD85476317F702832704FDC207C183B2
:1006D000A183C207C18389E78D472322F4FE11A8B5
:1006E000832704FDC207C183A183C207C1832322DC
:1006F000F4FE832704FDC207C18393F7F70F232479
:10070000F4FE0347F4FEB5670A0793870775BA97A7
:100710009C433E87930704FEBE853A85EF30104E1A
:10072000032784FD8547631CF7020347F4FEB56782
:100730000A0793870775BA979C43BE868347E4FEF2
:100740000547B317F700C207C183032644FDBE85E2
:100750003685EF30506D21A0010011A00100B2508C
:10076000225445618280011106CE22CC001023263E
:10077000A4FE2324B4FE2322C4FE2320D4FE832718
:10078000C4FE81EB930680310546854515451D3D28
:1007900041A00327C4FEC147631AF70093068031C6
:1007A0000546854513053002313D9DA00327C4FE53
:1007B00093070002631AF7009306803105468545CA
:1007C0001305D0020135A9A00327C4FE9307000337
:1007D000631AF700930680310546854513053002FC
:1007E000D5333DA00327C4FE93070004631AF70026
:1007F00093068031054685451305A004E13309A819
:1008000013069002B5679385075A0145EF20007CD7
:10081000032784FE89476319F70093068031054654
:1008200085451D45453341A0032784FEC947631A0A
:10083000F70093068031054685451305500259336C
:100840009DA0032784FE93072002631AF7009306F6
:100850008031054685451305F002AD33A9A0032775
:1008600084FE93072003631AF70093068031054640
:10087000854513055002B9333DA0032784FE930735
:100880002004631AF7009306803105468545130559
:10089000C0040D3B09A813060003B5679385075AEA
:1008A0000145EF20A072032744FE85476319F70036
:1008B00093064030054681451945293359A8032739
:1008C00044FEC547631AF70093064030054681454C
:1008D00013054002C539B5A8032744FE930710024B
:1008E000631AF70093064030054681451305E00280
:1008F000D13985A0032744FE93071004631AF7003B
:1009000093064030054681451305B004653991A032
:10091000032744FE93071003631AF7009306403041
:100920000546814513054002713925A0032744FE81
:100930009307F00F6317F7009307F00F2322F4FEDD
:1009400009A813068003B5679385075A0145EF2070
:10095000E0679306003101468545032504FE9D317D
:100960000100F2406244056182805D7186C6A2C4C6
:1009700080082326A4FC2324B4FC2322C4FC2320C7
:10098000D4FC232EE4FA232CF4FA232A04FB2317A5
:1009900004FE232E04FC232004FE232204FE232431
:1009A00004FE231604FEB5670327C4FC0A079387D9
:1009B0004776BA979C433E85EF40A0208545054584
:1009C000EF40A00E032704FCC1476311F702032781
:1009D000C4FBC947631CF700032784FBC5476317A3
:1009E000F70085450545EF30904715A8032704FC1F
:1009F000930700046315F7020327C4FB9307200441
:100A0000631FF700032784FB930710046319F700A3
:100A10008545B717200013850710EF305044832712
:100A2000C4FC91E785450565EF40200825A0032714
:100A3000C4FC85476317F70085451165EF40400BFF
:100A400011A80327C4FC89476316F7008545216573
:100A5000EF40000A832644FB032684FB8325C4FB66
:100A6000032504FC0933231E04FC93074010231FB5
:100A7000F4FC231004FE032784FC85476305F7027A
:100A8000832784FC81CF032784FC89476303F70213
:100A9000032784FC8D476304F7020DA8231104FE8D
:100AA000231204FE25A0231104FE85472312F4FE21
:100AB00031A889472311F4FE231204FE01A88947B7
:100AC0002311F4FE85472312F4FE010003A70186DB
:100AD000832744FCB357F7022317F4FE0357E4FEC1
:100AE0009307F00F63F7E700930780032317F4FEE3
:100AF00061A80357E4FE9307F00763F7E700930745
:100B000000032317F4FE49A00357E4FE9307F00304
:100B100063F7E700930780022317F4FEB5A003579D
:100B2000E4FEFD4763F7E700930700022317F4FE96
:100B3000A1A80357E4FEBD4763F6E700E14723178A
:100B4000F4FE99A00357E4FE9D4763F6E700C14712
:100B50002317F4FE15A80357E4FE8D4763F6E7005C
:100B6000A1472317F4FE0DA00357E4FE854763F564
:100B7000E700231704FE09A81306D008B56793857C
:100B8000075A0145EF2080448357E4FE2314F4FE06
:100B9000930700202313F4FE231504FE9D4723161C
:100BA000F4FEB5670327C4FC0A0793874776BA9714
:100BB0009C433E879307C4FDBE853A85EF40C0073E
:100BC000B5670327C4FC0A0793874776BA979C4307
:100BD00085453E85EF40C0150100B6402644616161
:100BE0008280011122CE00102326A4FEAE87A30529
:100BF000F4FEB5670327C4FE0A0793874776BA97C2
:100C00009C433E878347B4FEC207C1832316F70087
:100C10000100B5670327C4FE0A0793874776BA9792
:100C20009C4383D78700C207C18393F70708F5F376
:100C30000100724405618280011106CE22CC0010B1
:100C40002326A4FE2324B4FE8327C4FE99E7E146AD
:100C5000014685452545BD32F9A20327C4FE8947D3
:100C60006319F700E1460146854513056002993A8C
:100C70005DAA0327C4FEC1476318F700E146014699
:100C800085450945813245A20327C4FEC947631A39
:100C9000F700E1460146854513055006EFF09F92A7
:100CA00059A20327C4FE93070002631AF700E14626
:100CB000014685451305A002EFF0DF90ADA20327A2
:100CC000C4FE93072002631AF700E14601468545FA
:100CD0001305A004EFF01F8FB9A20327C4FE9307EA
:100CE0004002631AF700E146014685451305800678
:100CF000EFF05F8D0DAA0327C4FE93070004631A6B
:100D0000F700E146014685451305A004EFF09F8BEF
:100D100019AA0327C4FE93072004631AF700E146CB
:100D20000146854513050002EFF0DF89EDA8032792
:100D3000C4FE93070005631AF700E14601468545A6
:100D40001305C004EFF01F88F9A80327C4FE93071A
:100D50002005631AF700E146014685451305800822
:100D6000EFF05F86C9A00327C4FE93070006631A4D
:100D7000F700E1460146854513050004EFF09F8426
:100D80005DA00327C4FE93072006631AF700E1461F
:100D90000146854513050004EFF0DF8269A00327B3
:100DA000C4FE93070007631AF700E1460146854534
:100DB00013052004EFF01F81BDA00327C4FE930795
:100DC00020076319F700E146014685451945EFF014
:100DD0006FFF91A80327C4FE93074007631AF7002B
:100DE000E146014685451305C008EFF0AFFD25A893
:100DF0000327C4FE93070008631AF700E146014683
:100E0000854513054004EFF0EFFB31A80327C4FE2E
:100E1000930720086319F700E1460146854513054D
:100E2000E008EFF02FFA032784FE8547631AF700E6
:100E300093068004014681452945EFF0AFF8D5AA15
:100E4000032784FE8D47631BF70093068004014649
:100E5000814513057002EFF0EFF6E1AA032784FE47
:100E6000C547631AF70093068004014681450D4586
:100E7000EFF04FF57DAA032784FECD47631BF700F3
:100E8000930680040146814513056006EFF08FF359
:100E90004DA2032784FE93071002631BF7009306FD
:100EA0008004014681451305B002EFF0AFF151A275
:100EB000032784FE93073002631BF7009306800428
:100EC000014681451305B004EFF0CFEF9DA2032743
:100ED00084FE93075002631BF700930680040146CB
:100EE000814513059006EFF0EFEDA1A2032784FEE4
:100EF00093071004631BF7009306800401468145A5
:100F00001305B004EFF00FEC2DA2032784FE930726
:100F10003004631BF70093068004014681451305E6
:100F20001002EFF02FEA31A2032784FE9307100589
:100F3000631BF700930680040146814513052006D4
:100F4000EFF04FE8FDA0032784FE93073005631BF5
:100F5000F700930680040146814513059008EFF0E1
:100F60006FE6C1A8032784FE93071006631BF700F2
:100F7000930680040146814513051004EFF08FE4C9
:100F80004DA8032784FE93073006631BF7009306E2
:100F90008004014681451305B008EFF0AFE251A887
:100FA000032784FE93071007631BF7009306800452
:100FB0000146814513053004EFF0CFE09DA80327DB
:100FC00084FE93073007631AF700930680040146F6
:100FD00081451D45EFF00FDFA9A8032784FE930785
:100FE0005007631BF70093068004014681451305F3
:100FF000D008EFF02FDD35A8032784FE93071008F3
:10100000631BF700930680040146814513055004D5
:10101000EFF04FDB39A8032784FE93073008631AEB
:10102000F70093068004014681451305F008EFF0B0
:101030006FD90100F240624405618280011122CE25
:1010400000102326A4FEAE87A305F4FE0100B567B9
:101050000327C4FE0A0793870777BA979C4383D771
:101060000700C207C18393F70708F5D3B5670327C5
:10107000C4FE0A0793870777BA979C433E87834746
:10108000B4FEC207C1832312F70001007244056158
:101090008280011106CE22CC00102326A4FE232438
:1010A000B4FE2322C4FE29A8832784FE13871700D9
:1010B0002324E4FE83C70700BE850325C4FEBD3F8D
:1010C000832744FE1387F7FF2322E4FEF1FF01008C
:1010D000F240624405618280011106CE22CC0010EC
:1010E0002326A4FE2324B4FE39A8832784FE138775
:1010F00017002324E4FE8387070093F7F70FBE85CC
:101100000325C4FE253F832784FE83870700F1FF64
:101110000100F240624405618280011106CE22CCBA
:1011200000102326A4FEAE87A305F4FEB5670327AF
:10113000C4FE0A0793870777BA979C433E87834785
:10114000B4FE3E86930550523A85EF3030771387D0
:10115000C1818327C4FEBA9783C7070081453E85B6
:10116000EF2020228347B4FE81CF1387C1818327DC
:10117000C4FEBA9783C707003E85EF20001D19A85B
:101180001387C1818327C4FEBA9783C707003E85B2
:10119000EF20601D0100F240624405618280011170
:1011A00022CE00102326A4FE2324B4FEB567032715
:1011B000C4FE0A0793870777BA979C4383D7070033
:1011C000C207C18393F707028DC7B5670327C4FE23
:1011D0000A0793870777BA979C4383D74700C207CC
:1011E000C18313F7F70F832784FE2380E700854729
:1011F00011A081473E85724405618280797106D6CF
:1012000022D40018232EA4FC232CB4FC232AC4FCD3
:101210002328D4FC232004FE232204FE232404FEDE
:10122000232604FE85450545EF303008832504FD5F
:10123000032544FD1134032744FD8947631CF7004F
:10124000032704FD8D476317F70085451145EF30EF
:10125000004195AA032744FDC947631CF7000327F3
:1012600004FDCD476317F70085452145EF30203F4A
:1012700099AA032744FD930720026310F70203276E
:1012800004FD93073002631AF7008545B707140081
:1012900013850701EF30A03C3DA2032744FD9307CF
:1012A00040026310F702032704FD93075002631AFC
:1012B000F7008545B707140013850703EF30203A80
:1012C00019A2032744FD930720046311F7020327A3
:1012D00004FD93073004631BF700B7070140D44FA8
:1012E000B70701404167558FD8CFF1A8032744FDC8
:1012F000930720056312F702032704FD93073005C7
:10130000631CF700B7070140D44FB7070140370708
:101310000800558FD8CF45A8032744FD9307200622
:101320006312F702032704FD93073006631CF700DE
:10133000B7070140D44FB707014037072000558F4A
:10134000D8CF51A0032744FD930720076312F7026B
:10135000032704FD93073007631CF700B70701401C
:10136000D44FB707014037074000558FD8CFA1A809
:10137000032744FD930740076312F702032704FD88
:1013800093075007631CF700B7070140D44FB70716
:10139000014037078000558FD8CF35A0032744FD83
:1013A000930720086311F702032704FD9307300811
:1013B000631BF700B7070140D44FB7070140370759
:1013C0000002558FD8CF8327C4FD91E7854511656D
:1013D000EF30A06D69A80327C4FD85476318F700A7
:1013E000854537050200EF30A07051A00327C4FDEA
:1013F00089476318F700854537050400EF30406FD3
:10140000BDA00327C4FD8D476318F7008545370548
:101410000800EF30E06DA1A80327C4FD91476318D1
:10142000F700854537051000EF30806C89A0032751
:10143000C4FD95476318F700854513050004EF3098
:10144000206B35A00327C4FD99476318F700854535
:1014500013050008EF30C06919A80327C4FD9D4794
:101460006317F700854513050010EF306068832788
:1014700084FD2320F4FE231204FE231304FE231410
:1014800004FE231604FEB1472315F4FEB5670327B7
:10149000C4FD0A0793870777BA979C433E87930753
:1014A00004FEBE853A85EF303018B5670327C4FDCA
:1014B0000A0793870777BA979C4385453E85EF30A7
:1014C000F0390100B250225445618280411106C6B4
:1014D00022C40008938501831945D13105469385BF
:1014E000018313858189EF10704D0100B2402244C1
:1014F00041018280411106C622C4000893851183F0
:10150000054571390546938511831385C18AEF100E
:10151000F04A0100B240224441018280411106C6D6
:1015200022C4000803A7418589476300F70203A787
:1015300041858D476314F700E12501A803A7418584
:1015400091476314F700EF10A0210100B24022443C
:1015500041018280411106C622C4000803A74185CB
:1015600091476315F700EF10002639A003A74185C6
:101570008D476313F700C52D0100B240224441019D
:101580008280197186DEA2DCCADACED8D2D6D6D451
:10159000000113010181FD77130704FEBA9723AE02
:1015A000A77A2E87B286FD77130604FEB297239D95
:1015B000E77AFD77130704FEBA973687239CE77A0C
:1015C000FD77130704FEBA9783D7A77B2311F4FC9A
:1015D000FD77130704FEBA9783D7877B2310F4FCAB
:1015E000035724FC835704FCB307F70213D7F741D2
:1015F0000D8BBA978987232EF4FAA30B04FCFD7791
:10160000130704FEBA9783A7C77B232CF4FA232E73
:1016100004FC05A88327C4FD8A07130704FEBA97B4
:1016200023A007BCFD77130704FE3E978327C4FD64
:101630008A07BA9723A0077C8327C4FD8507232E3A
:10164000F4FC0327C4FD9307F00FE3D5E7FC232840
:1016500004FC232E04FC49A8232C04FC9DA803575A
:1016600024FC8327C4FD3307F702832784FDBA9740
:101670003E87832784FBBA9783C707003E8793176B
:101680002700930604FEB69783A707BC938617002E
:1016900093172700130704FEBA9723A0D7BC03575C
:1016A00024FC8327C4FD3307F702832784FDBA9700
:1016B0003E87832784FBBA9783C707003E8783272B
:1016C00004FDBA972328F4FC832784FD8907232C83
:1016D000F4FC835724FC032784FDE342F7F88327B7
:1016E000C4FD8907232EF4FC835704FC0327C4FDA3
:1016F000E344F7F6232E04FC81A08327C4FD8A0768
:10170000130704FEBA9783A707BC53F707D08327B4
:10171000C4FBD3F707D0D377F718FD77130704FE80
:101720003E978327C4FD8A07BA9727A0F77C8327B3
:10173000C4FD8507232EF4FC0327C4FD9307F00F97
:10174000E3DDE7FA232204FC232A04FA872744FB7B
:101750002728F4FA872704FB2726F4FA8727C4FAF8
:101760002724F4FA872784FA2722F4FA872744FAF1
:101770002724F4FC872784FC2720F4FA872704FA1F
:101780002726F4FC232C04FC49AAFD77130704FE4A
:101790003E97832784FD8A07BA9787A7077C072788
:1017A000C4FCD377F7002726F4FC832784FD53F786
:1017B00007D0FD77130704FE3E97832784FD8A0731
:1017C000BA9787A7077CD377F710072784FCD377CE
:1017D000F7002724F4FCB56707A747638727C4FCF5
:1017E000D377F7082720F4FA8327C4FB032704FDE7
:1017F000B357F70253F717D0872784FCD377F7083E
:101800002722F4FA072784FC8727C4FCD377F7182C
:101810002724F4FA072744FA872704FAD377F7181E
:101820002726F4FA072784FC872744FAD377F700A2
:101830002728F4FA0725C4FCEF8060282A89AE899E
:10184000072784FA872704FBD377F7085385F72007
:10185000EF80E026B56703A8C76383A787633E864A
:10186000C286EF40F00EAA872E883E86C2864A8541
:10187000CE85EF60707AAA872E883E89C2890725B7
:1018800004FAEF80C0232A8AAE8A0727C4FA872782
:1018900004FBD377F7085385F720EF804022B56724
:1018A00003A8C76383A787633E86C286EF40500ABA
:1018B000AA872E883E86C2865285D685EF60D0756F
:1018C000AA872E883E86C2864A85CE85EF5010357F
:1018D000AA872E883E85C285EF80E02CD307A520FD
:1018E000272AF4FA072744FB872744FCD397E7A06D
:1018F00089CB872744FB2722F4FC832784FDA30B95
:10190000F4FC072744FB872744FCD317F7A089EF93
:10191000832784FD8507232CF4FC032784FD93078C
:10192000F00FE3D4E7E611A00100834774FD3E8584
:101930001301017FF65066545659C659365AA65AB5
:1019400009618280397106DE22DC4ADA4ED852D62D
:1019500056D45AD25ED080002326A4FC93070008F8
:10196000231BF4FC23800184231F04FC61A0930744
:1019700050FA230CF4FC8357E4FD8A070327C4FCC8
:10198000BA978397070093F7F70FA30CF4FC8357DC
:10199000E4FD8A070327C4FCBA9783972700231E18
:1019A000F4FC8357C4FDA183C207C18393F7F70FEB
:1019B000230DF4FC8357C4FD93F7F70FA30DF4FC3C
:1019C000930784FD1146BE851145EFF08FEC03A708
:1019D00001868967938707F4B357F70286073E8B22
:1019E000814B5A85DE85EFE07F8D8357E4FD8507C7
:1019F000231FF4FC0357E4FDA547E3FAE7F631A8FB
:101A000003A701868967938707F4B357F7023E8AD5
:101A1000814A5285D685EFE07F8A83C7018493F798
:101A2000F70F8DE3835764FDC207C1871397070142
:101A300041837D174207418342074187231BE4FC12
:101A4000E340F0FC93070008231BF4FC238001848F
:101A500031A803A701868967938707F4B357F70274
:101A60003E8981494A85CE85EFE05F859387C183B2
:101A700003C717009307F00F631AF7009387C1831A
:101A800003C727009307F00F6302F702835764FD33
:101A9000C207C1871397070141837D17420741831E
:101AA00042074187231BE4FCE345F0FA835764FDBA
:101AB000C207C1876344F000854711A081473E8576
:101AC000F25062545259C259325AA25A125B825B86
:101AD00021618280797106D622D44AD24ED0001874
:101AE000232EA4FC930700082313F4FE231704FEFF
:101AF000DDA8930750FA2304F4FEC557A304F4FEAF
:101B00008357E4FE8A070327C4FDBA97839707002B
:101B10002316F4FE8357C4FEA183C207C18393F743
:101B2000F70F2305F4FE8357C4FE93F7F70FA305C1
:101B3000F4FE930784FE1146BE851145EFF06FD584
:101B4000930700082313F4FE31A803A701868967D1
:101B5000938707F4B357F7023E8981494A85CE85BA
:101B6000EFE0CFF583C7018493F7F70F8DE3835739
:101B700064FEC207C1871397070141837D1742079F
:101B80004183420741872313E4FEE340F0FC83577F
:101B900064FEC207C1876347F0008357E4FE99E300
:101BA000854781A8238001849387C18383C7170059
:101BB000A20793960701C1869387C18383C7270035
:101BC0001397070141878357E4FE8A070326C4FD64
:101BD000B297558F420741872391E7008357E4FE70
:101BE00085072317F4FE0357E4FEA147E3F3E7F06C
:101BF00081473E85B25022541259825945618280F4
:101C0000411106C622C4000883C7F1833E8793872B
:101C1000C183BA97BE851145EFF06FD8AA8781CBF3
:101C200083C7F183850713F7F70FA38FE18203C7FB
:101C3000F1838547631AF70003C7C1839307500AEE
:101C40006304F700A38F018203C7F1838D476317F5
:101C5000F700A38F018205472380E1840100B24091
:101C6000224441018280011106CE22CC001005479A
:101C7000238CE182130660059305A00BB7070020B3
:101C800013850733EFF0FF8FAA872326F4FE8327FF
:101C9000C4FE1307C0086354F7009307C008232647
:101CA000F4FE8327C4FE1307A00563D4E70093075F
:101CB000A0052326F4FE9308F005130800049307FB
:101CC0000008130760059306A00B370600201306D3
:101CD00006338145014575230100F24062440561E8
:101CE0008280011106CE22CC00100D45EF00F02EAF
:101CF000930610051306000589679385075811455B
:101D0000EFF0CFCF85451145EFF02FC1EF10C06A3E
:101D100023800184B707002013858702653BAA87CB
:101D200099CB1306301CB5679385875E0145EF108C
:101D3000E029854745A023800184B707002013854B
:101D400007000931AA8799CB1306B01CB5679385A4
:101D5000875E0145EF1080278547ADA82380018469
:101D6000B707002013858702B533AA8799CB1306DE
:101D7000301DB5679385875E0145EF1020258547A7
:101D800091A8EF10406691473EC495473EC29947DF
:101D90003EC0930890021308800293076002130765
:101DA000B0049306900413068004A9452545EFE08E
:101DB000AFD6370700201307073323AAE18203A712
:101DC0004183854699671386078281453A85EFE00E
:101DD000CFE481473E85F240624405618280011173
:101DE00006CE22CC0010AA87A307F4FEB56793871E
:101DF0000775DC473E87C1475CCBB567938707759E
:101E00009C4B3E8791471CCB8347F4FEBE8509451A
:101E1000EFE03FDDB56793870775DC473E87C14735
:101E20001CCB0100F240624405618280011106CEA4
:101E300022CC0010AA87A307F4FEB5679387077525
:101E4000DC473E87C1475CCBB567938707759C4BE2
:101E50003E8791475CCB8347F4FEBE850945EFE0A2
:101E60005FD8B56793870775DC473E87C1471CCBB2
:101E70000100F240624405618280011106CE22CC4D
:101E80000010AA872E87A307F4FEBA872307F4FE63
:101E90008307F4FE93C7F7FF93F7F70F9D8393F73C
:101EA000F70F3E8713065005B567938507643A859B
:101EB000EF10C0118347E4FE93B7870093F7F70F45
:101EC0003E8713066005B567938507643A85EF1072
:101ED000E00F8347E4FE938707FB93F7F70F3E85F8
:101EE000B1378347F4FE918393F7F70F93E7070128
:101EF00093F7F70F3E851D3F8347F4FEBD8B93F7A5
:101F0000F70F3E8525370100F2406244056182806B
:101F1000797106D622D400189307C4FD3E85EF10D0
:101F2000C0108547231EF4FC93070008231FF4FC10
:101F3000930700042310F4FE83A7818481EB994763
:101F40002301F4FE8547A301F4FE21A803A78184A1
:101F500085476318F700A1472301F4FE8947A301D1
:101F6000F4FEB7270000938727072324F4FEB72742
:101F700000009387E7F82326F4FE9307C4FD3E850F
:101F8000EF1040100100B2502254456182800111CF
:101F900006CE22CC0010A30704FE81A08347F4FEE6
:101FA000938707FB93F7F70F3E8549350545BD3D00
:101FB0004145AD3D230704FE01A801450D3583478A
:101FC000E4FE85072307F4FE8307E4FEE3D707FE5C
:101FD0008347F4FE8507A307F4FE0347F4FE9D47FD
:101FE000E3FEE7FA0100F240624405618280797104
:101FF00006D622D40018AA87A30FF4FCA30704FE78
:1020000091A08347F4FE938707FB93F7F70F3E8574
:10201000313D0545213D4145113D230704FE11A8F1
:102020008347F4FD3E85653B8347E4FE8507230730
:10203000F4FE8307E4FEE3D507FE8347F4FE85073D
:10204000A307F4FE0347F4FE9D47E3FCE7FA010013
:10205000B250225445618280011122CE0010232605
:10206000A4FE0327C4FE23A2E1840100724405619B
:102070008280797106D622D40018AA872E87232C55
:10208000C4FC231FF4FCBA87231EF4FC8357E4FD31
:1020900093B7070893F7F70F3E871306E00DB56770
:1020A000938507643A85EF0070728357C4FD93B738
:1020B000870093F7F70F3E871306F00DB5679385FA
:1020C00007643A85EF009070A30604FEA30704FEA0
:1020D000230704FE49AA83A78184D1EF8347E4FE46
:1020E000032784FDBA978387070093F7F70F8117BB
:1020F000A306F4FE0357E4FD9307E00763F9E70046
:10210000231F04FC8357C4FD8507231EF4FC83575B
:10211000E4FD93F7F70F0357C4FD1377F70FBA8564
:102120003E85A13BA30704FE3DA00347D4FE8346A2
:10213000F4FE3566BA878607BA97860713070679CD
:10214000BA97B69783C707003E8551398347F4FE97
:102150008507A307F4FE0347F4FE9547E3F7E7FC82
:102160008357E4FD9907231FF4FC8347E4FE8507AA
:102170002307F4FECDA88347E4FE032784FDBA9726
:102180008387070093F7F70F8117A306F4FE035721
:10219000E4FD9307800763F9E700231F04FC8357DE
:1021A000C4FD8507231EF4FC8357E4FD93F7F70F66
:1021B0000357C4FD1377F70FBA853E857D39A30712
:1021C00004FE35A08347D4FE139747008347F4FEEF
:1021D0003E97B9679387879BBA9783C707003E8569
:1021E000EFF0FFBF8347F4FE8507A307F4FE034724
:1021F000F4FE9D47E3F8E7FC8357E4FD13F7F70F80
:102200008357C4FD93F7F70F850793F7F70FBE8544
:102210003A85A531A30704FE05A88347D4FE13978A
:1022200047008347F4FEBA9713878700B9679387FF
:10223000879BBA9783C707003E85EFF05FBA834755
:10224000F4FE8507A307F4FE0347F4FE9D47E3F67B
:10225000E7FC8357E4FDA107231FF4FC8347E4FE5A
:1022600085072307F4FE8347E4FE032784FDBA971E
:1022700083870700E39107E60100B25022544561CD
:102280008280397106DE22DC80002A8E2E83232C88
:10229000C4FC3685BA853E86C2864687F287231FF0
:1022A000F4FC9A87231EF4FCAA87231BF4FCAE8758
:1022B000231AF4FCB2872319F4FCB6872318F4FC24
:1022C000BA87A307F4FC8357E4FD93B7070893F795
:1022D000F70F3E871306001CB567938507643A85A0
:1022E000EF00D04E8357C4FD93B7870093F7F70FE5
:1022F0003E871306101CB567938507643A85EF0087
:10230000F04C232204FE232004FE835704FDE19BAE
:102310002318F4FC231604FE95AC8357E4FD13F652
:10232000F70F8357C4FD13F7F70F8317C4FE93D637
:10233000F7419D8AB6978D87C207C18793F7F70F3C
:10234000BA9793F7F70FBE853285EFF01FB30317E7
:10235000C4FE835744FD3307F702835704FDB34798
:10236000F7022320F4FE231704FE21A40317E4FE42
:10237000835764FD3307F702835724FDB347F70201
:102380002322F4FEA30504FE035764FD832704FE05
:102390003307F702832744FEBA97032784FDBA97D1
:1023A00083C707000347F4FC6378F7008347B4FE54
:1023B00093E71700A305F4FE832704FE1387170095
:1023C000835764FD3307F702832744FEBA97032738
:1023D00084FDBA9783C707000347F4FC6378F700CE
:1023E0008347B4FE93E72700A305F4FE035764FD7B
:1023F000832704FEB307F702035764FD06073E97E1
:10240000832744FEBA97032784FDBA9783C7070042
:102410000347F4FC6378F7008347B4FE93E7470073
:10242000A305F4FE035764FD832704FEB306F702F9
:10243000035764FDBA878607BA973387F600832768
:1024400044FEBA97032784FDBA9783C70700034762
:10245000F4FC6378F7008347B4FE93E78700A30595
:10246000F4FE035764FD832704FEB307F702035706
:1024700064FD0A073E97832744FEBA97032784FD2D
:10248000BA9783C707000347F4FC6378F7008347D4
:10249000B4FE93E70701A305F4FE035764FD832709
:1024A00004FEB306F702035764FDBA878A07BA979A
:1024B0003387F600832744FEBA97032784FDBA9733
:1024C00083C707000347F4FC6378F7008347B4FE33
:1024D00093E70702A305F4FE035764FD832704FE78
:1024E000B306F702035764FDBA878607BA978607D3
:1024F0003387F600832744FEBA97032784FDBA97F3
:1025000083C707000347F4FC6378F7008347B4FEF2
:1025100093E70704A305F4FE035764FD832704FE35
:10252000B306F702035764FDBA878E07998F338786
:10253000F600832744FEBA97032784FDBA9783C722
:1025400007000347F4FC6378F7008347B4FE93E782
:1025500007F8A305F4FE8347B4FE3E85EFF03F88FD
:102560008317E4FEC207C1838507C207C18323170F
:10257000F4FE0317E4FE835724FDE349F7DE835797
:10258000C4FEA107C207C1832316F4FE0317C4FECD
:10259000835704FDE343F7D80100F25062542161F0
:1025A0008280411106C622C44AC24EC0000883A7D9
:1025B000018613D617001308F00F9307F00F1307C7
:1025C00020039306000381450945EFE00FBAC14699
:1025D0000546854513053008EFD0DFFEC1460546A8
:1025E000854513052008EFD0FFFDC146054685450A
:1025F00013054006EFD01FFD1305F00FEFF03F9FCE
:1026000083A741843E85EFF03FA5EFF07F90B5674B
:1026100093870775DC473E87C1475CCBB5679387D7
:1026200007759C4B3E87A1475CCB03A70186896752
:10263000938707F43357F70293072003B307F70292
:102640003E8981494A85CE85EFD05FC7B5679387BC
:1026500007759C4B3E87A1471CCB1305E00AEFF0A2
:10266000EFFC0145EFF08FFC4145EFF02FFC130527
:102670000004EFF0AFFB13051008EFF02FFB13057C
:10268000F007EFF0AFFA83A7418491EB1305100A2E
:10269000EFF0CFF91305800CEFF04FF909A81305FF
:1026A000000AEFF0AFF81305000CEFF02FF8130558
:1026B000600AEFF0AFF71305800AEFF02FF713056C
:1026C000F003EFF0AFF61305300DEFF02FF60145F4
:1026D000EFF0CFF51305500DEFF04FF5130500089F
:1026E000EFF0CFF41305900DEFF04FF41305100F3A
:1026F000EFF0CFF31305A00DEFF04FF34945EFF0E6
:10270000EFF21305B00DEFF06FF213050004EFF0D8
:10271000EFF113050002EFF06FF10945EFF00FF153
:102720001305D008EFF08FF05145EFF02FF01305AF
:10273000400AEFF0AFEF1305600AEFF02FEF13053B
:10274000F00AEFF0AFEEEFF09F8481450145EFF026
:10275000CFF20100B24022441249824941018280F5
:10276000411106C622C4000883C7F1843E879387BF
:10277000C184BA97BE851145EFE07FA2AA8781CBBD
:1027800083C7F184850713F7F70FA387E18403C795
:10279000F1848547631AF70003C7C1849307500A81
:1027A0006304F700A387018403C7F1848D4763178F
:1027B000F700A387018405472388E1840100B24024
:1027C000224441018280411122C600080547A388A6
:1027D000E1840100324441018280011122CE0010C7
:1027E0002326A4FE0327C4FE23AAE1840100724429
:1027F00005618280411106C622C400089385C18507
:102800000545EFE0DF9905469385C185B767002050
:10281000138507B5EF00901A0100B2402244410130
:102820008280411106C622C400089385D1850545E2
:10283000EFE0FF9605469385D185B76700201385A5
:1028400047B6EF00B0170100B24022444101828038
:10285000011106CE22CC00102326A4FE0327C4FEBD
:1028600023A0E18619280325C4FE5920EF00F03388
:102870000100F240624405618280411122C60008D5
:10288000B71702409843B71702401367170098C361
:10289000B7170240D443B71702403707FFF8758FC8
:1028A000D8C3B71702409443B71702403707F7FE63
:1028B0007D17758F98C3B71702409443B71702402E
:1028C0003707FCFF7D17758F98C3B7170240D443B5
:1028D000B7170240370781FF7D17758FD8C3B71729
:1028E000024037079F0098C70100324441018280AF
:1028F000797122D60018232EA4FC232604FE23245B
:1029000004FEB71702409443B71702404167558F42
:1029100098C3B71702409843B7070200F98F2324E2
:10292000F4FE8327C4FE85072326F4FE832784FE56
:1029300099E70327C4FE93070050E31CF7FCB71781
:1029400002409843B7070200F98F89C785472324BF
:10295000F4FE19A0232404FE032784FE8547631593
:10296000F71EB72702409843B727024013670701B5
:1029700098C3B72702409843B7270240719B98C37A
:10298000B727024094438327C4FD1387F7FFB73767
:102990006E0193870760B357F70213F77700B727E5
:1029A0000240558F98C337170240B717024058436B
:1029B000D8C337170240B71702405843D8C3371758
:1029C0000240B71702405843D8C30327C4FDB717C6
:1029D0007A0093870720631BF702B7170240D8439A
:1029E000B7170240719BD8C3B7170240D843B71737
:1029F000024013671700D8C30100B7170240DC4339
:102A000013F7C7009147E31AF7FE81A2B7170240F8
:102A1000D443B71702403707C1FF7D17758FD8C35E
:102A20000327C4FDB747950893870740631BF7004A
:102A3000B7170240D443B71702404167558FD8C338
:102A400055A80327C4FDB7172707938707E0631C22
:102A5000F700B7170240D443B717024037073900D1
:102A6000558FD8C341A80327C4FDB7E7B80593879E
:102A70000780631CF700B7170240D443B717024022
:102A800037072900558FD8C3B5A00327C4FDB7A7C2
:102A90004A0493870720631CF700B7170240D4430A
:102AA000B717024037071D00558FD8C3A1A00327D1
:102AB000C4FDB777DC02938707C0631CF700B71724
:102AC0000240D443B717024037071100558FD8C3CF
:102AD00015A00327C4FDB7376E0193870760631BFA
:102AE000F700B7170240D443B71702403707050075
:102AF000558FD8C3B71702409443B7170240370722
:102B00000001558F98C30100B71702409843B707DB
:102B10000002F98FF5DBB7170240D843B717024020
:102B2000719BD8C3B7170240D843B7170240136749
:102B30002700D8C30100B7170240DC4313F7C700D2
:102B4000A147E31AF7FE11A001A03254456182802B
:102B5000411122C600080100010032444101828077
:102B6000011106CE22CC0010232604FE232404FEED
:102B7000232604FE25A0232404FE39A0D13F832769
:102B800084FE85072324F4FE032784FEC167E367E0
:102B9000F7FE8327C4FE85072326F4FE0327C4FE21
:102BA0009307F00FE3F9E7FC0100F240624405618E
:102BB0008280011106CE22CC00102326A4FE83259C
:102BC000C4FE0945EFE04FD10100F24062440561C7
:102BD000828041712326111E2324811E2322911EEF
:102BE000801B232EA4E0232CB4E0231504FE231421
:102BF00004FE231304FE231204FE0325C4E1EF7038
:102C00009067AA87C207C1872313F4FEB767002025
:102C100083D787B799C7B7670020938787B79C4B3F
:102C2000829783C7418693F7F70F638A0730B767A8
:102C3000002083D787B76387072CB7670020938767
:102C400087B7D847B5671386C7688145014502979E
:102C50008327C4E12326F4FE0325C4E1EF70B061AD
:102C6000AA87C207C1872313F4FEB76700209387A2
:102C700087B783D727003E87B7670020938787B73A
:102C800083C76700B347F702C207C1872312F4FE68
:102C900001008327C4FE138717002326E4FE8387E1
:102CA0000700E5FB231404FEA1A88327C4FEFD173B
:102CB0002326F4FE8327C4FE038707009307F00250
:102CC000630AF7008327C4FE038707009307C00544
:102CD000631BF700835784FEC207C1838507C207C1
:102CE000C1832314F4FE835764FEC207C187C20761
:102CF000C183FD17C207C183C207C1872313F4FE36
:102D0000835784FE139707014183854763E8E700F3
:102D1000835764FEC207C187E3D907F8835764FE6F
:102D2000C207C18763C207028327C4FE8507232623
:102D3000F4FE130744EE0326C4FEB5679385C76906
:102D40003A85EF70F04E1DA8835784FEC207C183F9
:102D500081EF130744EE0326C4FEB5679385876AA7
:102D60003A85EF70F04C19A8130744EE0326C4FE11
:102D7000B5679385C7693A85EF70904B231504FEBC
:102D800021A2231404FE59A0930744EE3E85EF7060
:102D9000904E2A87835784FEC207C183BE8683571D
:102DA000A4FEC207C1833E86835744FEC207C18783
:102DB000B307F602B6976367F706835784FEC20728
:102DC000C1833E878357A4FEC207C183BE86835753
:102DD00044FEC207C187B387F602BA97035784FE41
:102DE00042074183BA86130704FFBA97038747EF68
:102DF000930704FFB697238AE7EA835784FEC20746
:102E0000C1838507C207C1832314F4FE835784FE60
:102E1000C207C1833E87835744FEC207C187E3458B
:102E2000F7F611A00100835784FEC207C183130780
:102E300004FFBA97238A07EAB7670020938787B70A
:102E4000D447B7670020938787B783C77700139766
:102E5000070141838357A4FEC207C1838507C207C8
:102E6000C183B307F702C207C183130744EA3A8656
:102E7000BE85014582968357A4FEC207C18385079C
:102E8000C207C1832315F4FE8357A4FEC207C18382
:102E9000BE84930744EE3E85EF70F03D2A8783574A
:102EA00044FEC207C187B357F7028507E3EBF4EC92
:102EB000130744EE032684E1B5679385876B3A8553
:102EC000EF701037B7670020938787B7D447B7678D
:102ED0000020938787B783C7770013970701418343
:102EE0008357A4FEC207C1838507C207C183B30706
:102EF000F702C207C183130744EE3A86BE85014537
:102F0000829635A8930744E21306000881453E8562
:102F1000EFD04FB0130744E2832684E10326C4E1D7
:102F2000B5679385476C3A85EF709030B76700209E
:102F3000938787B79847930744E23E85029701003D
:102F40008320C11E0324811E8324411E7D61828053
:102F5000797106D622D40018232EA4FC232CB4FCAD
:102F6000232AC4FC232604FEA9A00100B567938789
:102F700007779C47930500043E85EF204023AA87EE
:102F8000F5D7B567938707779C47BE86832784FD6F
:102F900013871700232CE4FC83870700C207C18333
:102FA000BE853685EF20C01D8327C4FE85072326F6
:102FB000F4FE0327C4FE832744FDE348F7FA832782
:102FC00044FD3E85B250225445618280011106CEF7
:102FD00022CC0010AA872324B4FE2322C4FEA30718
:102FE000F4FE8347F4FE8DEFB707002083C7072761
:102FF00093F7F70F95C783C7518691C301A083C785
:103000005186850713F7F70FA382E186E92E832502
:1030100044FE032584FEEFF0DFBBEFF07FB4C5BFB5
:103020000100F240624405618280011122CE00104D
:103030002326A4FE8327C4FE239007008327C4FE13
:103040007D572391E7008327C4FE7D572392E70035
:103050008327C4FE7D572383E7008327C4FE7D5763
:10306000A383E7008327C4FE23A407008327C4FEAD
:1030700023A607008327C4FE23A80700010072448B
:1030800005618280011122CE00102326A4FE832731
:10309000C4FE03D70700B7670020239CE7B6832749
:1030A000C4FE03D72700B7670020938787B7239113
:1030B000E7008327C4FE03D74700B7670020938744
:1030C00087B72392E7008327C4FE03C76700B7676B
:1030D0000020938787B72383E7008327C4FE03C7B5
:1030E0007700B7670020938787B7A383E70083271C
:1030F000C4FE9847B7670020938787B798C7832790
:10310000C4FED847B7670020938787B7D8C78327FF
:10311000C4FE984BB7670020938787B798CB0547C5
:103120002382E1860100724405618280797106D6AE
:1031300022D400189307C4FD3E85C53DB737000073
:10314000938727BB2322F4FE9307C4FD3E851D3FD2
:103150009306100213060002F167938507200945C4
:10316000EFE0CF890100B250225445618280011105
:1031700022CE00102326A4FE2324B4FE8327C4FEFF
:10318000D843832784FE3E978327C4FED8C319A85B
:103190008327C4FED8438327C4FE9C4B1D8F8327FF
:1031A000C4FED8C38327C4FE984B8327C4FEDC43E8
:1031B000E3F0E7FE0100724405618280797106D672
:1031C00022D40018232EA4FC232CB4FC232AC4FCF4
:1031D0008327C4FDDC47032744FD637BF70C2124D0
:1031E0008327C4FD984B8327C4FDDC43B307F74016
:1031F0002326F4FE032744FD8327C4FE63FBE70672
:103200008327C4FD98438327C4FDDC43BA97032674
:10321000C4FE832584FD3E85EF60B0528325C4FE45
:103220000325C4FDA937032784FD8327C4FEBA976D
:10323000232CF4FC8327C4FD98438327C4FDDC437F
:10324000B306F700032744FD8327C4FEB307F74006
:103250003E86832584FD3685EF60B04E032744FD0E
:103260008327C4FEB307F740BE850325C4FD01379D
:1032700025A08327C4FD98438327C4FDDC43BA9768
:10328000032644FD832584FD3E85EF60904B832516
:1032900044FD0325C4FDE13D8327C4FDD8478327B2
:1032A00044FD1D8F8327C4FDD8C73922814711A053
:1032B00089473E85B250225445618280011122CE59
:1032C00000102326A4FE8327C4FEFD8B0547B316FA
:1032D000F70037E700E08327C4FE95839387070450
:1032E0008A07BA9794C30100724405618280011174
:1032F00022CE00102326A4FE8327C4FEFD8B0547A3
:10330000B316F70037E700E08327C4FE9583938761
:1033100007068A07BA9794C3010072440561828048
:10332000011122CE00102326A4FEAE87A305F4FED1
:1033300037E700E08327C4FEBA970347B4FE238033
:10334000E7400100724405618280011106CE22CC63
:1033500000102326A4FE0325C4FE8D370100F24091
:10336000624405618280011106CE22CC0010232622
:10337000A4FE0325C4FEA53F0100F240624405619E
:103380008280011106CE22CC00102326A4FEAE8737
:10339000A305F4FE8347B4FEBE850325C4FE49376A
:1033A0000100F240624405618280411122C600089A
:1033B0000100324441018280411106C622C4000846
:1033C00083A7818699C783A781861387F7FF23A4E4
:1033D000E18683A7818699E3EFC0FFE20100B24056
:1033E000224441018280411106C622C4000883A7FD
:1033F000818699E3EFC0DFE083A7818613871700FA
:1034000023A4E1860100B2402244410182801D7163
:10341000A2CE82E686E48AE28EE012FE16FC1AFA5A
:103420001EF82AF62EF432F236F03AEE3EEC42EA7C
:1034300046E872E676E47AE27EE080109305505228
:10344000B747014013850780EF10D05AAA8789CB70
:1034500093055052B747014013850780EF10B069BC
:10346000010076443660A660166186617272E2726F
:103470005273C2733275A275127682767267E267F2
:103480005268C268326EA26E126F826F256173003D
:1034900020301D71A2CE82E686E48AE28EE012FE22
:1034A00016FC1AFA1EF82AF62EF432F236F03AEE2C
:1034B0003EEC42EA46E872E676E47AE27EE080108C
:1034C00093055052B747004013850740EF109052C4
:1034D000AA87A1C303A7818585476315F700EFF08D
:1034E0004FB405A003A7818589476315F700EFE076
:1034F0006F8001A803A781858D476314F700EFF063
:103500006FAF93055052B747004013850740EF1047
:10351000905E010076443660A66016618661727224
:10352000E2725273C2733275A27512768276726736
:10353000E2675268C268326EA26E126F826F2561B6
:10354000730020301D71A2CE82E686E48AE28EE00E
:1035500012FE16FC1AFA1EF82AF62EF432F236F093
:103560003AEE3EEC42EA46E872E676E47AE27EE043
:10357000801093055052B757004013850780EF1015
:103580007047AA8789CB93055052B75700401385DF
:103590000780EF105056010076443660A660166131
:1035A00086617272E2725273C2733275A2751276BC
:1035B00082767267E2675268C268326EA26E126FDC
:1035C000826F2561730020301D71A2CE82E686E4F1
:1035D0008AE28EE012FE16FC1AFA1EF82AF62EF483
:1035E00032F236F03AEE3EEC42EA46E872E676E433
:1035F0007AE27EE0801093055052B7570040138561
:1036000007C0EF10303FAA8789CB93055052B757B8
:103610000040138507C0EF10104E0100764436605D
:10362000A660166186617272E2725273C27332755D
:10363000A275127682767267E2675268C268326E4D
:10364000A26E126F826F2561730020301D71A2CEB1
:1036500082E686E48AE28EE012FE16FC1AFA1EF872
:103660002AF62EF432F236F03AEE3EEC42EA46E822
:1036700072E676E47AE27EE0801093055052375588
:103680000040EF103037AA8789CBEFD03FE9930590
:10369000505237550040EF10104601007644366016
:1036A000A660166186617272E2725273C2733275DD
:1036B000A275127682767267E2675268C268326ECD
:1036C000A26E126F826F2561730020301D71A2CE31
:1036D00082E686E48AE28EE012FE16FC1AFA1EF8F2
:1036E0002AF62EF432F236F03AEE3EEC42EA46E8A2
:1036F00072E676E47AE27EE0801093055052B727B6
:10370000004013850780EF10F02EAA8789CB930520
:103710005052B727004013850780EF10D03D0100BD
:1037200076443660A660166186617272E2725273E8
:10373000C2733275A275127682767267E26752683A
:10374000C268326EA26E126F826F256173002030E4
:103750001D71A2CE82E686E48AE28EE012FE16FC9D
:103760001AFA1EF82AF62EF432F236F03AEE3EEC51
:1037700042EA46E872E676E47AE27EE0801093055B
:103780005052B7270040138507C0EF10B026AA8714
:103790008DC703A7818585476309F70003A7818546
:1037A00089476314F700EFD07FD293055052B727B3
:1037B0000040138507C0EF101034010076443660D6
:1037C000A660166186617272E2725273C2733275BC
:1037D000A275127682767267E2675268C268326EAC
:1037E000A26E126F826F2561730020301D71A2CE10
:1037F00082E686E48AE28EE012FE16FC1AFA1EF8D1
:103800002AF62EF432F236F03AEE3EEC42EA46E880
:1038100072E676E47AE27EE0801093055052372516
:103820000040EF10301DAA8799C7930550523725E5
:103830000040EF10502C010076443660A6601661FF
:1038400086617272E2725273C2733275A275127619
:1038500082767267E2675268C268326EA26E126F39
:10386000826F2561730020301D71A2CE82E686E44E
:103870008AE28EE012FE16FC1AFA1EF82AF62EF4E0
:1038800032F236F03AEE3EEC42EA46E872E676E490
:103890007AE27EE08010B707055083C7070193F7EF
:1038A000F70F918B85C3EFD0FFCAB707055083C7C9
:1038B000070113F7F70FB70705506D9B1377F70F45
:1038C0002388E700010076443660A66016618661B1
:1038D0007272E2725273C2733275A2751276827678
:1038E0007267E2675268C268326EA26E126F826FB0
:1038F0002561730020301D71A2CE82E686E48AE243
:103900008EE012FE16FC1AFA1EF82AF62EF432F297
:1039100036F03AEE3EEC42EA46E872E676E47AE2C7
:103920007EE080100545EF0010262A878547631545
:10393000F7000545EF00902A010076443660A66046
:10394000166186617272E2725273C2733275A27529
:10395000127682767267E2675268C268326EA26E31
:10396000126F826F2561730020301D71A2CE82E636
:1039700086E48AE28EE012FE16FC1AFA1EF82AF697
:103980002EF432F236F03AEE3EEC42EA46E872E6C7
:1039900076E47AE27EE080100945EF00D01E2A87A7
:1039A00085476315F7000945EF0050230100764471
:1039B0003660A660166186617272E2725273C273DB
:1039C0003275A275127682767267E2675268C268B3
:1039D000326EA26E126F826F2561730020301D71EE
:1039E000A2CE82E686E48AE28EE012FE16FC1AFA85
:1039F0001EF82AF62EF432F236F03AEE3EEC42EAA7
:103A000046E872E676E47AE27EE080101145EF0047
:103A100090172A8785476315F7001145EF00101CA2
:103A2000010076443660A660166186617272E272A9
:103A30005273C2733275A275127682767267E2672C
:103A40005268C268326EA26E126F826F2561730077
:103A500020301D71A2CE82E686E48AE28EE012FE5C
:103A600016FC1AFA1EF82AF62EF432F236F03AEE66
:103A70003EEC42EA46E872E676E47AE27EE08010C6
:103A80002145EF0050102A8785476315F70021452F
:103A9000EF00D014010076443660A660166186619E
:103AA0007272E2725273C2733275A27512768276A6
:103AB0007267E2675268C268326EA26E126F826FDE
:103AC0002561730020301D71A2CE82E686E48AE271
:103AD0008EE012FE16FC1AFA1EF82AF62EF432F2C6
:103AE00036F03AEE3EEC42EA46E872E676E47AE2F6
:103AF0007EE080104145EF0010092A878547631555
:103B0000F7004145EF00900D010076443660A66055
:103B1000166186617272E2725273C2733275A27557
:103B2000127682767267E2675268C268326EA26E5F
:103B3000126F826F2561730020301D71A2CE82E664
:103B400086E48AE28EE012FE16FC1AFA1EF82AF6C5
:103B50002EF432F236F03AEE3EEC42EA46E872E6F5
:103B600076E47AE27EE0801013050002EF00B001F7
:103B70002A8785476316F70013050002EF00100639
:103B800013050004EF0030002A8785476316F7000D
:103B900013050004EF00900413050008EF00A07E59
:103BA0002A8785476316F70013050008EF00100306
:103BB00013050010EF00207D2A8785476316F70064
:103BC00013050010EF00900113050020EF00A07B0B
:103BD0002A8785476316F70013050020EF001000C1
:103BE000010076443660A660166186617272E272E8
:103BF0005273C2733275A275127682767267E2676B
:103C00005268C268326EA26E126F826F25617300B5
:103C100020301D71A2CE82E686E48AE28EE012FE9A
:103C200016FC1AFA1EF82AF62EF432F236F03AEEA4
:103C30003EEC42EA46E872E676E47AE27EE0801004
:103C40001305004089272A8785476316F700130567
:103C50000040EF00A0788567138507802D272A870D
:103C600085476317F700856713850780EF000077A6
:103C70000565112F2A8785476315F7000565EF0055
:103C8000E075096509272A8785476315F7000965E7
:103C9000EF00C0741165C52D2A8785476314F700AE
:103CA00011652D2F2165C5252A8785476314F700E7
:103CB00021652D27010076443660A6601661866175
:103CC0007272E2725273C2733275A2751276827684
:103CD0007267E2675268C268326EA26E126F826FBC
:103CE0002561730020301D71A2CE82E686E48AE24F
:103CF0008EE012FE16FC1AFA1EF82AF62EF432F2A4
:103D000036F03AEE3EEC42EA46E872E676E47AE2D3
:103D10007EE080108545B7370140138507C0EF105E
:103D2000C006AA8781CB8545B7370140138507C0F8
:103D3000EF10A00C010076443660A6601661866123
:103D40007272E2725273C2733275A2751276827603
:103D50007267E2675268C268326EA26E126F826F3B
:103D60002561730020301D71A2CE82E686E48AE2CE
:103D70008EE012FE16FC1AFA1EF82AF62EF432F223
:103D800036F03AEE3EEC42EA46E872E676E47AE253
:103D90007EE08010854537050040EF00107FAA8740
:103DA00091CB854537050040EF102005130520080D
:103DB000EFC0EFFA010076443660A66016618661B6
:103DC0007272E2725273C2733275A2751276827683
:103DD0007267E2675268C268326EA26E126F826FBB
:103DE0002561730020301D71A2CE82E686E48AE24E
:103DF0008EE012FE16FC1AFA1EF82AF62EF432F2A3
:103E000036F03AEE3EEC42EA46E872E676E47AE2D2
:103E10007EE080108545B707004013850740EF001E
:103E2000D076AA8781CB8545B70700401385074028
:103E3000EF00B07C010076443660A66016618661B2
:103E40007272E2725273C2733275A2751276827602
:103E50007267E2675268C268326EA26E126F826F3A
:103E60002561730020301D71A2CE82E686E48AE2CD
:103E70008EE012FE16FC1AFA1EF82AF62EF432F222
:103E800036F03AEE3EEC42EA46E872E676E47AE252
:103E90007EE080108545B717004013850780EF004E
:103EA000D06EAA8781CB8545B71700401385078060
:103EB000EF00B074010076443660A660166186613A
:103EC0007272E2725273C2733275A2751276827682
:103ED0007267E2675268C268326EA26E126F826FBA
:103EE0002561730020301D71A2CE82E686E48AE24D
:103EF0008EE012FE16FC1AFA1EF82AF62EF432F2A2
:103F000036F03AEE3EEC42EA46E872E676E47AE2D1
:103F10007EE080108545B7170040138507C0EF008D
:103F2000D066AA8781CB8545B7170040138507C0A7
:103F3000EF00B06C010076443660A66016618661C1
:103F40007272E2725273C2733275A2751276827601
:103F50007267E2675268C268326EA26E126F826F39
:103F60002561730020301D71A2CE82E686E48AE2CC
:103F70008EE012FE16FC1AFA1EF82AF62EF432F221
:103F800036F03AEE3EEC42EA46E872E676E47AE251
:103F90007EE08010854537150040EF00105FAA874E
:103FA00091C7854537150040EF0030650100764424
:103FB0003660A660166186617272E2725273C273D5
:103FC0003275A275127682767267E2675268C268AD
:103FD000326EA26E126F826F2561730020301D71E8
:103FE000A2CE82E686E48AE28EE012FE16FC1AFA7F
:103FF0001EF82AF62EF432F236F03AEE3EEC42EAA1
:1040000046E872E676E47AE27EE080108545B717EE
:10401000004013850740EF005057AA8781CB8545A4
:10402000B717004013850740EF00305D010076446C
:104030003660A660166186617272E2725273C27354
:104040003275A275127682767267E2675268C2682C
:10405000326EA26E126F826F2561730020301D7167
:10406000A2CE82E686E48AE28EE012FE16FC1AFAFE
:104070001EF82AF62EF432F236F03AEE3EEC42EA20
:1040800046E872E676E47AE27EE080108545B7374E
:10409000014013850740EF00504FAA8781CB85452B
:1040A000B737014013850740EF00305501007644D3
:1040B0003660A660166186617272E2725273C273D4
:1040C0003275A275127682767267E2675268C268AC
:1040D000326EA26E126F826F2561730020301D71E7
:1040E000A2CE82E686E48AE28EE012FE16FC1AFA7E
:1040F0001EF82AF62EF432F236F03AEE3EEC42EAA0
:1041000046E872E676E47AE27EE080108545B757AD
:104110000140138507C0EF005047AA8781CB854532
:10412000B7570140138507C0EF00304D01007644BA
:104130003660A660166186617272E2725273C27353
:104140003275A275127682767267E2675268C2682B
:10415000326EA26E126F826F2561730020301D7166
:10416000A2CE82E686E48AE28EE012FE16FC1AFAFD
:104170001EF82AF62EF432F236F03AEE3EEC42EA1F
:1041800046E872E676E47AE27EE0801085453755AF
:104190000140EF00903FAA8791C785453755014000
:1041A000EF00B045010076443660A6601661866176
:1041B0007272E2725273C2733275A275127682768F
:1041C0007267E2675268C268326EA26E126F826FC7
:1041D000256173002030411122C6000801003244DD
:1041E000410173002030411122C6000801A0411195
:1041F00006C622C40008EFF00F9FB7479508138545
:104200000740EFE0EFE4EFE07FF2EFE08FB9EFD0AF
:104210005FADEFF06F9A83C7818393F7F70FE5DF08
:10422000238C0182CDBF01A001A001A001A001A0AB
:1042300001A001A001A001A001A001A001A001A076
:1042400001A001A001A001A001A001A001A001A066
:1042500001A001A001A001A001A001A001A001A056
:1042600001A001A001A001A001A001A001A001A046
:1042700001A001A001A001A001A001A001A001A036
:1042800001A001A001A001A001A001A001A001A026
:1042900001A001A001A001A001A001A001A001A016
:1042A00001A001A001A001A001A001A001A001A006
:1042B00001A001A001A001A001A001A001A001A0F6
:1042C00001A001A001A001A001A001A001A001A0E6
:1042D00001A001A001A001A001A001A001A001A0D6
:1042E00001A001A097C1FF1F9381C17817C10020D1
:1042F000130141D117A500001305854097C5FF1F85
:10430000938545D01386018363FAC5008322050097
:1043100023A0550011059105E3EAC5FE138501832D
:1043200097250020938505876377B5002320050036
:104330001105E36DB5FEFD42739002BCFD42739022
:104340004280B78200009382828873A0023097C2B5
:10435000FFFF9382A2CE93E232007390523037F582
:10436000FF1F930500302318B51A37290240032593
:10437000C90005897DF997020000938282E7739056
:10438000123473002030797122D60018232EA4FC39
:10439000232604FE232404FEB70701409387074029
:1043A0009C430327C4FDF98F2324F4FEB707014083
:1043B00093870740D84B8327C4FDF98F81CB832790
:1043C00084FE89C785472326F4FE19A0232604FE10
:1043D0008327C4FE3E85325445618280011122CE7E
:1043E00000102326A4FEB707014093870740032748
:1043F000C4FED8CB0100724405618280397122DE8F
:1044000080002326A4FC2324B4FC232604FE2320BE
:1044100004FE232404FE232E04FC232204FE232C6A
:1044200004FC832784FC9C47BD8B2326F4FE832752
:1044300084FC9C47C18B89CB832784FCDC43032706
:10444000C4FED98F2326F4FE832784FC83D707007C
:1044500093F7F70FF1CF8327C4FC9C432322F4FE8C
:10446000232404FE65A8832784FE0547B317F700BD
:10447000232EF4FC832784FC83D707003E87832701
:10448000C4FDF98F2320F4FE032704FE8327C4FD17
:104490006311F708832784FE8A07232EF4FC832701
:1044A000C4FD3D47B317F700232CF4FC832784FD9C
:1044B00093C7F7FF032744FEF98F2322F4FE8327D7
:1044C000C4FD0327C4FEB317F700032744FED98FAA
:1044D0002322F4FE832784FC984793078002631B02
:1044E000F700832784FE05473317F7008327C4FCB2
:1044F000D8CB05A0832784FC984793078004631AD0
:10450000F700832784FE05473317F7008327C4FC91
:1045100098CB832784FE85072324F4FE032784FE9B
:104520009D47E3F2E7F48327C4FC032744FE98C3C6
:10453000832784FC03D707009307F00F63F1E70E8E
:104540008327C4FCDC432322F4FE232404FE75A845
:10455000832784FEA1070547B317F700232EF4FC39
:10456000832784FC83D707003E878327C4FDF98F08
:104570002320F4FE032704FE8327C4FD6312F708FB
:10458000832784FE8A07232EF4FC8327C4FD3D473E
:10459000B317F700232CF4FC832784FD93C7F7FFA0
:1045A000032744FEF98F2322F4FE8327C4FD03274B
:1045B000C4FEB317F700032744FED98F2322F4FE6D
:1045C000832784FC984793078002631BF7008327A7
:1045D00084FEA10705473317F7008327C4FCD8CB17
:1045E000832784FC984793078004631BF700832785
:1045F00084FEA10705473317F7008327C4FC98CB37
:10460000832784FE85072324F4FE032784FE9D4729
:10461000E3F0E7F48327C4FC032744FED8C301007A
:10462000725421618280011122CE00102326A4FE43
:10463000AE872322C4FE2315F4FE832744FE99C7C8
:104640000357A4FE8327C4FE98CB31A00357A4FED2
:104650008327C4FED8CB0100724405618280797142
:1046600022D60018232EA4FC232CB4FC232404FE01
:10467000232204FE232604FE232004FE8327C4FDF8
:1046800063D80700B7070140DC4F2326F4FE31A0B2
:10469000B7070140DC432326F4FE8327C4FDC18312
:1046A000BD8B2320F4FE0327C4FDC167FD17F98FDE
:1046B0002324F4FE0327C4FDB70730007D8FB7071E
:1046C00030006315F7020327C4FEB70700F1FD179A
:1046D000F98F2326F4FEB7070140D443B707014002
:1046E000370700F17D17758FD8C3ADA00327C4FD30
:1046F000B7071000F98F8DCB832704FE0D47B31742
:10470000F7002322F4FE832744FE93C7F7FF032715
:10471000C4FEF98F2326F4FE0327C4FEB707000F5B
:10472000D98F2326F4FE3DA08327C4FDD5839207AD
:10473000032784FEB317F70093C7F7FF0327C4FED0
:10474000F98F2326F4FE0327C4FEB707000FD98F85
:104750002326F4FE832784FD91CF8327C4FDD583D0
:104760009207032784FEB317F7000327C4FED98FEF
:104770002326F4FE8327C4FD63D80700B707014052
:104780000327C4FED8CF31A0B70701400327C4FEDA
:10479000D8C30100325445618280397122DE800025
:1047A0002326A4FC232204FE232604FE232004FE49
:1047B000232E04FC232404FEB7170240DC43B18BF4
:1047C0002322F4FE032744FE91476303F7020327E5
:1047D00044FEA1476306F702832744FE639907144A
:1047E0008327C4FC37177A001307072098C389AAC8
:1047F0008327C4FC37177A001307072098C389A2C0
:10480000B7170240D843B7073C00F98F2326F4FEC0
:10481000B7170240D843C167F98F2320F4FE8327DE
:10482000C4FEC98389072326F4FEB7F7FF1F9387C9
:10483000C77098439167F98F91EB0327C4FEC54772
:104840006319F704C9472326F4FEA1A00327C4FE79
:1048500089476315F700C9472326F4FE0327C4FEE2
:10486000BD476318F700B5472326F4FE8547232488
:10487000F4FE0327C4FEC1476315F700BD47232696
:10488000F4FE0327C4FEC5476315F700C14723267E
:10489000F4FE832704FEA1E3B74702409387078015
:1048A0009C43C18B89CF0327C4FEB7177A00938737
:1048B00007203307F7028327C4FC98C399A803276E
:1048C000C4FEB7173D00938707903307F70283278D
:1048D000C4FC98C33DA8B7170240D843B7070200ED
:1048E000F98F89CF0327C4FEB7173D009387079040
:1048F0003307F7028327C4FC98C321A80327C4FE0B
:10490000B7177A00938707203307F7028327C4FC81
:1049100098C3032784FE85476313F7028327C4FCEB
:104920009C4313D717008327C4FC98C309A8832787
:10493000C4FC37177A001307072098C311A00100A1
:10494000B7170240DC4393F7070F2322F4FE8327B7
:1049500044FE91832322F4FEB70700201387C70487
:10496000832744FEBA9783C7070093F7F70F232ED8
:10497000F4FC8327C4FC98438327C4FD3357F70016
:104980008327C4FCD8C3B7170240DC4393F70770F2
:104990002322F4FE832744FEA1832322F4FEB707DB
:1049A00000201387C704832744FEBA9783C70700F4
:1049B00093F7F70F232EF4FC8327C4FCD8438327F7
:1049C000C4FD3357F7008327C4FC98C7B7170240CC
:1049D000D843916793870780F98F2322F4FE8327BA
:1049E00044FEAD832322F4FEB70700201387C704DB
:1049F000832744FEBA9783C7070093F7F70F232E48
:104A0000F4FC8327C4FCD8438327C4FD3357F70045
:104A10008327C4FCD8C7B7170240D843B167F98FC2
:104A20002322F4FE832744FEB9832322F4FEB70732
:104A3000002013874727832744FEBA9783C70700C0
:104A400093F7F70F232EF4FC8327C4FCD847832762
:104A5000C4FD3357F7028327C4FC98CB010072547E
:104A600021618280011122CE00102326A4FE23247E
:104A7000B4FE832784FE99CBB7170240D44BB717F7
:104A800002400327C4FE558FD8CB21A8B717024098
:104A9000D44B8327C4FE13C7F7FFB7170240758FA7
:104AA000D8CB0100724405618280011122CE001032
:104AB0002326A4FE2324B4FE832784FE99CBB717B4
:104AC0000240944FB71702400327C4FE558F98CF7A
:104AD00021A8B7170240944F8327C4FE13C7F7FFDE
:104AE000B7170240758F98CF01007244056182802C
:104AF000011122CE00102326A4FE2324B4FE832716
:104B000084FE99CBB7170240D44FB7170240032752
:104B1000C4FE558FD8CF21A8B7170240D44F8327A2
:104B2000C4FE13C7F7FFB7170240758FD8CF010037
:104B3000724405618280011122CE00102326A4FE5A
:104B40002324B4FE832784FE99CBB7170240D447B1
:104B5000B71702400327C4FE558FD8C721A8B7173F
:104B60000240D4478327C4FE13C7F7FFB71702409C
:104B7000758FD8C70100724405618280011122CE71
:104B800000102326A4FE2324B4FE832784FE99CBA1
:104B9000B7170240944BB71702400327C4FE558F46
:104BA00098CB21A8B7170240944B8327C4FE13C7A4
:104BB000F7FFB7170240758F98CB0100724405616B
:104BC0008280011106CE22CC00102326A4FE0327EA
:104BD000C4FEB7370140631BF70085450565EFF05C
:104BE0009FF581450565EFF01FF591A00327C4FEF1
:104BF000B747004093870780631BF7008545116521
:104C0000EFF0DFF781451165EFF05FF70DA00327A7
:104C1000C4FEB7470040938707C0631AF700854575
:104C20002165EFF0BFF581452165EFF03FF501000B
:104C3000F240624405618280797122D60018232EE9
:104C4000A4FC232CB4FC231704FE8327C4FD83D7C4
:104C500007002317F4FE0357E4FE8D6793870704CC
:104C6000F98F2317F4FE832784FD03D707008327DA
:104C700084FD83D72700D98F1397070141838327AA
:104C800084FD83D74700D98F13970701418383277A
:104C900084FD83D76700D98F13970701418383274A
:104CA00084FD83D78700D98F13970701418383271A
:104CB00084FD83D7A700D98F1397070141838327EA
:104CC00084FD83D7C700D98F1397070141838327BA
:104CD00084FD83D7E700D98F13970701418383575A
:104CE000E4FED98F2317F4FE8327C4FD0357E4FEA7
:104CF0002390E7008327C4FD83D7C70113970701DB
:104D00004183FD779387F77FF98F139707014183DD
:104D10008327C4FD239EE700832784FD03D7070173
:104D20008327C4FD2398E700010032544561828047
:104D3000011122CE00102326A4FE2324B4FE8327D3
:104D400084FE8DC38327C4FE83D70700C207C183B7
:104D500093E707041397070141838327C4FE239039
:104D6000E70005A08327C4FE83D70700C207C183DD
:104D700093F7F7FB1397070141838327C4FE239022
:104D8000E7000100724405618280797122D6001823
:104D9000232EA4FCAE87231DF4FC232604FE23153A
:104DA00004FE231404FE8327C4FD83D70701139751
:104DB000070141838357A4FDF98F2315F4FE832750
:104DC000C4FD83D7C7001397070141838357A4FD10
:104DD000F98F2314F4FE8357A4FE81CB835784FEFE
:104DE00089C785472326F4FE19A0232604FE8327BE
:104DF000C4FE3E85325445618280011122CE0010EE
:104E00002326A4FEAE872315F4FE8357A4FE93C782
:104E1000F7FF1397070141838327C4FE2398E70018
:104E200001007244056182805D7186C6A2C480085B
:104E3000232EA4FA232CB4FA232604FE232404FEF2
:104E4000232204FE232004FE232E04FC8327C4FB1C
:104E5000232EF4FC8327C4FB83D70701C207C18339
:104E60002326F4FE0327C4FEB567FD17F98F23261A
:104E7000F4FE832784FB83D767003E878327C4FE25
:104E8000D98F2326F4FE8327C4FE1397070141839D
:104E90008327C4FB2398E7008327C4FB83D7C7007D
:104EA000C207C1832326F4FE0327C4FEBD67938790
:104EB000379FF98F2326F4FE832784FB03D747000F
:104EC000832784FB83D78700D98F139707014183FA
:104ED000832784FB83D7A700D98FC207C1833E876E
:104EE0008327C4FED98F2326F4FE8327C4FE13979D
:104EF000070141838327C4FB2396E7008327C4FB74
:104F000083D74701C207C1832326F4FE0327C4FECB
:104F1000C1679387F7CFF98F2326F4FE832784FB9D
:104F200083D7C7003E878327C4FED98F2326F4FE8C
:104F30008327C4FE1397070141838327C4FB239A69
:104F4000E700930784FC3E85EFF03F850327C4FD0F
:104F5000B7470140938707806317F700832744FD15
:104F60002324F4FE29A0832704FD2324F4FE8327B1
:104F7000C4FB83D7C700C207C183C207C18763D2FE
:104F80000702032784FEBA878607BA978E073E97E3
:104F9000832784FB9C438607B357F7022322F4FE42
:104FA00005A0032784FEBA878607BA978E073E9727
:104FB000832784FB9C438A07B357F7022322F4FE1E
:104FC000032744FE93074006B357F70292072326B0
:104FD000F4FE8327C4FE13D7470093074006B307A8
:104FE000F702032744FEB307F7402320F4FE83278C
:104FF000C4FB83D7C700C207C183C207C18763D27E
:105000000702832704FE8E071387270393074006B2
:10501000B357F7029D8B0327C4FED98F2326F4FED6
:1050200005A0832704FE92071387270393074006F2
:10503000B357F702BD8B0327C4FED98F2326F4FE96
:105040008327C4FE1397070141838327C4FB23945E
:10505000E7000100B640264461618280011122CE42
:1050600000102326A4FE2324B4FE832784FE95C3C8
:105070008327C4FE83D7C70013970701418389673D
:10508000D98F1397070141838327C4FE2396E70036
:1050900015A08327C4FE83D7C70013970701418358
:1050A000F977FD17F98F1397070141838327C4FE12
:1050B0002396E7000100724405618280797122D64F
:1050C0000018232EA4FCAE87232AC4FC231DF4FC65
:1050D000232404FE232204FE232004FE232604FEB0
:1050E0008327C4FD2326F4FE8357A4FD93F7F70F0F
:1050F000958393F7F70F2324F4FE8357A4FDFD8BCC
:105100002322F4FE832744FE0547B317F70023202C
:10511000F4FE032784FE85476318F7008327C4FE47
:10512000B1072326F4FE0DA0032784FE89476318E8
:10513000F7008327C4FEC1072326F4FE31A083278E
:10514000C4FED1072326F4FE832744FD99CB832791
:10515000C4FE94438327C4FE032704FE558F98C3DF
:1051600021A88327C4FE9443832704FE13C7F7FFB7
:105170008327C4FE758F98C3010032544561828035
:10518000011122CE00102326A4FEAE872315F4FEC3
:105190008357A4FE93F7F71F1397070141838327D3
:1051A000C4FE2392E7000100724405618280797198
:1051B00022D60018232EA4FCAE87231DF4FC232640
:1051C00004FE8327C4FD83D707001397070141839B
:1051D0008357A4FDF98FC207C18389C7854723265A
:1051E000F4FE19A0232604FE8327C4FE3E85325414
:1051F00045618280797122D60018232EA4FCAE87E7
:10520000231DF4FC232204FE232604FE232004FE97
:10521000232404FE8357A4FD93F7F70F958393F798
:10522000F70F2320F4FE8357A4FDFD8B2326F4FE05
:105230008327C4FE0547B317F7002326F4FE032790
:1052400004FE8547631FF7008327C4FD83D7C7008B
:10525000C207C1833E878327C4FEF98F2326F4FE4D
:105260003DA8032704FE8947631FF7008327C4FD79
:1052700083D70701C207C1833E878327C4FEF98F06
:105280002326F4FE29A88327C4FD83D74701C2073C
:10529000C1833E878327C4FEF98F2326F4FE8357FC
:1052A000A4FDA183C207C1832322F4FE832744FE09
:1052B0000547B317F7002322F4FE8327C4FD83D7E5
:1052C0000700C207C1833E87832744FEF98F23224C
:1052D000F4FE8327C4FE81CB832744FE89C785471C
:1052E0002324F4FE19A0232404FE832784FE3E8594
:1052F000325445618280797122D60018232EA4FC95
:10530000AE87231DF4FC231704FE231604FE8357E7
:10531000A4FDA1832317F4FE8357E4FE0547B317CA
:10532000F7002316F4FE8357C4FE93C7F7FF1397C5
:10533000070141838327C4FD2390E7000100325415
:1053400045618280011122CE0010AA87A307F4FED6
:10535000B70700500347F4FE42074183239AE70250
:10536000B707005083C7670313F7F70FB70700505D
:10537000719B1377F70F238BE702010072440561DD
:105380008280011122CE0010AA87A307F4FEB7077E
:1053900000500347F4FE42074183239CE702B7070E
:1053A000005083C7A70313F7F70FB7070050719B8F
:1053B0001377F70F238DE7020100724405618280A5
:1053C000797106D622D40018AA87A30FF4FCA3078C
:1053D00004FE15A803A781878347F4FEBA9703C785
:1053E000070083A681878347F4FE93870704B69757
:1053F0001347F7FF1377F70F2380E7008347F4FE87
:105400008507A307F4FE0347F4FE8347F4FDE36337
:10541000F7FC8347F4FD3E85EFF0DFF20100B25068
:10542000225445618280797106D622D40018AA8759
:10543000A30FF4FCA30704FE15A803A7C1878347A5
:10544000F4FEBA9703C7070083A6C1878347F4FE1B
:1054500093870704B6971347F7FF1377F70F238057
:10546000E7008347F4FE8507A307F4FE0347F4FE35
:105470008347F4FDE363F7FC8347F4FD3E85EFF0DB
:105480005FF00100B2502254456182805971A2D66A
:1054900082EE86EC8AEA8EE892E696E49AE29EE054
:1054A0002AFE2EFC32FA36F83AF63EF442F246F084
:1054B00072EE76EC7AEA7EE88018230F04F8B707DC
:1054C000005083C76700A30EF4F88347D4F9898B93
:1054D000E381073CB707005083C7770093F7F70FC6
:1054E00093F707034147E38BE73841476346F700EB
:1054F000E38E07206F00D03813070002E386E7042D
:1055000013070003E39EE736B707005019472389C6
:10551000E702B70700501147A389E70283A7418735
:1055200003C7670083C77700A207D98F13970701C6
:1055300041832395E18883A7418703C7170023840C
:10554000E18883A7418783C70700230EF4F8A30FE0
:1055500004F8230F04F883A7418783C7070093F754
:105560000706638B071283C7818893F7F70F93F7BA
:105570000702D5C383C7818893F7F70F130710027B
:10558000638BE700130720026389E7081307000213
:105590006387E708ADA81387C18023A0E1889D47F2
:1055A000A30FF4F883D7A1881397070141839D4780
:1055B00063E9E70083D7A188C207C18393F7F70F98
:1055C00011A0A147A30FF4F803A7418783A701887F
:1055D0008346F4F93686BE853A85EF40901683D728
:1055E000A1881397070141838347F4F9C207C18358
:1055F000B307F7401397070141832395E18803A779
:1056000001888347F4F93E9723A0E18811A8FD574C
:10561000230FF4F831A0010021A0010011A0010026
:105620000347E4F99307F00F6303F7688347F4F93E
:1056300013970701418383D7A188C207C183637988
:10564000F7008347F4F91397070141832395E18815
:1056500083D741881397070141839D4763E9E7009A
:1056600083D74188C207C18393F7F70F11A0A147E1
:10567000A30FF4F883A701880347F4F93A86BE859F
:105680001385C186EF40F00B03A701888347F4F927
:105690003E9723A0E18821AD83C7818893F7F70F58
:1056A0002D47636BF75E13972700B967938747050C
:1056B000BA979C43828783A7418703C7270083C784
:1056C0003700A207D98FC207C183A183C207C18354
:1056D000130720026365F71213972700B9679387B2
:1056E0004708BA979C4382873967130787FA23A034
:1056F000E188C947A30FF4F839A239671307C7FB3C
:1057000023A0E18893073004A30FF4F8EDA883A742
:10571000418703C7270083C73700A207D98FC20775
:10572000C18393F7F70F05476386E7020547634494
:10573000F70089CB99A809476387E7020D47638D76
:10574000E702A1A01387418223A0E1889147A30F1C
:10575000F4F881A039671307470123A0E188B9470E
:10576000A30FF4F83DA039671307470223A0E1888F
:10577000B147A30FF4F831A839671307070323A033
:10578000E188D947A30FF4F829A0FD57230FF4F8B7
:10579000010095A839671307070023A0E188D147C6
:1057A000A30FF4F88DA039671307870423A0E188BD
:1057B000A947A30FF4F881A883C7818093F7F70F57
:1057C0009DE713061004B9679385E7FBB707002030
:1057D0001385E705EF40E076370700201307C7057C
:1057E00023A0E18893073004A30FF4F829A8FD57FC
:1057F000230FF4F809A8FD57230FF4F829A0FD574B
:10580000230FF4F801008347F4F91397070141834C
:1058100083D7A188C207C1836379F7008347F4F96E
:105820001397070141832395E18883D7A1881397B4
:10583000070141839D4763E9E70083D7A188C20739
:10584000C18393F7F70F11A0A147A30FF4F803A7A3
:10585000418783A701888346F4F93686BE853A8559
:10586000EF40206E03A701888347F4F93E9723A0F9
:10587000E18835A983A7418703C7270083C737007D
:10588000A207D98FC207C18393F7F70F13970701B8
:1058900041832395E18821A983A7418703C77188A4
:1058A0001377F70F2380E70083D7A18813970701A9
:1058B0004183854763F6E73E05472395E188CDA6FA
:1058C00083A7418703C7270083C73700A207D98F63
:1058D000C207C18313F7F70FA383E188C9AE83A77B
:1058E000418783C7070013F7F7018947631FF70C48
:1058F00083A7418703C7470083C75700A207D98FF3
:10590000C207C18393F7F70F09476388E704094784
:105910006346F70005476387E7085DA01307100893
:10592000638BE70413072008639CE708B707005060
:1059300083C7A70393F7F70FE207E187E19BE2072D
:10594000E18793E72700139787016187B707005026
:105950001377F70F238DE702ADA8B707005083C771
:10596000B70313F7F70FB7070050619B1377F70FD3
:10597000A38DE702B9A8B707005083C7670393F761
:10598000F70FE207E187E19BE207E18793E7270052
:10599000139787016187B70700501377F70F238BA1
:1059A000E70205A8B707005083C7770313F7F70F7F
:1059B000B7070050619B1377F70FA38BE70211A87D
:1059C000FD57230FF4F8010029A0FD57230FF4F829
:1059D000F9ACF1AC9387C18683C70700FD8BA1E3C7
:1059E0009387C18603C7270083C73700A207D98FD3
:1059F0001397070141838547631FF7009307000A48
:105A000093F7070289C705472383E1884DA4FD5713
:105A1000230FF4F869ACFD57230FF4F849AC9387D2
:105A2000C18683C7070013F7F7018947631CF71086
:105A30009387C18603C7270083C73700A207D98F82
:105A4000C207C183E5EF9387C18603C7470083C7B9
:105A50005700A207D98FC207C18393F7F70F0947F1
:105A60006387E70409476346F7000547638DE70846
:105A7000C9A0130710086382E70613072008639A7A
:105A8000E70AB707005083C7A70393F7F70F370755
:105A90000050F19B93F7F70F230DF70237070050E3
:105AA00093E7370093F7F70F230DF70245A0B707E9
:105AB000005083C7B70393F7F70F37070050F19BE8
:105AC00093F7F70FA30DF7023707005093E737005E
:105AD00093F7F70FA30DF70295A8B707005083C7F8
