:100000006F40D056130000001300000013000000E2
:100010001300000013000000130000001300000094
:100020001300000013000000130000001300000084
:08003000130000007300100032
:1000380000000000000000004A4C00005A4C00007C
:1000480000000000B24C00000000000000000000AA
:10005800B44C0000B64C0000000000000000000096
:10006800B84C000000000000BA4C0000000000007E
:10007800BC4C0000BE4C0000C04C0000C24C00004C
:10008800C44C0000C64C000062430000D643000088
:100098004A440000BE44000032450000D24C000033
:1000A800D44C0000D64C0000D84C0000DA4C0000BC
:1000B800DC4C0000DE4C0000E04C0000E24C00008C
:1000C800E44C0000E64C0000E84C0000A6450000A7
:1000D800EC4C00005A470000F04C0000F24C0000C5
:1000E800DA4700005A480000DA480000FA4C0000DD
:1000F800FC4C0000FE4C0000004D0000024D0000CA
:10010800044D00007A3E0000FE3E0000B03F0000B3
:100118007E4600000E4D0000104D0000124D0000FC
:10012800D24A0000164D0000184D00001A4D00007C
:100138001C4D00001E4D00005A490000224D0000D1
:1001480034400000B8400000DA490000524A00007C
:100158002C4D00002E4D0000304D0000324D0000A7
:10016800344D0000364D0000384D00003A4D000077
:100178003C4D00003E4D0000404D0000A66A0000C6
:10018800444D0000464D0000D442000038410000B4
:10019800BC41000058420000504D0000524B000086
:1001A800544D0000564D0000584D0000D24B000041
:1001B8005C4D00005E4D0000604D0000624D000087
:1001C800644D0000664D0000684D00006A4D000057
:1001D8000000000000000000000000000000000017
:1001E8000000000000000000000000000000000007
:0801F8000000000000000000FF
:10020000737504308280B76200009382820873A005
:10021000023082803D432A876373C3029377F700DD
:10022000BDEFADE5937606FF3D8ABA960CC34CC38D
:100230000CC74CC74107E36BD7FE11E28280B306BF
:10024000C3408A069702000096966780A60023079F
:10025000B700A306B7002306B700A305B700230520
:10026000B700A304B7002304B700A303B700230318
:10027000B700A302B7002302B700A301B700230110
:10028000B700A300B7002300B700828093F5F50FF5
:1002900093968500D58D93960501D58D61B793967C
:1002A00027009702000096968682E78086FA96805D
:1002B000C1171D8F3E96E374C3F8A5B7011122CE76
:1002C00000102324A4FE2326B4FEB7F700E023A0E9
:1002D0000700B7F700E08146014794C7D8C7B7F7D2
:1002E00000E0054798C30100B7F700E003A8C70086
:1002F0009C470327C4FEC286636CD7000327C4FE55
:10030000C286E313D7FE032784FE6363F700E9BFC9
:100310000100724405618280011106CE22CC0010DA
:10032000AA8E2E8E32833685BA853E86C286468751
:10033000F687A307F4FEF2872307F4FE9A87A30645
:10034000F4FEAA872306F4FEAE87A305F4FEB28767
:100350002305F4FEB687A304F4FEBA872304F4FE53
:100360008347F4FE93068004014681453E85992C1F
:100370008347E4FE93068004014681453E85992427
:100380008347D4FE93068004014681453E851D2C9B
:100390008347C4FE93068004014681453E851D24A3
:1003A0008347B4FE93068004014681453E85192C9F
:1003B0008347A4FE93068004014681453E851924A7
:1003C000834794FE93068004014681453E85DD2ADD
:1003D000834784FE93068004014681453E85DD22E5
:1003E0008347440093068004014681453E85D92A0F
:1003F0008347040093068004014681453E85D92247
:100400008347840093068004014681453E855D2A2A
:100410000100F240624405618280011106CE22CCC7
:1004200000102326A4FE2324B4FEB28736872313AC
:10043000F4FEBA872312F4FE85450965EF50C00A21
:10044000B707055083C7070013F7F70FB707055025
:100450001377F7FC1377F70F2380E700B7070550F2
:1004600083C7070013F7F70FB70705501367270473
:100470001377F70F2380E700B707055083C71700EE
:1004800013F7F70FB7070550659B1377F70FA38096
:10049000E700B7070550035744FE2392E700B7076C
:1004A0000550035764FE2393E700B7070550032761
:1004B000C4FE98C7B7070550032784FED8C7B707FF
:1004C000055083C7170013F7F70FB70705501377C9
:1004D000F7031377F70FA380E70037070550B70737
:1004E0000550034717001377F70FA380E700B707FE
:1004F000055083C7270013F7F70FB7070550136799
:1005000047001377F70F2381E700B707055083C72C
:10051000170013F7F70FB707055013671700137786
:10052000F70FA380E700B707055083C7070013F74D
:10053000F70FB7070550136717001377F70F2380DE
:10054000E7008D4513056005EF30500A130560057F
:10055000EF3010060100F24062440561828079713B
:1005600022D60018232EA4FC8327C4FD958393F77D
:10057000F70F9D8BA307F4FE8327C4FD93F7F70FB6
:10058000BD8B2307F4FE0347F4FEBD670A0793877C
:1005900087F2BA979C43DC470347E4FE85463397CE
:1005A000E600420741833A868346F4FE3D678A06A9
:1005B000130787F236971843B18F5CC70100325496
:1005C00045618280797106D622D40018232EA4FCBE
:1005D000232CB4FC232AC4FC2328D4FC232004FEAF
:1005E000232204FE232404FE8327C4FD958393F76E
:1005F000F70F9D8BA307F4FE8327C4FD93F7F70F36
:10060000BD8B2307F4FE0327C4FD9307F00F63059A
:10061000F7140327C4FD9307F00F6301F714834712
:10062000F4FE91E785451145EF40707041A0034706
:10063000F4FE85476317F70085452145EF40306F8D
:10064000B5A00347F4FE89476317F7008545414588
:10065000EF40F06DA1A80347F4FE8D476318F70043
:10066000854513050002EF40906C89A00347F4FE16
:1006700091476318F700854513050004EF40306B80
:1006800035A00347F4FE95476318F7008545130529
:100690000008EF40D06919A80347F4FE9947631793
:1006A000F700854513050010EF4070688347E4FEAE
:1006B0000547B317F700C207C1832310F4FE0327D1
:1006C00084FD85476317F702832704FDC207C183B2
:1006D000A183C207C18389E78D472322F4FE11A8B5
:1006E000832704FDC207C183A183C207C1832322DC
:1006F000F4FE832704FDC207C18393F7F70F232479
:10070000F4FE0347F4FEBD670A07938787F2BA97A2
:100710009C433E87930704FEBE853A85EF40807672
:10072000032784FD8547631CF7020347F4FEBD677A
:100730000A07938787F2BA979C43BE868347E4FEF5
:100740000547B317F700C207C183032644FDBE85E2
:100750003685EF40D01521A0010011A00100B25054
:10076000225445618280011106CE22CC001023263E
:10077000A4FE8327C4FE89EB93068031014685459C
:10078000214589356F0020730327C4FE8547631A0E
:10079000F7009306803101468545254525356F00D4
:1007A00080710327C4FE8947631AF70093068031DE
:1007B00001468545294539356F00E06F0327C4FEA2
:1007C0008D47631AF70093068031014685452D4514
:1007D000D53B6F00406E0327C4FEC147631BF70083
:1007E000930680310146854513059008E13B6F0073
:1007F000806C0327C4FEC547631AF7009306803157
:10080000014685451305B008753B75A50327C4FE51
:10081000C947631AF70093068031014685451305E1
:10082000D0084D3349AD0327C4FECD47631AF70006
:1008300093068031014685451305E0086133A5AD77
:100840000327C4FE930700106319F7009306803155
:10085000014685450145BD33B9AD0327C4FE930765
:1008600010106319F7009306803101468545054550
:10087000913B91A50327C4FE930720106319F7004D
:10088000930680310146854509452D3B2DA503275B
:10089000C4FE930730106319F700930680310146B8
:1008A00085450D45053301AD0327C4FE93070011AF
:1008B0006319F70093068031014685453D4519339C
:1008C000DDAB0327C4FE93071011631AF7009306EC
:1008D00080310146854513053002ED31E9AB032730
:1008E000C4FE93072011631AF70093068031014676
:1008F00085451305A002F9317DAB0327C4FE93079C
:100900003011631AF70093068031014685451305BF
:10091000B0024D394DA30327C4FE9307002063198D
:10092000F70093068031014685451945613961A379
:100930000327C4FE930710206319F7009306803144
:10094000014685451D45BD39BDA30327C4FE930758
:100950002020631AF7009306803101468545130570
:1009600000028D3189AB0327C4FE93073020631A40
:10097000F700930680310146854513051002993131
:100980001DAB0327C4FE93070021631AF7009306EB
:10099000803101468545130560042D3129AB0327BD
:1009A000C4FE93071021631AF700930680310146B5
:1009B0008545130570043931FDA90327C4FE93074B
:1009C0002021631AF70093068031014685451305FF
:1009D0008004CD3ECDA10327C4FE93073021631AC6
:1009E000F700930680310146854513059004D93EF2
:1009F000D9A10327C4FE93070022631AF7009306C8
:100A0000803101468545130540026D3E6DA10327E7
:100A1000C4FE93071022631AF70093068031014643
:100A2000854513055002793E79A10327C4FE93073B
:100A30000030631AF700930680310146854513059F
:100A4000600249368DA90327C4FE93071030631A4C
:100A5000F7009306803101468545130570029D36E7
:100A600099A90327C4FE93072030631AF700930661
:100A700080310146854513058002A9362DA903273B
:100A8000C4FE93073030631AF700930680310146A5
:100A90008545130590023D3639A90327C4FE930707
:100AA0000031631AF700930680310146854513052E
:100AB000C006093E09A10327C4FE93071031631A3B
:100AC000F70093068031014685451305D006DD3CCD
:100AD000DDA60327C4FE93072031631AF7009306AF
:100AE0008031014685451305E006E93CE9A6032768
:100AF000C4FE93073031631AF70093068031014634
:100B000085451305F0067D3C7DA60327C4FE9307AB
:100B100000406319F7009306803101468545014581
:100B2000553451AE0327C4FE930710406319F700F4
:100B3000930680310146854505456934ADAE0327EE
:100B4000C4FE930720406319F700930680310146E5
:100B500085450945853C85A60327C4FE930730409B
:100B60006319F70093068031014685450D45993C90
:100B700099A60327C4FE93070070631AF700930633
:100B8000803101468545130560042D3C2DA60327C1
:100B9000C4FE93071070631AF70093068031014674
:100BA000854513057004393C39A60327C4FE930715
:100BB0002070631AF70093068031014685451305BE
:100BC00080040934CDAC0327C4FE93073070631A48
:100BD000F700930680310146854513059004DD3208
:100BE000D9AC0327C4FE93070071631AF70093067C
:100BF00080310146854513056002E9326DAC03275B
:100C0000C4FE93071071631AF70093068031014602
:100C10008545130570027D3279AC0327C4FE930726
:100C20002071631AF700930680310146854513054C
:100C30008002493A49A40327C4FE93073071631A1E
:100C4000F70093068031014685451305D0049D3A8F
:100C50009DA48327C4FE9387078081EB9306803190
:100C6000014685450945B93AB9A40327C4FE8567FD
:100C7000938717806319F7009306803101468545F5
:100C80000D4589320DAC0327C4FE85679387278005
:100C90006319F700930680310146854511451D32E1
:100CA00019AC0327C4FE856793873780631AF70062
:100CB0009306803101468545130540042132E5AA9B
:100CC0000327C4FE856793870781631AF70093069D
:100CD00080310146854513059006ED30E9AA0327CA
:100CE000C4FE856793871781631AF70093068031E6
:100CF000014685451305B006F13075AA0327C4FEE9
:100D0000856793872781631AF70093068031014630
:100D100085451305D0067D3079AA0327C4FE856773
:100D200093873781631AF700930680310146854522
:100D30001305F006413841A20327C4FE8567938757
:100D40000790631BF7009306803101468545130524
:100D50008002EFF03F8785A20327C4FE8567938753
:100D60001790631BF70093068031014685451305F4
:100D70009002EFF03F8581A20327C4FE8567938729
:100D80002790631BF70093068031014685451305C4
:100D90003004EFF03F8305A20327C4FE85679387E5
:100DA0003790631BF7009306803101468545130594
:100DB000B004EFF03F8101A20327C4FE856793874B
:100DC0000791631BF70093068031014685451305A3
:100DD0001006EFF02FFFC5A00327C4FE8567938799
:100DE0001791631BF7009306803101468545130573
:100DF0003006EFF02FFDC1A00327C4FE856793875F
:100E00002791631BF7009306803101468545130542
:100E10005006EFF02FFB45A00327C4FE856793879C
:100E20003791631BF7009306803101468545130512
:100E30007006EFF02FF941A00327C4FE8567938762
:100E40000792631BF7009306803101468545130521
:100E50003002EFF02FF785A00327C4FE8567938744
:100E60001792631BF70093068031014685451305F1
:100E70004002EFF02FF581A00327C4FE856793871A
:100E80002792631BF70093068031014685451305C1
:100E90005002EFF02FF305A00327C4FE8567938768
:100EA0003792631AF7009306803101468545130592
:100EB000F004EFF02FF10100F240624405618280FE
:100EC000797106D622D40018232EA4FC232CB4FC5E
:100ED000032784FD896793871771B337F70093F76A
:100EE000F70F3E8713062008BD67938587CE3A85A6
:100EF000EF2090338327C4FD13D78700BD670A070F
:100F0000938787F4BA979C4383D7C7022317F4FECD
:100F10000357E4FE832784FD3307F702896793872D
:100F20000771B357F7022316F4FE8327C4FD13D7C6
:100F30008700BD670A07938787F4BA97984383278A
:100F4000C4FD8D8B8A07BA97938747033E878357E3
:100F5000C4FE1CC30100B250225445618280397125
:100F600006DE22DC80002326A4FC2324B4FC2322FA
:100F7000C4FC8327C4FCA1838D453E85EF0070121D
:100F8000AA873E871306B00BBD67938587CE3A8547
:100F9000EF209029032744FC896793871771B337A3
:100FA000F70093F7F70F3E871306D00BBD679385C5
:100FB00087CE3A85EF205027232004FE232204FE0B
:100FC000231404FE232804FC232A04FC232C04FC01
:100FD000232E04FC231704FE8327C4FCA1833E8533
:100FE000EF00B0110325C4FCEFF0EFF78545054590
:100FF000EF40E0538327C4FC13D747008547631AAB
:10100000F7008545B70716001385070CEF40A00DC4
:1010100001A28327C4FC13D74700C547631AF70012
:101020008545B707180013850730EF40C00BCDA0EA
:101030008327C4FC13D7470093071002631AF700F5
:101040008545B7171A00138507C0EF40C009C9A02E
:101050008327C4FC13D7470093072002631AF700C5
:101060008545B7171A0013850780EF40C0074DA0CC
:101070008327C4FC13D74700930710036317F700B7
:1010800085450565EF40200661A08327C4FC13D782
:10109000470093071007631BF700B7070140D84FBD
:1010A000B707014013674700D8CF9DA08327C4FC32
:1010B00013D7470093071008631BF700B7070140D9
:1010C000D84FB707014013670701D8CF91A08327F6
:1010D000C4FC13D7470093071009631BF700B70739
:1010E0000140D84FB707014013670704D8CF0DA0C0
:1010F0008327C4FC13D7470093072009631AF7001E
:10110000B7070140D84FB707014013670702D8CF90
:1011100003A78187832784FCB357F702C183231772
:10112000F4FE03A781878357E4FE8507BE868327E5
:1011300084FCB387F602B357F7022316F4FE035775
:10114000C4FE832744FC3307F7028967938707713E
:10115000B357F7022315F4FE8357C4FEFD17C207E9
:10116000C1832312F4FE8357E4FE2310F4FE2313FD
:1011700004FE231104FE230404FE8327C4FC13D7BA
:101180008700BD670A07938787F4BA979C433E8719
:10119000930704FEBE853A85EF406067930700071A
:1011A0002318F4FC85472319F4FC231A04FC835705
:1011B000A4FE231BF4FC8947231CF4FC8947231D50
:1011C000F4FC231E04FC231F04FC8327C4FC8D8B2A
:1011D000B9EF8327C4FC13D78700BD670A0793873D
:1011E00087F4BA979C433E87930704FDBE853A85F2
:1011F000EF40C0798327C4FC13D78700BD670A0777
:10120000938787F4BA979C43A1453E85EF40907041
:101210008327C4FC13D78700BD670A07938787F429
:10122000BA979C4391453E85EF50800389A283275E
:10123000C4FC13F7370085476311F7068327C4FC06
:1012400013D78700BD670A07938787F4BA979C4333
:101250003E87930704FDBE853A85EF40F00C832757
:10126000C4FC13D78700BD670A07938787F4BA9732
:101270009C43A1453E85EF40B06E8327C4FC13D745
:101280008700BD670A07938787F4BA979C43930545
:1012900000403E85EF508001D9A88327C4FC13F796
:1012A000370089476310F7068327C4FC13D78700EC
:1012B000BD670A07938787F4BA979C433E879307D5
:1012C00004FDBE853A85EF4050248327C4FC13D724
:1012D0008700BD670A07938787F4BA979C43A145A7
:1012E0003E85EF40906D8327C4FC13D78700BD6710
:1012F0000A07938787F4BA979C4391453E85EF5040
:101300004000B5A08327C4FC13F737008D47631056
:10131000F7068327C4FC13D78700BD670A079387A6
:1013200087F4BA979C433E87930704FDBE853A85B0
:10133000EF40703B8327C4FC13D78700BD670A07C3
:10134000938787F4BA979C43A1453E85EF40B06BE5
:101350008327C4FC13D78700BD670A07938787F4E8
:10136000BA979C43930500403E85EF40507E83270B
:10137000C4FC13D78700BD670A07938787F4BA9721
:101380009C4385453E85EF40F0528327C4FC13D72C
:101390008700BD670A07938787F4BA979C43854502
:1013A0003E85EF40B04B0100F250625421618280D3
:1013B000011106CE22CC00102326A4FE2324B4FE65
:1013C0002322C4FE2320D4FE8327C4FE89EB930688
:1013D0008031054685451545EFF0CF9E61A0032776
:1013E000C4FEC147631BF70093068031054685455F
:1013F00013053002EFF00F9DB5A00327C4FE93073D
:101400000002631BF70093068031054685451305EE
:10141000D002EFF02F9BB9A00327C4FE930700036F
:10142000631BF7009306803105468545130530029E
:10143000EFF04F9905A80327C4FE93070004631B30
:10144000F70093068031054685451305A004EFF0AB
:101450006F9709A813069002BD67938587D301454E
:10146000EF20805C032784FE8947631AF700930608
:101470008031054685451D45EFF0CF9461A00327D7
:1014800084FEC947631BF7009306803105468545F6
:1014900013055002EFF00F93B5A0032784FE9307C6
:1014A0002002631BF700930680310546854513052E
:1014B000F002EFF02F91B9A0032784FE93072003D9
:1014C000631BF700930680310546854513055002DE
:1014D000EFF04F8F05A8032784FE93072004631BBA
:1014E000F70093068031054685451305C004EFF0EB
:1014F0006F8D09A813060003BD67938587D3014547
:10150000EF208052032744FE8547631AF7009306B5
:101510004030054681451945EFF0CF8A79A8032769
:1015200044FEC547631BF7009306403005468145DE
:1015300013054002EFF00F8949A0032744FE9307EB
:101540001002631BF70093064030054681451305E2
:10155000E002EFF02F8795A0032744FE93071004C5
:10156000631BF70093064030054681451305B00420
:10157000EFF04F8599A0032744FE93071003631BE8
:10158000F700930640300546814513054002EFF011
:101590006F8325A0032744FE9307F00F6317F7001E
:1015A0009307F00F2322F4FE09A813068003BD67FA
:1015B000938587D30145EF202047930600310146EC
:1015C0008545032504FEEFE0FFFF0100F240624481
:1015D000056182805D7186C6A2C480082326A4FCB2
:1015E0002324B4FC2322C4FC2320D4FC232EE4FABD
:1015F000232CF4FA232A04FB231704FE232E04FCD5
:10160000232004FE232204FE232404FE231604FECA
:10161000BD670327C4FC0A079387C7F3BA979C43A7
:101620003E85EF40400285450545EF305070032769
:1016300004FCC1476311F7020327C4FBC947631CBD
:10164000F700032784FBC5476317F7008545054569
:10165000EF30702915A8032704FC930700046315D5
:10166000F7020327C4FB93072004631FF700032737
:1016700084FB930710046319F7008545B717200012
:1016800013850710EF3030268327C4FC91E785458A
:101690000565EF30D06925A00327C4FC8547631793
:1016A000F70085451165EF30F06C11A80327C4FCE5
:1016B00089476316F70085452165EF30B06B8326B7
:1016C00044FB032684FB8325C4FB032504FCCD31A6
:1016D000231E04FC93074010231FF4FC231004FE78
:1016E000032784FC85476305F702832784FC81CFA9
:1016F000032784FC89476303F702032784FC8D4793
:101700006304F7020DA8231104FE231204FE25A092
:10171000231104FE85472312F4FE31A889472311C3
:10172000F4FE231204FE01A889472311F4FE854725
:101730002312F4FE010003A78187832744FCB357DB
:10174000F7022317F4FE0357E4FE9307F00F63F745
:10175000E700930780032317F4FE61A80357E4FE14
:101760009307F00763F7E700930700032317F4FEDE
:1017700049A00357E4FE9307F00363F7E7009307DC
:1017800080022317F4FEB5A00357E4FEFD4763F77C
:10179000E700930700022317F4FEA1A80357E4FE15
:1017A000BD4763F6E700E1472317F4FE99A003570E
:1017B000E4FE9D4763F6E700C1472317F4FE15A832
:1017C0000357E4FE8D4763F6E700A1472317F4FEB5
:1017D0000DA00357E4FE854763F5E700231704FED9
:1017E00009A81306D008BD67938587D30145EF206C
:1017F000A0238357E4FE2314F4FE93070020231351
:10180000F4FE231504FE9D472316F4FEBD6703274F
:10181000C4FC0A079387C7F3BA979C433E87930794
:10182000C4FDBE853A85EF307069BD670327C4FCEF
:101830000A079387C7F3BA979C4385453E85EF30E7
:1018400070770100B640264461618280011122CE8A
:1018500000102326A4FEAE87A305F4FEBD67032770
:10186000C4FE0A079387C7F3BA979C433E87834712
:10187000B4FEC207C1832316F7000100BD6703272A
:10188000C4FE0A079387C7F3BA979C4383D78700A0
:10189000C207C18393F70708F5F30100724405619D
:1018A0008280011122CE00102326A4FE2324B4FE40
:1018B0000327C4FE0A079387C18CBA979C4381EF24
:1018C0000327C4FE0A079387C18CBA97032784FEB7
:1018D00098C3854739A80327C4FE0A079387C18C9C
:1018E000BA979C43032784FE6314F700854711A031
:1018F00081473E85724405618280011106CE22CC6B
:1019000000102326A4FE8327C4FE81EB854585674E
:1019100013850780EF30B0416DA80327C4FE8547CB
:101920006317F70085450545EF30D0445DA00327D8
:10193000C4FE89476317F70085450945EF3090439A
:1019400049A80327C4FE8D476317F7008545114555
:10195000EF305042BDA80327C4FE91476317F7003C
:1019600085452145EF301041ADA00327C4FE9547C2
:101970006317F70085454145EF30D03F99A803270D
:10198000C4FE99476318F700854513050002EF3040
:10199000703E81A00327C4FE9D476317F70085456D
:1019A0000965EF30D03835A00327C4FEA14763187E
:1019B000F700854537050800EF30703719A8032771
:1019C000C4FEA5476317F700854537051000EF30C3
:1019D00010360100F240624405618280011106CE9A
:1019E00022CC00102326A4FE2324B4FE8327C4FEA9
:1019F00081EBE146014685452545EFE0BFBCC9AA1C
:101A00000327C4FE8947631AF700E146014685456E
:101A100013056002EFE01FBB65AA0327C4FEC147A0
:101A20006319F700E146014685450945EFE09FB996
:101A300045A20327C4FEC947631AF700E1460146E1
:101A4000854513055006EFE0FFB759A20327C4FEF2
:101A500093070002631AF700E14601468545130526
:101A6000A002EFE03FB6ADA20327C4FE9307200219
:101A7000631AF700E146014685451305A004EFE02F
:101A80007FB4B9A20327C4FE93074002631AF7008C
:101A9000E1460146854513058006EFE0BFB20DAA79
:101AA0000327C4FE93070004631AF700E1460146CA
:101AB00085451305A004EFE0FFB019AA0327C4FE73
:101AC00093072004631AF700E14601468545130594
:101AD0000002EFE03FAFEDA80327C4FE9307000527
:101AE000631AF700E146014685451305C004EFE09F
:101AF0007FADF9A80327C4FE93072005631AF700FA
:101B0000E1460146854513058008EFE0BFABC9A05B
:101B10000327C4FE93070006631AF700E146014657
:101B2000854513050004EFE0FFA95DA00327C4FE6F
:101B300093072006631AF700E14601468545130521
:101B40000004EFE03FA869A00327C4FE9307000745
:101B5000631AF700E1460146854513052004EFE0CE
:101B60007FA6BDA00327C4FE930720076319F700D3
:101B7000E146014685451945EFE0DFA491A803271A
:101B8000C4FE93074007631AF700E1460146854506
:101B90001305C008EFE01FA325A80327C4FE930781
:101BA0000008631AF700E146014685451305400425
:101BB000EFE05FA131A80327C4FE93072008631953
:101BC000F700E146014685451305E008EFE09F9FD9
:101BD000032784FE8547631AF700930680040146B5
:101BE00081452945EFE01F9ED5AA032784FE8D4736
:101BF000631BF700930680040146814513057002BC
:101C0000EFE05F9CE1AA032784FEC547631AF70053
:101C100093068004014681450D45EFE0BF9A7DAAF9
:101C2000032784FECD47631BF7009306800401461B
:101C3000814513056006EFE0FF984DA2032784FE5F
:101C400093071002631BF700930680040146814549
:101C50001305B002EFE01F9751A2032784FE9307FC
:101C60003002631BF700930680040146814513058B
:101C7000B004EFE03F959DA2032784FE9307500236
:101C8000631BF70093068004014681451305900607
:101C9000EFE05F93A1A2032784FE93071004631B68
:101CA000F70093068004014681451305B004EFE078
:101CB0007F912DA2032784FE93073004631BF70056
:101CC000930680040146814513051002EFE09F8FC3
:101CD00031A2032784FE93071005631BF7009306C8
:101CE00080040146814513052006EFE0BF8DFDA06D
:101CF000032784FE93073005631BF70093068004D7
:101D00000146814513059008EFE0DF8BC1A803274A
:101D100084FE93071006631BF700930680040146B8
:101D2000814513051004EFE0FF894DA8032784FEC9
:101D300093073006631BF700930680040146814534
:101D40001305B008EFE01F8851A8032784FE93070E
:101D50001007631BF70093068004014681451305B5
:101D60003004EFE03F869DA8032784FE93073007E9
:101D7000631AF70093068004014681451D45EFE094
:101D80007F84A9A8032784FE93075007631BF700ED
:101D900093068004014681451305D008EFE09F8239
:101DA00035A8032784FE93071008631BF7009306EA
:101DB00080040146814513055004EFE0BF8039A837
:101DC000032784FE93073008631AF7009306800404
:101DD000014681451305F008EFE0CFFE0100F24017
:101DE000624405618280011122CE00102326A4FEE8
:101DF000AE87A305F4FE0100BD670327C4FE0A07F2
:101E0000938707F7BA979C4383D70700C207C1831C
:101E100093F70708F5D3BD670327C4FE0A07938726
:101E200007F7BA979C433E878347B4FEC207C18336
:101E30002312F7000100724405618280011106CE71
:101E400022CC00102326A4FE2324B4FE2322C4FEA9
:101E500029A8832784FE138717002324E4FE83C761
:101E60000700BE850325C4FEBD3F832744FE1387BC
:101E7000F7FF2322E4FEF1FF0100F2406244056116
:101E80008280011106CE22CC00102326A4FE23243A
:101E9000B4FE39A8832784FE138717002324E4FEA9
:101EA0008387070093F7F70FBE850325C4FE253F00
:101EB000832784FE83870700F1FF0100F24062441C
:101EC00005618280011106CE22CC00102326A4FEDB
:101ED000AE87A305F4FEBD670327C4FE0A079387F8
:101EE00007F7BA979C433E878347B4FE3E86930527
:101EF00050523A85EF40207E1387C1818327C4FE6C
:101F0000BA9783C7070081453E85EF10306E83473F
:101F1000B4FE81CF1387C1818327C4FEBA9783C7DC
:101F200007003E85EF10D06819A81387C181832769
:101F3000C4FEBA9783C707003E85EF1050690100C1
:101F4000F240624405618280011122CE00102326F6
:101F5000A4FE2324B4FEBD670327C4FE0A079387AB
:101F600007F7BA979C4383D70700C207C18393F74B
:101F700007028DC7BD670327C4FE0A07938707F7CB
:101F8000BA979C4383D74700C207C18313F7F70F63
:101F9000832784FE2380E700854711A081473E8583
:101FA000724405618280797106D622D40018232EEE
:101FB000A4FC232CB4FC232AC4FC2328D4FC232017
:101FC00004FE232204FE232404FE232604FE85456A
:101FD0000545EF30C055832504FD032544FDEFF092
:101FE000FF9F032744FD8947631CF700032704FD77
:101FF0008D476317F70085451145EF30C00E95AA50
:10200000032744FDC947631CF700032704FDCD47A0
:102010006317F70085452145EF30E00C99AA0327A7
:1020200044FD930720026310F702032704FD930782
:102030003002631AF7008545B707140013850701BE
:10204000EF30600A3DA2032744FD9307400263106E
:10205000F702032704FD93075002631AF700854532
:10206000B707140013850703EF30E00719A2032711
:1020700044FD930720046311F702032704FD93072F
:102080003004631BF700B7070140D44FB707014086
:102090004167558FD8CFF1A8032744FD930720054A
:1020A0006312F702032704FD93073005631CF70052
:1020B000B7070140D44FB707014037070800558FD5
:1020C000D8CF45A8032744FD930720066312F702E3
:1020D000032704FD93073006631CF700B707014090
:1020E000D44FB707014037072000558FD8CF51A0F4
:1020F000032744FD930720076312F702032704FD1B
:1021000093073007631CF700B7070140D44FB707A8
:10211000014037074000558FD8CFA1A8032744FDC1
:10212000930740076312F702032704FD9307500744
:10213000631CF700B7070140D44FB70701403707CA
:102140008000558FD8CF35A0032744FD9307200882
:102150006311F702032704FD93073008631BF700A0
:10216000B7070140D44FB707014037070002558F2A
:10217000D8CF8327C4FD91E785451165EF30203B1B
:1021800069A80327C4FD85476318F700854537050F
:102190000200EF30203E51A00327C4FD8947631899
:1021A000F700854537050400EF30C03CBDA003278C
:1021B000C4FD8D476318F700854537050800EF30EB
:1021C000603BA1A80327C4FD91476318F70085452C
:1021D00037051000EF30003A89A00327C4FD95476A
:1021E0006318F700854513050004EF30A03835A0CB
:1021F0000327C4FD99476318F700854513050008B8
:10220000EF30403719A80327C4FD9D476317F70037
:10221000854513050010EF30E035832784FD23202A
:10222000F4FE231204FE231304FE231404FE2316DB
:1022300004FEB1472315F4FEBD670327C4FD0A075A
:10224000938707F7BA979C433E87930704FEBE85A2
:102250003A85EF40001FBD670327C4FD0A07938737
:1022600007F7BA979C4385453E85EF40C040010083
:10227000B250225445618280411106C622C4000832
:10228000938501831945C9310546938501831385DB
:10229000418FEF10B0180100B2402244410182800A
:1022A000411106C622C4000893851183054569398A
:1022B00005469385118313858190EF103016010038
:1022C000B240224441018280411106C622C4000866
:1022D00003A7C18689476301F70203A7C1868D471B
:1022E0006315F700EF00607601A803A7C186914748
:1022F0006314F700EF00906C0100B24022444101EA
:102300008280411106C622C4000803A7C1869147F6
:102310006315F700EF00F07001A803A7C1868D4791
:102320006314F700EF00C0780100B240224441017D
:102330008280797122D6001823A4018423A201840B
:1023400023A0018423AE0182232604FE05A0B73713
:1023500000200327C4FE0A0793870774BA9723A0B7
:1023600007008327C4FE85072326F4FE0327C4FE47
:102370009307F00FE3DDE7FCB74700209387776210
:102380002324F4FEA30304FE85A8232004FEA1A0B9
:10239000832784FE83C707003737002093962700E2
:1023A00013070774369718633D67872787D8D37755
:1023B000F700B73600201397270093870674BA9763
:1023C0009CE3832784FE8D072324F4FE832704FEE9
:1023D0008D072320F4FE032704FE9307900BE3D917
:1023E000E7FA832784FE9387A70B2324F4FE834711
:1023F00074FE8907A303F4FE034774FE9307500499
:10240000E3F5E7F8231F04FC61A00317E4FDB737E9
:1024100000200A0793870774BA979C63530700F05C
:10242000D3A7E7A0B1EF0317E4FDB73700200A07F1
:1024300093870774BA9798630317E4FDBD6787A76E
:10244000C7D8D377F718B73700200A0793870774E0
:10245000BA979CE38317E4FD53F707D00317E4FD15
:10246000B73700200A0793870774BA979C6353779E
:10247000F71087A78184D377F70027A4F18411A0F0
:1024800001008357E4FD8507C207C183231FF4FCC5
:102490000317E4FD9307F00FE3D9E7F6231E04FCCE
:1024A000C1A00317C4FDB73700200A07938707743C
:1024B000BA97986387A70184D377F70027A0F184A0
:1024C0008317C4FD53F707D00317C4FDB7370020A7
:1024D0000A0793870774BA979C635377F71087A707
:1024E0004184D377F70027A2F18407A7418487A707
:1024F00001845377F71887A78184D377F70827AA31
:10250000F18207A7418387A741835377F71087A7F5
:1025100001845377F71087A70184BD6787A687D802
:10252000D3F7F608D377F71827ACF18207A7818392
:1025300087A7C183D397E7A089CF87A7818327AED9
:10254000F1828357C4FD13F7F70FB70700202388E4
:10255000E7268357C4FD8507C207C183231EF4FC09
:102560000317C4FD93073006E3DDE7F2B707002049
:1025700003C707279307800C63F8E700B70700201D
:10258000130780FC2388E726B707002003C7072727
:102590009307700763E8E700B70700201307800779
:1025A0002388E72601003254456182802D71232E55
:1025B0001110232C81100012B707002083C71727A2
:1025C0003E879307A00B3307F702B7470020938796
:1025D00007B4BA972324F4FEB70700209387474631
:1025E0002322F4FEB933A30704FE29A88347F4FE8F
:1025F000130704FFBA97238807EE8347F4FE850785
:10260000A307F4FEB707002083C707270347F4FE9C
:10261000E36EF7FCB707002083C70727A307F4FE84
:1026200031A88347F4FE130704FFBA9705472388B0
:10263000E7EE8347F4FE8507A307F4FE0347F4FEA5
:102640009307F00FE31FF7FCA30104FE99A82301F1
:1026500004FE2DA8832784FE83C70700130704FF09
:10266000BA9703C707EF832744FE2380E700832739
:1026700084FE85072324F4FE832744FE8507232256
:10268000F4FE834724FE85072301F4FE034724FE5E
:102690009307900BE3F0E7FC834734FE8507A30123
:1026A000F4FE034734FE93075004E3F2E7FA010017
:1026B0008320C1110324811115618280011106CE8E
:1026C00022CC0010A30604FE4DA88347D4FEBE858D
:1026D00001457123230704FE41A8A30704FE230636
:1026E00004FEADA08347D4FE139737008347C4FE92
:1026F000BA971307F003B306F7408347E4FE1307C6
:10270000E0071D8FBD67938707F9BA9783C7070056
:102710003E86B70700201307A00B3387E602938796
:102720004746BA97B29783C707003E878347C4FEE0
:10273000B317F70013F7F70F8347F4FEBA97A30711
:10274000F4FE8347C4FE85072306F4FE0347C4FE58
:102750009D47E3F9E7F88347F4FE3E859D218347D3
:10276000E4FE85072307F4FE8307E4FEE3D707F6BC
:102770008347D4FE8507A306F4FE0347D4FE9D4796
:10278000E3F5E7F40100F2406244056182803971AB
:1027900006DE22DC4ADA4ED852D656D45AD25ED061
:1027A00080002326A4FC93070008231BF4FC238C41
:1027B0000184231F04FC61A0930750FA230CF4FC4E
:1027C0008357E4FD8A070327C4FCBA978397070061
:1027D00093F7F70FA30CF4FC8357E4FD8A07032754
:1027E000C4FCBA9783972700231EF4FC8357C4FDCB
:1027F000A183C207C18393F7F70F230DF4FC83571E
:10280000C4FD93F7F70FA30DF4FC930784FD114665
:10281000BE851145EFF08FE203A781878967938713
:1028200007F4B357F70286073E8B814B5A85DE8546
:10283000EFD0DFA88357E4FD8507231FF4FC03577F
:10284000E4FDA547E3FAE7F631A803A78187896786
:10285000938707F4B357F7023E8A814A5285D6859B
:10286000EFD0DFA583C7818593F7F70F8DE38357FB
:1028700064FDC207C1871397070141837D17420793
:10288000418342074187231BE4FCE340F0FC9307AC
:102890000008231BF4FC238C018431A803A7818743
:1028A0008967938707F4B357F7023E8981494A85C0
:1028B000CE85EFD0BFA09387418503C7170093074C
:1028C000F00F631AF7009387418503C7270093072A
:1028D000F00F6302F702835764FDC207C1871397A5
:1028E000070141837D174207418342074187231B2C
:1028F000E4FCE345F0FA835764FDC207C1876344F3
:10290000F000854711A081473E85F250625452592C
:10291000C259325AA25A125B825B2161828079715C
:1029200006D622D44AD24ED00018232EA4FC9307F8
:1029300000082313F4FE231704FEDDA8930750FAC2
:102940002304F4FEC557A304F4FE8357E4FE8A076C
:102950000327C4FDBA97839707002316F4FE835715
:10296000C4FEA183C207C18393F7F70F2305F4FECA
:102970008357C4FE93F7F70FA305F4FE930784FE75
:102980001146BE851145EFF06FCB93070008231366
:10299000F4FE31A803A781878967938707F4B357AB
:1029A000F7023E8981494A85CE85EFD03F9183C7A2
:1029B000818593F7F70F8DE3835764FEC207C187C4
:1029C0001397070141837D174207418342074187DF
:1029D0002313E4FEE340F0FC835764FEC207C18783
:1029E0006347F0008357E4FE99E3854781A8238C71
:1029F00001849387418583C71700A2079396070137
:102A0000C1869387418583C72700139707014187B4
:102A10008357E4FE8A070326C4FDB297558F420709
:102A200041872391E7008357E4FE85072317F4FECF
:102A30000357E4FEA147E3F3E7F081473E85B25038
:102A400022541259825945618280411106C622C41E
:102A5000000883C771853E8793874185BA97BE85F5
:102A60001145EFF06FCEAA8781CB83C771858507AB
:102A700013F7F70FA38BE18403C771858547631AAA
:102A8000F70003C741859307500A6304F700A38B3F
:102A9000018403C771858D476317F700A38B0184F9
:102AA0000547238CE1840100B24022444101828029
:102AB000411122C6000805472388E1840100324401
:102AC00041018280011106CE22CC00100D45EF009D
:102AD00080769306100513060005896793850758CD
:102AE0001145EFF04FCC85451145EFF0AFBDEF102C
:102AF0006033238C0184B7070020138587020535D6
:102B0000AA8799CB1306401CBD67938507D9014559
:102B1000EF00907185474DA0238C0184B7070020FA
:102B200013850700EFF0BFC6AA8799CB1306C01C18
:102B3000BD67938507D90145EF00106F8547ADA8A4
:102B4000238C0184B707002013858702C93BAA871D
:102B500099CB1306401DBD67938507D90145EF004A
:102B6000B06C854791A8EF10C02E91473EC49547A1
:102B70003EC299473EC09308900213088002930713
:102B800060021307B0049306900413068004A9455D
:102B90002545EFD06FF837470020130707B423A669
:102BA000E18403A7C184854691671386C7E7814501
:102BB0003A85EFD09F8681473E85F24062440561A9
:102BC0008280011106CE22CC0010AA87A307F4FE52
:102BD000BD67938787F2DC473E8785475CCBBD673F
:102BE000938787F29C4B3E8791471CCB8347F4FE2B
:102BF000BE850945EFE09FC5BD67938787F2DC4737
:102C00003E8785471CCB0100F2406244056182800B
:102C1000011106CE22CC0010AA87A307F4FEBD67DF
:102C2000938787F2DC473E8785475CCBBD679387F8
:102C300087F29C4B3E8791475CCB8347F4FEBE8571
:102C40000945EFE0BFC0BD67938787F2DC473E8749
:102C500085471CCB0100F24062440561828001116E
:102C600006CE22CC0010AA872E87A307F4FEBA87CF
:102C70002307F4FE8307F4FE93C7F7FF93F7F70FDC
:102C80009D8393F7F70F3E8713065005BD67938525
:102C900087DF3A85EF0050598347E4FE93B78700FA
:102CA00093F7F70F3E8713066005BD67938587DFAF
:102CB0003A85EF0070578347E4FE938707FB93F74D
:102CC000F70F3E85B1378347F4FE918393F7F70FF3
:102CD00093E7070193F7F70F3E851D3F8347F4FE07
:102CE000BD8B93F7F70F3E8525370100F240624414
:102CF00005618280797106D622D400189307C4FD3D
:102D00003E85EF0050588547231EF4FC93070008CA
:102D1000231FF4FC930700042310F4FE83A701860D
:102D200081EB99472301F4FE8547A301F4FE21A816
:102D300003A7018685476318F700A1472301F4FE26
:102D40008947A301F4FEB73700009387E7DE232409
:102D5000F4FEB7370000938727D72326F4FE9307A6
:102D6000C4FD3E85EF00D0570100B25022544561AA
:102D70008280011106CE22CC0010A30704FE89A098
:102D80008347F4FE938707FB93F7F70F3E8549359A
:102D90000545BD3D4145AD3D230704FE09A801455C
:102DA000EFF03FE28347E4FE85072307F4FE830745
:102DB000E4FEE3D607FE8347F4FE8507A307F4FE8F
:102DC0000347F4FE9D47E3FDE7FA0100F240624449
:102DD00005618280011122CE00102326A4FE032764
:102DE000C4FE23AEE18401007244056182807971E2
:102DF00006D622D40018AA872E87232CC4FC231FB2
:102E0000F4FCBA87231EF4FC8357E4FD93B707084C
:102E100093F7F70F3E871306E00DBD67938587DFB5
:102E20003A85EF0070408357C4FD93B7870093F74E
:102E3000F70F3E871306F00DBD67938587DF3A8550
:102E4000EF00903EA30604FEA30704FE230704FE42
:102E500069AA83A70186C5E38347E4FE032784FDAF
:102E6000BA978387070093F7F70F8117A306F4FE3D
:102E70000357E4FD9307E00763F9E700231F04FC11
:102E80008357C4FD8507231EF4FC8357E4FD93F7A5
:102E9000F70F0357C4FD1377F70FBA853E85EFF0A0
:102EA0001FDCA30704FE05A80347D4FE8346F4FEF7
:102EB0003D66BA878607BA97860713070601BA9751
:102EC000B69783C707003E85EFF0BFCF8347F4FE78
:102ED0008507A307F4FE0347F4FE9547E3F6E7FCF6
:102EE0008357E4FD9907231FF4FC8347E4FE85071D
:102EF0002307F4FEDDA88347E4FE032784FDBA9789
:102F00008387070093F7F70F8117A306F4FE035793
:102F1000E4FD9307800763F9E700231F04FC835750
:102F2000C4FD8507231EF4FC8357E4FD93F7F70FD8
:102F30000357C4FD1377F70FBA853E85EFF03FD2F4
:102F4000A30704FE35A08347D4FE139747008347A9
:102F5000F4FE3E97BD6793878723BA9783C7070020
:102F60003E85EFF01FC68347F4FE8507A307F4FEF6
:102F70000347F4FE9D47E3F8E7FC8357E4FD13F7AE
:102F8000F70F8357C4FD93F7F70F850793F7F70FF4
:102F9000BE853A85EFF0BFCCA30704FE05A88347A2
:102FA000D4FE139747008347F4FEBA971387870030
:102FB000BD6793878723BA9783C707003E85EFF0E5
:102FC0005FC08347F4FE8507A307F4FE0347F4FEC2
:102FD0009D47E3F6E7FC8357E4FDA107231FF4FCBC
:102FE0008347E4FE85072307F4FE8347E4FE0327B7
:102FF00084FDBA9783870700E39D07E40100B25080
:10300000225445618280411106C622C44AC24EC084
:10301000000883A7818713D617001308F00F9307C2
:10302000F00F130720039306000381450945EFE0E5
:103030006FDAC1460546854513053008EFD08FD8B5
:10304000C1460546854513052008EFD0AFD7C146D8
:103050000546854513050006EFD0CFD683A7C18569
:103060003E85EFF03FD7EFF0FFC8BD67938787F24B
:10307000DC473E8785475CCBBD67938787F29C4BD7
:103080003E87A1475CCB03A781878967938707F4B5
:103090003357F70293072003B307F7023E898149AC
:1030A0004A85CE85EFD08FA1BD67938787F29C4B71
:1030B0003E87A1471CCB1305E00AEFF07FB5014521
:1030C000EFF01FB54145EFF0BFB413050004EFF07A
:1030D0003FB413051008EFF0BFB31305F007EFF08E
:1030E0003FB383A7C18591EB1305100AEFF05FB2E0
:1030F0001305800CEFF0DFB109A81305000AEFF00B
:103100003FB11305000CEFF0BFB01305600AEFF0FC
:103110003FB01305800AEFF0BFAF1305F003EFF0E7
:103120003FAF1305300DEFF0BFAE0145EFF05FAEDE
:103130001305500DEFF0DFAD13050008EFF05FADA4
:103140001305900DEFF0DFAC1305100FEFF05FAC3F
:103150001305A00DEFF0DFAB4945EFF07FAB130592
:10316000B00DEFF0FFAA13050004EFF07FAA1305DE
:103170000002EFF0FFA90945EFF09FA91305D00861
:10318000EFF01FA95145EFF0BFA81305400AEFF07B
:103190003FA81305600AEFF0BFA71305F00AEFF090
:1031A0003FA7EFF01FBD81450145EFF05FAB010088
:1031B000B24022441249824941018280411106C62F
:1031C00022C4000883C771863E8793874186BA97D9
:1031D000BE851145EFE05FD7AA8781CB83C7718693
:1031E000850713F7F70FA383E18603C77186854729
:1031F000631AF70003C741869307500A6304F70078
:10320000A383018603C771868D476317F700A383E5
:10321000018605472384E1860100B2402244410132
:103220008280411122C600080547A384E18601007F
:10323000324441018280011122CE00102326A4FED7
:103240000327C4FE23A6E186010072440561828043
:10325000411106C622C40008938541870545EFE069
:10326000BFCE054693854187B78700201385C79B4E
:10327000EF00D01A0100B240224441018280411186
:1032800006C622C40008938551870545EFE0DFCBD1
:10329000054693855187B78700201385079DEF006A
:1032A000F0170100B240224441018280011106CE94
:1032B00022CC00102326A4FE0327C4FE23ACE18603
:1032C00019280325C4FE5920EF00F0340100F24014
:1032D000624405618280411122C60008B71702408E
:1032E0009843B71702401367170098C3B7170240F7
:1032F000D443B71702403707FFF8758FD8C3B71705
:1033000002409443B71702403707F7FE7D17758FC9
:1033100098C3B71702409443B71702403707FCFF22
:103320007D17758F98C3B7170240D443B717024073
:10333000370781FF7D17758FD8C3B717024037074E
:103340009F0098C70100324441018280797122D6E2
:103350000018232EA4FC232604FE232404FEB71702
:1033600002409443B71702404167558F98C3B7177F
:1033700002409843B7070200F98F2324F4FE832705
:10338000C4FE85072326F4FE832784FE99E70327DE
:10339000C4FE93070050E31CF7FCB71702409843A4
:1033A000B7070200F98F89C785472324F4FE19A0C7
:1033B000232404FE032784FE85476315F71EB727E1
:1033C00002409843B72702401367070198C3B72705
:1033D00002409843B7270240719B98C3B727024029
:1033E00094438327C4FD1387F7FFB7376E01938794
:1033F0000760B357F70213F77700B7270240558FDE
:1034000098C337170240B71702405843D8C337173D
:103410000240B71702405843D8C337170240B717C6
:1034200002405843D8C30327C4FDB7177A009387D7
:103430000720631BF702B7170240D843B7170240B3
:10344000719BD8C3B7170240D843B7170240136720
:103450001700D8C30100B7170240DC4313F7C700B9
:103460009147E31AF7FE81A2B7170240D443B7177A
:1034700002403707C1FF7D17758FD8C30327C4FDEE
:10348000B747950893870740631BF700B7170240BB
:10349000D443B71702404167558FD8C355A80327B7
:1034A000C4FDB7172707938707E0631CF700B7171A
:1034B0000240D443B717024037073900558FD8C3AD
:1034C00041A80327C4FDB7E7B80593870780631CAD
:1034D000F700B7170240D443B71702403707290057
:1034E000558FD8C3B5A00327C4FDB7A74A04938757
:1034F0000720631CF700B7170240D443B7170240F8
:1035000037071D00558FD8C3A1A00327C4FDB77787
:10351000DC02938707C0631CF700B7170240D4434F
:10352000B717024037071100558FD8C315A00327DE
:10353000C4FDB7376E0193870760631BF700B717A9
:103540000240D443B717024037070500558FD8C350
:10355000B71702409443B717024037070001558F51
:1035600098C30100B71702409843B7070002F98FCC
:10357000F5DBB7170240D843B7170240719BD8C399
:10358000B7170240D843B717024013672700D8C3C4
:103590000100B7170240DC4313F7C700A147E31A45
:1035A000F7FE11A001A0325445618280411122C66C
:1035B000000801000100324441018280011106CE61
:1035C00022CC0010232604FE232404FE232604FE1E
:1035D00025A0232404FE39A0D13F832784FE85073C
:1035E0002324F4FE032784FEC167E367F7FE8327E5
:1035F000C4FE85072326F4FE0327C4FE9307F00FBD
:10360000E3F9E7FC0100F2406244056182800111A8
:1036100006CE22CC00102326A4FE8325C4FE094535
:10362000EFE03F860100F240624405618280417113
:103630002326111E2324811E2322911E801B232E4C
:10364000A4E0232CB4E0231504FE231404FE23136A
:1036500004FE231204FE0325C4E1EF805036AA873E
:10366000C207C1872313F4FEB787002083D7479E84
:1036700099C7B78700209387479E9C4B829783C743
:10368000C18793F7F70F638A0730B787002083D786
:10369000479E6387072CB78700209387479ED847AC
:1036A000BD67138607E58145014502978327C4E17D
:1036B0002326F4FE0325C4E1EF807030AA87C207F9
:1036C000C1872313F4FEB78700209387479E83D7D3
:1036D00027003E87B78700209387479E83C76700F0
:1036E000B347F702C207C1872312F4FE0100832704
:1036F000C4FE138717002326E4FE83870700E5FB3B
:10370000231404FEA1A88327C4FEFD172326F4FE7C
:103710008327C4FE038707009307F002630AF700BC
:103720008327C4FE038707009307C005631BF700C8
:10373000835784FEC207C1838507C207C183231450
:10374000F4FE835764FEC207C187C207C183FD1719
:10375000C207C183C207C1872313F4FE835784FEC7
:10376000139707014183854763E8E700835764FEA9
:10377000C207C187E3D907F8835764FEC207C18730
:1037800063C207028327C4FE85072326F4FE1307BE
:1037900044EE0326C4FEBD67938507E63A85EF80B5
:1037A000B01D1DA8835784FEC207C18381EF130794
:1037B00044EE0326C4FEBD679385C7E63A85EF80D5
:1037C000B01B19A8130744EE0326C4FEBD679385FA
:1037D00007E63A85EF80501A231504FE21A2231430
:1037E00004FE59A0930744EE3E85EF80501D2A87C2
:1037F000835784FEC207C183BE868357A4FEC207D7
:10380000C1833E86835744FEC207C187B307F602D1
:10381000B6976367F706835784FEC207C1833E8766
:103820008357A4FEC207C183BE86835744FEC207E6
:10383000C187B387F602BA97035784FE42074183D4
:10384000BA86130704FFBA97038747EF930704FF6D
:10385000B697238AE7EA835784FEC207C1838507A8
:10386000C207C1832314F4FE835784FEC207C183B9
:103870003E87835744FEC207C187E345F7F611A090
:103880000100835784FEC207C183130704FFBA9760
:10389000238A07EAB78700209387479ED447B787D4
:1038A00000209387479E83C77700139707014183C2
:1038B0008357A4FEC207C1838507C207C183B3072C
:1038C000F702C207C183130744EA3A86BE85014561
:1038D00082968357A4FEC207C1838507C207C183AE
:1038E0002315F4FE8357A4FEC207C183BE84930749
:1038F00044EE3E85EF80B00C2A87835744FEC20712
:10390000C187B357F7028507E3EBF4EC130744EEE6
:10391000032684E1BD679385C7E73A85EF80D0052C
:10392000B78700209387479ED447B78700209387A7
:10393000479E83C777001397070141838357A4FEEF
:10394000C207C1838507C207C183B307F702C20755
:10395000C183130744EE3A86BE850145829635A899
:10396000930744E21306000881453E85EFC09F8A15
:10397000130744E2832684E10326C4E1BD679385EF
:1039800087E83A85EF80407FB78700209387479E7E
:103990009847930744E23E85029701008320C11EA9
:1039A0000324811E8324411E7D618280797106D6A5
:1039B00022D40018232EA4FC232CB4FC232AC4FCFC
:1039C000232604FEA9A00100BD67938707F79C4743
:1039D000930500043E85EF20305FAA87F5D7BD67C9
:1039E000938707F79C47BE86832784FD13871700BC
:1039F000232CE4FC83870700C207C183BE8536857C
:103A0000EF20B0598327C4FE85072326F4FE032741
:103A1000C4FE832744FDE348F7FA832744FD3E852F
:103A2000B250225445618280011106CE22CC001092
:103A3000AA872324B4FE2322C4FEA307F4FE8347EF
:103A4000F4FE8DEFB707002083C7272793F7F70F02
:103A500095C783C7D18791C301A083C7D187850745
:103A600013F7F70FA38EE186ED26832544FE032589
:103A700084FEEFF0DFBBEFF07FB4C5BF0100F24082
:103A8000624405618280011122CE00102326A4FE2B
:103A90008327C4FE239007008327C4FE7D5723910C
:103AA000E7008327C4FE7D572392E7008327C4FEE7
:103AB0007D572383E7008327C4FE7D57A383E70058
:103AC0008327C4FE23A407008327C4FE23A6070080
:103AD0008327C4FE23A80700010072440561828089
:103AE000011122CE00102326A4FE8327C4FE03D793
:103AF0000700B78700202392E79E8327C4FE03D7E1
:103B00002700B78700209387479E2391E7008327EC
:103B1000C4FE03D74700B78700209387479E2392B0
:103B2000E7008327C4FE03C76700B7870020938799
:103B3000479E2383E7008327C4FE03C77700B78728
:103B400000209387479EA383E7008327C4FE9847FE
:103B5000B78700209387479E98C78327C4FED8471E
:103B6000B78700209387479ED8C78327C4FE984B0A
:103B7000B78700209387479E98CB0547238EE18621
:103B80000100724405618280797106D622D4001842
:103B90009307C4FD3E85EFF01FEFB7370000938712
:103BA000E7602322F4FE9307C4FD3E85EFF05FF348
:103BB0009306100213060002F1679385072009455A
:103BC000EFE06FBE0100B2502254456182800111C6
:103BD00022CE00102326A4FE2324B4FE8327C4FE95
:103BE000D843832784FE3E978327C4FED8C319A8F1
:103BF0008327C4FED8438327C4FE9C4B1D8F832795
:103C0000C4FED8C38327C4FE984B8327C4FEDC437D
:103C1000E3F0E7FE0100724405618280797106D607
:103C200022D40018232EA4FC232CB4FC232AC4FC89
:103C30008327C4FDDC47032744FD637EF70C112C6A
:103C40008327C4FD984B8327C4FDDC43B307F740AB
:103C50002326F4FE032744FD8327C4FE63FDE70605
:103C60008327C4FD98438327C4FDDC43BA9703260A
:103C7000C4FE832584FD3E85EF7030218325C4FE7C
:103C80000325C4FDEFF0BFF4032784FD8327C4FEA2
:103C9000BA97232CF4FC8327C4FD98438327C4FDE3
:103CA000DC43B306F700032744FD8327C4FEB307B4
:103CB000F7403E86832584FD3685EF70101D03276F
:103CC00044FD8327C4FEB307F740BE850325C4FD2A
:103CD000EFF0FFEF2DA08327C4FD98438327C4FD99
:103CE000DC43BA97032644FD832584FD3E85EF70AF
:103CF000D019832544FD0325C4FDEFF05FED832734
:103D0000C4FDD847832744FD1D8F8327C4FDD8C732
:103D1000112A814711A089473E85B250225445613E
:103D20008280011122CE00102326A4FE8327C4FE28
:103D3000FD8B0547B316F70037E700E08327C4FE85
:103D40009583938707048A07BA9794C30100724446
:103D500005618280011122CE00102326A4FE832754
:103D6000C4FEFD8B0547B316F70037E700E0832755
:103D7000C4FE9583938707068A07BA9794C3010008
:103D8000724405618280011122CE00102326A4FE18
:103D9000AE87A305F4FE37E700E08327C4FEBA9799
:103DA0000347B4FE2380E74001007244056182802E
:103DB000011106CE22CC00102326A4FE0325C4FE4A
:103DC000EFF03FF60100F24062440561828001118C
:103DD00006CE22CC00102326A4FE0325C4FEEFF05D
:103DE0007FF70100F240624405618280011106CE36
:103DF00022CC00102326A4FEAE87A305F4FE834741
:103E0000B4FEBE850325C4FEEFF0FFF70100F240CB
:103E1000624405618280411122C6000801003244DB
:103E200041018280411106C622C4000883A701888F
:103E300099C783A701881387F7FF23A0E18883A789
:103E4000018899E3EFC02FBC0100B2402244410138
:103E50008280411106C622C4000883A7018899E325
:103E6000EFC00FBA83A701881387170023A0E1884A
:103E70000100B2402244410182801D71A2CE82E63F
:103E800086E48AE28EE012FE16FC1AFA1EF82AF682
:103E90002EF432F236F03AEE3EEC42EA46E872E6B2
:103EA00076E47AE27EE0801093055052B7470140F5
:103EB00013850780EF20B015AA8789CB9305505250
:103EC000B747014013850780EF2090240100764416
:103ED0003660A660166186617272E2725273C273B6
:103EE0003275A275127682767267E2675268C2688E
:103EF000326EA26E126F826F2561730020301D71C9
:103F0000A2CE82E686E48AE28EE012FE16FC1AFA5F
:103F10001EF82AF62EF432F236F03AEE3EEC42EA81
:103F200046E872E676E47AE27EE08010930550522D
:103F3000B747004013850740EF20700DAA87A1C343
:103F400003A7018785476315F700EFF04FB305A07E
:103F500003A7018789476315F700EFE06FB401A855
:103F600003A701878D476314F700EFF06FAE930549
:103F70005052B747004013850740EF2070190100E9
:103F800076443660A660166186617272E272527380
:103F9000C2733275A275127682767267E2675268D2
:103FA000C268326EA26E126F826F2561730020307C
:103FB0001D71A2CE82E686E48AE28EE012FE16FC35
:103FC0001AFA1EF82AF62EF432F236F03AEE3EECE9
:103FD00042EA46E872E676E47AE27EE080109305F3
:103FE0005052B757004013850780EF205002AA8730
:103FF00089CB93055052B757004013850780EF20B7
:104000003011010076443660A660166186617272D6
:10401000E2725273C2733275A2751276827672673B
:10402000E2675268C268326EA26E126F826F2561BB
:10403000730020301D71A2CE82E686E48AE28EE013
:1040400012FE16FC1AFA1EF82AF62EF432F236F098
:104050003AEE3EEC42EA46E872E676E47AE27EE048
:10406000801093055052B7570040138507C0EF20CA
:10407000007AAA8789CB93055052B7570040138521
:1040800007C0EF20F008010076443660A660166194
:1040900086617272E2725273C2733275A2751276C1
:1040A00082767267E2675268C268326EA26E126FE1
:1040B000826F2561730020301D71A2CE82E686E4F6
:1040C0008AE28EE012FE16FC1AFA1EF82AF62EF488
:1040D00032F236F03AEE3EEC42EA46E872E676E438
:1040E0007AE27EE080109305505237550040EF2071
:1040F0000072AA8789CBEFE02F9D93055052375568
:104100000040EF20F000010076443660A6601661A2
:1041100086617272E2725273C2733275A275127640
:1041200082767267E2675268C268326EA26E126F60
:10413000826F2561730020301D71A2CE82E686E475
:104140008AE28EE012FE16FC1AFA1EF82AF62EF407
:1041500032F236F03AEE3EEC42EA46E872E676E4B7
:104160007AE27EE0801093055052B7270040138515
:104170000780EF20C069AA8789CB93055052B727E3
:10418000004013850780EF20A07801007644366058
:10419000A660166186617272E2725273C2733275E2
:1041A000A275127682767267E2675268C268326ED2
:1041B000A26E126F826F2561730020301D71A2CE36
:1041C00082E686E48AE28EE012FE16FC1AFA1EF8F7
:1041D0002AF62EF432F236F03AEE3EEC42EA46E8A7
:1041E00072E676E47AE27EE0801093055052B727BB
:1041F0000040138507C0EF208061AA878DC703A701
:10420000018785476309F70003A70187894763147E
:10421000F700EFE06F8693055052B72700401385F3
:1042200007C0EF20E06E010076443660A66016619C
:1042300086617272E2725273C2733275A27512761F
:1042400082767267E2675268C268326EA26E126F3F
:10425000826F2561730020301D71A2CE82E686E454
:104260008AE28EE012FE16FC1AFA1EF82AF62EF4E6
:1042700032F236F03AEE3EEC42EA46E872E676E496
:104280007AE27EE080109305505237250040EF20FF
:104290000058AA8799C79305505237250040EF2050
:1042A0002067010076443660A660166186617272EE
:1042B000E2725273C2733275A27512768276726799
:1042C000E2675268C268326EA26E126F826F256119
:1042D000730020301D71A2CE82E686E48AE28EE071
:1042E00012FE16FC1AFA1EF82AF62EF432F236F0F6
:1042F0003AEE3EEC42EA46E872E676E47AE27EE0A6
:104300008010B707055083C7070193F7F70F918B0C
:1043100085C3EFD01FFFB707055083C7070113F709
:10432000F70FB70705506D9B1377F70F2388E7004A
:10433000010076443660A660166186617272E27290
:104340005273C2733275A275127682767267E26713
:104350005268C268326EA26E126F826F256173005E
:1043600020301D71A2CE82E686E48AE28EE012FE43
:1043700016FC1AFA1EF82AF62EF432F236F03AEE4D
:104380003EEC42EA46E872E676E47AE27EE08010AD
:104390000545EF00D0272A8785476315F7000545B7
:1043A000EF00502C010076443660A66016618661ED
:1043B0007272E2725273C2733275A275127682768D
:1043C0007267E2675268C268326EA26E126F826FC5
:1043D0002561730020301D71A2CE82E686E48AE258
:1043E0008EE012FE16FC1AFA1EF82AF62EF432F2AD
:1043F00036F03AEE3EEC42EA46E872E676E47AE2DD
:104400007EE080100945EF0090202A8785476315DC
:10441000F7000945EF001025010076443660A660DC
:10442000166186617272E2725273C2733275A2753E
:10443000127682767267E2675268C268326EA26E46
:10444000126F826F2561730020301D71A2CE82E64B
:1044500086E48AE28EE012FE16FC1AFA1EF82AF6AC
:104460002EF432F236F03AEE3EEC42EA46E872E6DC
:1044700076E47AE27EE080101145EF0050192A8739
:1044800085476315F7001145EF00D01D0100764404
:104490003660A660166186617272E2725273C273F0
:1044A0003275A275127682767267E2675268C268C8
:1044B000326EA26E126F826F2561730020301D7103
:1044C000A2CE82E686E48AE28EE012FE16FC1AFA9A
:1044D0001EF82AF62EF432F236F03AEE3EEC42EABC
:1044E00046E872E676E47AE27EE080102145EF004D
:1044F00010122A8785476315F7002145EF009016B3
:10450000010076443660A660166186617272E272BE
:104510005273C2733275A275127682767267E26741
:104520005268C268326EA26E126F826F256173008C
:1045300020301D71A2CE82E686E48AE28EE012FE71
:1045400016FC1AFA1EF82AF62EF432F236F03AEE7B
:104550003EEC42EA46E872E676E47AE27EE08010DB
:104560004145EF00D00A2A8785476315F70041458A
:10457000EF00500F010076443660A6601661866138
:104580007272E2725273C2733275A27512768276BB
:104590007267E2675268C268326EA26E126F826FF3
:1045A0002561730020301D71A2CE82E686E48AE286
:1045B0008EE012FE16FC1AFA1EF82AF62EF432F2DB
:1045C00036F03AEE3EEC42EA46E872E676E47AE20B
:1045D0007EE0801013050002EF0070032A878547F4
:1045E0006316F70013050002EF00D007130500045F
:1045F000EF00F0012A8785476316F70013050004D2
:10460000EF00500613050008EF0070002A87854769
:104610006316F70013050008EF00D004130500101F
:10462000EF00E07E2A8785476316F7001305001028
:10463000EF00500313050020EF00607D2A878547B7
:104640006316F70013050020EF00D0010100764447
:104650003660A660166186617272E2725273C2732E
:104660003275A275127682767267E2675268C26806
:10467000326EA26E126F826F2561730020301D7141
:10468000A2CE82E686E48AE28EE012FE16FC1AFAD8
:104690001EF82AF62EF432F236F03AEE3EEC42EAFA
:1046A00046E872E676E47AE27EE080101305004088
:1046B000EF00E0752A8785476316F7001305004071
:1046C000EF00407A856713850780EF0040742A87E2
:1046D00085476317F700856713850780EF008078AB
:1046E000056535272A8785476315F7000565EF00BF
:1046F00060770965292F2A8785476315F7000965C3
:10470000EF004076116521272A8785476315F7005A
:104710001165EF0020752165DD2D2A87854763151A
:10472000F7002165EF000074010076443660A66052
:10473000166186617272E2725273C2733275A2752B
:10474000127682767267E2675268C268326EA26E33
:10475000126F826F2561730020301D71A2CE82E638
:1047600086E48AE28EE012FE16FC1AFA1EF82AF699
:104770002EF432F236F03AEE3EEC42EA46E872E6C9
:1047800076E47AE27EE080108545B73701401385F4
:1047900007C0EF103041AA8781CB8545B73701406C
:1047A000138507C0EF101047010076443660A660FD
:1047B000166186617272E2725273C2733275A275AB
:1047C000127682767267E2675268C268326EA26EB3
:1047D000126F826F2561730020301D71A2CE82E6B8
:1047E00086E48AE28EE012FE16FC1AFA1EF82AF619
:1047F0002EF432F236F03AEE3EEC42EA46E872E649
:1048000076E47AE27EE08010854537050040EF10BF
:104810007039AA8791CB854537050040EF10903F4E
:1048200013052008EFB0BFD3010076443660A660C0
:10483000166186617272E2725273C2733275A2752A
:10484000127682767267E2675268C268326EA26E32
:10485000126F826F2561730020301D71A2CE82E637
:1048600086E48AE28EE012FE16FC1AFA1EF82AF698
:104870002EF432F236F03AEE3EEC42EA46E872E6C8
:1048800076E47AE27EE080108545B7070040138524
:104890000740EF103031AA8781CB8545B70700402C
:1048A00013850740EF101037010076443660A6608C
:1048B000166186617272E2725273C2733275A275AA
:1048C000127682767267E2675268C268326EA26EB2
:1048D000126F826F2561730020301D71A2CE82E6B7
:1048E00086E48AE28EE012FE16FC1AFA1EF82AF618
:1048F0002EF432F236F03AEE3EEC42EA46E872E648
:1049000076E47AE27EE080108545B7170040138593
:104910000780EF103029AA8781CB8545B717004063
:1049200013850780EF10102F010076443660A660D3
:10493000166186617272E2725273C2733275A27529
:10494000127682767267E2675268C268326EA26E31
:10495000126F826F2561730020301D71A2CE82E636
:1049600086E48AE28EE012FE16FC1AFA1EF82AF697
:104970002EF432F236F03AEE3EEC42EA46E872E6C7
:1049800076E47AE27EE080108545B7170040138513
:1049900007C0EF103021AA8781CB8545B7170040AB
:1049A000138507C0EF101027010076443660A6601B
:1049B000166186617272E2725273C2733275A275A9
:1049C000127682767267E2675268C268326EA26EB1
:1049D000126F826F2561730020301D71A2CE82E6B6
:1049E00086E48AE28EE012FE16FC1AFA1EF82AF617
:1049F0002EF432F236F03AEE3EEC42EA46E872E647
:104A000076E47AE27EE08010854537150040EF10AD
:104A10007019AA8791C7854537150040EF10901F80
:104A2000010076443660A660166186617272E27299
:104A30005273C2733275A275127682767267E2671C
:104A40005268C268326EA26E126F826F2561730067
:104A500020301D71A2CE82E686E48AE28EE012FE4C
:104A600016FC1AFA1EF82AF62EF432F236F03AEE56
:104A70003EEC42EA46E872E676E47AE27EE08010B6
:104A80008545B717004013850740EF10B011AA877E
:104A900081CB8545B717004013850740EF1090176D
:104AA000010076443660A660166186617272E27219
:104AB0005273C2733275A275127682767267E2679C
:104AC0005268C268326EA26E126F826F25617300E7
:104AD00020301D71A2CE82E686E48AE28EE012FECC
:104AE00016FC1AFA1EF82AF62EF432F236F03AEED6
:104AF0003EEC42EA46E872E676E47AE27EE0801036
:104B00008545B737014013850740EF10B009AA87E4
:104B100081CB8545B737014013850740EF10900FD3
:104B2000010076443660A660166186617272E27298
:104B30005273C2733275A275127682767267E2671B
:104B40005268C268326EA26E126F826F2561730066
:104B500020301D71A2CE82E686E48AE28EE012FE4B
:104B600016FC1AFA1EF82AF62EF432F236F03AEE55
:104B70003EEC42EA46E872E676E47AE27EE08010B5
:104B80008545B7570140138507C0EF10B001AA87CC
:104B900081CB8545B7570140138507C0EF109007BB
:104BA000010076443660A660166186617272E27218
:104BB0005273C2733275A275127682767267E2679B
:104BC0005268C268326EA26E126F826F25617300E6
:104BD00020301D71A2CE82E686E48AE28EE012FECB
:104BE00016FC1AFA1EF82AF62EF432F236F03AEED5
:104BF0003EEC42EA46E872E676E47AE27EE0801035
:104C0000854537550140EF10E079AA8791C7854562
:104C100037550140EF101000010076443660A66061
:104C2000166186617272E2725273C2733275A27536
:104C3000127682767267E2675268C268326EA26E3E
:104C4000126F826F256173002030411122C6000867
:104C500001003244410173002030411122C6000896
:104C600001A0411106C622C40008EFF08F9EB7478D
:104C7000950813850740EFE06FE3EFE0FFF0EFE00A
:104C80008FB8EFD03FE4EF30F07EEFF0AF9983C7FD
:104C9000018593F7F70F89CB23880184EFD01F910B
:104CA000EF20B02CEFD09FA1EF40A006CDB701A020
:104CB00001A001A001A001A001A001A001A001A0EC
:104CC00001A001A001A001A001A001A001A001A0DC
:104CD00001A001A001A001A001A001A001A001A0CC
:104CE00001A001A001A001A001A001A001A001A0BC
:104CF00001A001A001A001A001A001A001A001A0AC
:104D000001A001A001A001A001A001A001A001A09B
:104D100001A001A001A001A001A001A001A001A08B
:104D200001A001A001A001A001A001A001A001A07B
:104D300001A001A001A001A001A001A001A001A06B
:104D400001A001A001A001A001A001A001A001A05B
:104D500001A001A001A001A001A001A001A001A04B
:104D600001A001A001A001A001A001A097C1FF1F07
:104D7000938141D017B100201301C12817B500005D
:104D80001305850B97B5FF1F9385C52713860183F0
:104D900063FAC5008322050023A055001105910583
:104DA000E3EAC5FE1385018397350020938545CE40
:104DB0006377B500232005001105E36DB5FEFD42C4
:104DC000739002BCFD4273904280B78200009382D0
:104DD000828873A0023097B2FFFF9382222693E26B
:104DE00032007390523037F5FF1F930500302318BF
:104DF000B51A372902400325C90005897DF99702B4
:104E00000000938242E6739012347300203079716F
:104E100022D60018232EA4FC232604FE232404FEFD
:104E2000B7070140938707409C430327C4FDF98FD0
:104E30002324F4FEB707014093870740D84B83270C
:104E4000C4FDF98F81CB832784FE89C7854723263C
:104E5000F4FE19A0232604FE8327C4FE3E853254A7
:104E600045618280011122CE00102326A4FEB707DF
:104E70000140938707400327C4FED8CB010072444A
:104E800005618280397122DE80002326A4FC232460
:104E9000B4FC232604FE232004FE232404FE232E38
:104EA00004FC232204FE232C04FC832784FC9C475F
:104EB000BD8B2326F4FE832784FC9C47C18B89CBC2
:104EC000832784FCDC430327C4FED98F2326F4FE0A
:104ED000832784FC83D7070093F7F70FF1CF83274D
:104EE000C4FC9C432322F4FE232404FE65A88327EC
:104EF00084FE0547B317F700232EF4FC832784FCB8
:104F000083D707003E878327C4FDF98F2320F4FE53
:104F1000032704FE8327C4FD6311F708832784FE5B
:104F20008A07232EF4FC8327C4FD3D47B317F700FF
:104F3000232CF4FC832784FD93C7F7FF032744FE4B
:104F4000F98F2322F4FE8327C4FD0327C4FEB31781
:104F5000F700032744FED98F2322F4FE832784FC25
:104F6000984793078002631BF700832784FE054759
:104F70003317F7008327C4FCD8CB05A0832784FC14
:104F8000984793078004631AF700832784FE054738
:104F90003317F7008327C4FC98CB832784FE85074B
:104FA0002324F4FE032784FE9D47E3F2E7F48327DE
:104FB000C4FC032744FE98C3832784FC03D707005F
:104FC0009307F00F63F1E70E8327C4FCDC43232231
:104FD000F4FE232404FE75A8832784FEA107054759
:104FE000B317F700232EF4FC832784FC83D7070034
:104FF0003E878327C4FDF98F2320F4FE032704FE98
:105000008327C4FD6312F708832784FE8A07232EB3
:10501000F4FC8327C4FD3D47B317F700232CF4FCB1
:10502000832784FD93C7F7FF032744FEF98F2322CC
:10503000F4FE8327C4FD0327C4FEB317F70003273C
:1050400044FED98F2322F4FE832784FC98479307DC
:105050008002631BF700832784FEA10705473317EF
:10506000F7008327C4FCD8CB832784FC9847930799
:105070008004631BF700832784FEA10705473317CD
:10508000F7008327C4FC98CB832784FE850723245D
:10509000F4FE032784FE9D47E3F0E7F48327C4FC76
:1050A000032744FED8C3010072542161828001119C
:1050B00022CE00102326A4FEAE872322C4FE231591
:1050C000F4FE832744FE99C70357A4FE8327C4FE3A
:1050D00098CB31A00357A4FE8327C4FED8CB010090
:1050E000724405618280797122D60018232EA4FCB7
:1050F000232CB4FC232404FE232204FE232604FED6
:10510000232004FE8327C4FD63D80700B7070140AE
:10511000DC4F2326F4FE31A0B7070140DC432326F1
:10512000F4FE8327C4FDC183BD8B2320F4FE032737
:10513000C4FDC167FD17F98F2324F4FE0327C4FDC6
:10514000B70730007D8FB70730006315F7020327DC
:10515000C4FEB70700F1FD17F98F2326F4FEB70749
:105160000140D443B7070140370700F17D17758F21
:10517000D8C3ADA00327C4FDB7071000F98F8DCBAE
:10518000832704FE0D47B317F7002322F4FE83277D
:1051900044FE93C7F7FF0327C4FEF98F2326F4FECE
:1051A0000327C4FEB707000FD98F2326F4FE3DA0C6
:1051B0008327C4FDD5839207032784FEB317F70026
:1051C00093C7F7FF0327C4FEF98F2326F4FE0327B6
:1051D000C4FEB707000FD98F2326F4FE832784FD72
:1051E00091CF8327C4FDD5839207032784FEB3178D
:1051F000F7000327C4FED98F2326F4FE8327C4FDBE
:1052000063D80700B70701400327C4FED8CF31A0F9
:10521000B70701400327C4FED8C3010032544561DB
:105220008280397122DE80002326A4FC232204FE22
:10523000232604FE232004FE232E04FC232404FE44
:10524000B7170240DC43B18B2322F4FE032744FE50
:1052500091476303F702032744FEA1476306F70261
:10526000832744FE639907148327C4FC37177A0009
:105270001307072098C389AA8327C4FC37177A002D
:105280001307072098C389A2B7170240D843B7076E
:105290003C00F98F2326F4FEB7170240D843C167BC
:1052A000F98F2320F4FE8327C4FEC98389072326B0
:1052B000F4FEB7F7FF1F9387C77098439167F98F84
:1052C00091EB0327C4FEC5476319F704C94723269A
:1052D000F4FEA1A00327C4FE89476315F700C94760
:1052E0002326F4FE0327C4FEBD476318F700B54725
:1052F0002326F4FE85472324F4FE0327C4FEC1477A
:105300006315F700BD472326F4FE0327C4FEC547F7
:105310006315F700C1472326F4FE832704FEA1E3AB
:10532000B7470240938707809C43C18B89CF0327EF
:10533000C4FEB7177A00938707203307F702832745
:10534000C4FC98C399A80327C4FEB7173D009387F0
:1053500007903307F7028327C4FC98C33DA8B7170B
:105360000240D843B7070200F98F89CF0327C4FE54
:10537000B7173D00938707903307F7028327C4FCD4
:1053800098C321A80327C4FEB7177A009387072084
:105390003307F7028327C4FC98C3032784FE85479D
:1053A0006313F7028327C4FC9C4313D7170083279A
:1053B000C4FC98C309A88327C4FC37177A001307D5
:1053C000072098C311A00100B7170240DC4393F7F0
:1053D000070F2322F4FE832744FE91832322F4FE49
:1053E000B70700201387C704832744FEBA9783C7F3
:1053F000070093F7F70F232EF4FC8327C4FC984390
:105400008327C4FD3357F7008327C4FCD8C3B717DD
:105410000240DC4393F707702322F4FE832744FE07
:10542000A1832322F4FEB70700201387C704832734
:1054300044FEBA9783C7070093F7F70F232EF4FCB7
:105440008327C4FCD8438327C4FD3357F700832741
:10545000C4FC98C7B7170240D84391679387078069
:10546000F98F2322F4FE832744FEAD832322F4FE2A
:10547000B70700201387C704832744FEBA9783C762
:10548000070093F7F70F232EF4FC8327C4FCD843BF
:105490008327C4FD3357F7008327C4FCD8C7B71749
:1054A0000240D843B167F98F2322F4FE832744FEDC
:1054B000B9832322F4FE13878180832744FEBA97A1
:1054C00083C7070093F7F70F232EF4FC8327C4FC50
:1054D000D8478327C4FD3357F7028327C4FC98CBF2
:1054E0000100725421618280011122CE0010232616
:1054F000A4FE2324B4FE832784FE99CBB717024071
:10550000D44BB71702400327C4FE558FD8CB21A830
:10551000B7170240D44B8327C4FE13C7F7FFB71752
:105520000240758FD8CB0100724405618280011161
:1055300022CE00102326A4FE2324B4FE832784FE5B
:1055400099CBB7170240944FB71702400327C4FE08
:10555000558F98CF21A8B7170240944F8327C4FED8
:1055600013C7F7FFB7170240758F98CF0100724439
:1055700005618280011122CE00102326A4FE23247F
:10558000B4FE832784FE99CBB7170240D44FB717D8
:1055900002400327C4FE558FD8CF21A8B717024079
:1055A000D44F8327C4FE13C7F7FFB7170240758F88
:1055B000D8CF0100724405618280011122CE001013
:1055C0002326A4FE2324B4FE832784FE99CBB71799
:1055D0000240D447B71702400327C4FE558FD8C7EF
:1055E00021A8B7170240D4478327C4FE13C7F7FF8B
:1055F000B7170240758FD8C70100724405618280D9
:10560000011122CE00102326A4FE2324B4FE8327FA
:1056100084FE99CBB7170240944BB717024003277B
:10562000C4FE558F98CB21A8B7170240944B83270F
:10563000C4FE13C7F7FFB7170240758F98CB010060
:10564000724405618280011106CE22CC001023260F
:10565000A4FE0327C4FEB7370140631BF70085454E
:105660000565EFF09FF581450565EFF01FF591A009
:105670000327C4FEB747004093870780631BF700EA
:1056800085451165EFF0DFF781451165EFF05FF7B4
:105690000DA00327C4FEB7470040938707C0631AD5
:1056A000F70085452165EFF0BFF581452165EFF0F5
:1056B0003FF50100F240624405618280797122D693
:1056C0000018232EA4FC232CB4FC231704FE8327EC
:1056D000C4FD83D707002317F4FE0357E4FE8D674C
:1056E00093870704F98F2317F4FE832784FD03D7DC
:1056F0000700832784FD83D72700D98F13970701DD
:105700004183832784FD83D74700D98F13970701EF
:105710004183832784FD83D76700D98F13970701BF
:105720004183832784FD83D78700D98F139707018F
:105730004183832784FD83D7A700D98F139707015F
:105740004183832784FD83D7C700D98F139707012F
:105750004183832784FD83D7E700D98F13970701FF
:1057600041838357E4FED98F2317F4FE8327C4FDBA
:105770000357E4FE2390E7008327C4FD83D7C701C6
:10578000139707014183FD779387F77FF98F13976D
:10579000070141838327C4FD239EE700832784FDFF
:1057A00003D707018327C4FD2398E7000100325483
:1057B00045618280011122CE00102326A4FE2324FD
:1057C000B4FE832784FE8DC38327C4FE83D70700DE
:1057D000C207C18393E70704139707014183832717
:1057E000C4FE2390E70005A08327C4FE83D70700EB
:1057F000C207C18393F7F7FB139707014183832700
:10580000C4FE2390E7000100724405618280797133
:1058100022D60018232EA4FC232CB4FC231704FE4C
:105820008327C4FD83D707002317F4FE0327C4FD95
:10583000B7370140938707C06306F7060327C4FD07
:10584000B70700406300F7060327C4FDB707004011
:10585000938707406308F7040327C4FDB717004088
:10586000938707806300F7040327C4FDB717004040
:10587000938707C06308F7020327C4FDB7370140C9
:10588000938707406300F7020327C4FDB757014021
:10589000938707C06308F7000327C4FDB75701408B
:1058A0006311F7028357E4FE93F7F7F82317F4FE2A
:1058B000832784FD03D727008357E4FED98F23175E
:1058C000F4FE0327C4FDB71700406309F70203275E
:1058D000C4FDB7170040938707406301F702835761
:1058E000E4FE93F7F7CF2317F4FE832784FD03D755
:1058F00067008357E4FED98F2317F4FE8327C4FD86
:105900000357E4FE2390E700832784FD03D7470075
:105910008327C4FD2396E702832784FD03D707006E
:105920008327C4FD2394E7020327C4FDB737014052
:10593000938707C06308F7020327C4FDB737014008
:10594000938707406300F7020327C4FDB757014060
:10595000938707C06308F7000327C4FDB7570140CA
:10596000631DF700832784FD83C787001397070112
:1059700041838327C4FD2398E7028327C4FD05479D
:10598000239AE7000100325445618280797122D662
:105990000018232EA4FC232CB4FC231504FE23178B
:1059A00004FE231604FE8327C4FD83D70702C20723
:1059B000C183F99B1397070141838327C4FD23907B
:1059C000E7028327C4FD83D707022317F4FE83274A
:1059D000C4FD83D747002316F4FE8327C4FD83D775
:1059E00087012315F4FE8357A4FE93F7F7F82315D8
:1059F000F4FE8357A4FEF19B2315F4FE832784FD58
:105A000003D707008357A4FED98F2315F4FE8357CD
:105A1000E4FEF59B2317F4FE832784FD03D787005C
:105A20008357E4FED98F2317F4FE832784FD03D721
:105A300027008357E4FED98F2317F4FE0327C4FD04
:105A4000B7370140938707C06308F7020327C4FDF7
:105A5000B7370140938707406300F7020327C4FD6F
:105A6000B7570140938707C06308F7000327C4FDB9
:105A7000B7570140631CF7068357E4FEDD9B2317ED
:105A8000F4FE832784FD03D7A7008357E4FED98F54
:105A90002317F4FE8357E4FEED9B2317F4FE8327C0
:105AA00084FD03D747008357E4FED98F2317F4FE04
:105AB0008357C4FE93F7F7EF2316F4FE8357C4FE13
:105AC00093F7F7DF2316F4FE832784FD03D7C7007F
:105AD0008357C4FED98F2316F4FE832784FD03D792
