:100000006F40402C1300000013000000130000009C
:100010001300000013000000130000001300000094
:100020001300000013000000130000001300000084
:08003000130000007300100032
:100038000000000000000000B8410000C8410000B6
:10004800000000000A42000000000000000000005C
:100058000C4200000E4200000000000000000000FA
:1000680010420000000000001242000000000000E2
:100078001442000016420000184200001A42000014
:100088001C4200001E420000D63800004A39000019
:10009800BE390000323A0000A63A00002A420000A9
:1000A8002C4200002E420000304200003242000084
:1000B8003442000036420000384200003A42000054
:1000C8003C4200003E420000404200001A3B000053
:1000D80044420000C83C0000484200004A42000078
:1000E800483D0000C83D0000483E00005242000064
:1000F8005442000056420000584200005A42000094
:100108005C420000EE330000723400002435000029
:10011800F23B000066420000684200006A420000AC
:10012800404000006E420000704200007242000031
:100138007442000076420000C83E00007A42000087
:10014800A83500002C360000483F0000C03F0000E2
:100158008442000086420000884200008A42000073
:100168008C4200008E420000904200009242000043
:10017800944200009642000098420000F45E00009D
:100188009C4200009E42000048380000AC36000047
:1001980030370000CC370000A8420000C040000003
:1001A800AC420000AE420000B042000040410000F6
:1001B800B4420000B6420000B8420000BA42000053
:1001C800BC420000BE420000C0420000C242000023
:1001D8000000000000000000000000000000000017
:1001E8000000000000000000000000000000000007
:0801F8000000000000000000FF
:10020000737504308280B76200009382820873A005
:10021000023082803D432A876373C3029377F700DD
:10022000BDEFADE5937606FF3D8ABA960CC34CC38D
:100230000CC74CC74107E36BD7FE11E28280B306BF
:10024000C3408A069702000096966780A60023079F
:10025000B700A306B7002306B700A305B700230520
:10026000B700A304B7002304B700A303B700230318
:10027000B700A302B7002302B700A301B700230110
:10028000B700A300B7002300B700828093F5F50FF5
:1002900093968500D58D93960501D58D61B793967C
:1002A00027009702000096968682E78086FA96805D
:1002B000C1171D8F3E96E374C3F8A5B7011122CE76
:1002C00000102324A4FE2326B4FEB7F700E023A0E9
:1002D0000700B7F700E08146014794C7D8C7B7F7D2
:1002E00000E0054798C30100B7F700E003A8C70086
:1002F0009C470327C4FEC286636CD7000327C4FE55
:10030000C286E313D7FE032784FE6363F700E9BFC9
:100310000100724405618280797122D60018232E73
:10032000A4FC8327C4FD958393F7F70F9D8BA30748
:10033000F4FE8327C4FD93F7F70FBD8B2307F4FE6C
:100340000347F4FEB9670A0793870783BA979C436C
:10035000DC470347E4FE85463397E60042074183C6
:100360003A868346F4FE39678A0613070783369771
:100370001843B18F5CC701003254456182807971A6
:1003800006D622D40018232EA4FC232CB4FC232A46
:10039000C4FC2328D4FC232004FE232204FE2324AF
:1003A00004FE8327C4FD958393F7F70F9D8BA30766
:1003B000F4FE8327C4FD93F7F70FBD8B2307F4FEEC
:1003C0000327C4FD9307F00F6305F7140327C4FD4B
:1003D0009307F00F6301F7148347F4FE91E7854517
:1003E0001145EF40E06541A00347F4FE85476317E0
:1003F000F70085452145EF40A064B5A00347F4FE12
:1004000089476317F70085454145EF406063A1A820
:100410000347F4FE8D476318F70085451305000276
:10042000EF40006289A00347F4FE91476318F7008C
:10043000854513050004EF40A06035A00347F4FE96
:1004400095476318F700854513050008EF40405FA6
:1004500019A80347F4FE99476317F700854513056C
:100460000010EF40E05D8347E4FE0547B317F70057
:10047000C207C1832310F4FE032784FD8547631759
:10048000F702832704FDC207C183A183C207C1838A
:1004900089E78D472322F4FE11A8832704FDC207B4
:1004A000C183A183C207C1832322F4FE832704FDF5
:1004B000C207C18393F7F70F2324F4FE0347F4FE2A
:1004C000B9670A0793870783BA979C433E879307C8
:1004D00004FEBE853A85EF307070032784FD8547A2
:1004E000631CF7020347F4FEB9670A079387078383
:1004F000BA979C43BE868347E4FE0547B317F700CF
:10050000C207C183032644FDBE853685EF40A00F98
:1005100021A0010011A00100B25022544561828047
:10052000011106CE22CC00102326A4FE8327C4FE90
:1005300089EB9306803101468545214589356F0059
:10054000C0720327C4FE8547631AF7009306803103
:1005500001468545254525356F0020710327C4FEDA
:100560008947631AF700930680310146854529457E
:1005700039356F00806F0327C4FE8D47631AF7007B
:1005800093068031014685452D45D53B6F00E06DD2
:100590000327C4FEC147631BF70093068031014661
:1005A000854513059008E13B6F00206C0327C4FECE
:1005B000C547631AF7009306803101468545130548
:1005C000B008753B5DA50327C4FEC947631AF70051
:1005D00093068031014685451305D0084D3371A53A
:1005E0000327C4FECD47631AF70093068031014606
:1005F00085451305E00861338DAD0327C4FE9307DD
:1006000000106319F70093068031014685450145C6
:10061000BD33A1AD0327C4FE930710106319F70083
:1006200093068031014685450545913B3DAD032745
:10063000C4FE930720106319F7009306803101462A
:10064000854509452D3B15A50327C4FE93073010AA
:100650006319F70093068031014685450D45053342
:1006600029A50327C4FE930700116319F700930619
:100670008031014685453D451933C5AB0327C4FE8E
:1006800093071011631AF7009306803101468545E0
:1006900013053002ED31D1AB0327C4FE93072011BF
:1006A000631AF70093068031014685451305A002C1
:1006B000F93165AB0327C4FE93073011631AF700C5
:1006C00093068031014685451305B0024D3971AB63
:1006D0000327C4FE930700206319F70093068031B7
:1006E000014685451945613949A30327C4FE93078F
:1006F00010206319F70093068031014685451D459A
:10070000BD39A5A30327C4FE93072020631AF70071
:100710009306803101468545130500028D31B1A352
:100720000327C4FE93073020631AF7009306803135
:100730000146854513051002993105AB0327C4FE18
:1007400093070021631AF70093068031014685451F
:10075000130560042D3111AB0327C4FE930710214C
:10076000631AF7009306803101468545130570042E
:100770003931E5A90327C4FE93072021631AF70046
:10078000930680310146854513058004CD3EF1A9CD
:100790000327C4FE93073021631AF70093068031C4
:1007A0000146854513059004D93EC1A10327C4FE27
:1007B00093070022631AF7009306803101468545AE
:1007C000130540026D3E55A10327C4FE9307102276
:1007D000631AF700930680310146854513055002E0
:1007E000793E61A10327C4FE93070030631AF70026
:1007F0009306803101468545130560024936B5A14F
:100800000327C4FE93071030631AF7009306803164
:1008100001468545130570029D3681A90327C4FE54
:1008200093072030631AF70093068031014685450F
:1008300013058002A93615A90327C4FE930730309B
:10084000631AF7009306803101468545130590022F
:100850003D3621A90327C4FE93070031631AF70030
:1008600093068031014685451305C006093EF5AE65
:100870000327C4FE93071031631AF70093068031F3
:10088000014685451305D006DD3CC5A60327C4FEF9
:1008900093072031631AF70093068031014685459E
:1008A0001305E006E93CD1A60327C4FE93073031C7
:1008B000631AF70093068031014685451305F0065B
:1008C0007D3C65A60327C4FE930700406319F7002B
:1008D00093068031014685450145553479A60327A5
:1008E000C4FE930710406319F70093068031014658
:1008F00085450545693495AE0327C4FE930720401E
:100900006319F70093068031014685450945853C0A
:10091000A9AE0327C4FE930730406319F70093067E
:100920008031014685450D45993C81A60327C4FECB
:1009300093070070631AF7009306803101468545DE
:10094000130560042D3C15A60327C4FE9307107001
:10095000631AF7009306803101468545130570043C
:10096000393C21A60327C4FE93072070631AF700C1
:100970009306803101468545130580040934F5A4AA
:100980000327C4FE93073070631AF7009306803183
:100990000146854513059004DD32C1AC0327C4FE32
:1009A00093070071631AF70093068031014685456D
:1009B00013056002E93255AC0327C4FE930710719A
:1009C000631AF700930680310146854513057002CE
:1009D0007D3261AC0327C4FE93072071631AF700D0
:1009E000930680310146854513058002493AB5AC2E
:1009F0000327C4FE93073071631AF7009306803112
:100A0000014685451305D0049D3A85A48327C4FE7D
:100A10009387078081EB9306803101468545094520
:100A2000B93AA1A40327C4FE856793871780631989
:100A3000F70093068031014685450D45893235A47E
:100A40000327C4FE8567938727806319F700930601
:100A500080310146854511451D3201AC0327C4FE96
:100A6000856793873780631AF700930680310146C4
:100A70008545130540042132CDAA0327C4FE8567AE
:100A800093870781631AF7009306803101468545F5
:100A900013059006ED30D1AA0327C4FE856793871E
:100AA0001781631AF70093068031014685451305C7
:100AB000B006F1305DAA0327C4FE856793872781BE
:100AC000631AF70093068031014685451305D00669
:100AD0007D3061AA0327C4FE856793873781631A37
:100AE000F70093068031014685451305F00641382D
:100AF000ADAA0327C4FE856793870790631AF700A2
:100B00009306803101468545130580028D38B1AAD0
:100B10000327C4FE856793871790631AF70093062F
:100B20008031014685451305900291383DAA03277F
:100B3000C4FE856793872790631AF7009306803178
:100B400001468545130530041D3805A20327C4FE60
:100B5000856793873790631BF700930680310146C2
:100B600085451305B004EFF09F8101A20327C4FE61
:100B7000856793870791631BF700930680310146D1
:100B8000854513051006EFF08FFFC5A00327C4FEAF
:100B9000856793871791631BF700930680310146A1
:100BA000854513053006EFF08FFDC1A00327C4FE75
:100BB000856793872791631BF70093068031014671
:100BC000854513055006EFF08FFB45A00327C4FEB3
:100BD000856793873791631BF70093068031014641
:100BE000854513057006EFF08FF941A00327C4FE79
:100BF000856793870792631BF70093068031014650
:100C0000854513053002EFF08FF785A00327C4FE5A
:100C1000856793871792631BF7009306803101461F
:100C2000854513054002EFF08FF581A00327C4FE30
:100C3000856793872792631BF700930680310146EF
:100C4000854513055002EFF08FF305A00327C4FE7E
:100C5000856793873792631AF700930680310146C0
:100C600085451305F004EFF08FF10100F240624476
:100C700005618280797106D622D40018232EA4FC47
:100C8000232CB4FC032784FD896793871771B3373E
:100C9000F70093F7F70F3E8713062008B567938593
:100CA00007653A85EF20603F8327C4FD13D787008F
:100CB000B9670A0793870785BA979C4383D7C7020A
:100CC0002317F4FE0357E4FE832784FD3307F7025E
:100CD000896793870771B357F7022316F4FE8327BA
:100CE000C4FD13D78700B9670A0793870785BA97AA
:100CF00098438327C4FD8D8B8A07BA979387470350
:100D00003E878357C4FE1CC30100B2502254456184
:100D10008280397106DE22DC80002326A4FC232495
:100D2000B4FC2322C4FC8327C4FCA1838D453E85EB
:100D3000EF00501DAA873E871306B00BB567938559
:100D400007653A85EF206035032744FC8967938760
:100D50001771B337F70093F7F70F3E871306D00BE1
:100D6000B567938507653A85EF202033232004FE7D
:100D7000232204FE231404FE232804FC232A04FC5B
:100D8000232C04FC232E04FC231704FE8327C4FC1D
:100D9000A1833E85EF00901C0325C4FCEFF04FF8C3
:100DA00085450545EF30D0498327C4FC13D747005C
:100DB0008547631AF7008545B70716001385070CAA
:100DC000EF30F00701A28327C4FC13D74700C547C3
:100DD000631AF7008545B707180013850730EF3011
:100DE0001006CDA08327C4FC13D747009307100239
:100DF000631AF7008545B7171A00138507C0EF304F
:100E00001004C9A08327C4FC13D74700930720020E
:100E1000631AF7008545B7171A0013850780EF306E
:100E200010024DA08327C4FC13D74700930710037B
:100E30006317F70085450565EF30700061A08327D3
:100E4000C4FC13D7470093071007631BF700B707CD
:100E50000140D84FB707014013674700D8CF9DA086
:100E60008327C4FC13D7470093071008631BF700C0
:100E7000B7070140D84FB707014013670701D8CF24
:100E800091A08327C4FC13D7470093071009631B65
:100E9000F700B7070140D84FB707014013670704B1
:100EA000D8CF0DA08327C4FC13D747009307200990
:100EB000631AF700B7070140D84FB707014013671F
:100EC0000702D8CF03A70185832784FCB357F70215
:100ED000C1832317F4FE03A701858357E4FE85072A
:100EE000BE86832784FCB387F602B357F702231626
:100EF000F4FE0357C4FE832744FC3307F7028967D7
:100F000093870771B357F7022315F4FE8357C4FE86
:100F1000FD17C207C1832312F4FE8357E4FE23109A
:100F2000F4FE231304FE231104FE230404FE83278E
:100F3000C4FC13D78700B9670A0793870785BA9758
:100F40009C433E87930704FEBE853A85EF30505D93
:100F5000930700072318F4FC85472319F4FC231A90
:100F600004FC8357A4FE231BF4FC8947231CF4FCD8
:100F70008947231DF4FC231E04FC231F04FC832744
:100F8000C4FC8D8BB9EF8327C4FC13D78700B967E6
:100F90000A0793870785BA979C433E87930704FD0A
:100FA000BE853A85EF30B06F8327C4FC13D7870026
:100FB000B9670A0793870785BA979C43A1453E8581
:100FC000EF4060668327C4FC13D78700B9670A0720
:100FD00093870785BA979C4391453E85EF4060799A
:100FE00089A28327C4FC13F7370085476311F706EE
:100FF0008327C4FC13D78700B9670A07938707853F
:10100000BA979C433E87930704FDBE853A85EF401F
:10101000C0028327C4FC13D78700B9670A079387E8
:101020000785BA979C43A1453E85EF40806483279E
:10103000C4FC13D78700B9670A0793870785BA9757
:101040009C43930500403E85EF406077D9A88327F5
:10105000C4FC13F7370089476310F7068327C4FCE5
:1010600013D78700B9670A0793870785BA979C4308
:101070003E87930704FDBE853A85EF40201A8327FB
:10108000C4FC13D78700B9670A0793870785BA9707
:101090009C43A1453E85EF4060638327C4FC13D782
:1010A0008700B9670A0793870785BA979C439145DC
:1010B0003E85EF402076B5A08327C4FC13F73700A8
:1010C0008D476310F7068327C4FC13D78700B967E1
:1010D0000A0793870785BA979C433E87930704FDC9
:1010E000BE853A85EF4040318327C4FC13D7870083
:1010F000B9670A0793870785BA979C43A1453E8540
:10110000EF4080618327C4FC13D78700B9670A07C3
:1011100093870785BA979C43930500403E85EF402F
:1011200020748327C4FC13D78700B9670A07938705
:101130000785BA979C4385453E85EF40C048832785
:10114000C4FC13D78700B9670A0793870785BA9746
:101150009C4385453E85EF4080410100F25062543A
:1011600021618280011106CE22CC00102326A4FE2C
:101170002324B4FE2322C4FE2320D4FE8327C4FEEE
:1011800089EB93068031054685451545EFF02F9F85
:1011900061A00327C4FEC147631BF700930680319B
:1011A0000546854513053002EFF06F9DB5A0032776
:1011B000C4FE93070002631BF700930680310546C7
:1011C00085451305D002EFF08F9BB9A00327C4FE1D
:1011D00093070003631BF70093068031054685459E
:1011E00013053002EFF0AF9905A80327C4FE93075B
:1011F0000004631BF70093068031054685451305FF
:10120000A004EFF0CF9709A813069002B567938565
:10121000C76A0145EF107068032784FE8947631A87
:10122000F70093068031054685451D45EFF02F9563
:1012300061A0032784FEC947631BF7009306803132
:101240000546854513055002EFF06F93B5A00327BF
:1012500084FE93072002631BF70093068031054646
:1012600085451305F002EFF08F91B9A0032784FEA6
:1012700093072003631BF7009306803105468545DD
:1012800013055002EFF0AF8F05A8032784FE9307E4
:101290002004631BF700930680310546854513053E
:1012A000C004EFF0CF8D09A813060003B56793853E
:1012B000C76A0145EF10705E032744FE8547631A35
:1012C000F70093064030054681451945EFF02F8B16
:1012D00079A8032744FEC547631BF70093064030F7
:1012E0000546814513054002EFF06F8949A00327A9
:1012F00044FE93071002631BF70093064030054637
:1013000081451305E002EFF08F8795A0032744FE87
:1013100093071004631BF700930640300546814590
:101320001305B004EFF0AF8599A0032744FE93079F
:101330001003631BF70093064030054681451305F3
:101340004002EFF0CF8325A0032744FE9307F00F60
:101350006317F7009307F00F2322F4FE09A8130682
:101360008003B5679385C76A0145EF101053930654
:10137000003101468545032504FEEFF04F80010052
:10138000F2406244056182805D7186C6A2C4800815
:101390002326A4FC2324B4FC2322C4FC2320D4FC55
:1013A000232EE4FA232CF4FA232A04FB231704FE49
:1013B000232E04FC232004FE232204FE232404FE07
:1013C000231604FEB9670327C4FC0A0793874784E2
:1013D000BA979C433E85EF30207885450545EF3030
:1013E0002066032704FCC1476311F7020327C4FBEF
:1013F000C947631CF700032784FBC5476317F70041
:1014000085450545EF30A02315A8032704FC930765
:1014100000046315F7020327C4FB93072004631F2E
:10142000F700032784FB930710046319F700854531
:10143000B717200013850710EF3060208327C4FC06
:1014400091E785450565EF30A05F25A00327C4FC23
:1014500085476317F70085451165EF30C06211A815
:101460000327C4FC89476316F70085452165EF30E3
:101470008061832644FB032684FB8325C4FB03256C
:1014800004FCCD31231E04FC93074010231FF4FC01
:10149000231004FE032784FC85476305F702832796
:1014A00084FC81CF032784FC89476303F702032769
:1014B00084FC8D476304F7020DA8231104FE231258
:1014C00004FE25A0231104FE85472312F4FE31A853
:1014D00089472311F4FE231204FE01A88947231132
:1014E000F4FE85472312F4FE010003A7018583273C
:1014F00044FCB357F7022317F4FE0357E4FE9307A7
:10150000F00F63F7E700930780032317F4FE61A849
:101510000357E4FE9307F00763F7E7009307000320
:101520002317F4FE49A00357E4FE9307F00363F783
:10153000E700930780022317F4FEB5A00357E4FEEB
:10154000FD4763F7E700930700022317F4FEA1A805
:101550000357E4FEBD4763F6E700E1472317F4FEB7
:1015600099A00357E4FE9D4763F6E700C1472317A0
:10157000F4FE15A80357E4FE8D4763F6E700A14784
:101580002317F4FE0DA00357E4FE854763F5E7003B
:10159000231704FE09A81306D008B5679385C76A08
:1015A0000145EF10902F8357E4FE2314F4FE9307B8
:1015B00000202313F4FE231504FE9D472316F4FE9A
:1015C000B9670327C4FC0A0793874784BA979C43EB
:1015D0003E879307C4FDBE853A85EF30405FB9670B
:1015E0000327C4FC0A0793874784BA979C43854521
:1015F0003E85EF30406D0100B64026446161828037
:10160000011122CE00102326A4FEAE87A305F4FE0E
:10161000B9670327C4FE0A0793874784BA979C4398
:101620003E878347B4FEC207C1832316F70001003B
:10163000B9670327C4FE0A0793874784BA979C4378
:1016400083D78700C207C18393F70708F5F301002A
:10165000724405618280011122CE00102326A4FE6F
:101660002324B4FE2322C4FE2320D4FE49A08327D2
:1016700084FE138717002324E4FE83C60700B9679E
:101680000327C4FE0A0793874784BA979C433E8783
:1016900093970601C1832316F7000100B96703275A
:1016A000C4FE0A0793874784BA979C4383D7870071
:1016B000C207C18393F70708F5F3832744FE85CB60
:1016C000B9670327C4FE0A0793874784BA979C43E8
:1016D00083D7C70093960701C182832744FE1387EF
:1016E00017002322E4FE13F7F60F2380E700832779
:1016F00004FE1387F7FF2320E4FEB5FB01007244CC
:1017000005618280011122CE00102326A4FE23242D
:10171000B4FE0327C4FE0A0793870189BA979C4346
:1017200081EF0327C4FE0A0793870189BA9703272D
:1017300084FE98C3854739A80327C4FE0A07938708
:101740000189BA979C43032784FE6314F7008547F9
:1017500011A081473E85724405618280011106CE49
:1017600022CC00102326A4FE8327C4FE81EB8545EE
:10177000856713850780EF30A02C6DA80327C4FE72
:1017800085476317F70085450545EF30C02F5DA0FD
:101790000327C4FE89476317F70085450945EF30E5
:1017A000802E49A80327C4FE8D476317F70085459F
:1017B0001145EF30402DBDA80327C4FE91476317A4
:1017C000F70085452145EF30002CADA00327C4FE6E
:1017D00095476317F70085454145EF30C02A99A822
:1017E0000327C4FE99476318F700854513050002D7
:1017F000EF30602981A00327C4FE9D476317F700DF
:1018000085450965EF30C02335A00327C4FEA147F5
:101810006318F700854537050800EF30602219A8E6
:101820000327C4FEA5476317F70085453705100059
:10183000EF3000210100F240624405618280011115
:1018400006CE22CC00102326A4FE2324B4FE832738
:10185000C4FE81EBE146014685452545EFE03FB2F8
:10186000C9AA0327C4FE8947631AF700E146014667
:10187000854513056002EFE09FB065AA0327C4FE0B
:10188000C1476319F700E146014685450945EFE088
:101890001FAF45A20327C4FEC947631AF700E146FC
:1018A0000146854513055006EFE07FAD59A2032799
:1018B000C4FE93070002631AF700E146014685451E
:1018C0001305A002EFE0BFABADA20327C4FE930750
:1018D0002002631AF700E146014685451305A0047E
:1018E000EFE0FFA9B9A20327C4FE93074002631AE1
:1018F000F700E1460146854513058006EFE03FA865
:101900000DAA0327C4FE93070004631AF700E146FB
:10191000014685451305A004EFE07FA619AA032719
:10192000C4FE93072004631AF700E146014685458B
:1019300013050002EFE0BFA4EDA80327C4FE930740
:101940000005631AF700E146014685451305C0040A
:10195000EFE0FFA2F9A80327C4FE93072005631A4E
:10196000F700E1460146854513058008EFE03FA1F9
:10197000C9A00327C4FE93070006631AF700E146D7
:101980000146854513050004EFE07F9F5DA0032716
:10199000C4FE93072006631AF700E1460146854519
:1019A00013050004EFE0BF9D69A00327C4FE930761
:1019B0000007631AF700E146014685451305200438
:1019C000EFE0FF9BBDA00327C4FE93072007631928
:1019D000F700E146014685451945EFE05F9A91A879
:1019E0000327C4FE93074007631AF700E146014648
:1019F00085451305C008EFE09F9825A80327C4FE7E
:101A000093070008631AF700E14601468545130570
:101A10004004EFE0DF9631A80327C4FE93072008B7
:101A20006319F700E146014685451305E008EFE03C
:101A30001F95032784FE8547631AF70093068004E9
:101A4000014681452945EFE09F93D5AA032784FEEF
:101A50008D47631BF70093068004014681451305FB
:101A60007002EFE0DF91E1AA032784FEC547631A05
:101A7000F70093068004014681450D45EFE03F9055
:101A80007DAA032784FECD47631BF70093068004DD
:101A90000146814513056006EFE07F8E4DA20327C6
:101AA00084FE93071002631BF7009306800401462F
:101AB00081451305B002EFE09F8C51A2032784FEFD
:101AC00093073002631BF7009306800401468145AB
:101AD0001305B004EFE0BF8A9DA2032784FE93079D
:101AE0005002631BF70093068004014681451305ED
:101AF0009006EFE0DF88A1A2032784FE930710047D
:101B0000631BF70093068004014681451305B0046A
:101B1000EFE0FF862DA2032784FE93073004631BAA
:101B2000F700930680040146814513051002EFE09B
:101B30001F8531A2032784FE93071005631BF7005E
:101B4000930680040146814513052006EFE03F839C
:101B5000FDA0032784FE93073005631BF70093065F
:101B600080040146814513059008EFE05F81C1A81C
:101B7000032784FE93071006631BF7009306800477
:101B80000146814513051004EFE06FFF4DA80327C0
:101B900084FE93073006631BF7009306800401461A
:101BA00081451305B008EFE08FFD51A8032784FE9F
:101BB00093071007631BF7009306800401468145D5
:101BC00013053004EFE0AFFB9DA8032784FE9307C5
:101BD0003007631AF70093068004014681451D45CE
:101BE000EFE0EFF9A9A8032784FE93075007631BD2
:101BF000F70093068004014681451305D008EFE005
:101C00000FF835A8032784FE93071008631BF7001D
:101C1000930680040146814513055004EFE02FF63A
:101C200039A8032784FE93073008631AF700930648
:101C30008004014681451305F008EFE04FF40100F0
:101C4000F240624405618280011122CE00102326F9
:101C5000A4FEAE87A305F4FE0100B9670327C4FE06
:101C60000A0793878787BA979C4383D70700C207E1
:101C7000C18393F70708F5D3B9670327C4FE0A07A2
:101C800093878787BA979C433E878347B4FEC207F2
:101C9000C1832312F70001007244056182800111A3
:101CA00006CE22CC00102326A4FE2324B4FE232239
:101CB000C4FE29A8832784FE138717002324E4FE8B
:101CC00083C70700BE850325C4FEBD3F832744FEAE
:101CD0001387F7FF2322E4FEF1FF0100F240624484
:101CE00005618280011106CE22CC00102326A4FEBD
:101CF0002324B4FE39A8832784FE138717002324E6
:101D0000E4FE8387070093F7F70FBE850325C4FE23
:101D1000253F832784FE83870700F1FF0100F240FF
:101D2000624405618280011122CE00102326A4FEA8
:101D30002324B4FEB9670327C4FE0A079387878765
:101D4000BA979C4383D70700C207C18393F7070262
:101D50008DC7B9670327C4FE0A0793878787BA9799
:101D60009C4383D74700C207C18313F7F70F83272C
:101D700084FE2380E700854711A081473E85724499
:101D800005618280797106D622D40018232EA4FC26
:101D9000232CB4FC232AC4FC2328D4FC232004FED7
:101DA000232204FE232404FE232604FE8545054544
:101DB000EF201049832504FD032544FDEFF03FA8E3
:101DC000032744FD8947631CF700032704FD8D4763
:101DD0006317F70085451145EF20700695AA032784
:101DE00044FDC947631CF700032704FDCD47631773
:101DF000F70085452145EF20900499AA032744FD6B
:101E0000930720026310F702032704FD93073002B3
:101E1000631AF7008545B707140013850701EF2003
:101E200010023DA2032744FD930740026310F7020E
:101E3000032704FD93075002631AF7008545B7078F
:101E4000140013850703EF20807F19A2032744FDA8
:101E5000930720046311F702032704FD930730045E
:101E6000631BF700B7070140D44FB7070140416734
:101E7000558FD8CFF1A8032744FD9307200563129F
:101E8000F702032704FD93073005631CF700B7072B
:101E90000140D44FB707014037070800558FD8CF0E
:101EA00045A8032744FD930720066312F702032782
:101EB00004FD93073006631CF700B7070140D44FB9
:101EC000B707014037072000558FD8CF51A003270F
:101ED00044FD930720076312F702032704FD9307CD
:101EE0003007631CF700B7070140D44FB707014024
:101EF00037074000558FD8CFA1A8032744FD93078B
:101F000040076312F702032704FD93075007631C81
:101F1000F700B7070140D44FB707014037078000EB
:101F2000558FD8CF35A0032744FD930720086311B0
:101F3000F702032704FD93073008631BF700B70778
:101F40000140D44FB707014037070002558FD8CF63
:101F50008327C4FD91E785451165EF20702E69A8A0
:101F60000327C4FD85476318F70085453705020040
:101F7000EF20703151A00327C4FD89476318F70093
:101F8000854537050400EF201030BDA00327C4FDB0
:101F90008D476318F700854537050800EF20B02E00
:101FA000A1A80327C4FD91476318F70085453705AD
:101FB0001000EF20502D89A00327C4FD954763181A
:101FC000F700854513050004EF20F02B35A003270B
:101FD000C4FD99476318F700854513050008EF20F5
:101FE000902A19A80327C4FD9D476317F70085456C
:101FF00013050010EF203029832784FD2320F4FEF1
:10200000231204FE231304FE231404FE231604FEED
:10201000B1472315F4FEB9670327C4FD0A07938768
:102020008787BA979C433E87930704FEBE853A850F
:10203000EF305012B9670327C4FD0A0793878787DB
:10204000BA979C4385453E85EF3010340100B2506D
:10205000225445618280411106C622C4000893853E
:1020600081821945C9310546938581821385818B0B
:10207000EF10A0210100B2402244410182804111B1
:1020800006C622C400089385918205456939054634
:10209000938591821385C18CEF10201F0100B240FF
:1020A000224441018280411106C622C4000803A7D0
:1020B000418489476300F70203A741848D47631475
:1020C000F700312A01A803A7418491476314F70060
:1020D000EF0080770100B24022444101828041112B
:1020E00006C622C4000803A7418491476315F70080
:1020F000EF00E07B39A003A741848D476313F7000D
:1021000091220100B240224441018280011106CE99
:1021100022CC0010A30604FE4DA88347D4FEBE8542
:102120000145C92A230704FE41A8A30704FE23068C
:1021300004FEADA08347D4FE139737008347C4FE47
:10214000BA971307F003B306F7408347E4FE13077B
:10215000E0071D8FB96793878789BA9783C7070000
:102160003E86B70700201307A00B3387E60293874C
:10217000873DBA97B29783C707003E878347C4FE5F
:10218000B317F70013F7F70F8347F4FEBA97A307C7
:10219000F4FE8347C4FE85072306F4FE0347C4FE0E
:1021A0009D47E3F9E7F88347F4FE3E8575208347B2
:1021B000E4FE85072307F4FE8307E4FEE3D707F672
:1021C0008347D4FE8507A306F4FE0347D4FE9D474C
:1021D000E3F5E7F40100F2406244056182804111B9
:1021E00006C622C4000883C7F1823E879387C18256
:1021F000BA97BE851145EFF01FB3AA8781CB83C77D
:10220000F182850713F7F70FA387E18203C7F182F5
:102210008547631AF70003C7C1829307500A630416
:10222000F700A387018203C7F1828D476317F70088
:10223000A387018205472388E1820100B24022443E
:1022400041018280411122C6000805472385E182B1
:102250000100324441018280011106CE22CC0010DF
:10226000AA87A307F4FEB96793870783DC473E87F5
:1022700085475CCBB967938707839C4B3E87914723
:102280001CCB8347F4FEBE850945EFF06FB7B967F5
:1022900093870783DC473E8785471CCB0100F240CC
:1022A000624405618280011106CE22CC0010AA870B
:1022B000A307F4FEB96793870783DC473E8785470A
:1022C0005CCBB967938707839C4B3E8791475CCB78
:1022D0008347F4FEBE850945EFF08FB2B967938757
:1022E0000783DC473E8785471CCB0100F2406244F0
:1022F00005618280011106CE22CC0010AA872E87AC
:10230000A307F4FEBA872307F4FE8307F4FE93C7FE
:10231000F7FF93F7F70F9D8393F7F70F3E871306A9
:102320005005B567938587703A85EF00105783474E
:10233000E4FE93B7870093F7F70F3E871306600517
:10234000B567938587703A85EF0030558347E4FE83
:10235000938707FB93F7F70F3E85B1378347F4FE6A
:10236000918393F7F70F93E7070193F7F70F3E85F4
:102370001D3F8347F4FEBD8B93F7F70F3E8525374E
:102380000100F240624405618280797106D622D450
:1023900000189307C4FD3E85EF0010568547231EA5
:1023A000F4FC93070008231FF4FC93070004231098
:1023B000F4FE83A7818381EB99472301F4FE8547CF
:1023C000A301F4FE21A803A7818385476318F700C2
:1023D000A1472301F4FE8947A301F4FEB7270000BB
:1023E000938727482324F4FEB7270000938787406C
:1023F0002326F4FE9307C4FD3E85EF0090550100AF
:10240000B250225445618280011106CE22CC0010C8
:10241000A30704FE81A08347F4FE938707FB93F78D
:10242000F70F3E8549350545BD3D4145AD3D230787
:1024300004FE01A801450D358347E4FE8507230707
:10244000F4FE8307E4FEE3D707FE8347F4FE850727
:10245000A307F4FE0347F4FE9D47E3FEE7FA0100FD
:10246000F240624405618280011122CE00102326D1
:10247000A4FE0327C4FE23AAE18201007244056181
:102480008280797106D622D40018AA872E87232C41
:10249000C4FC231FF4FCBA87231EF4FC8357E4FD1D
:1024A00093B7070893F7F70F3E871306E00DB5675C
:1024B000938587703A85EF00503E8357C4FD93B7EC
:1024C000870093F7F70F3E871306F00DB5679385E6
:1024D00087703A85EF00703CA30604FEA30704FE54
:1024E000230704FE51AA83A78183D1EF8347E4FE2B
:1024F000032784FDBA978387070093F7F70F8117A7
:10250000A306F4FE0357E4FD9307E00763F9E70031
:10251000231F04FC8357C4FD8507231EF4FC835747
:10252000E4FD93F7F70F0357C4FD1377F70FBA8550
:102530003E85C933A30704FE3DA00347D4FE83466E
:10254000F4FE3966BA878607BA978607130786911D
:10255000BA97B69783C707003E85FD398347F4FED7
:102560008507A307F4FE0347F4FE9547E3F7E7FC6E
:102570008357E4FD9907231FF4FC8347E4FE850796
:102580002307F4FED5A88347E4FE032784FDBA970A
:102590008387070093F7F70F8117A306F4FE03570D
:1025A000E4FD9307800763F9E700231F04FC8357CA
:1025B000C4FD8507231EF4FC8357E4FD93F7F70F52
:1025C0000357C4FD1377F70FBA853E852533A3075C
:1025D00004FE35A08347D4FE139747008347F4FEDB
:1025E0003E97B967938707B4BA9783C707003E85BC
:1025F000EFF09FC68347F4FE8507A307F4FE034769
:10260000F4FE9D47E3F8E7FC8357E4FD13F7F70F6B
:102610008357C4FD93F7F70F850793F7F70FBE8530
:102620003A85EFF03FCDA30704FE05A88347D4FE0B
:10263000139747008347F4FEBA9713878700B9675B
:10264000938707B4BA9783C707003E85EFF0DFC0D2
:102650008347F4FE8507A307F4FE0347F4FE9D4776
:10266000E3F6E7FC8357E4FDA107231FF4FC83474F
:10267000E4FE85072307F4FE8347E4FE032784FD79
:10268000BA9783870700E39007E60100B25022540F
:1026900045618280411106C622C44AC24EC000086C
:1026A00083A7018513D617001308F00F9307F00FC7
:1026B000130720039306000381450945EFE0DFCCB3
:1026C000C1460546854513053008EFD05FCBC146AE
:1026D0000546854513052008EFD07FCAC14605464B
:1026E000854513050006EFD09FC983A741833E852A
:1026F000A53BEFF09FC9B96793870783DC473E8707
:1027000085475CCBB967938707839C4B3E87A1477E
:102710005CCB03A701858967938707F43357F702DA
:1027200093072003B307F7023E8981494A85CE8586
:10273000EFD0DFB8B967938707839C4B3E87A147EB
:102740001CCB1305E00AEFF01FB60145EFF0BFB553
:102750004145EFF05FB513050004EFF0DFB413055A
:102760001008EFF05FB41305F007EFF0DFB383A7B5
:10277000418391EB1305100AEFF0FFB21305800CB3
:10278000EFF07FB209A81305000AEFF0DFB11305DF
:10279000000CEFF05FB11305600AEFF0DFB0130536
:1027A000800AEFF05FB01305F003EFF0DFAF130521
:1027B000300DEFF05FAF0145EFF0FFAE1305500DA8
:1027C000EFF07FAE13050008EFF0FFAD1305900D9D
:1027D000EFF07FAD1305100FEFF0FFAC1305A00D68
:1027E000EFF07FAC4945EFF01FAC1305B00DEFF0F3
:1027F0009FAB13050004EFF01FAB13050002EFF0D1
:102800009FAA0945EFF03FAA1305D008EFF0BFA932
:102810005145EFF05FA91305400AEFF0DFA813055B
:10282000600AEFF05FA81305F00AEFF0DFA7EFF002
:10283000BFBD81450145EFF0FFAB0100B24022442E
:102840001249824941018280411106C622C4000812
:1028500083C7F1833E879387C183BA97BE851145AD
:10286000EFF06FCCAA8781CB83C7F183850713F77D
:10287000F70FA38FE18203C7F1838547631AF7003F
:1028800003C7C1839307500A6304F700A38F018233
:1028900003C7F1838D476317F700A38F01820547B4
:1028A0002380E1840100B240224441018280411131
:1028B00022C600080547A380E1840100324441019B
:1028C0008280411106C622C400089385C184054553
:1028D000EFF06FC505469385C184B7370020138597
:1028E000476BEF00901A0100B24022444101828000
:1028F000411106C622C400089385D1840545EFF036
:102900008FC205469385D184B73700201385876C25
:10291000EF00B0170100B240224441018280011152
:1029200006CE22CC00102326A4FE0327C4FE23A833
:10293000E18419280325C4FE5920EF001025010069
:10294000F240624405618280411122C60008B71737
:1029500002409843B71702401367170098C3B71790
:102960000240D443B71702403707FFF8758FD8C32A
:10297000B71702409443B71702403707F7FE7D1799
:10298000758F98C3B71702409443B71702403707B3
:10299000FCFF7D17758F98C3B7170240D443B71754
:1029A0000240370781FF7D17758FD8C3B7170240E4
:1029B00037079F0098C70100324441018280797136
:1029C00022D60018232EA4FC232604FE232404FE72
:1029D000B71702409443B71702404167558F98C319
:1029E000B71702409843B7070200F98F2324F4FE7B
:1029F0008327C4FE85072326F4FE832784FE99E7F8
:102A00000327C4FE93070050E31CF7FCB7170240EE
:102A10009843B7070200F98F89C785472324F4FE3E
:102A200019A0232404FE032784FE85476315F71E9F
:102A3000B72702409843B72702401367070198C39E
:102A4000B72702409843B7270240719B98C3B72726
:102A5000024094438327C4FD1387F7FFB7376E0105
:102A600093870760B357F70213F77700B727024041
:102A7000558F98C337170240B71702405843D8C341
:102A800037170240B71702405843D8C337170240E0
:102A9000B71702405843D8C30327C4FDB7177A00BD
:102AA00093870720631BF702B7170240D843B71775
:102AB0000240719BD8C3B7170240D843B7170240F2
:102AC00013671700D8C30100B7170240DC4313F7A0
:102AD000C7009147E31AF7FE81A2B7170240D4431B
:102AE000B71702403707C1FF7D17758FD8C303277B
:102AF000C4FDB747950893870740631BF700B717D6
:102B00000240D443B71702404167558FD8C355A838
:102B10000327C4FDB7172707938707E0631CF70057
:102B2000B7170240D443B717024037073900558F13
:102B3000D8C341A80327C4FDB7E7B805938707802A
:102B4000631CF700B7170240D443B717024037079A
:102B50002900558FD8C3B5A00327C4FDB7A74A04E1
:102B600093870720631CF700B7170240D443B717B9
:102B7000024037071D00558FD8C3A1A00327C4FD0D
:102B8000B777DC02938707C0631CF700B7170240D2
:102B9000D443B717024037071100558FD8C315A08B
:102BA0000327C4FDB7376E0193870760631BF700E7
:102BB000B7170240D443B717024037070500558FB7
:102BC000D8C3B71702409443B71702403707000134
:102BD000558F98C30100B71702409843B70700020A
:102BE000F98FF5DBB7170240D843B7170240719B46
:102BF000D8C3B7170240D843B7170240136727005E
:102C0000D8C30100B7170240DC4313F7C700A14740
:102C1000E31AF7FE11A001A03254456182804111F0
:102C200022C60008010001003244410182800111E6
:102C300006CE22CC0010232604FE232404FE2326E5
:102C400004FE25A0232404FE39A0D13F832784FE5F
:102C500085072324F4FE032784FEC167E367F7FE9C
:102C60008327C4FE85072326F4FE0327C4FE9307AB
:102C7000F00FE3F9E7FC0100F24062440561828055
:102C8000011106CE22CC00102326A4FE8325C4FE0B
:102C90000945EFF02F850100F24062440561828012
:102CA00041712326111E2324811E2322911E801B85
:102CB000232EA4E0232CB4E0231504FE231404FEE9
:102CC000231304FE231204FE0325C4E1EF70B06554
:102CD000AA87C207C1872313F4FEB737002083D722
:102CE000C76D99C7B73700209387C76D9C4B8297F4
:102CF00083C7418593F7F70F638A0730B737002002
:102D000083D7C76D6387072CB73700209387C76DBC
:102D1000D847B5671386C776814501450297832753
:102D2000C4E12326F4FE0325C4E1EF70D05FAA8737
:102D3000C207C1872313F4FEB73700209387C76DFE
:102D400083D727003E87B73700209387C76D83C797
:102D50006700B347F702C207C1872312F4FE0100E0
:102D60008327C4FE138717002326E4FE838707000A
:102D7000E5FB231404FEA1A88327C4FEFD17232628
:102D8000F4FE8327C4FE038707009307F002630A5B
:102D9000F7008327C4FE038707009307C005631B62
:102DA000F700835784FEC207C1838507C207C1832A
:102DB0002314F4FE835764FEC207C187C207C18390
:102DC000FD17C207C183C207C1872313F4FE8357CF
:102DD00084FE139707014183854763E8E700835723
:102DE00064FEC207C187E3D907F8835764FEC207B0
:102DF000C18763C207028327C4FE85072326F4FE2A
:102E0000130744EE0326C4FEB5679385C7773A855A
:102E1000EF70104D1DA8835784FEC207C18381EF58
:102E2000130744EE0326C4FEB567938587783A8579
:102E3000EF70104B19A8130744EE0326C4FEB567C4
:102E40009385C7773A85EF70B049231504FE21A218
:102E5000231404FE59A0930744EE3E85EF70B04C56
:102E60002A87835784FEC207C183BE868357A4FE88
:102E7000C207C1833E86835744FEC207C187B3079A
:102E8000F602B6976367F706835784FEC207C183CD
:102E90003E878357A4FEC207C183BE86835744FE84
:102EA000C207C187B387F602BA97035784FE420769
:102EB0004183BA86130704FFBA97038747EF930746
:102EC00004FFB697238AE7EA835784FEC207C183CB
:102ED0008507C207C1832314F4FE835784FEC2070B
:102EE000C1833E87835744FEC207C187E345F7F697
:102EF00011A00100835784FEC207C183130704FF9A
:102F0000BA97238A07EAB73700209387C76DD4475B
:102F1000B73700209387C76D83C7770013970701E2
:102F200041838357A4FEC207C1838507C207C183BB
:102F3000B307F702C207C183130744EA3A86BE8586
:102F4000014582968357A4FEC207C1838507C20745
:102F5000C1832315F4FE8357A4FEC207C183BE8438
:102F6000930744EE3E85EF70103C2A87835744FE5A
:102F7000C207C187B357F7028507E3EBF4EC1307E9
:102F800044EE032684E1B567938587793A85EF702F
:102F90003035B73700209387C76DD447B737002047
:102FA0009387C76D83C777001397070141838357C2
:102FB000A4FEC207C1838507C207C183B307F70216
:102FC000C207C183130744EE3A86BE850145829647
:102FD00035A8930744E21306000881453E85EFD0EB
:102FE0006FA3130744E2832684E10326C4E1B56797
:102FF0009385477A3A85EF70B02EB73700209387D4
:10300000C76D9847930744E23E85029701008320ED
:10301000C11E0324811E8324411E7D61828079713B
:1030200006D622D40018232EA4FC232CB4FC232A79
:10303000C4FC232604FEA9A00100B96793878787F3
:103040009C47930500043E85EF20F03CAA87F5D706
:10305000B967938787879C47BE86832784FD13873C
:103060001700232CE4FC83870700C207C183BE85B9
:103070003685EF2070378327C4FE85072326F4FEAC
:103080000327C4FE832744FDE348F7FA832744FD62
:103090003E85B250225445618280011106CE22CC79
:1030A0000010AA872324B4FE2322C4FEA307F4FE43
:1030B0008347F4FE8DEFB707002083C7072293F7FD
:1030C000F70F95C783C7518591C301A083C7518569
:1030D000850713F7F70FA38AE184F524832544FEBF
:1030E000032584FEEFF0DFBBEFF07FB4C5BF010026
:1030F000F240624405618280011122CE0010232635
:10310000A4FE8327C4FE239007008327C4FE7D57B7
:103110002391E7008327C4FE7D572392E70083278E
:10312000C4FE7D572383E7008327C4FE7D57A38316
:10313000E7008327C4FE23A407008327C4FE23A639
:1031400007008327C4FE23A807000100724405611D
:103150008280011122CE00102326A4FE8327C4FE04
:1031600003D70700B7370020239EE76C8327C4FEF0
:1031700003D72700B73700209387C76D2391E70057
:103180008327C4FE03D74700B73700209387C76D56
:103190002392E7008327C4FE03C76700B7370020E8
:1031A0009387C76D2383E7008327C4FE03C7770097
:1031B000B73700209387C76DA383E7008327C4FE3A
:1031C0009847B73700209387C76D98C78327C4FEF9
:1031D000D847B73700209387C76DD8C78327C4FE69
:1031E000984BB73700209387C76D98CB0547238A44
:1031F000E1840100724405618280797106D622D48F
:1032000000189307C4FD3E85C53DB737000093877E
:1032100007C82322F4FE9307C4FD3E851D3F930695
:10322000100213060002F167938507200945EFE0BD
:103230007FB50100B250225445618280011122CE37
:1032400000102326A4FE2324B4FE8327C4FED84303
:10325000832784FE3E978327C4FED8C319A88327FB
:10326000C4FED8438327C4FE9C4B1D8F8327C4FE16
:10327000D8C38327C4FE984B8327C4FEDC43E3F006
:10328000E7FE0100724405618280797106D622D47E
:103290000018232EA4FC232CB4FC232AC4FC83276F
:1032A000C4FDDC47032744FD637BF70C292A8327F1
:1032B000C4FD984B8327C4FDDC43B307F7402326A6
:1032C000F4FE032744FD8327C4FE63FBE706832740
:1032D000C4FD98438327C4FDDC43BA970326C4FE8C
:1032E000832584FD3E85EF60D0508325C4FE0325F1
:1032F000C4FDA937032784FD8327C4FEBA97232C76
:10330000F4FC8327C4FD98438327C4FDDC43B30644
:10331000F700032744FD8327C4FEB307F7403E862A
:10332000832584FD3685EF60D04C032744FD832739
:10333000C4FEB307F740BE850325C4FD013725A0B1
:103340008327C4FD98438327C4FDDC43BA97032633
:1033500044FD832584FD3E85EF60B049832544FD0F
:103360000325C4FDE13D8327C4FDD847832744FDE1
:103370001D8F8327C4FDD8C70520814711A0894729
:103380003E85B250225445618280411122C6000818
:103390000100324441018280411106C622C4000866
:1033A00083A7818599C783A781851387F7FF23ACFE
:1033B000E18483A7818599E3EFC0FFE40100B24077
:1033C000224441018280411106C622C4000883A71D
:1033D000818599E3EFC0DFE283A78185138717001A
:1033E00023ACE1840100B2402244410182801D717E
:1033F000A2CE82E686E48AE28EE012FE16FC1AFA7B
:103400001EF82AF62EF432F236F03AEE3EEC42EA9C
:1034100046E872E676E47AE27EE080109305505248
:10342000B747014013850780EF205003AA8789CB57
:1034300093055052B747014013850780EF203012A3
:10344000010076443660A660166186617272E2728F
:103450005273C2733275A275127682767267E26712
:103460005268C268326EA26E126F826F256173005D
:1034700020301D71A2CE82E686E48AE28EE012FE42
:1034800016FC1AFA1EF82AF62EF432F236F03AEE4C
:103490003EEC42EA46E872E676E47AE27EE08010AC
:1034A00093055052B747004013850740EF20007B3B
:1034B000AA87A1C303A7818485476315F700EFF0AE
:1034C0002FC305A003A7818489476315F700EFE0A8
:1034D0001FBB01A803A781848D476314F700EFF099
:1034E0004FBE93055052B747004013850740EF2069
:1034F0001007010076443660A6601661866172721C
:10350000E2725273C2733275A27512768276726756
:10351000E2675268C268326EA26E126F826F2561D6
:10352000730020301D71A2CE82E686E48AE28EE02E
:1035300012FE16FC1AFA1EF82AF62EF432F236F0B3
:103540003AEE3EEC42EA46E872E676E47AE27EE063
:10355000801093055052B757004013850780EF2025
:10356000E06FAA8789CB93055052B7570040138567
:103570000780EF20C07E010076443660A6601661A9
:1035800086617272E2725273C2733275A2751276DC
:1035900082767267E2675268C268326EA26E126FFC
:1035A000826F2561730020301D71A2CE82E686E411
:1035B0008AE28EE012FE16FC1AFA1EF82AF62EF4A3
:1035C00032F236F03AEE3EEC42EA46E872E676E453
:1035D0007AE27EE0801093055052B7570040138581
:1035E00007C0EF20A067AA8789CB93055052B75731
:1035F0000040138507C0EF208076010076443660D6
:10360000A660166186617272E2725273C27332757D
:10361000A275127682767267E2675268C268326E6D
:10362000A26E126F826F2561730020301D71A2CED1
:1036300082E686E48AE28EE012FE16FC1AFA1EF892
:103640002AF62EF432F236F03AEE3EEC42EA46E842
:1036500072E676E47AE27EE08010930550523755A8
:103660000040EF20A05FAA8789CBEFE0DFA393059E
:10367000505237550040EF20806E0100764436608E
:10368000A660166186617272E2725273C2733275FD
:10369000A275127682767267E2675268C268326EED
:1036A000A26E126F826F2561730020301D71A2CE51
:1036B00082E686E48AE28EE012FE16FC1AFA1EF812
:1036C0002AF62EF432F236F03AEE3EEC42EA46E8C2
:1036D00072E676E47AE27EE0801093055052B727D6
:1036E000004013850780EF206057AA8789CB930598
:1036F0005052B727004013850780EF204066010035
:1037000076443660A660166186617272E272527308
:10371000C2733275A275127682767267E26752685A
:10372000C268326EA26E126F826F25617300203004
:103730001D71A2CE82E686E48AE28EE012FE16FCBD
:103740001AFA1EF82AF62EF432F236F03AEE3EEC71
:1037500042EA46E872E676E47AE27EE0801093057B
:103760005052B7270040138507C0EF20204FAA878B
:103770008DC703A7818485476309F70003A7818468
:1037800089476314F700EFE01F8D93055052B72768
:103790000040138507C0EF20805C0100764436604E
:1037A000A660166186617272E2725273C2733275DC
:1037B000A275127682767267E2675268C268326ECC
:1037C000A26E126F826F2561730020301D71A2CE30
:1037D00082E686E48AE28EE012FE16FC1AFA1EF8F1
:1037E0002AF62EF432F236F03AEE3EEC42EA46E8A1
:1037F00072E676E47AE27EE0801093055052372537
:103800000040EF20A045AA8799C79305505237255D
:103810000040EF20C054010076443660A660166177
:1038200086617272E2725273C2733275A275127639
:1038300082767267E2675268C268326EA26E126F59
:10384000826F2561730020301D71A2CE82E686E46E
:103850008AE28EE012FE16FC1AFA1EF82AF62EF400
:1038600032F236F03AEE3EEC42EA46E872E676E4B0
:103870007AE27EE08010B707055083C7070193F70F
:10388000F70F918B85C3EFE09F85B707055083C77E
:10389000070113F7F70FB70705506D9B1377F70F65
:1038A0002388E700010076443660A66016618661D1
:1038B0007272E2725273C2733275A2751276827698
:1038C0007267E2675268C268326EA26E126F826FD0
:1038D0002561730020301D71A2CE82E686E48AE263
:1038E0008EE012FE16FC1AFA1EF82AF62EF432F2B8
:1038F00036F03AEE3EEC42EA46E872E676E47AE2E8
:103900007EE080100545EF0010262A878547631565
:10391000F7000545EF00902A010076443660A66066
:10392000166186617272E2725273C2733275A27549
:10393000127682767267E2675268C268326EA26E51
:10394000126F826F2561730020301D71A2CE82E656
:1039500086E48AE28EE012FE16FC1AFA1EF82AF6B7
:103960002EF432F236F03AEE3EEC42EA46E872E6E7
:1039700076E47AE27EE080100945EF00D01E2A87C7
:1039800085476315F7000945EF0050230100764491
:103990003660A660166186617272E2725273C273FB
:1039A0003275A275127682767267E2675268C268D3
:1039B000326EA26E126F826F2561730020301D710E
:1039C000A2CE82E686E48AE28EE012FE16FC1AFAA5
:1039D0001EF82AF62EF432F236F03AEE3EEC42EAC7
:1039E00046E872E676E47AE27EE080101145EF0068
:1039F00090172A8785476315F7001145EF00101CC3
:103A0000010076443660A660166186617272E272C9
:103A10005273C2733275A275127682767267E2674C
:103A20005268C268326EA26E126F826F2561730097
:103A300020301D71A2CE82E686E48AE28EE012FE7C
:103A400016FC1AFA1EF82AF62EF432F236F03AEE86
:103A50003EEC42EA46E872E676E47AE27EE08010E6
:103A60002145EF0050102A8785476315F70021454F
:103A7000EF00D014010076443660A66016618661BE
:103A80007272E2725273C2733275A27512768276C6
:103A90007267E2675268C268326EA26E126F826FFE
:103AA0002561730020301D71A2CE82E686E48AE291
:103AB0008EE012FE16FC1AFA1EF82AF62EF432F2E6
:103AC00036F03AEE3EEC42EA46E872E676E47AE216
:103AD0007EE080104145EF0010092A878547631575
:103AE000F7004145EF00900D010076443660A66076
:103AF000166186617272E2725273C2733275A27578
:103B0000127682767267E2675268C268326EA26E7F
:103B1000126F826F2561730020301D71A2CE82E684
:103B200086E48AE28EE012FE16FC1AFA1EF82AF6E5
:103B30002EF432F236F03AEE3EEC42EA46E872E615
:103B400076E47AE27EE0801013050002EF00B00117
:103B50002A8785476316F70013050002EF00100659
:103B600013050004EF0030002A8785476316F7002D
:103B700013050004EF00900413050008EF00A07E79
:103B80002A8785476316F70013050008EF00100326
:103B900013050010EF00207D2A8785476316F70084
:103BA00013050010EF00900113050020EF00A07B2B
:103BB0002A8785476316F70013050020EF001000E1
:103BC000010076443660A660166186617272E27208
:103BD0005273C2733275A275127682767267E2678B
:103BE0005268C268326EA26E126F826F25617300D6
:103BF00020301D71A2CE82E686E48AE28EE012FEBB
:103C000016FC1AFA1EF82AF62EF432F236F03AEEC4
:103C10003EEC42EA46E872E676E47AE27EE0801024
:103C200013050040EF0020742A8785476316F700CC
:103C300013050040EF0080788567138507802527EE
:103C40002A8785476317F700856713850780EF008C
:103C5000E0760565092F2A8785476315F700056516
:103C6000EF00C075096501272A8785476315F700AE
:103C70000965EF00A0741165FD252A878547631447
:103C8000F7001165252F2165F92D2A8785476314D3
:103C9000F70021652527010076443660A66016618D
:103CA00086617272E2725273C2733275A2751276B5
:103CB00082767267E2675268C268326EA26E126FD5
:103CC000826F2561730020301D71A2CE82E686E4EA
:103CD0008AE28EE012FE16FC1AFA1EF82AF62EF47C
:103CE00032F236F03AEE3EEC42EA46E872E676E42C
:103CF0007AE27EE080108545B7370140138507C022
:103D0000EF10703BAA8781CB8545B73701401385FB
:103D100007C0EF105041010076443660A66016617E
:103D200086617272E2725273C2733275A275127634
:103D300082767267E2675268C268326EA26E126F54
:103D4000826F2561730020301D71A2CE82E686E469
:103D50008AE28EE012FE16FC1AFA1EF82AF62EF4FB
:103D600032F236F03AEE3EEC42EA46E872E676E4AB
:103D70007AE27EE08010854537050040EF10B033D1
:103D8000AA8791CB854537050040EF10D039130540
:103D90002008EFC06FD8010076443660A660166137
:103DA00086617272E2725273C2733275A2751276B4
:103DB00082767267E2675268C268326EA26E126FD4
:103DC000826F2561730020301D71A2CE82E686E4E9
:103DD0008AE28EE012FE16FC1AFA1EF82AF62EF47B
:103DE00032F236F03AEE3EEC42EA46E872E676E42B
:103DF0007AE27EE080108545B707004013850740D2
:103E0000EF10702BAA8781CB8545B707004013853B
:103E10000740EF105031010076443660A66016610D
:103E200086617272E2725273C2733275A275127633
:103E300082767267E2675268C268326EA26E126F53
:103E4000826F2561730020301D71A2CE82E686E468
:103E50008AE28EE012FE16FC1AFA1EF82AF62EF4FA
:103E600032F236F03AEE3EEC42EA46E872E676E4AA
:103E70007AE27EE080108545B71700401385078001
:103E8000EF107023AA8781CB8545B71700401385B3
:103E90000780EF105029010076443660A660166155
:103EA00086617272E2725273C2733275A2751276B3
:103EB00082767267E2675268C268326EA26E126FD3
:103EC000826F2561730020301D71A2CE82E686E4E8
:103ED0008AE28EE012FE16FC1AFA1EF82AF62EF47A
:103EE00032F236F03AEE3EEC42EA46E872E676E42A
:103EF0007AE27EE080108545B7170040138507C041
:103F0000EF10701BAA8781CB8545B717004013853A
:103F100007C0EF105021010076443660A66016619C
:103F200086617272E2725273C2733275A275127632
:103F300082767267E2675268C268326EA26E126F52
:103F4000826F2561730020301D71A2CE82E686E467
:103F50008AE28EE012FE16FC1AFA1EF82AF62EF4F9
:103F600032F236F03AEE3EEC42EA46E872E676E4A9
:103F70007AE27EE08010854537150040EF10B013DF
:103F8000AA8791C7854537150040EF10D019010069
:103F900076443660A660166186617272E272527370
:103FA000C2733275A275127682767267E2675268C2
:103FB000C268326EA26E126F826F2561730020306C
:103FC0001D71A2CE82E686E48AE28EE012FE16FC25
:103FD0001AFA1EF82AF62EF432F236F03AEE3EECD9
:103FE00042EA46E872E676E47AE27EE080108545B1
:103FF000B717004013850740EF10F00BAA8781CB5D
:104000008545B717004013850740EF10D011010018
:1040100076443660A660166186617272E2725273EF
:10402000C2733275A275127682767267E267526841
:10403000C268326EA26E126F826F256173002030EB
:104040001D71A2CE82E686E48AE28EE012FE16FCA4
:104050001AFA1EF82AF62EF432F236F03AEE3EEC58
:1040600042EA46E872E676E47AE27EE08010854530
:10407000B737014013850740EF10F003AA8781CBC3
:104080008545B737014013850740EF10D00901007F
:1040900076443660A660166186617272E27252736F
:1040A000C2733275A275127682767267E2675268C1
:1040B000C268326EA26E126F826F2561730020306B
:1040C0001D71A2CE82E686E48AE28EE012FE16FC24
:1040D0001AFA1EF82AF62EF432F236F03AEE3EECD8
:1040E00042EA46E872E676E47AE27EE080108545B0
:1040F000B7570140138507C0EF10E07BAA8781CB3B
:104100008545B7570140138507C0EF10D001010066
:1041100076443660A660166186617272E2725273EE
:10412000C2733275A275127682767267E267526840
:10413000C268326EA26E126F826F256173002030EA
:104140001D71A2CE82E686E48AE28EE012FE16FCA3
:104150001AFA1EF82AF62EF432F236F03AEE3EEC57
:1041600042EA46E872E676E47AE27EE0801085452F
:1041700037550140EF102074AA8791C78545375500
:104180000140EF10407A010076443660A660166167
:1041900086617272E2725273C2733275A2751276C0
:1041A00082767267E2675268C268326EA26E126FE0
:1041B000826F256173002030411122C60008010082
:1041C0003244410173002030411122C6000801A091
:1041D000411106C622C40008EFF0EF9EB7479508CC
:1041E00013850740EFE0AFF3EFF02F81EFE08FCAC8
:1041F000EF30C064EF20705CEFF00F9AEF20506F4B
:10420000EFD0DFF0E5BF01A001A001A001A001A057
:1042100001A001A001A001A001A001A001A001A096
:1042200001A001A001A001A001A001A001A001A086
:1042300001A001A001A001A001A001A001A001A076
:1042400001A001A001A001A001A001A001A001A066
:1042500001A001A001A001A001A001A001A001A056
:1042600001A001A001A001A001A001A001A001A046
:1042700001A001A001A001A001A001A001A001A036
:1042800001A001A001A001A001A001A001A001A026
:1042900001A001A001A001A001A001A001A001A016
:1042A00001A001A001A001A001A001A001A001A006
:1042B00001A001A001A001A001A001A001A001A0F6
:1042C00001A001A097C1FF1F9381C17517C10020F4
:1042D000130141D317A500001305854697C5FF1F9D
:1042E000938545D21386818263FAC5008322050037
:1042F00023A0550011059105E3EAC5FE13858182CF
:10430000970500209385C55F6377B50023200500DE
:104310001105E36DB5FEFD42739002BCFD42739042
:104320004280B78200009382828873A0023097C2D5
:10433000FFFF9382A2D093E232007390523037F5A0
:10434000FF1F930500302318B51A372902400325B3
:10435000C90005897DF9970200009382A2E7739056
:10436000123473002030797122D60018232EA4FC59
:10437000232604FE232404FEB70701409387074049
:104380009C430327C4FDF98F2324F4FEB7070140A3
:1043900093870740D84B8327C4FDF98F81CB8327B0
:1043A00084FE89C785472326F4FE19A0232604FE30
:1043B0008327C4FE3E85325445618280011122CE9E
:1043C00000102326A4FEB707014093870740032768
:1043D000C4FED8CB0100724405618280397122DEAF
:1043E00080002326A4FC2324B4FC232604FE2320DF
:1043F00004FE232404FE232E04FC232204FE232C8B
:1044000004FC832784FC9C47BD8B2326F4FE832772
:1044100084FC9C47C18B89CB832784FCDC43032726
:10442000C4FED98F2326F4FE832784FC83D707009C
:1044300093F7F70FF1CF8327C4FC9C432322F4FEAC
:10444000232404FE65A8832784FE0547B317F700DD
:10445000232EF4FC832784FC83D707003E87832721
:10446000C4FDF98F2320F4FE032704FE8327C4FD37
:104470006311F708832784FE8A07232EF4FC832721
:10448000C4FD3D47B317F700232CF4FC832784FDBC
:1044900093C7F7FF032744FEF98F2322F4FE8327F7
:1044A000C4FD0327C4FEB317F700032744FED98FCA
:1044B0002322F4FE832784FC984793078002631B22
:1044C000F700832784FE05473317F7008327C4FCD2
:1044D000D8CB05A0832784FC984793078004631AF0
:1044E000F700832784FE05473317F7008327C4FCB2
:1044F00098CB832784FE85072324F4FE032784FEBC
:104500009D47E3F2E7F48327C4FC032744FE98C3E6
:10451000832784FC03D707009307F00F63F1E70EAE
:104520008327C4FCDC432322F4FE232404FE75A865
:10453000832784FEA1070547B317F700232EF4FC59
:10454000832784FC83D707003E878327C4FDF98F28
:104550002320F4FE032704FE8327C4FD6312F7081B
:10456000832784FE8A07232EF4FC8327C4FD3D475E
:10457000B317F700232CF4FC832784FD93C7F7FFC0
:10458000032744FEF98F2322F4FE8327C4FD03276B
:10459000C4FEB317F700032744FED98F2322F4FE8D
:1045A000832784FC984793078002631BF7008327C7
:1045B00084FEA10705473317F7008327C4FCD8CB37
:1045C000832784FC984793078004631BF7008327A5
:1045D00084FEA10705473317F7008327C4FC98CB57
:1045E000832784FE85072324F4FE032784FE9D474A
:1045F000E3F0E7F48327C4FC032744FED8C301009B
:10460000725421618280011122CE00102326A4FE63
:10461000AE872322C4FE2315F4FE832744FE99C7E8
:104620000357A4FE8327C4FE98CB31A00357A4FEF2
:104630008327C4FED8CB0100724405618280797162
:1046400022D60018232EA4FC232CB4FC232404FE21
:10465000232204FE232604FE232004FE8327C4FD18
:1046600063D80700B7070140DC4F2326F4FE31A0D2
:10467000B7070140DC432326F4FE8327C4FDC18332
:10468000BD8B2320F4FE0327C4FDC167FD17F98FFE
:104690002324F4FE0327C4FDB70730007D8FB7073E
:1046A00030006315F7020327C4FEB70700F1FD17BA
:1046B000F98F2326F4FEB7070140D443B707014022
:1046C000370700F17D17758FD8C3ADA00327C4FD50
:1046D000B7071000F98F8DCB832704FE0D47B31762
:1046E000F7002322F4FE832744FE93C7F7FF032736
:1046F000C4FEF98F2326F4FE0327C4FEB707000F7C
:10470000D98F2326F4FE3DA08327C4FDD5839207CD
:10471000032784FEB317F70093C7F7FF0327C4FEF0
:10472000F98F2326F4FE0327C4FEB707000FD98FA5
:104730002326F4FE832784FD91CF8327C4FDD583F0
:104740009207032784FEB317F7000327C4FED98F0F
:104750002326F4FE8327C4FD63D80700B707014072
:104760000327C4FED8CF31A0B70701400327C4FEFA
:10477000D8C30100325445618280397122DE800045
:104780002326A4FC232204FE232604FE232004FE69
:10479000232E04FC232404FEB7170240DC43B18B14
:1047A0002322F4FE032744FE91476303F702032705
:1047B00044FEA1476306F702832744FE639907146A
:1047C0008327C4FC37177A001307072098C389AAE8
:1047D0008327C4FC37177A001307072098C389A2E0
:1047E000B7170240D843B7073C00F98F2326F4FEE1
:1047F000B7170240D843C167F98F2320F4FE8327FF
:10480000C4FEC98389072326F4FEB7F7FF1F9387E9
:10481000C77098439167F98F91EB0327C4FEC54792
:104820006319F704C9472326F4FEA1A00327C4FE99
:1048300089476315F700C9472326F4FE0327C4FE02
:10484000BD476318F700B5472326F4FE85472324A8
:10485000F4FE0327C4FEC1476315F700BD472326B6
:10486000F4FE0327C4FEC5476315F700C14723269E
:10487000F4FE832704FEA1E3B74702409387078035
:104880009C43C18B89CF0327C4FEB7177A00938757
:1048900007203307F7028327C4FC98C399A803278E
:1048A000C4FEB7173D00938707903307F7028327AD
:1048B000C4FC98C33DA8B7170240D843B70702000D
:1048C000F98F89CF0327C4FEB7173D009387079060
:1048D0003307F7028327C4FC98C321A80327C4FE2B
:1048E000B7177A00938707203307F7028327C4FCA2
:1048F00098C3032784FE85476313F7028327C4FC0C
:104900009C4313D717008327C4FC98C309A88327A7
:10491000C4FC37177A001307072098C311A00100C1
:10492000B7170240DC4393F7070F2322F4FE8327D7
:1049300044FE91832322F4FEB7070020138707006B
:10494000832744FEBA9783C7070093F7F70F232EF8
:10495000F4FC8327C4FC98438327C4FD3357F70036
:104960008327C4FCD8C3B7170240DC4393F7077012
:104970002322F4FE832744FEA1832322F4FEB707FB
:10498000002013870700832744FEBA9783C70700D8
:1049900093F7F70F232EF4FC8327C4FCD843832717
:1049A000C4FD3357F7008327C4FC98C7B7170240EC
:1049B000D843916793870780F98F2322F4FE8327DA
:1049C00044FEAD832322F4FEB707002013870700BF
:1049D000832744FEBA9783C7070093F7F70F232E68
:1049E000F4FC8327C4FCD8438327C4FD3357F70066
:1049F0008327C4FCD8C7B7170240D843B167F98FE3
:104A00002322F4FE832744FEB9832322F4FE138776
:104A10008180832744FEBA9783C7070093F7F70F77
:104A2000232EF4FC8327C4FCD8478327C4FD3357C7
:104A3000F7028327C4FC98CB010072542161828065
:104A4000011122CE00102326A4FE2324B4FE8327C6
:104A500084FE99CBB7170240944FB7170240032743
:104A6000C4FE558F98CF21A8B7170240944F8327D3
:104A7000C4FE13C7F7FFB7170240758F98CF010028
:104A8000724405618280011122CE00102326A4FE0B
:104A90002324B4FE832784FE99CBB7170240D44F5A
:104AA000B71702400327C4FE558FD8CF21A8B717E8
:104AB0000240D44F8327C4FE13C7F7FFB717024045
:104AC000758FD8CF0100724405618280011122CE1A
:104AD00000102326A4FE2324B4FE832784FE99CB52
:104AE000B7170240D447B71702400327C4FE558FBB
:104AF000D8C721A8B7170240D4478327C4FE13C7DD
:104B0000F7FFB7170240758FD8C7010072440561DF
:104B10008280011122CE00102326A4FE2324B4FE9D
:104B2000832784FE99CBB7170240944BB7170240F6
:104B30000327C4FE558F98CB21A8B7170240944B8A
:104B40008327C4FE13C7F7FFB7170240758F98CBB2
:104B50000100724405618280011106CE22CC001052
:104B60002326A4FE0327C4FEB7370140631BF700CA
:104B700085450565EFF09FF581450565EFF01FF56B
:104B800091A00327C4FEB747004093870780631BAB
:104B9000F70085451165EFF0DFF781451165EFF00E
:104BA0005FF70DA00327C4FEB7470040938707C0F7
:104BB000631AF70085452165EFF0BFF58145216552
:104BC000EFF03FF50100F2406244056182807971A7
:104BD00022D60018232EA4FC232CB4FC231704FE99
:104BE0008327C4FD83D707002317F4FE0357E4FE91
:104BF0008D6793870704F98F2317F4FE832784FDBD
:104C000003D70700832784FD83D72700D98F139705
:104C100007014183832784FD83D74700D98F1397EA
:104C200007014183832784FD83D76700D98F1397BA
:104C300007014183832784FD83D78700D98F13978A
:104C400007014183832784FD83D7A700D98F13975A
:104C500007014183832784FD83D7C700D98F13972A
:104C600007014183832784FD83D7E700D98F1397FA
:104C7000070141838357E4FED98F2317F4FE83276E
:104C8000C4FD0357E4FE2390E7008327C4FD83D7C8
:104C9000C701139707014183FD779387F77FF98F4A
:104CA0001397070141838327C4FD239EE7008327D1
:104CB00084FD03D707018327C4FD2398E700010083
:104CC000325445618280011122CE00102326A4FEB9
:104CD0002324B4FE832784FE8DC38327C4FE83D799
:104CE0000700C207C18393E70704139707014183B5
:104CF0008327C4FE2390E70005A08327C4FE83D743
:104D00000700C207C18393F7F7FB1397070141839D
:104D10008327C4FE2390E70001007244056182806E
:104D2000797122D60018232EA4FC232CB4FC23175F
:104D300004FE8327C4FD83D707002317F4FE03274F
:104D4000C4FDB7370140938707C06306F706032702
:104D5000C4FDB70700406300F7060327C4FDB7078B
:104D60000040938707406308F7040327C4FDB71783
:104D70000040938707806300F7040327C4FDB7173B
:104D80000040938707C06308F7020327C4FDB737C5
:104D90000140938707406300F7020327C4FDB7571C
:104DA0000140938707C06308F7000327C4FDB75786
:104DB00001406311F7028357E4FE93F7F7F82317D6
:104DC000F4FE832784FD03D727008357E4FED98FA1
:104DD0002317F4FE0327C4FDB71700406309F70249
:104DE0000327C4FDB7170040938707406301F7020C
:104DF0008357E4FE93F7F7CF2317F4FE832784FD50
:104E000003D767008357E4FED98F2317F4FE832767
:104E1000C4FD0357E4FE2390E700832784FD03D7F6
:104E200047008327C4FD2396E702832784FD03D729
:104E300007008327C4FD2394E7020327C4FDB73787
:104E40000140938707C06308F7020327C4FDB73703
:104E50000140938707406300F7020327C4FDB7575B
:104E60000140938707C06308F7000327C4FDB757C5
:104E70000140631DF700832784FD83C787001397D4
:104E8000070141838327C4FD2398E7028327C4FDDC
:104E90000547239AE7000100325445618280797109
:104EA00022D60018232EA4FC232CB4FC231504FEC8
:104EB000231704FE231604FE8327C4FD83D70702AD
:104EC000C207C183F99B1397070141838327C4FD60
:104ED0002390E7028327C4FD83D707022317F4FE3C
:104EE0008327C4FD83D747002316F4FE8327C4FD20
:104EF00083D787012315F4FE8357A4FE93F7F7F8B1
:104F00002315F4FE8357A4FEF19B2315F4FE83279B
:104F100084FD03D707008357A4FED98F2315F4FE21
:104F20008357E4FEF59B2317F4FE832784FD03D704
:104F300087008357E4FED98F2317F4FE832784FD6F
:104F400003D727008357E4FED98F2317F4FE0327E6
:104F5000C4FDB7370140938707C06308F7020327F2
:104F6000C4FDB7370140938707406300F70203276A
:104F7000C4FDB7570140938707C06308F7000327B4
:104F8000C4FDB7570140631CF7068357E4FEDD9B61
:104F90002317F4FE832784FD03D7A7008357E4FE7D
:104FA000D98F2317F4FE8357E4FEED9B2317F4FEFD
:104FB000832784FD03D747008357E4FED98F231747
:104FC000F4FE8357C4FE93F7F7EF2316F4FE8357DE
:104FD000C4FE93F7F7DF2316F4FE832784FD03D77F
:104FE000C7008357C4FED98F2316F4FE832784FDA0
:104FF00003D7E7008357C4FED98F2316F4FE832717
:10500000C4FD0357C4FE2392E7008327C4FD035762
:10501000A4FE239CE700832784FD03D76700832732
:10502000C4FD239AE7028327C4FD0357E4FE2390BF
:10503000E7020100325445618280797122D600185E
:10504000232EA4FC232CB4FC231504FE231704FEFA
:10505000231604FE8327C4FD83D70702C207C1833A
:10506000BD9B1397070141838327C4FD2390E7026B
:105070008327C4FD83D707022317F4FE8327C4FDCB
:1050800083D747002316F4FE8327C4FD83D7870107
:105090002315F4FE0357A4FEE577FD17F98F2315BA
:1050A000F4FE8357A4FE93F7F7CF2315F4FE83276E
:1050B00084FD83D70700A207139707014183835715
:1050C000A4FED98F2315F4FE8357E4FE93F7F7FD72
:1050D0002317F4FE832784FD83D787009207139755
:1050E000070141838357E4FED98F2317F4FE8327FA
:1050F00084FD83D7270092071397070141838357C5
:10510000E4FED98F2317F4FE0327C4FDB73701400F
:10511000938707C06308F7020327C4FDB737014030
:10512000938707406300F7020327C4FDB757014088
:10513000938707C06308F7000327C4FDB7570140F2
:105140006310F70A8357E4FE93F7F7F72317F4FE8B
:10515000832784FD83D7A700920713970701418314
:105160008357E4FED98F2317F4FE8357E4FE93F7A9
:10517000F7FB2317F4FE832784FD83D747009207AC
:105180001397070141838357E4FED98F2317F4FE59
:105190008357C4FE93F7F7BF2316F4FE0357C4FEEC
:1051A000FD779387F77FF98F2316F4FE832784FD1D
:1051B00083D7C7008A071397070141838357C4FE2B
:1051C000D98F2316F4FE832784FD83D7E7008A074F
:1051D0001397070141838357C4FED98F2316F4FE2A
:1051E0008327C4FD0357C4FE2392E7008327C4FD31
:1051F0000357A4FE239CE700832784FD03D76700A1
:105200008327C4FD239CE7028327C4FD0357E4FEE4
:105210002390E7020100325445618280797122D6E1
:105220000018232EA4FC232CB4FC231504FE231702
:1052300004FE231604FE8327C4FD83D70702C2079A
:10524000C18393F7F7EF1397070141838327C4FDC9
:105250002390E7028327C4FD83D707022317F4FEB8
:105260008327C4FD83D747002316F4FE8327C4FD9C
:1052700083D7C7012315F4FE8357A4FE93F7F7F8ED
:105280002315F4FE8357A4FEF19B2315F4FE832718
:1052900084FD03D707008357A4FED98F2315F4FE9E
:1052A0008357E4FE93F7F7DF2317F4FE832784FD8B
:1052B00083D78700A2071397070141838357E4FE32
:1052C000D98F2317F4FE832784FD83D72700A207F5
:1052D0001397070141838357E4FED98F2317F4FE08
:1052E0000327C4FDB7370140938707C06308F7025F
:1052F0000327C4FDB7370140938707406300F702D7
:105300000327C4FDB7570140938707C06308F70020
:105310000327C4FDB75701406312F70A0357E4FEA1
:10532000FD779387F77FF98F2317F4FE832784FD9A
:1053300083D7A700A2071397070141838357E4FE91
:10534000D98F2317F4FE8357E4FE93F7F7BF231793
:10535000F4FE832784FD83D74700A2071397070134
:1053600041838357E4FED98F2317F4FE0357C4FE0D
:10537000FD77FD17F98F2316F4FE0357C4FEF97766
:10538000FD17F98F2316F4FE832784FD83D7C7000A
:1053900092071397070141838357C4FED98F2316C1
:1053A000F4FE832784FD83D7E70092071397070154
:1053B00041838357C4FED98F2316F4FE8327C4FD8F
:1053C0000357C4FE2392E7008327C4FD0357A4FEBE
:1053D000239EE700832784FD03D767008327C4FD4E
:1053E000239EE7028327C4FD0357E4FE2390E702D0
:1053F0000100325445618280797122D60018232E33
:10540000A4FC232CB4FC231604FE231504FE23174E
:1054100004FE8327C4FD83D7070213970701418346
:10542000FD77FD17F98F1397070141838327C4FD8B
:105430002390E7028327C4FD83D707022315F4FED8
:105440008327C4FD83D747002317F4FE8327C4FDB9
:1054500083D7C7012316F4FE0357C4FEE577FD1773
:10546000F98F2316F4FE8357C4FE93F7F7CF231664
:10547000F4FE832784FD83D70700A2071397070153
:1054800041838357C4FED98F2316F4FE0357A4FE2D
:10549000F977FD17F98F2315F4FE832784FD83D751
:1054A0008700B2071397070141838357A4FED98F62
:1054B0002315F4FE832784FD83D72700B2071397B3
:1054C000070141838357A4FED98F2315F4FE0327D8
:1054D000C4FDB7370140938707C06308F70203276D
:1054E000C4FDB7370140938707406300F7020327E5
:1054F000C4FDB7570140938707C06308F70003272F
:10550000C4FDB75701406316F7020357E4FEF17775
:10551000FD17F98F2317F4FE832784FD83D7C70077
:105520009A071397070141838357E4FED98F231706
:10553000F4FE8327C4FD0357E4FE2392E70083278C
:10554000C4FD0357C4FE239EE700832784FD03D7D1
:1055500067008327C4FD2390E7048327C4FD035716
:10556000A4FE2390E70201003254456182800111BC
:1055700022CE00102326A4FE2324B4FE832784FE1B
:105580008DC38327C4FE83D70700C207C18393E777
:1055900017001397070141838327C4FE2390E70078
:1055A00039A88327C4FE83D70700C207C183F99BAC
:1055B0001397070141838327C4FE2390E70001006E
:1055C000724405618280011122CE00102326A4FEC0
:1055D0002324B4FE832784FE95C38327C4FE83D788
:1055E0004704139707014183E177D98F1397070188
:1055F00041838327C4FE2392E70415A08327C4FEBA
:1056000083D74704139707014183A167FD17F98FDB
:105610001397070141838327C4FE2392E704010007
:10562000724405618280797122D60018232EA4FC71
:10563000AE87231DF4FC231704FE8327C4FD83D704
:1056400087012317F4FE8357E4FEDD9B2317F4FE46
:105650000357E4FE8357A4FDD98F2317F4FE832755
:10566000C4FD0357E4FE239CE7000100325445616A
:105670008280797122D60018232EA4FCAE87231DC8
:10568000F4FC231704FE8327C4FD83D78701231767
:10569000F4FE0357E4FEFD779387F77FF98F231716
:1056A000F4FE8357A4FDA207139707014183835794
:1056B000E4FED98F2317F4FE8327C4FD0357E4FECD
:1056C000239CE7000100325445618280797122D623
:1056D0000018232EA4FCAE87231DF4FC231704FE20
:1056E0008327C4FD83D7C7012317F4FE8357E4FE45
:1056F000DD9B2317F4FE0357E4FE8357A4FDD98FE7
:105700002317F4FE8327C4FD0357E4FE239EE7001E
:105710000100325445618280797122D60018232E0F
:10572000A4FCAE87231DF4FC231704FE8327C4FDCD
:1057300083D7C7012317F4FE0357E4FEFD77938751
:10574000F77FF98F2317F4FE8357A4FDA207139761
:10575000070141838357E4FED98F2317F4FE832783
:10576000C4FD0357E4FE239EE70001003254456167
:105770008280797122D60018232EA4FCAE87231DC7
:10578000F4FC231704FE8327C4FD83D78701231766
:10579000F4FE8357E4FEED9B2317F4FE0357E4FE6B
:1057A0008357A4FDD98F2317F4FE8327C4FD035725
:1057B000E4FE239CE7000100325445618280797148
:1057C00022D60018232EA4FCAE87231DF4FC231739
:1057D00004FE8327C4FD83D787012317F4FE835774
:1057E000E4FE93F7F7BF2317F4FE8357A4FDA20747
:1057F0001397070141838357E4FED98F2317F4FEE3
:105800008327C4FD0357E4FE239CE70001003254C4
:1058100045618280797122D60018232EA4FCAE87C0
:10582000231DF4FC231704FE8327C4FD83D7C7017F
:105830002317F4FE8357E4FEED9B2317F4FE035772
:10584000E4FE8357A4FDD98F2317F4FE8327C4FDFC
:105850000357E4FE239EE700010032544561828035
:10586000797122D60018232EA4FCAE87231DF4FCE8
:10587000231704FE8327C4FD83D7C7012317F4FE33
:105880008357E4FE93F7F7BF2317F4FE8357A4FD75
:10589000A2071397070141838357E4FED98F23178B
:1058A000F4FE8327C4FD0357E4FE239EE7000100B6
:1058B000325445618280797122D60018232EA4FCCF
:1058C000AE87231DF4FC232604FE231504FE2314B7
:1058D00004FE8327C4FD83D7070113970701418383
:1058E0008357A4FDF98F2315F4FE8327C4FD83D7C6
:1058F000C7001397070141838357A4FDF98F231431
:10590000F4FE8357A4FE81CB835784FE89C7854765
:105910002326F4FE19A0232604FE8327C4FE3E8519
:10592000325445618280011122CE00102326A4FE4C
:10593000AE872315F4FE8357A4FE93C7F7FF139792
:10594000070141838327C4FE2398E70001007244C6
:10595000056182805D7186C6A2C48008232EA4FAE8
:10596000232CB4FA232604FE232404FE232204FE5F
:10597000232004FE232E04FC8327C4FB232EF4FCE7
:105980008327C4FB83D70701C207C1832326F4FE04
:105990000327C4FEB567FD17F98F2326F4FE83277E
:1059A00084FB83D767003E878327C4FED98F2326D5
:1059B000F4FE8327C4FE1397070141838327C4FBAA
:1059C0002398E7008327C4FB83D7C700C207C1839E
:1059D0002326F4FE0327C4FEBD679387379FF98F04
:1059E0002326F4FE832784FB03D74700832784FB09
:1059F00083D78700D98F139707014183832784FBBF
:105A000083D7A700D98FC207C1833E878327C4FEEF
:105A1000D98F2326F4FE8327C4FE13970701418301
:105A20008327C4FB2396E7008327C4FB83D7470162
:105A3000C207C1832326F4FE0327C4FEC1679387F0
:105A4000F7CFF98F2326F4FE832784FB83D7C70083
:105A50003E878327C4FED98F2326F4FE8327C4FE06
:105A60001397070141838327C4FB239AE700930719
:105A700084FC3E85EFE07FD00327C4FDB74701409B
:105A8000938707806317F700832744FD2324F4FEE0
:105A900029A0832704FD2324F4FE8327C4FB83D796
:105AA000C700C207C183C207C18763D207020327A9
:105AB00084FEBA878607BA978E073E97832784FBB2
:105AC0009C438607B357F7022322F4FE05A0032761
:105AD00084FEBA878607BA978E073E97832784FB92
