:100000006F403006130000001300000013000000D2
:100010001300000013000000130000001300000094
:100020001300000013000000130000001300000084
:08003000130000007300100032
:100038000000000000000000B4380000C4380000D0
:1000480000000000A84700000000000000000000B9
:10005800AA470000AC4700000000000000000000B4
:10006800AE47000000000000B0470000000000009C
:10007800B2470000B4470000B6470000B847000088
:10008800BA470000BC470000C42F00003830000009
:10009800AC3000002031000094310000C847000057
:1000A800CA470000CC470000CE470000D0470000F8
:1000B800D2470000D4470000D6470000D8470000C8
:1000C800DA470000DC470000DE4700000832000085
:1000D800E2470000C4330000E6470000E84700009C
:1000E80044340000C434000044350000F0470000E8
:1000F800F2470000F4470000F6470000F847000008
:10010800FA470000DC2A0000602B0000122C0000D7
:10011800E0320000044800000648000008480000DB
:100128003C3700000C4800000E4800001048000052
:100138001248000014480000C435000018480000A8
:10014800962C00001A2D000044360000BC36000032
:1001580022480000244800002648000028480000E3
:100168002A4800002C4800002E48000030480000B3
:10017800324800003448000036480000F8580000B3
:100188003A4800003C480000362F00009A2D000035
:100198001E2E0000BA2E000046480000BC370000A2
:1001A8004A4800004C4800004E4800003C38000017
:1001B80052480000544800005648000058480000C3
:1001C8005A4800005C4800005E4800006048000093
:1001D8000000000000000000000000000000000017
:1001E8000000000000000000000000000000000007
:0801F8000000000000000000FF
:10020000737504308280B76200009382820873A005
:10021000023082803D432A876373C3029377F700DD
:10022000BDEFADE5937606FF3D8ABA960CC34CC38D
:100230000CC74CC74107E36BD7FE11E28280B306BF
:10024000C3408A069702000096966780A60023079F
:10025000B700A306B7002306B700A305B700230520
:10026000B700A304B7002304B700A303B700230318
:10027000B700A302B7002302B700A301B700230110
:10028000B700A300B7002300B700828093F5F50FF5
:1002900093968500D58D93960501D58D61B793967C
:1002A00027009702000096968682E78086FA96805D
:1002B000C1171D8F3E96E374C3F8A5B7011122CE76
:1002C00000102324A4FE2326B4FEB7F700E023A0E9
:1002D0000700B7F700E08146014794C7D8C7B7F7D2
:1002E00000E0054798C30100B7F700E003A8C70086
:1002F0009C470327C4FEC286636CD7000327C4FE55
:10030000C286E313D7FE032784FE6363F700E9BFC9
:100310000100724405618280011122CE0010232663
:10032000A4FEAE87A305F4FE8347B4FE9DC78327D2
:10033000C4FEBD8B0547B317F70093960701C18232
:100340008327C4FE13D75700B1670A0793878746F0
:10035000BA979C43368798CB35A08327C4FEBD8BC4
:100360000547B317F70093960701C1828327C4FEA0
:1003700013D75700B1670A0793878746BA979C43FC
:100380003687D8CB0100724405618280011122CEEC
:1003900000102326A4FE8327C4FE958313F777005D
:1003A000B1670A0793878746BA979C439C47032700
:1003B000C4FE7D8B85463397E600F98F99C3854748
:1003C00011A081473E85724405618280797122D6F1
:1003D0000018232EA4FC8327C4FD958393F7F70F01
:1003E0009D8BA307F4FE8327C4FD93F7F70FBD8B06
:1003F0002307F4FE0347F4FEB1670A079387874695
:10040000BA979C43DC470347E4FE85463397E600F2
:10041000420741833A868346F4FE31678A06130712
:10042000874636971843B18F5CC701003254456147
:100430008280797106D622D40018232EA4FC232CA6
:10044000B4FC232AC4FC2328D4FC232004FE23224A
:1004500004FE232404FE8327C4FD958393F7F70F3E
:100460009D8BA307F4FE8327C4FD93F7F70FBD8B85
:100470002307F4FE0327C4FD9307F00F6305F71469
:100480000327C4FD9307F00F6301F7148347F4FEBD
:1004900091E785451145EF40503441A00347F4FEF4
:1004A00085476317F70085452145EF401033B5A018
:1004B0000347F4FE89476317F70085454145EF4040
:1004C000D031A1A80347F4FE8D476318F700854596
:1004D00013050002EF40703089A00347F4FE9147F6
:1004E0006318F700854513050004EF40102F35A071
:1004F0000347F4FE95476318F70085451305000888
:10050000EF40B02D19A80347F4FE99476317F70091
:10051000854513050010EF40502C8347E4FE054746
:10052000B317F700C207C1832310F4FE032784FD2D
:1005300085476317F702832704FDC207C183A183A0
:10054000C207C18389E78D472322F4FE11A88327C0
:1005500004FDC207C183A183C207C1832322F4FE25
:10056000832704FDC207C18393F7F70F2324F4FE0A
:100570000347F4FEB1670A0793878746BA979C43FF
:100580003E87930704FEBE853A85EF40C03E0327B1
:1005900084FD8547631CF7020347F4FEB1670A0731
:1005A00093878746BA979C43BE868347E4FE0547F8
:1005B000B317F700C207C183032644FDBE85368505
:1005C000EF40005E21A0010011A00100B2502254B2
:1005D00045618280011106CE22CC00102326A4FEA4
:1005E0002324B4FE2322C4FE2320D4FE8327C4FE8A
:1005F00081EB930680310546854515451D3D41A09B
:100600000327C4FEC147631AF700930680310546ED
:10061000854513053002313D9DA00327C4FE930795
:100620000002631AF70093068031054685451305DD
:10063000D0020135A9A00327C4FE93070003631A63
:10064000F700930680310546854513053002D53302
:100650003DA00327C4FE93070004631AF700930626
:100660008031054685451305A004E13309A813062A
:100670009002B1679385072E0145EF10506F032755
:1006800084FE89476319F700930680310546854546
:100690001D45453341A0032784FEC947631AF7006F
:1006A00093068031054685451305500259339DA0B8
:1006B000032784FE93072002631AF7009306803114
:1006C000054685451305F002AD33A9A0032784FE36
:1006D00093072003631AF70093068031054685458A
:1006E00013055002B9333DA0032784FE930720046D
:1006F000631AF70093068031054685451305C0044B
:100700000D3B09A813060003B1679385072E014529
:10071000EF10F065032744FE85476319F700930641
:100720004030054681451945293359A8032744FE21
:10073000C547631AF7009306403005468145130507
:100740004002C539B5A8032744FE93071002631A77
:10075000F70093064030054681451305E002D13984
:1007600085A0032744FE93071004631AF70093063D
:100770004030054681451305B004653991A0032733
:1007800044FE93071003631AF700930640300546B2
:10079000814513054002713925A0032744FE9307C4
:1007A000F00F6317F7009307F00F2322F4FE09A858
:1007B00013068003B1679385072E0145EF10305B68
:1007C0009306003101468545032504FE9D31010055
:1007D000F2406244056182805D7186C6A2C48008D1
:1007E0002326A4FC2324B4FC2322C4FC2320D4FC11
:1007F000232EE4FA232CF4FA232A04FB231704FE05
:10080000232E04FC232004FE232204FE232404FEC2
:10081000231604FEB1670327C4FC0A079387C74762
:10082000BA979C433E85EF40D00C85450545EF4087
:10083000C07A032704FCC1476311F7020327C4FBF6
:10084000C947631CF700032784FBC5476317F700FC
:1008500085450545EF40403815A8032704FC93075C
:1008600000046315F7020327C4FB93072004631FEA
:10087000F700032784FB930710046319F7008545ED
:10088000B717200013850710EF4000358327C4FCFD
:1008900091E785450565EF40407425A00327C4FC1A
:1008A00085476317F70085451165EF40607711A80C
:1008B0000327C4FC89476316F70085452165EF408F
:1008C0002076832644FB032684FB8325C4FB032573
:1008D00004FC0933231E04FC93074010231FF4FC7F
:1008E000231004FE032784FC85476305F702832752
:1008F00084FC81CF032784FC89476303F702032725
:1009000084FC8D476304F7020DA8231104FE231213
:1009100004FE25A0231104FE85472312F4FE31A80E
:1009200089472311F4FE231204FE01A889472311ED
:10093000F4FE85472312F4FE010003A701858327F7
:1009400044FCB357F7022317F4FE0357E4FE930762
:10095000F00F63F7E700930780032317F4FE61A805
:100960000357E4FE9307F00763F7E70093070003DC
:100970002317F4FE49A00357E4FE9307F00363F73F
:10098000E700930780022317F4FEB5A00357E4FEA7
:10099000FD4763F7E700930700022317F4FEA1A8C1
:1009A0000357E4FEBD4763F6E700E1472317F4FE73
:1009B00099A00357E4FE9D4763F6E700C14723175C
:1009C000F4FE15A80357E4FE8D4763F6E700A14740
:1009D0002317F4FE0DA00357E4FE854763F5E700F7
:1009E000231704FE09A81306D008B1679385072EC4
:1009F0000145EF10D0378357E4FE2314F4FE93072C
:100A000000202313F4FE231504FE9D472316F4FE55
:100A1000B1670327C4FC0A079387C747BA979C436B
:100A20003E879307C4FDBE853A85EF40E073B1670A
:100A30000327C4FC0A079387C747BA979C43854599
:100A40003E85EF40F0010100B6402644616182809E
:100A5000011122CE00102326A4FEAE87A305F4FECA
:100A6000B1670327C4FE0A079387C747BA979C4319
:100A70003E878347B4FEC207C1832316F7000100F7
:100A8000B1670327C4FE0A079387C747BA979C43F9
:100A900083D78700C207C18393F70708F5F30100E6
:100AA000724405618280011106CE22CC00102326FB
:100AB000A4FE2324B4FE8327C4FE99E7E146014641
:100AC00085452545BD32E1A20327C4FE8947631948
:100AD000F700E1460146854513056002993A45AAAB
:100AE0000327C4FEC1476318F700E1460146854568
:100AF0000945813269AA0327C4FEC9476319F70073
:100B0000E1460146854513055006253249A20327D3
:100B1000C4FE930700026319F700E14601468545CC
:100B20001305A0023932A5A20327C4FE93072002B1
:100B30006319F700E146014685451305A004D53841
:100B4000B9A20327C4FE93074002631AF700E146E7
:100B50000146854513058006EFF0BF8D0DAA0327DA
:100B6000C4FE93070004631AF700E1460146854579
:100B70001305A004EFF0FF8B19AA0327C4FE930707
:100B80002004631AF700E14601468545130500027B
:100B9000EFF03F8AEDA80327C4FE93070005631A10
:100BA000F700E146014685451305C004EFF07F8854
:100BB000F9A80327C4FE93072005631AF700E1464E
:100BC0000146854513058008EFF0BF86C9A00327BD
:100BD000C4FE93070006631AF700E1460146854507
:100BE00013050004EFF0FF845DA00327C4FE930704
:100BF0002006631AF700E146014685451305000407
:100C0000EFF03F8369A00327C4FE93070007631A30
:100C1000F700E1460146854513052004EFF07F818A
:100C2000BDA00327C4FE930720076319F700E14620
:100C3000014685451945EFF0CFFF91A80327C4FE73
:100C400093074007631AF700E146014685451305FF
:100C5000C008EFF00FFE25A80327C4FE9307000885
:100C6000631AF700E1460146854513054004EFF09D
:100C70004FFC31A80327C4FE930720086319F7002F
:100C8000E146014685451305E008EFF08FFA03279A
:100C900084FE8547631AF700930680040146814568
:100CA0002945EFF00FF9D5AA032784FE8D47631B72
:100CB000F700930680040146814513057002EFF0AA
:100CC0004FF7E1AA032784FEC547631AF70093068E
:100CD0008004014681450D45EFF0AFF57DAA03275D
:100CE00084FECD47631BF7009306800401468145CF
:100CF00013056006EFF0EFF34DA2032784FE930780
:100D00001002631BF700930680040146814513051A
:100D1000B002EFF00FF251A2032784FE93073002D6
:100D2000631BF70093068004014681451305B00458
:100D3000EFF02FF09DA2032784FE93075002631B60
:100D4000F700930680040146814513059006EFF0F5
:100D50004FEEA1A2032784FE93071004631BF70044
:100D600093068004014681451305B004EFF06FEC53
:100D70002DA2032784FE93073004631BF70093061C
:100D800080040146814513051002EFF08FEA31A27D
:100D9000032784FE93071005631BF7009306800466
:100DA0000146814513052006EFF0AFE8FDA00327BB
:100DB00084FE93073005631BF70093068004014609
:100DC000814513059008EFF0CFE6C1A8032784FE04
:100DD00093071006631BF7009306800401468145C4
:100DE00013051004EFF0EFE44DA8032784FE9307EA
:100DF0003006631BF7009306800401468145130506
:100E0000B008EFF00FE351A8032784FE9307100703
:100E1000631BF700930680040146814513053004E7
:100E2000EFF02FE19DA8032784FE93073007631A94
:100E3000F70093068004014681451D45EFF06FDF02
:100E4000A9A8032784FE93075007631BF7009306A6
:100E50008004014681451305D008EFF08FDD35A8E9
:100E6000032784FE93071008631BF7009306800492
:100E70000146814513055004EFF0AFDB39A8032785
:100E800084FE93073008631AF70093068004014636
:100E900081451305F008EFF0CFD90100F24062441C
:100EA00005618280011122CE00102326A4FEAE87A8
:100EB000A305F4FE0100B1670327C4FE0A07938768
:100EC0008748BA979C4383D70700C207C18393F72B
:100ED0000708F5D3B1670327C4FE0A07938787483D
:100EE000BA979C433E878347B4FEC207C18323124F
:100EF000F7000100724405618280011106CE22CC08
:100F000000102326A4FE2324B4FE39A8832784FEE0
:100F1000138717002324E4FE8387070093F7F70F56
:100F2000BE850325C4FEBD3F832784FE838707005B
:100F3000F1FF0100F240624405618280011122CE7E
:100F400000102326A4FE2324B4FEB1670327C4FEA9
:100F50000A0793878748BA979C4383D70700C2073D
:100F6000C18393F707028DC7B1670327C4FE0A0741
:100F700093878748BA979C4383D74700C207C183AA
:100F800013F7F70F832784FE2380E700854711A01E
:100F900081473E85724405618280797106D622D4EC
:100FA0000018232EA4FC232CB4FC232AC4FC2328E1
:100FB000D4FC232004FE232204FE232404FE232643
:100FC00004FE85450545EF404001832504FD0325CA
:100FD00044FDD13C032744FD8947631CF7000327E8
:100FE00004FD8D476317F70085451145EF30D03E6E
:100FF00095AA032744FDC947631CF700032704FD96
:10100000CD476317F70085452145EF30F03C99AA9D
:10101000032744FD930720026310F702032704FD12
:1010200093073002631AF7008545B707140013854C
:101030000701EF30703A3DA2032744FD93074002B9
:101040006310F702032704FD93075002631AF700A9
:101050008545B707140013850703EF30F03719A251
:10106000032744FD930720046311F702032704FDBF
:1010700093073004631BF700B7070140D44FB7074D
:1010800001404167558FD8CFF1A8032744FD93074E
:1010900020056312F702032704FD93073005631C44
:1010A000F700B7070140D44FB707014037070800E2
:1010B000558FD8CF45A8032744FD93072006631218
:1010C000F702032704FD93073006631CF700B707F8
:1010D0000140D44FB707014037072000558FD8CFC4
:1010E00051A0032744FD930720076312F70203274B
:1010F00004FD93073007631CF700B7070140D44F86
:10110000B707014037074000558FD8CFA1A8032764
:1011100044FD930740076312F702032704FD93077A
:101120005007631CF700B7070140D44FB7070140D1
:1011300037078000558FD8CF35A0032744FD93078C
:1011400020086311F702032704FD93073008631B8F
:10115000F700B7070140D44FB70701403707000237
:10116000558FD8CF8327C4FD91E785451165EF30B2
:10117000D06669A80327C4FD85476318F700854535
:1011800037050200EF30D06951A00327C4FD89471D
:101190006318F700854537050400EF307068BDA07F
:1011A0000327C4FD8D476318F70085453705080000
:1011B000EF301067A1A80327C4FD91476318F7001B
:1011C000854537051000EF30B06589A00327C4FDC1
:1011D00095476318F700854513050004EF30506408
:1011E00035A00327C4FD99476318F700854513050B
:1011F0000008EF30F06219A80327C4FD9D4763176C
:10120000F700854513050010EF309061832784FDBA
:101210002320F4FE231204FE231304FE231404FEF1
:10122000231604FEB1472315F4FEB1670327C4FD5E
:101230000A0793878748BA979C433E87930704FE23
:10124000BE853A85EF404011B1670327C4FD0A0708
:1012500093878748BA979C4385453E85EF40003386
:101260000100B250225445618280411106C622C459
:101270000008938581821945D13105469385818285
:101280001385818AEF10A04B0100B2402244410136
:101290008280411106C622C40008938591820545CB
:1012A00071390546938591821385C18BEF102049D2
:1012B0000100B240224441018280411106C622C48D
:1012C000000803A7418489476300F70203A741840C
:1012D0008D476314F700A92001A803A74184914713
:1012E0006314F700EF00D0260100B2402244410110
:1012F0008280411106C622C4000803A74184914799
:101300006315F700EF00302B39A003A741848D4708
:101310006313F70085280100B24022444101828016
:10132000411106C622C4000883C7F1823E87938715
:10133000C182BA97BE8511451131AA8781CB83C777
:10134000F182850713F7F70FA387E18203C7F182C4
:101350008547631AF70003C7C1829307500A6304E5
:10136000F700A387018203C7F1828D476317F70057
:10137000A387018205472388E1820100B24022440D
:1013800041018280411122C6000805472385E18280
:101390000100324441018280011106CE22CC0010AE
:1013A000AA87A307F4FEB16793878746DC473E8789
:1013B000C1475CCBB167938787469C4B3E8791477B
:1013C0001CCB8347F4FEBE850945EFF06FE8B1679B
:1013D00093878746DC473E87C1471CCB0100F2401C
:1013E000624405618280011106CE22CC0010AA87DA
:1013F000A307F4FEB16793878746DC473E87C14762
:101400005CCBB167938787469C4B3E8791475CCB0B
:101410008347F4FEBE850945EFF08FE3B1679387FC
:101420008746DC473E87C1471CCB0100F24062443F
:1014300005618280011106CE22CC0010AA872E877A
:10144000A307F4FEBA872307F4FE8307F4FE93C7CD
:10145000F7FF93F7F70F9D8393F7F70F3E87130678
:101460005005B1679385C7323A85EF104010834726
:10147000E4FE93B7870093F7F70F3E8713066005E6
:10148000B1679385C7323A85EF10600E8347E4FE5B
:10149000938707FB93F7F70F3E85B1378347F4FE39
:1014A000918393F7F70F93E7070193F7F70F3E85C3
:1014B0001D3F8347F4FEBD8B93F7F70F3E8525371D
:1014C0000100F240624405618280797106D622D41F
:1014D00000189307C4FD3E85EF10400F8547231E7B
:1014E000F4FC93070008231FF4FC93070004231067
:1014F000F4FE83A7818381EB99472301F4FE85479E
:10150000A301F4FE21A803A7818385476318F70090
:10151000A1472301F4FE8947A301F4FEB717000099
:101520009387275C2324F4FEB71700009387875422
:101530002326F4FE9307C4FD3E85EF10C00E010084
:10154000B250225445618280011106CE22CC001097
:10155000A30704FE81A08347F4FE938707FB93F75C
:10156000F70F3E8549350545BD3D4145AD3D230756
:1015700004FE01A801450D358347E4FE85072307D6
:10158000F4FE8307E4FEE3D707FE8347F4FE8507F6
:10159000A307F4FE0347F4FE9D47E3FEE7FA0100CC
:1015A000F240624405618280011122CE00102326A0
:1015B000A4FE0327C4FE23AAE18201007244056150
:1015C0008280797106D622D40018AA872E87232C10
:1015D000C4FC231FF4FCBA87231EF4FC8357E4FDEC
:1015E00093B7070893F7F70F3E871306E00DB1672F
:1015F0009385C7323A85EF0090778357C4FD93B740
:10160000870093F7F70F3E871306F00DB1679385B8
:10161000C7323A85EF00B075A30604FEA30704FEA7
:10162000230704FE79A283A78183D1EF8347E4FED9
:10163000032784FDBA978387070093F7F70F811775
:10164000A306F4FE0357E4FD9307E00763F9E70000
:10165000231F04FC8357C4FD8507231EF4FC835716
:10166000E4FD93F7F70F0357C4FD1377F70FBA851F
:101670003E85C933A30704FE3DA00347D4FE83463D
:10168000F4FE3166BA878607BA9786071307864A3B
:10169000BA97B69783C707003E85FD398347F4FEA6
:1016A0008507A307F4FE0347F4FE9547E3F7E7FC3D
:1016B0008357E4FD9907231FF4FC8347E4FE850765
:1016C0002307F4FEFDA08347E4FE032784FDBA97B9
:1016D0008387070093F7F70F8117A306F4FE0357DC
:1016E000E4FD9307800763F9E700231F04FC835799
:1016F000C4FD8507231EF4FC8357E4FD93F7F70F21
:101700000357C4FD1377F70FBA853E852533A3072A
:1017100004FE2DA08347D4FE139747008347F4FEB1
:101720003E97B1679387076DBA9783C707003E85D9
:10173000A5318347F4FE8507A307F4FE0347F4FEB3
:101740009D47E3F9E7FC8357E4FD13F7F70F835751
:10175000C4FD93F7F70F850793F7F70FBE853A851A
:10176000D139A30704FE3DA08347D4FE1397470059
:101770008347F4FEBA9713878700B1679387076D95
:10178000BA9783C707003E8501398347F4FE850772
:10179000A307F4FE0347F4FE9D47E3F7E7FC8357F6
:1017A000E4FDA107231FF4FC8347E4FE850723071C
:1017B000F4FE8347E4FE032784FDBA97838707007E
:1017C000E39307E60100B2502254456182803971EB
:1017D00006DE22DC8000AA882E852324C4FCB68580
:1017E0003A86BE864287C6872317F4FCAA8723164B
:1017F000F4FCAE872313F4FCB2872312F4FCB68703
:101800002311F4FCBA872310F4FC8357E4FC93B74C
:10181000070893F7F70F3E871306D018B167938533
:10182000C7323A85EF00B0548357C4FC93B78700A2
:1018300093F7F70F3E871306E018B1679385C73219
:101840003A85EF00D052232604FE232404FE2322EF
:1018500004FE232E04FC232C04FC835704FCE19B90
:101860002310F4FC835724FCE19B2311F4FC232474
:1018700004FE09AE8357E4FC93F6F70F8357C4FCCC
:1018800013F7F70F832784FE8D8393F7F70FBA972B
:1018900093F7F70FBE853685713E035744FC8327C7
:1018A00084FE3307F702835704FCB357F702232C57
:1018B000F4FC232604FE65AC035764FC8327C4FEB6
:1018C0003307F702835724FCB357F7028D83232E87
:1018D000F4FC232204FE51A4A30104FE035764FC7C
:1018E000832784FDB307F70213D737008327C4FD8E
:1018F000BA97032784FCBA9783C70700BE8683275D
:1019000044FE13070008B357F740F58F99C7834784
:1019100034FE93E71700A301F4FE035764FC83270A
:1019200084FDB307F70213D737008327C4FDBA97A6
:10193000035764FC0D8342074183BA97032784FC55
:10194000BA9783C70700BE86832744FE13070008A3
:10195000B357F740F58F99C7834734FE93E72700C5
:10196000A301F4FE035764FC832784FDB307F70249
:1019700013D737008327C4FDBA97035764FC0D8340
:10198000420741830607BA97032784FCBA9783C7A7
:101990000700BE86832744FE13070008B357F740AD
:1019A000F58F99C7834734FE93E74700A301F4FE00
:1019B000035764FC832784FDB307F70213D737006E
:1019C0008327C4FD3E97835764FC8D83C207C18380
:1019D000BE86B6878607B697BA97032784FCBA9760
:1019E00083C70700BE86832744FE13070008B3574A
:1019F000F740F58F99C7834734FE93E78700A3012B
:101A0000F4FE035764FC832784FDB307F70213D762
:101A100037008327C4FDBA97035764FC0D83420740
:101A200041830A07BA97032784FCBA9783C7070044
:101A3000BE86832744FE13070008B357F740F58F8F
:101A400099C7834734FE93E70701A301F4FE0357C8
:101A500064FC832784FDB307F70213D7370083277D
:101A6000C4FD3E97835764FC8D83C207C183BE8645
:101A7000B6878A07B697BA97032784FCBA9783C7B5
:101A80000700BE86832744FE13070008B357F740BC
:101A9000F58F99C7834734FE93E70702A301F4FE4D
:101AA000035764FC832784FDB307F70213D737007D
:101AB0008327C4FD3E97835764FC8D83C207C1838F
:101AC000BE86B6878607B6978607BA97032784FC33
:101AD000BA9783C70700BE86832744FE1307000812
:101AE000B357F740F58F99C7834734FE93E7070450
:101AF000A301F4FE035764FC832784FDB307F702B8
:101B000013D737008327C4FD3E97835764FC8D832A
:101B1000C207C183BE86B6878E07958FBA97032703
:101B200084FCBA9783C70700BE86832744FE130749
:101B30000008B357F740F58F99C7834734FE93E702
:101B400007F8A301F4FE834734FE3E85EFF0DF84FF
:101B5000832744FE85072322F4FE032744FE9D4786
:101B6000E3FCE7D68327C4FEA1072326F4FE8357B0
:101B700024FC0327C4FEE361F7D4832784FEA10776
:101B80002324F4FE835704FC032784FEE364F7CE8A
:101B90000100F250625421618280411106C622C4C4
:101BA0004AC24EC0000883A7018513D61700130848
:101BB000F00F9307F00F13072003930600038145EE
:101BC0000945EFE07FC1C14605468545130530084C
:101BD000EFE03F86C1460546854513052008EFE046
:101BE0005F85C1460546854513054006EFE07F84C5
:101BF00083A741833E85EFF03F9BEFF01F8DB167D8
:101C000093878746DC473E87C1475CCBB1679387A4
:101C100087469C4B3E87A1475CCB03A7018589671C
:101C2000938707F43357F70293072003B307F702AC
:101C30003E8981494A85CE85EFE04FE8B1679387B9
:101C400087469C4B3E87A1471CCB1305E00AEFF06B
:101C50008FF90145EFF02FF94145EFF0CFF813056B
:101C60000004EFF04FF813051008EFF0CFF713055D
:101C7000F007EFF04FF783A7418391EB1305100AAC
:101C8000EFF06FF61305800CEFF0EFF509A81305E0
:101C9000000AEFF04FF51305000CEFF0CFF4130539
:101CA000600AEFF04FF41305800AEFF0CFF313054D
:101CB000F003EFF04FF31305300DEFF0CFF20145D5
:101CC000EFF06FF21305500DEFF0EFF11305000880
:101CD000EFF06FF11305900DEFF0EFF01305100F1B
:101CE000EFF06FF01305A00DEFF0EFEF4945EFF0C7
:101CF0008FEF1305B00DEFF00FEF13050004EFF0B9
:101D00008FEE13050002EFF00FEE0945EFF0AFED97
:101D10001305D008EFF02FED5145EFF0CFEC130590
:101D2000400AEFF04FEC1305600AEFF0CFEB13051C
:101D3000F00AEFF04FEBEFF03F8181450145EFF006
:101D40006FEF0100B2402244124982494101828072
:101D5000411106C622C4000883C7F1833E879387DA
:101D6000C183BA97BE851145EFF04F9DAA8781CBFD
:101D700083C7F183850713F7F70FA38FE18203C7AA
:101D8000F1838547631AF70003C7C1839307500A9D
:101D90006304F700A38F018203C7F1838D476317A4
:101DA000F700A38F018205472380E1840100B24040
:101DB000224441018280411122C600080547A380C8
:101DC000E1840100324441018280411106C622C4EF
:101DD00000089385C1840545EFF04F96054693852D
:101DE000C1841385018DEF0090150100B24022449B
:101DF00041018280411106C622C400089385D18426
:101E00000545EFF0AF9305469385D1841385418E48
:101E1000EF00F0120100B240224441018280011122
:101E200006CE22CC00102326A4FE0327C4FE23A83E
:101E3000E18419280325C4FE5920EF005020010039
:101E4000F240624405618280411122C60008B71742
:101E500002409843B71702401367170098C3B7179B
:101E60000240D443B71702403707FFF8758FD8C335
:101E7000B71702409443B71702403707F7FE7D17A4
:101E8000758F98C3B71702409443B71702403707BE
:101E9000FCFF7D17758F98C3B7170240D443B7175F
:101EA0000240370781FF7D17758FD8C3B7170240EF
:101EB00037079F0098C70100324441018280797141
:101EC00022D60018232EA4FC232604FE232404FE7D
:101ED000B71702409443B71702404167558F98C324
:101EE000B71702409843B7070200F98F2324F4FE86
:101EF0008327C4FE85072326F4FE832784FE99E703
:101F00000327C4FE93070050E31CF7FCB7170240F9
:101F10009843B7070200F98F89C785472324F4FE49
:101F200019A0232404FE032784FE85476315F71EAA
:101F3000B72702409843B72702401367070198C3A9
:101F4000B72702409843B7270240719B98C3B72731
:101F5000024094438327C4FD1387F7FFB7376E0110
:101F600093870760B357F70213F77700B72702404C
:101F7000558F98C337170240B71702405843D8C34C
:101F800037170240B71702405843D8C337170240EB
:101F9000B71702405843D8C30327C4FDB7177A00C8
:101FA00093870720631BF702B7170240D843B71780
:101FB0000240719BD8C3B7170240D843B7170240FD
:101FC00013671700D8C30100B7170240DC4313F7AB
:101FD000C7009147E31AF7FE81A2B7170240D44326
:101FE000B71702403707C1FF7D17758FD8C3032786
:101FF000C4FDB747950893870740631BF700B717E1
:102000000240D443B71702404167558FD8C355A843
:102010000327C4FDB7172707938707E0631CF70062
:10202000B7170240D443B717024037073900558F1E
:10203000D8C341A80327C4FDB7E7B8059387078035
:10204000631CF700B7170240D443B71702403707A5
:102050002900558FD8C3B5A00327C4FDB7A74A04EC
:1020600093870720631CF700B7170240D443B717C4
:10207000024037071D00558FD8C3A1A00327C4FD18
:10208000B777DC02938707C0631CF700B7170240DD
:10209000D443B717024037071100558FD8C315A096
:1020A0000327C4FDB7376E0193870760631BF700F2
:1020B000B7170240D443B717024037070500558FC2
:1020C000D8C3B71702409443B7170240370700013F
:1020D000558F98C30100B71702409843B707000215
:1020E000F98FF5DBB7170240D843B7170240719B51
:1020F000D8C3B7170240D843B71702401367270069
:10210000D8C30100B7170240DC4313F7C700A1474B
:10211000E31AF7FE11A001A03254456182804111FB
:1021200022C60008010001003244410182800111F1
:1021300006CE22CC0010232604FE232404FE2326F0
:1021400004FE25A0232404FE39A0D13F832784FE6A
:1021500085072324F4FE032784FEC167E367F7FEA7
:102160008327C4FE85072326F4FE0327C4FE9307B6
:10217000F00FE3F9E7FC0100F24062440561828060
:10218000011106CE22CC00102326A4FE8325C4FE16
:102190000945EFE09FD60100F2406244056182806C
:1021A00041712326111E2324811E2322911E801B90
:1021B000232EA4E0232CB4E0231504FE231404FEF4
:1021C000231304FE231204FE0325C4E1EF708050A4
:1021D000AA87C207C1872313F4FE83D7818F89C7DB
:1021E0009387818F9C4B829783C7418593F7F70F25
:1021F0006388072E83D7818F6389072A9387818F0E
:10220000D847B16713860738814501450297832770
:10221000C4E12326F4FE0325C4E1EF70A04BAA8796
:10222000C207C1872313F4FE9387818F83D72700CA
:102230003E879387818F83C76700B347F702C20742
:10224000C1872312F4FE01008327C4FE1387170001
:102250002326E4FE83870700E5FB231404FEA1A8E0
:102260008327C4FEFD172326F4FE8327C4FE0387BD
:1022700007009307F002630AF7008327C4FE038771
:1022800007009307C005631BF700835784FEC2074E
:10229000C1838507C207C1832314F4FE835764FEFC
:1022A000C207C187C207C183FD17C207C183C20726
:1022B000C1872313F4FE835784FE139707014183DC
:1022C000854763E8E700835764FEC207C187E3D907
:1022D00007F8835764FEC207C18763C207028327DA
:1022E000C4FE85072326F4FE130744EE0326C4FE2E
:1022F000B167938507393A85EF7060391DA8835718
:1023000084FEC207C18381EF130744EE0326C4FE97
:10231000B1679385C7393A85EF70603719A81307FD
:1023200044EE0326C4FEB167938507393A85EF7002
:102330000036231504FE01A2231404FE59A09307BE
:1023400044EE3E85EF7000392A87835784FEC2072A
:10235000C183BE868357A4FEC207C1833E868357CE
:1023600044FEC207C187B307F602B6976367F70654
:10237000835784FEC207C1833E878357A4FEC207EA
:10238000C183BE86835744FEC207C187B387F60266
:10239000BA97035784FE42074183BA86130704FFA6
:1023A000BA97038747EF930704FFB697238AE7EAB4
:1023B000835784FEC207C1838507C207C1832314E4
:1023C000F4FE835784FEC207C1833E87835744FED1
:1023D000C207C187E345F7F611A00100835784FEC9
:1023E000C207C183130704FFBA97238A07EA9387BA
:1023F000818FD4479387818F83C777001397070115
:1024000041838357A4FEC207C1838507C207C183E6
:10241000B307F702C207C183130744EA3A86BE85B1
:10242000014582968357A4FEC207C1838507C20770
:10243000C1832315F4FE8357A4FEC207C183BE8463
:10244000930744EE3E85EF70E0282A87835744FEC9
:10245000C207C187B357F7028507E3EFF4EC130710
:1024600044EE032684E1B1679385C73A3A85EF705D
:1024700000229387818FD4479387818F83C777000A
:102480001397070141838357A4FEC207C1838507C1
:10249000C207C183B307F702C207C183130744EE23
:1024A0003A86BE850145829625A8930744E2130625
:1024B000000881453E85EFD0FFD5130744E283260F
:1024C00084E10326C4E1B1679385873B3A85EF70C9
:1024D000001C9387818F9847930744E23E850297BB
:1024E00001008320C11E0324811E8324411E7D61BF
:1024F0008280797106D622D40018232EA4FC232CC6
:10250000B4FC232AC4FC232604FEA9A00100B16761
:10251000938787489C47930500043E85EF30E00F82
:10252000AA87F5D7B167938787489C47BE868327DC
:1025300084FD13871700232CE4FC83870700C20760
:10254000C183BE853685EF30600A8327C4FE8507C8
:102550002326F4FE0327C4FE832744FDE348F7FA4D
:10256000832744FD3E85B25022544561828001118B
:1025700006CE22CC0010AA872324B4FE2322C4FE58
:10258000A307F4FE8347F4FE8DEFB707002083C74F
:10259000072693F7F70F95C783C7518591C301A00D
:1025A00083C75185850713F7F70FA38AE184F124C8
:1025B000832544FE032584FEEFF09FBEEFF03FB776
:1025C000C5BF0100F240624405618280011122CE44
:1025D00000102326A4FE8327C4FE23900700832730
:1025E000C4FE7D572391E7008327C4FE7D572392C5
:1025F000E7008327C4FE7D572383E7008327C4FEBB
:102600007D57A383E7008327C4FE23A40700832705
:10261000C4FE23A607008327C4FE23A807000100E9
:10262000724405618280011122CE00102326A4FE8F
:102630008327C4FE03D70700239CE18E8327C4FEB3
:1026400003D727009387818F2391E7008327C4FE58
:1026500003D747009387818F2392E7008327C4FE27
:1026600003C767009387818F2383E7008327C4FE16
:1026700003C777009387818FA383E7008327C4FE76
:1026800098479387818F98C78327C4FED84793873D
:10269000818FD8C78327C4FE984B9387818F98CBAF
:1026A0000547238AE18401007244056182807971C3
:1026B00006D622D400189307C4FD3E85013FB727F4
:1026C0000000938707182322F4FE9307C4FD3E857C
:1026D000993F9306100213060002F16793850720C5
:1026E0000945EFE09F8B0100B25022544561828082
:1026F000011122CE00102326A4FE2324B4FE83273A
:10270000C4FED843832784FE3E978327C4FED8C3E4
:1027100019A88327C4FED8438327C4FE9C4B1D8F72
:102720008327C4FED8C38327C4FE984B8327C4FEE7
:10273000DC43E3F0E7FE01007244056182807971B9
:1027400006D622D40018232EA4FC232CB4FC232A62
:10275000C4FC8327C4FDDC47032744FD637BF70CDF
:10276000292A8327C4FD984B8327C4FDDC43B30784
:10277000F7402326F4FE032744FD8327C4FE63FBB2
:10278000E7068327C4FD98438327C4FDDC43BA973B
:102790000326C4FE832584FD3E85EF6060408325CB
:1027A000C4FE0325C4FDA937032784FD8327C4FE87
:1027B000BA97232CF4FC8327C4FD98438327C4FDD8
:1027C000DC43B306F700032744FD8327C4FEB307A9
:1027D000F7403E86832584FD3685EF60603C032705
:1027E00044FD8327C4FEB307F740BE850325C4FD1F
:1027F000013725A08327C4FD98438327C4FDDC430C
:10280000BA97032644FD832584FD3E85EF60403959
:10281000832544FD0325C4FDE13D8327C4FDD8473E
:10282000832744FD1D8F8327C4FDD8C7052081471A
:1028300011A089473E85B2502254456182804111E2
:1028400022C600080100324441018280411106C6BF
:1028500022C4000883A7818599C783A78185138730
:10286000F7FF23ACE18483A7818599E3EFD0BF997B
:102870000100B240224441018280411106C622C4B7
:10288000000883A7818599E3EFD09F9783A781856F
:102890001387170023ACE1840100B24022444101B8
:1028A00082805D7186C6A2C4CAC2CEC052DE56DC2A
:1028B0005ADA5ED862D666D46AD26ED080082326F1
:1028C000A4FC0327C4FC994763EBE71E8327C4FCE1
:1028D00013972700BD679387078CBA979C4382871D
:1028E0001308000493070008130700049306000868
:1028F0003566130606CC81450145EFE05FED03A781
:1029000001858967938707F43357F7029307401FC0
:10291000B307F7022320F4FC232204FC032504FC64
:10292000832544FCEFD09F9959AA1308000493070C
:102930000008130700049306000835661306060C0A
:1029400081450145EFE0BFE803A7018589679387CB
:1029500007F43357F7029307C012B307F702232C8B
:10296000F4FA232E04FA032584FB8325C4FBEFD05D
:10297000FF94B1A213080004930700081307000492
:102980009306000835661306064C81450145EFE0C5
:102990001FE403A701858967938707F43357F7027C
:1029A0009307C012B307F7023E8D814D6A85EE850D
:1029B000EFD0DF9029A21308000493070008130743
:1029C00000049306000839661306068C814501450C
:1029D000EFE0FFDF03A701858967938707F433578B
:1029E000F7029307C012B307F7023E8C814C628551
:1029F000E685EFD0BF8CE1A0130800049307000820
:102A000013070004930600083966130606CC8145B7
:102A10000145EFE0DFDB03A701858967938707F4B2
:102A20003357F70293074006B307F7023E8B814BFB
:102A30005A85DE85EFD09F8859A0130800049307BC
:102A40000008130700049306000839661306060CF5
:102A500081450145EFE0BFD703A7018589679387CB
:102A600007F43357F7029307800CB307F7023E8A47
:102A7000814A5285D685EFD07F8491A01308000447
:102A8000930700081307000493060008396613062D
:102A9000064C81450145EFE09FD303A70185896777
:102AA000938707F43357F7029307800CB307F702B5
:102AB0003E8981494A85CE85EFD05F8001000100C3
:102AC000B640264416498649725AE25A525BC25BA6
:102AD000325CA25C125D825D616182801D71A2CE5A
:102AE00082E686E48AE28EE012FE16FC1AFA1EF8EE
:102AF0002AF62EF432F236F03AEE3EEC42EA46E89E
:102B000072E676E47AE27EE0801093055052B74791
:102B1000014013850780EF20B034AA8789CB930545
:102B20005052B747014013850780EF2090430100C2
:102B300076443660A660166186617272E2725273E4
:102B4000C2733275A275127682767267E267526836
:102B5000C268326EA26E126F826F256173002030E0
:102B60001D71A2CE82E686E48AE28EE012FE16FC99
:102B70001AFA1EF82AF62EF432F236F03AEE3EEC4D
:102B800042EA46E872E676E47AE27EE08010930557
:102B90005052B747004013850740EF20702CAA879A
:102BA000A1C303A7818485476315F700EFF08FA4C5
:102BB00005A003A7818489476315F700EFE06FED57
:102BC00001A803A781848D476314F700EFF0EF9FFE
:102BD00093055052B747004013850740EF207038E7
:102BE000010076443660A660166186617272E272F8
:102BF0005273C2733275A275127682767267E2677B
:102C00005268C268326EA26E126F826F25617300C5
:102C100020301D71A2CE82E686E48AE28EE012FEAA
:102C200016FC1AFA1EF82AF62EF432F236F03AEEB4
:102C30003EEC42EA46E872E676E47AE27EE0801014
:102C400093055052B757004013850780EF2050215D
:102C5000AA8789CB93055052B75700401385078048
:102C6000EF203030010076443660A6601661866140
:102C70007272E2725273C2733275A27512768276E4
:102C80007267E2675268C268326EA26E126F826F1C
:102C90002561730020301D71A2CE82E686E48AE2AF
:102CA0008EE012FE16FC1AFA1EF82AF62EF432F204
:102CB00036F03AEE3EEC42EA46E872E676E47AE234
:102CC0007EE0801093055052B7570040138507C02F
:102CD000EF201019AA8789CB93055052B7570040AF
:102CE000138507C0EF20F027010076443660A66008
:102CF000166186617272E2725273C2733275A27586
:102D0000127682767267E2675268C268326EA26E8D
:102D1000126F826F2561730020301D71A2CE82E692
:102D200086E48AE28EE012FE16FC1AFA1EF82AF6F3
:102D30002EF432F236F03AEE3EEC42EA46E872E623
:102D400076E47AE27EE080109305505237550040D9
:102D5000EF201011AA8789CBEFE02FD693055052B0
:102D600037550040EF20F01F010076443660A66022
:102D7000166186617272E2725273C2733275A27505
:102D8000127682767267E2675268C268326EA26E0D
:102D9000126F826F2561730020301D71A2CE82E612
:102DA00086E48AE28EE012FE16FC1AFA1EF82AF673
:102DB0002EF432F236F03AEE3EEC42EA46E872E6A3
:102DC00076E47AE27EE0801093055052B727004007
:102DD00013850780EF20D008AA8789CB930550522E
:102DE000B727004013850780EF20B0170100764415
:102DF0003660A660166186617272E2725273C273A7
:102E00003275A275127682767267E2675268C2687E
:102E1000326EA26E126F826F2561730020301D71B9
:102E2000A2CE82E686E48AE28EE012FE16FC1AFA50
:102E30001EF82AF62EF432F236F03AEE3EEC42EA72
:102E400046E872E676E47AE27EE08010930550521E
:102E5000B7270040138507C0EF209000AA878DC7D1
:102E600003A7818485476309F70003A78184894705
:102E70006314F700EFE06FBF93055052B72700408F
:102E8000138507C0EF20F00D010076443660A66080
:102E9000166186617272E2725273C2733275A275E4
:102EA000127682767267E2675268C268326EA26EEC
:102EB000126F826F2561730020301D71A2CE82E6F1
:102EC00086E48AE28EE012FE16FC1AFA1EF82AF652
:102ED0002EF432F236F03AEE3EEC42EA46E872E682
:102EE00076E47AE27EE08010930550523725004068
:102EF000EF200077AA8799C79305505237250040E5
:102F0000EF203006010076443660A66016618661C7
:102F10007272E2725273C2733275A2751276827641
:102F20007267E2675268C268326EA26E126F826F79
:102F30002561730020301D71A2CE82E686E48AE20C
:102F40008EE012FE16FC1AFA1EF82AF62EF432F261
:102F500036F03AEE3EEC42EA46E872E676E47AE291
:102F60007EE08010B707055083C7070193F7F70F7E
:102F7000918B85C3EFE0EFB7B707055083C7070113
:102F800013F7F70FB70705506D9B1377F70F2388DB
:102F9000E700010076443660A660166186617272B1
:102FA000E2725273C2733275A275127682767267BC
:102FB000E2675268C268326EA26E126F826F25613C
:102FC000730020301D71A2CE82E686E48AE28EE094
:102FD00012FE16FC1AFA1EF82AF62EF432F236F019
:102FE0003AEE3EEC42EA46E872E676E47AE27EE0C9
:102FF00080100545EF10D0102A8785476315F7002C
:103000000545EF105015010076443660A660166144
:1030100086617272E2725273C2733275A275127651
:1030200082767267E2675268C268326EA26E126F71
:10303000826F2561730020301D71A2CE82E686E486
:103040008AE28EE012FE16FC1AFA1EF82AF62EF418
:1030500032F236F03AEE3EEC42EA46E872E676E4C8
:103060007AE27EE080100945EF1090092A878547B3
:103070006315F7000945EF10100E01007644366025
:10308000A660166186617272E2725273C273327503
:10309000A275127682767267E2675268C268326EF3
:1030A000A26E126F826F2561730020301D71A2CE57
:1030B00082E686E48AE28EE012FE16FC1AFA1EF818
:1030C0002AF62EF432F236F03AEE3EEC42EA46E8C8
:1030D00072E676E47AE27EE080101145EF1050024D
:1030E0002A8785476315F7001145EF10D0060100C8
:1030F00076443660A660166186617272E27252731F
:10310000C2733275A275127682767267E267526870
:10311000C268326EA26E126F826F2561730020301A
:103120001D71A2CE82E686E48AE28EE012FE16FCD3
:103130001AFA1EF82AF62EF432F236F03AEE3EEC87
:1031400042EA46E872E676E47AE27EE080102145C3
:10315000EF10007B2A8785476315F7002145EF10A4
:10316000807F010076443660A660166186617272C7
:10317000E2725273C2733275A275127682767267EA
:10318000E2675268C268326EA26E126F826F25616A
:10319000730020301D71A2CE82E686E48AE28EE0C2
:1031A00012FE16FC1AFA1EF82AF62EF432F236F047
:1031B0003AEE3EEC42EA46E872E676E47AE27EE0F7
:1031C00080104145EF10C0732A8785476315F700CB
:1031D0004145EF104078010076443660A6601661E4
:1031E00086617272E2725273C2733275A275127680
:1031F00082767267E2675268C268326EA26E126FA0
:10320000826F2561730020301D71A2CE82E686E4B4
:103210008AE28EE012FE16FC1AFA1EF82AF62EF446
:1032200032F236F03AEE3EEC42EA46E872E676E4F6
:103230007AE27EE0801013050002EF10606C2A87AE
:1032400085476316F70013050002EF10C0701305E1
:103250000004EF10E06A2A8785476316F70013051C
:103260000004EF10406F13050008EF1060692A8713
:1032700085476316F70013050008EF10C06D1305AE
:103280000010EF10E0672A8785476316F7001305E3
:103290000010EF10406C13050020EF1060662A87C5
:1032A00085476316F70013050020EF10C06A010080
:1032B00076443660A660166186617272E27252735D
:1032C000C2733275A275127682767267E2675268AF
:1032D000C268326EA26E126F826F25617300203059
:1032E0001D71A2CE82E686E48AE28EE012FE16FC12
:1032F0001AFA1EF82AF62EF432F236F03AEE3EECC6
:1033000042EA46E872E676E47AE27EE0801013054F
:103310000040EF10E05E2A8785476316F70013052B
:103320000040EF104063856713850780EF10405D14
:103330002A8785476317F700856713850780EF1095
:1033400080610565EF10C05B2A8785476315F7002C
:103350000565EF1040600965EF10805A2A878547A0
:103360006315F7000965EF10005F1165EF10405914
:103370002A8785476315F7001165EF10C05D216549
:10338000EF1000582A8785476315F7002165EF1075
:10339000805C010076443660A660166186617272B8
:1033A000E2725273C2733275A275127682767267B8
:1033B000E2675268C268326EA26E126F826F256138
:1033C000730020301D71A2CE82E686E48AE28EE090
:1033D00012FE16FC1AFA1EF82AF62EF432F236F015
:1033E0003AEE3EEC42EA46E872E676E47AE27EE0C5
:1033F00080108545B7370140138507C0EF10F06B8B
:10340000AA8781CB8545B7370140138507C0EF10E8
:10341000D071010076443660A660166186617272D2
:10342000E2725273C2733275A27512768276726737
:10343000E2675268C268326EA26E126F826F2561B7
:10344000730020301D71A2CE82E686E48AE28EE00F
:1034500012FE16FC1AFA1EF82AF62EF432F236F094
:103460003AEE3EEC42EA46E872E676E47AE27EE044
:103470008010854537050040EF103064AA8791CB56
:10348000854537050040EF10506A13052008EFC04E
:10349000FFF3010076443660A660166186617272A1
:1034A000E2725273C2733275A275127682767267B7
:1034B000E2675268C268326EA26E126F826F256137
:1034C000730020301D71A2CE82E686E48AE28EE08F
:1034D00012FE16FC1AFA1EF82AF62EF432F236F014
:1034E0003AEE3EEC42EA46E872E676E47AE27EE0C4
:1034F00080108545B707004013850740EF10F05B4B
:10350000AA8781CB8545B707004013850740EF1098
:10351000D061010076443660A660166186617272E1
:10352000E2725273C2733275A27512768276726736
:10353000E2675268C268326EA26E126F826F2561B6
:10354000730020301D71A2CE82E686E48AE28EE00E
:1035500012FE16FC1AFA1EF82AF62EF432F236F093
:103560003AEE3EEC42EA46E872E676E47AE27EE043
:1035700080108545B717004013850780EF10F05382
:10358000AA8781CB8545B717004013850780EF10C8
:10359000D059010076443660A66016618661727269
:1035A000E2725273C2733275A275127682767267B6
:1035B000E2675268C268326EA26E126F826F256136
:1035C000730020301D71A2CE82E686E48AE28EE08E
:1035D00012FE16FC1AFA1EF82AF62EF432F236F013
:1035E0003AEE3EEC42EA46E872E676E47AE27EE0C3
:1035F00080108545B7170040138507C0EF10F04BCA
:10360000AA8781CB8545B7170040138507C0EF1007
:10361000D051010076443660A660166186617272F0
:10362000E2725273C2733275A27512768276726735
:10363000E2675268C268326EA26E126F826F2561B5
:10364000730020301D71A2CE82E686E48AE28EE00D
:1036500012FE16FC1AFA1EF82AF62EF432F236F092
:103660003AEE3EEC42EA46E872E676E47AE27EE042
:103670008010854537150040EF103044AA8791C768
:10368000854537150040EF10504A010076443660FA
:10369000A660166186617272E2725273C2733275ED
:1036A000A275127682767267E2675268C268326EDD
:1036B000A26E126F826F2561730020301D71A2CE41
:1036C00082E686E48AE28EE012FE16FC1AFA1EF802
:1036D0002AF62EF432F236F03AEE3EEC42EA46E8B2
:1036E00072E676E47AE27EE080108545B717004006
:1036F00013850740EF10703CAA8781CB8545B7172B
:10370000004013850740EF105042010076443660B8
:10371000A660166186617272E2725273C27332756C
:10372000A275127682767267E2675268C268326E5C
:10373000A26E126F826F2561730020301D71A2CEC0
:1037400082E686E48AE28EE012FE16FC1AFA1EF881
:103750002AF62EF432F236F03AEE3EEC42EA46E831
:1037600072E676E47AE27EE080108545B737014064
:1037700013850740EF107034AA8781CB8545B73792
:10378000014013850740EF10503A0100764436603F
:10379000A660166186617272E2725273C2733275EC
:1037A000A275127682767267E2675268C268326EDC
:1037B000A26E126F826F2561730020301D71A2CE40
:1037C00082E686E48AE28EE012FE16FC1AFA1EF801
:1037D0002AF62EF432F236F03AEE3EEC42EA46E8B1
:1037E00072E676E47AE27EE080108545B7570140C4
:1037F000138507C0EF10702CAA8781CB8545B7577A
:103800000140138507C0EF10503201007644366046
:10381000A660166186617272E2725273C27332756B
:10382000A275127682767267E2675268C268326E5B
:10383000A26E126F826F2561730020301D71A2CEBF
:1038400082E686E48AE28EE012FE16FC1AFA1EF880
:103850002AF62EF432F236F03AEE3EEC42EA46E830
:1038600072E676E47AE27EE08010854537550140C5
:10387000EF10B024AA8791C7854537550140EF1056
:10388000D02A010076443660A660166186617272A5
:10389000E2725273C2733275A275127682767267C3
:1038A000E2675268C268326EA26E126F826F256143
:1038B00073002030411122C600080100324441014A
:1038C00073002030411122C6000801A05D7186C638
:1038D000A2C4CAC2CEC052DE56DC5ADA5ED862D664
:1038E00066D46AD26ED08008238C0186130510043A
:1038F000EFC0DFA9AA87BDEF03A70185896793877A
:1039000007F43357F702BA878A07BA978607232442
:10391000F4FC232604FC032584FC8325C4FCEFC0AF
:10392000FF9931A0814513056002EFC0FF9E13058A
:103930001004EFC0BFA5AA87F5D703A70185896743
:10394000938707F43357F702BA878A07BA9786072F
:103950002320F4FC232204FC032504FC832544FCDF
:10396000EFC0DF95854513056002EFC0FF9A05475C
:10397000238CE18613053004EFC05FA1AA87BDEB5D
:1039800003A701858967938707F43357F702BA873E
:103990008A07BA978607232CF4FA232E04FA032504
:1039A00084FB8325C4FBEFC07F9131A081451305C3
:1039B0008002EFC07F9613053004EFC03F9DAA87B9
:1039C000F5D703A701858967938707F43357F70273
:1039D000BA878A07BA9786073E8D814D6A85EE853C
:1039E000EFC0DF8D854513056002EFC0FF920947E8
:1039F000238CE1860545EFC07F99AA87A1EF03A735
:103A000001858967938707F43357F702BA878A07D6
:103A1000BA9786073E8C814C6285E685EFC01F8A87
:103A200001000545EFC09F96AA87E5DF03A7018542
:103A30008967938707F43357F702BA878A07BA97DB
:103A400086073E8B814B5A85DE85EFC03F870D4749
:103A5000238CE1860D45EFC07F93AA87A1EF03A7D2
:103A600001858967938707F43357F702BA878A0776
:103A7000BA9786073E8A814A5285D685EFC01F8451
:103A800001000D45EFC09F90AA87E5DF03A70185E0
:103A90008967938707F43357F702BA878A07BA977B
:103AA00086073E8981494A85CE85EFC03F8111470F
:103AB000238CE1860100B640264416498649725A95
:103AC000E25A525BC25B325CA25C125D825D616154
:103AD0008280411106C622C40008154723A2E18650
:103AE00023AE01842DA883A7C18593960701C182C7
:103AF00003A7C185BA878607BA978A073E87B707A3
:103B0000002093870700BA973E86B6850145EFD01F
:103B10005FAB83A7C1851387170023AEE18403A79A
:103B2000C18583A74186E360F7FC0100B2402244CF
:103B300041018280411106C622C4000823AE0184DF
:103B400061A823A00186B5A803A7C18583A6018625
:103B500037060020BA878607BA978A071307060038
:103B6000BA97B69703C7070093075003631AF70085
:103B700003A7C18523A4E18603A7018623A6E186C6
:103B800003A7C18583A6018637060020BA8786076A
:103B9000BA978A0713070600BA97B69703C70700B4
:103BA000930770036319F700B167138607409D45BB
:103BB0000145EFD01FA183A701861387170023A01B
:103BC000E18603A70186AD47E3F0E7F883A7C18547
:103BD0001387170023AEE18403A7C18583A741861D
:103BE000E361F7F60100B2402244410182804111B5
:103BF00006C622C40008EFE05FC8B74795081385E2
:103C00000740EFE0CFA1EFE09FAAEFD01FF99306A6
:103C100080040146814513051004EFC09F8193067F
:103C200080040146814513053004EFC09F80930650
:103C30008004014681450545EFC0AFFF930680042F
:103C4000014681450D45EFC0CFFEC146054685457D
:103C500013056002EFC0EFFDC1460546854513051B
:103C60008002EFC00FFDEFE07FBEEFF03FC603C75D
:103C7000818785476313F70203A741878547630E52
:103C8000F700B707002083A7472613871700B70759
:103C9000002023A2E726EFD03F8B03C78187894707
:103CA000631CF70003A7418785476307F7000547B3
:103CB00023AAE186EFD05F89B707002083A74726B4
:103CC000858B8DC703A7418785476301F702B167DD
:103CD0001386C74081450145EFD0BF8EB16713867B
:103CE00047418D450145EFD0DF8D15A8B70700206E
:103CF00083A74726858B85E703A741878547630010
:103D0000F702B1671386C74081450145EFD07F8B2D
:103D1000B1671386C7418D450145EFD09F8AB7072C
:103D2000002083A74726858BE385072203A74187C9
:103D30008547E310F722EFF0DFD9EFF0BFDF03C7CD
:103D400081878547631EF72683A781861387F7FF40
:103D500083A6C18637060020BA878607BA978A07E6
:103D600013070600BA97B69703C707009307000327
:103D70006308F70283A781861387F7FF83A6C186AE
:103D800037060020BA878607BA978A071307060006
:103D9000BA97B69703C7070093073003631BF7086A
:103DA00083A781861387F7FF83A6C1863706002085
:103DB000BA878607BA978A0713070600BA97B69795
:103DC00083C7070003A781867D1703A6C1869507D1
:103DD00093F6F70FB7050020BA878607BA978A07C8
:103DE00013870500BA97B2972380D70003A781866F
:103DF00083A6C18637060020BA878607BA978A0746
:103E000013070600BA97B69783C7070003A78186F2
:103E100003A6C186ED1793F6F70FB7050020BA8702
:103E20008607BA978A0713870500BA97B297238047
:103E3000D70083A781861387F7FF83A6C18637063D
:103E40000020BA878607BA978A0713070600BA9731
:103E5000B69703C70700930740036308F70283A7D9
:103E600081861387F7FF83A6C18637060020BA87AD
:103E70008607BA978A0713070600BA97B69703C74B
:103E8000070093077003631DF71283A781861387CA
:103E9000E7FF83A6C18637060020BA878607BA9750
:103EA0008A0713070600BA97B69703C70700930758
:103EB00000036308F70283A781861387E7FF83A6C1
:103EC000C18637060020BA878607BA978A07130784
:103ED0000600BA97B69703C707009307300363112C
:103EE000F70E83A781861387E7FF83A6C18637066F
:103EF0000020BA878607BA978A0713070600BA9781
:103F0000B69783C7070003A78186791703A6C186E2
:103F1000910793F6F70FB7050020BA878607BA977F
:103F20008A0713870500BA97B2972380D70083A723
:103F300081861387F7FF83A6C18637060020BA87DC
:103F40008607BA978A0713070600BA97B69783C7FA
:103F5000070003A781867D1703A6C186850793F610
:103F6000F70FB7050020BA878607BA978A07138725
:103F70000500BA97B2972380D70003A7818683A64E
:103F8000C18637060020BA878607BA978A071307C3
:103F90000600BA97B69783C7070003A7818603A6D2
:103FA000C186ED1793F6F70FB7050020BA8786078D
:103FB000BA978A0713870500BA97B2972380D7006C
:103FC00003C781878947631EF72683A781861387E6
:103FD000170083A6C18637060020BA878607BA97DE
:103FE0008A0713070600BA97B69703C70700930717
:103FF00000036308F70283A781861387170083A64F
:10400000C18637060020BA878607BA978A07130742
:104010000600BA97B69703C7070093073003631BE0
:10402000F70883A781861387170083A6C186370602
:104030000020BA878607BA978A0713070600BA973F
:10404000B69783C7070003A78186050703A6C18625
:10405000950793F6F70FB7050020BA878607BA973A
:104060008A0713870500BA97B2972380D70003A762
:10407000818683A6C18637060020BA878607BA974D
:104080008A0713070600BA97B69783C7070003A7E6
:10409000818603A6C186ED1793F6F70FB7050020BA
:1040A000BA878607BA978A0713870500BA97B29727
:1040B0002380D70083A781861387170083A6C18634
:1040C00037060020BA878607BA978A0713070600C3
:1040D000BA97B69703C70700930740036308F70230
:1040E00083A781861387170083A6C1863706002021
:1040F000BA878607BA978A0713070600BA97B69752
:1041000003C7070093077003631DF71283A7818617
:104110001387270083A6C18637060020BA87860743
:10412000BA978A0713070600BA97B69703C707001E
:10413000930700036308F70283A78186138727008C
:1041400083A6C18637060020BA878607BA978A07F2
:1041500013070600BA97B69703C707009307300303
:104160006311F70E83A781861387270083A6C18674
:1041700037060020BA878607BA978A071307060012
:10418000BA97B69783C7070003A78186090703A6D6
:10419000C186910793F6F70FB7050020BA87860707
:1041A000BA978A0713870500BA97B2972380D7007A
:1041B00083A781861387170083A6C1863706002050
:1041C000BA878607BA978A0713070600BA97B69781
:1041D00083C7070003A78186050703A6C186850755
:1041E00093F6F70FB7050020BA878607BA978A07B4
:1041F00013870500BA97B2972380D70003A781865B
:1042000083A6C18637060020BA878607BA978A0731
:1042100013070600BA97B69783C7070003A78186DE
:1042200003A6C186ED1793F6F70FB7050020BA87EE
:104230008607BA978A0713870500BA97B297238033
:10424000D70003C781878D476311F72803A78186AD
:1042500083A7C1869386F7FF37060020BA878607B3
:10426000BA978A0713070600BA97B69703C70700DD
:10427000930700036308F70203A7818683A7C1861B
:104280009386F7FF37060020BA878607BA978A0712
:1042900013070600BA97B69703C7070093073003C2
:1042A000631CF70803A7818683A7C1869386F7FF5F
:1042B00037060020BA878607BA978A0713070600D1
:1042C000BA97B69783C7070003A7818683A6C186DE
:1042D0001386F6FF950793F6F70FB7050020BA8708
:1042E0008607BA978A0713870500BA97B297238083
:1042F000D70003A7818683A6C18637060020BA8728
:104300008607BA978A0713070600BA97B69783C736
:10431000070003A7818603A6C186ED1793F6F70F62
:10432000B7050020BA878607BA978A071387050062
:10433000BA97B2972380D70003A7818683A7C18647
:104340009386F7FF37060020BA878607BA978A0751
:1043500013070600BA97B69703C7070093074003F1
:104360006308F70203A7818683A7C1869386F7FFB8
:1043700037060020BA878607BA978A071307060010
:10438000BA97B69703C7070093077003631FF71226
:1043900003A7818683A7C1869386E7FF370600209F
:1043A000BA878607BA978A0713070600BA97B6979F
:1043B00003C70700930700036308F70203A781867A
:1043C00083A7C1869386E7FF37060020BA87860752
:1043D000BA978A0713070600BA97B69703C707006C
:1043E000930730036313F70E03A7818683A7C18663
:1043F0009386E7FF37060020BA878607BA978A07B1
:1044000013070600BA97B69783C7070003A78186EC
:1044100083A6C1861386E6FF910793F6F70FB705CB
:104420000020BA878607BA978A0713870500BA97CC
:10443000B2972380D70003A7818683A7C18693867E
:10444000F7FF37060020BA878607BA978A0713074F
:104450000600BA97B69783C7070003A7818683A68D
:10446000C1861386F6FF850793F6F70FB705002080
:10447000BA878607BA978A0713870500BA97B29753
:104480002380D70003A7818683A6C1863706002034
:10449000BA878607BA978A0713070600BA97B697AE
:1044A00083C7070003A7818603A6C186ED1793F68D
:1044B000F70FB7050020BA878607BA978A071387D0
:1044C0000500BA97B2972380D70003C78187914729
:1044D0006311F72803A7818683A7C18693861700F7
:1044E00037060020BA878607BA978A07130706009F
:1044F000BA97B69703C70700930700036308F7024C
:1045000003A7818683A7C1869386170037060020FC
:10451000BA878607BA978A0713070600BA97B6972D
:1045200003C7070093073003631CF70803A78186BE
:1045300083A7C1869386170037060020BA878607AF
:10454000BA978A0713070600BA97B69783C707007A
:1045500003A7818683A6C18613861600950793F666
:10456000F70FB7050020BA878607BA978A0713871F
:104570000500BA97B2972380D70003A7818683A648
:10458000C18637060020BA878607BA978A071307BD
:104590000600BA97B69783C7070003A7818603A6CC
:1045A000C186ED1793F6F70FB7050020BA87860787
:1045B000BA978A0713870500BA97B2972380D70066
:1045C00003A7818683A7C18693861700370600203C
:1045D000BA878607BA978A0713070600BA97B6976D
:1045E00003C70700930740036308F70203A7818608
:1045F00083A7C1869386170037060020BA878607EF
:10460000BA978A0713070600BA97B69703C7070039
:1046100093077003631FF71203A7818683A7C186E0
:104620009386270037060020BA878607BA978A073D
:1046300013070600BA97B69703C70700930700034E
:104640006308F70203A7818683A7C18693862700A4
:1046500037060020BA878607BA978A07130706002D
:10466000BA97B69703C70700930730036313F70E93
:1046700003A7818683A7C18693862700370600207B
:10468000BA878607BA978A0713070600BA97B697BC
:1046900083C7070003A7818683A6C18613862600E9
:1046A000910793F6F70FB7050020BA878607BA97E8
:1046B0008A0713870500BA97B2972380D70003A70C
:1046C000818683A7C1869386170037060020BA87A4
:1046D0008607BA978A0713070600BA97B69783C763
:1046E000070003A7818683A6C18613861600850767
:1046F00093F6F70FB7050020BA878607BA978A079F
:1047000013870500BA97B2972380D70003A7818645
:1047100083A6C18637060020BA878607BA978A071C
:1047200013070600BA97B69783C7070003A78186C9
:1047300003A6C186ED1793F6F70FB7050020BA87D9
:104740008607BA978A0713870500BA97B29723801E
:10475000D700B707002083A74726858B639707D02C
:1047600003A7418785476312F7D083A701873E855A
:10477000EFE02F9303C781878D476316F700EFC0E3
:10478000BFDC23AA018683A701871387170023A80C
:10479000E18603A701879D476319F7CC23A801860B
:1047A0006FF0AFCC01A001A001A001A001A001A069
:1047B00001A001A001A001A001A001A001A001A0F1
:1047C00001A001A001A001A001A001A001A001A0E1
:1047D00001A001A001A001A001A001A001A001A0D1
:1047E00001A001A001A001A001A001A001A001A0C1
:1047F00001A001A001A001A001A001A001A001A0B1
:1048000001A001A001A001A001A001A001A001A0A0
:1048100001A001A001A001A001A001A001A001A090
:1048200001A001A001A001A001A001A001A001A080
:1048300001A001A001A001A001A001A001A001A070
:1048400001A001A001A001A001A001A001A001A060
:1048500001A001A001A001A001A001A001A001A050
:1048600001A097C1FF1F9381E11F17B10020130121
:10487000617917A500001305A56797B5FF1F9385FC
:1048800065781386818263FAC5008322050023A020
:10489000550011059105E3EAC5FE138581829385D4
:1048A00001916377B500232005001105E36DB5FE86
:1048B000FD42739002BCFD4273904280B7820000BB
:1048C0009382828873A0023097B2FFFF93820277AF
:1048D00093E232007390523037F5FF1F930500309A
:1048E0002318B51A372902400325C90005897DF927
:1048F00097F2FFFF9382E22F7390123473002030FF
:10490000797122D60018232EA4FC232604FE23242A
:1049100004FEB7070140938707409C430327C4FD6B
:10492000F98F2324F4FEB707014093870740D84B43
:104930008327C4FDF98F81CB832784FE89C78547F0
:104940002326F4FE19A0232604FE8327C4FE3E85F9
:10495000325445618280011122CE00102326A4FE2C
:10496000B7070140938707400327C4FED8CB010057
:10497000724405618280397122DE80002326A4FC06
:104980002324B4FC232604FE232004FE232404FE57
:10499000232E04FC232204FE232C04FC832784FC06
:1049A0009C47BD8B2326F4FE832784FC9C47C18B48
:1049B00089CB832784FCDC430327C4FED98F2326BD
:1049C000F4FE832784FC83D7070093F7F70FF1CF1A
:1049D0008327C4FC9C432322F4FE232404FE65A801
:1049E000832784FE0547B317F700232EF4FC8327A3
:1049F00084FC83D707003E878327C4FDF98F2320DB
:104A0000F4FE032704FE8327C4FD6311F708832700
:104A100084FE8A07232EF4FC8327C4FD3D47B31789
:104A2000F700232CF4FC832784FD93C7F7FF0327AB
:104A300044FEF98F2322F4FE8327C4FD0327C4FE1E
:104A4000B317F700032744FED98F2322F4FE8327F0
:104A500084FC984793078002631BF700832784FE3A
:104A600005473317F7008327C4FCD8CB05A083275D
:104A700084FC984793078004631AF700832784FE19
:104A800005473317F7008327C4FC98CB832784FEA0
:104A900085072324F4FE032784FE9D47E3F2E7F411
:104AA0008327C4FC032744FE98C3832784FC03D7D1
:104AB00007009307F00F63F1E70E8327C4FCDC4384
:104AC0002322F4FE232404FE75A8832784FEA10775
:104AD0000547B317F700232EF4FC832784FC83D704
:104AE00007003E878327C4FDF98F2320F4FE0327A8
:104AF00004FE8327C4FD6312F708832784FE8A0718
:104B0000232EF4FC8327C4FD3D47B317F700232C65
:104B1000F4FC832784FD93C7F7FF032744FEF98F36
:104B20002322F4FE8327C4FD0327C4FEB317F70036
:104B3000032744FED98F2322F4FE832784FC984761
:104B400093078002631BF700832784FEA1070547B4
:104B50003317F7008327C4FCD8CB832784FC9847FE
:104B600093078004631BF700832784FEA107054792
:104B70003317F7008327C4FC98CB832784FE85076F
:104B80002324F4FE032784FE9D47E3F0E7F4832704
:104B9000C4FC032744FED8C3010072542161828003
:104BA000011122CE00102326A4FEAE872322C4FECC
:104BB0002315F4FE832744FE99C70357A4FE8327D9
:104BC000C4FE98CB31A00357A4FE8327C4FED8CBE4
:104BD0000100724405618280797122D60018232E6B
:104BE000A4FC232CB4FC232404FE232204FE23264D
:104BF00004FE232004FE8327C4FD63D80700B70703
:104C00000140DC4F2326F4FE31A0B7070140DC430E
:104C10002326F4FE8327C4FDC183BD8B2320F4FE2D
:104C20000327C4FDC167FD17F98F2324F4FE032772
:104C3000C4FDB70730007D8FB70730006315F7025A
:104C40000327C4FEB70700F1FD17F98F2326F4FEF2
:104C5000B7070140D443B7070140370700F17D177C
:104C6000758FD8C3ADA00327C4FDB7071000F98F17
:104C70008DCB832704FE0D47B317F7002322F4FEE4
:104C8000832744FE93C7F7FF0327C4FEF98F23262B
:104C9000F4FE0327C4FEB707000FD98F2326F4FEC6
:104CA0003DA08327C4FDD5839207032784FEB31755
:104CB000F70093C7F7FF0327C4FEF98F2326F4FEFE
:104CC0000327C4FEB707000FD98F2326F4FE8327DE
:104CD00084FD91CF8327C4FDD5839207032784FEEB
:104CE000B317F7000327C4FED98F2326F4FE8327CA
:104CF000C4FD63D80700B70701400327C4FED8CF1F
:104D000031A0B70701400327C4FED8C301003254C5
:104D100045618280397122DE80002326A4FC232293
:104D200004FE232604FE232004FE232E04FC232459
:104D300004FEB7170240DC43B18B2322F4FE0327A5
:104D400044FE91476303F702032744FEA14763062D
:104D5000F702832744FE639907148327C4FC37179F
:104D60007A001307072098C389AA8327C4FC371742
:104D70007A001307072098C389A2B7170240D843C7
:104D8000B7073C00F98F2326F4FEB7170240D8433B
:104D9000C167F98F2320F4FE8327C4FEC9838907E6
:104DA0002326F4FEB7F7FF1F9387C77098439167D8
:104DB000F98F91EB0327C4FEC5476319F704C94770
:104DC0002326F4FEA1A00327C4FE89476315F7003C
:104DD000C9472326F4FE0327C4FEBD476318F70026
:104DE000B5472326F4FE85472324F4FE0327C4FE9B
:104DF000C1476315F700BD472326F4FE0327C4FE11
:104E0000C5476315F700C1472326F4FE832704FE38
:104E1000A1E3B7470240938707809C43C18B89CFAA
:104E20000327C4FEB7177A00938707203307F702DA
:104E30008327C4FC98C399A80327C4FEB7173D0075
:104E4000938707903307F7028327C4FC98C33DA8D4
:104E5000B7170240D843B7070200F98F89CF03275D
:104E6000C4FEB7173D00938707903307F7028327E7
:104E7000C4FC98C321A80327C4FEB7177A00938700
:104E800007203307F7028327C4FC98C3032784FE57
:104E900085476313F7028327C4FC9C4313D717008D
:104EA0008327C4FC98C309A88327C4FC37177A005A
:104EB0001307072098C311A00100B7170240DC4375
:104EC00093F7070F2322F4FE832744FE91832322C6
:104ED000F4FEB70700201387C703832744FEBA9761
:104EE00083C7070093F7F70F232EF4FC8327C4FC36
:104EF00098438327C4FD3357F7008327C4FCD8C3E6
:104F0000B7170240DC4393F707702322F4FE832790
:104F100044FEA1832322F4FEB70700201387C703B2
:104F2000832744FEBA9783C7070093F7F70F232E12
:104F3000F4FC8327C4FCD8438327C4FD3357F70010
:104F40008327C4FC98C7B7170240D843916793875B
:104F50000780F98F2322F4FE832744FEAD832322AA
:104F6000F4FEB70700201387C703832744FEBA97D0
:104F700083C7070093F7F70F232EF4FC8327C4FCA5
:104F8000D8438327C4FD3357F7008327C4FCD8C711
:104F9000B7170240D843B167F98F2322F4FE832765
:104FA00044FEB9832322F4FE13878180832744FEC5
:104FB000BA9783C7070093F7F70F232EF4FC8327D4
:104FC000C4FCD8478327C4FD3357F7028327C4FCAA
:104FD00098CB0100725421618280011122CE001011
:104FE0002326A4FE2324B4FE832784FE99CBB7177F
:104FF0000240944FB71702400327C4FE558F98CF45
:1050000021A8B7170240944F8327C4FE13C7F7FFA8
:10501000B7170240758F98CF0100724405618280F6
:10502000011122CE00102326A4FE2324B4FE8327E0
:1050300084FE99CBB7170240D44FB717024003271D
:10504000C4FE558FD8CF21A8B7170240D44F83276D
:10505000C4FE13C7F7FFB7170240758FD8CF010002
:10506000724405618280011122CE00102326A4FE25
:105070002324B4FE832784FE99CBB7170240D4477C
:10508000B71702400327C4FE558FD8C721A8B7170A
:105090000240D4478327C4FE13C7F7FFB717024067
:1050A000758FD8C70100724405618280011122CE3C
:1050B00000102326A4FE2324B4FE832784FE99CB6C
:1050C000B7170240944BB71702400327C4FE558F11
:1050D00098CB21A8B7170240944B8327C4FE13C76F
:1050E000F7FFB7170240758F98CB01007244056136
:1050F0008280011106CE22CC00102326A4FE0327B5
:10510000C4FEB7370140631BF70085450565EFF026
:105110009FF581450565EFF01FF591A00327C4FEBB
:10512000B747004093870780631BF70085451165EB
:10513000EFF0DFF781451165EFF05FF70DA0032772
:10514000C4FEB7470040938707C0631AF700854540
:105150002165EFF0BFF581452165EFF03FF50100D6
:10516000F240624405618280797122D60018232EB4
:10517000A4FC232CB4FC231704FE8327C4FD83D78F
:1051800007002317F4FE0357E4FE8D679387070497
:10519000F98F2317F4FE832784FD03D707008327A5
:1051A00084FD83D72700D98F139707014183832775
:1051B00084FD83D74700D98F139707014183832745
:1051C00084FD83D76700D98F139707014183832715
:1051D00084FD83D78700D98F1397070141838327E5
:1051E00084FD83D7A700D98F1397070141838327B5
:1051F00084FD83D7C700D98F139707014183832785
:1052000084FD83D7E700D98F139707014183835724
:10521000E4FED98F2317F4FE8327C4FD0357E4FE71
:105220002390E7008327C4FD83D7C70113970701A5
:105230004183FD779387F77FF98F139707014183A8
:105240008327C4FD239EE700832784FD03D707013E
:105250008327C4FD2398E700010032544561828012
:10526000011122CE00102326A4FE2324B4FE83279E
:1052700084FE8DC38327C4FE83D70700C207C18382
:1052800093E707041397070141838327C4FE239004
:10529000E70005A08327C4FE83D70700C207C183A8
:1052A00093F7F7FB1397070141838327C4FE2390ED
:1052B000E7000100724405618280797122D60018EE
:1052C000232EA4FCAE87231DF4FC232604FE231505
:1052D00004FE231404FE8327C4FD83D7070113971C
:1052E000070141838357A4FDF98F2315F4FE83271B
:1052F000C4FD83D7C7001397070141838357A4FDDB
:10530000F98F2314F4FE8357A4FE81CB835784FEC8
:1053100089C785472326F4FE19A0232604FE832788
:10532000C4FE3E85325445618280011122CE0010B8
:105330002326A4FEAE872315F4FE8357A4FE93C74D
:10534000F7FF1397070141838327C4FE2398E700E3
:1053500001007244056182805D7186C6A2C4800826
:10536000232EA4FA232CB4FA232604FE232404FEBD
:10537000232204FE232004FE232E04FC8327C4FBE7
:10538000232EF4FC8327C4FB83D70701C207C18304
:105390002326F4FE0327C4FEB567FD17F98F2326E5
:1053A000F4FE832784FB83D767003E878327C4FEF0
:1053B000D98F2326F4FE8327C4FE13970701418368
:1053C0008327C4FB2398E7008327C4FB83D7C70048
:1053D000C207C1832326F4FE0327C4FEBD6793875B
:1053E000379FF98F2326F4FE832784FB03D74700DA
:1053F000832784FB83D78700D98F139707014183C5
:10540000832784FB83D7A700D98FC207C1833E8738
:105410008327C4FED98F2326F4FE8327C4FE139767
:10542000070141838327C4FB2396E7008327C4FB3E
:1054300083D74701C207C1832326F4FE0327C4FE96
:10544000C1679387F7CFF98F2326F4FE832784FB68
:1054500083D7C7003E878327C4FED98F2326F4FE57
:105460008327C4FE1397070141838327C4FB239A34
:10547000E700930784FC3E85EFF0DF890327C4FD36
:10548000B7470140938707806317F700832744FDE0
:105490002324F4FE29A0832704FD2324F4FE83277C
:1054A000C4FB83D7C700C207C183C207C18763D2C9
:1054B0000702032784FEBA878607BA978E073E97AE
:1054C000832784FB9C438607B357F7022322F4FE0D
:1054D00005A0032784FEBA878607BA978E073E97F2
:1054E000832784FB9C438A07B357F7022322F4FEE9
:1054F000032744FE93074006B357F702920723267B
:10550000F4FE8327C4FE13D7470093074006B30772
:10551000F702032744FEB307F7402320F4FE832756
:10552000C4FB83D7C700C207C183C207C18763D248
:105530000702832704FE8E0713872703930740067D
:10554000B357F7029D8B0327C4FED98F2326F4FEA1
:1055500005A0832704FE92071387270393074006BD
:10556000B357F702BD8B0327C4FED98F2326F4FE61
:105570008327C4FE1397070141838327C4FB239429
:10558000E7000100B640264461618280011122CE0D
:1055900000102326A4FE2324B4FE832784FE95C393
:1055A0008327C4FE83D7C700139707014183896708
:1055B000D98F1397070141838327C4FE2396E70001
:1055C00015A08327C4FE83D7C70013970701418323
:1055D000F977FD17F98F1397070141838327C4FEDD
:1055E0002396E7000100724405618280011122CEFA
:1055F00000102326A4FEAE872315F4FE8357A4FED5
:1056000093F7F71F1397070141838327C4FE239263
:10561000E7000100724405618280797122D600188A
:10562000232EA4FCAE87231DF4FC232604FE83272F
:10563000C4FD83D707001397070141838357A4FD57
:10564000F98FC207C18389C785472326F4FE19A0B5
:10565000232604FE8327C4FE3E85325445618280A2
:10566000797122D60018232EA4FCAE87231DF4FCEA
:10567000232204FE232604FE232004FE232404FE0A
:105680008357A4FD93F7F70F958393F7F70F232024
:10569000F4FE8357A4FDFD8B2326F4FE8327C4FE6E
:1056A0000547B317F7002326F4FE032704FE8547BA
:1056B000631FF7008327C4FD83D7C700C207C183D8
:1056C0003E878327C4FEF98F2326F4FE3DA80327D7
:1056D00004FE8947631FF7008327C4FD83D70701B2
:1056E000C207C1833E878327C4FEF98F2326F4FEB9
:1056F00029A88327C4FD83D74701C207C1833E87FA
:105700008327C4FEF98F2326F4FE8357A4FDA183CB
:10571000C207C1832322F4FE832744FE0547B31743
:10572000F7002322F4FE8327C4FD83D70700C207B6
:10573000C1833E87832744FEF98F2322F4FE83270B
:10574000C4FE81CB832744FE89C785472324F4FE0A
:1057500019A0232404FE832784FE3E85325445612C
:105760008280797122D60018232EA4FCAE87231DD7
:10577000F4FC231704FE231604FE8357A4FDA18323
:105780002317F4FE8357E4FE0547B317F7002316EB
:10579000F4FE8357C4FE93C7F7FF139707014183B5
:1057A0008327C4FD2390E7000100325445618280C5
:1057B000011122CE0010AA87A307F4FEB7070050FC
:1057C0000347F4FE42074183239AE702B7070050DC
:1057D00083C7670313F7F70FB7070050719B137761
:1057E000F70F238BE70201007244056182800111EB
:1057F00022CE0010AA87A307F4FEB7070050034784
:10580000F4FE42074183239CE702B707005083C799
:10581000A70313F7F70FB7070050719B1377F70F24
:10582000238DE7020100724405618280797106D6FA
:1058300022D40018AA87A30FF4FCA30704FE15A81E
:1058400003A781888347F4FEBA9703C7070083A69E
:1058500081888347F4FE93870704B6971347F7FFC1
:105860001377F70F2380E7008347F4FE8507A3072C
:10587000F4FE0347F4FE8347F4FDE363F7FC83473C
:10588000F4FD3E85EFF0DFF20100B2502254456195
:105890008280797106D622D40018AA87A30FF4FC5F
:1058A000A30704FE15A803A7C1888347F4FEBA978F
:1058B00003C7070083A6C1888347F4FE93870704C4
:1058C000B6971347F7FF1377F70F2380E700834757
:1058D000F4FE8507A307F4FE0347F4FE8347F4FDB7
:1058E000E363F7FC8347F4FD3E85EFF05FF00100D2
:1058F000B2502254456182805971A2D682EE86EC64
:105900008AEA8EE892E696E49AE29EE02AFE2EFC6F
:1059100032FA36F83AF63EF442F246F072EE76EC9F
:105920007AEA7EE88018230F04F8B707005083C78F
:105930006700A30EF4F88347D4F9898BE381073C11
:10594000B707005083C7770093F7F70F93F7070364
:105950004147E38BE73841476346F700E38E072072
:105960006F00D03813070002E386E7041307000333
:10597000E39EE736B707005019472389E702B707C8
:1059800000501147A389E70283A7418803C7670036
:1059900083C77700A207D98F139707014183239DFF
:1059A000E18883A7418803C71700238CE18883A778
:1059B000418883C70700230EF4F8A30F04F8230FD0
:1059C00004F883A7418883C7070093F70706638B12
:1059D000071283C7818993F7F70F93F70702D5C39F
:1059E00083C7818993F7F70F13071002638BE700D2
:1059F000130720026389E708130700026387E7089B
:105A0000ADA81387018123A8E1889D47A30FF4F86F
:105A100083D7A1891397070141839D4763E9E70075
:105A200083D7A189C207C18393F7F70F11A0A147BC
:105A3000A30FF4F803A7418883A701898346F4F9EB
:105A40003686BE853A85EF30A01583D7A189139796
:105A5000070141838347F4F9C207C183B307F740C5
:105A6000139707014183239DE18803A70189834799
:105A7000F4F93E9723A8E18811A8FD57230FF4F805
:105A800031A0010021A0010011A001000347E4F9A9
:105A90009307F00F6303F7688347F4F9139707013F
:105AA000418383D7A189C207C1836379F700834704
:105AB000F4F9139707014183239DE18883D7418936
:105AC0001397070141839D4763E9E70083D7418925
:105AD000C207C18393F7F70F11A0A147A30FF4F8F2
