:100000006F30900613000000130000001300000082
:100010001300000013000000130000001300000094
:100020001300000013000000130000001300000084
:08003000130000007300100032
:100038000000000000000000F8360000083700004B
:1000480000000000AE3700000000000000000000C3
:10005800B0370000B23700000000000000000000C8
:10006800B437000000000000B637000000000000B0
:10007800B8370000BA370000BC370000BE370000B0
:10008800C0370000C2370000082E00007C2E000098
:10009800F02E0000642F0000D82F0000CE3700009B
:1000A800D0370000D2370000D4370000D637000020
:1000B800D8370000DA370000DC370000DE370000F0
:1000C800E0370000E2370000E43700004C30000061
:1000D800E837000008320000EC370000EE37000077
:1000E800883200000833000088330000F63700002B
:1000F800F8370000FA370000FC370000FE37000030
:100108000038000020290000A4290000562A000019
:10011800243100000A3800000C3800000E380000B6
:10012800803500001238000014380000163800002E
:10013800183800001A380000083400001E38000083
:10014800DA2A00005E2B0000883400000035000029
:10015800283800002A3800002C3800002E3800000B
:1001680030380000323800003438000036380000DB
:10017800383800003A3800003C380000F2480000E7
:1001880040380000423800007A2D0000DE2B0000C5
:10019800622C0000FE2C00004C38000000360000E5
:1001A80050380000523800005438000080360000F3
:1001B800583800005A3800005C3800005E380000EB
:1001C80060380000623800006438000066380000BB
:1001D8000000000000000000000000000000000017
:1001E8000000000000000000000000000000000007
:0801F8000000000000000000FF
:10020000737504308280B76200009382820873A005
:10021000023082803D432A876373C3029377F700DD
:10022000BDEFADE5937606FF3D8ABA960CC34CC38D
:100230000CC74CC74107E36BD7FE11E28280B306BF
:10024000C3408A069702000096966780A60023079F
:10025000B700A306B7002306B700A305B700230520
:10026000B700A304B7002304B700A303B700230318
:10027000B700A302B7002302B700A301B700230110
:10028000B700A300B7002300B700828093F5F50FF5
:1002900093968500D58D93960501D58D61B793967C
:1002A00027009702000096968682E78086FA96805D
:1002B000C1171D8F3E96E374C3F8A5B7011122CE76
:1002C00000102324A4FE2326B4FEB7F700E023A0E9
:1002D0000700B7F700E08146014794C7D8C7B7F7D2
:1002E00000E0054798C30100B7F700E003A8C70086
:1002F0009C470327C4FEC286636CD7000327C4FE55
:10030000C286E313D7FE032784FE6363F700E9BFC9
:100310000100724405618280797122D60018232E73
:10032000A4FC8327C4FD958393F7F70F9D8BA30748
:10033000F4FE8327C4FD93F7F70FBD8B2307F4FE6C
:100340000347F4FEAD670A0793870767BA979C4394
:10035000DC470347E4FE85463397E60042074183C6
:100360003A868346F4FE2D678A0613070767369799
:100370001843B18F5CC701003254456182807971A6
:1003800006D622D40018232EA4FC232CB4FC232A46
:10039000C4FC2328D4FC232004FE232204FE2324AF
:1003A00004FE8327C4FD958393F7F70F9D8BA30766
:1003B000F4FE8327C4FD93F7F70FBD8B2307F4FEEC
:1003C0000327C4FD9307F00F6305F7140327C4FD4B
:1003D0009307F00F6301F7148347F4FE91E7854517
:1003E0001145EF30304041A00347F4FE85476317C5
:1003F000F70085452145EF30F03EB5A00347F4FEF8
:1004000089476317F70085454145EF30B03DA1A806
:100410000347F4FE8D476318F70085451305000276
:10042000EF30503C89A00347F4FE91476318F70072
:10043000854513050004EF30F03A35A00347F4FE7C
:1004400095476318F700854513050008EF3090398C
:1004500019A80347F4FE99476317F700854513056C
:100460000010EF3030388347E4FE0547B317F7003C
:10047000C207C1832310F4FE032784FD8547631759
:10048000F702832704FDC207C183A183C207C1838A
:1004900089E78D472322F4FE11A8832704FDC207B4
:1004A000C183A183C207C1832322F4FE832704FDF5
:1004B000C207C18393F7F70F2324F4FE0347F4FE2A
:1004C000AD670A0793870767BA979C433E879307F0
:1004D00004FEBE853A85EF30604A032784FD8547D8
:1004E000631CF7020347F4FEAD670A0793870767AB
:1004F000BA979C43BE868347E4FE0547B317F700CF
:10050000C207C183032644FDBE853685EF30A0694E
:1005100021A0010011A00100B25022544561828047
:10052000011106CE22CC00102326A4FE2324B4FE03
:100530002322C4FE2320D4FE8327C4FE81EB93062E
:1005400080310546854515451D3D41A00327C4FE64
:10055000C147631AF70093068031054685451305A8
:100560003002313D9DA00327C4FE93070002631AA9
:10057000F70093068031054685451305D002013505
:10058000A9A00327C4FE93070003631AF70093068C
:1005900080310546854513053002D5333DA003273C
:1005A000C4FE93070004631AF700930680310546E2
:1005B00085451305A004E13309A813069002AD6731
:1005C0009385872D0145EF206002032784FE89472C
:1005D0006319F70093068031054685451D4545336F
:1005E00041A0032784FEC947631AF70093068031B0
:1005F000054685451305500259339DA0032784FE07
:1006000093072002631AF70093068031054685455B
:100610001305F002AD33A9A0032784FE930720033E
:10062000631AF7009306803105468545130550028D
:10063000B9333DA0032784FE93072004631AF70013
:1006400093068031054685451305C0040D3B09A876
:1006500013060003AD679385872D0145EF101079D0
:10066000032744FE85476319F7009306403005468B
:1006700081451945293359A8032744FEC547631A04
:10068000F700930640300546814513054002C53901
:10069000B5A8032744FE93071002631AF7009306D8
:1006A0004030054681451305E002D13985A0032776
:1006B00044FE93071004631AF70093064030054682
:1006C00081451305B004653991A0032744FE9307C3
:1006D0001003631AF7009306403005468145130561
:1006E0004002713925A0032744FE9307F00F6317DA
:1006F000F7009307F00F2322F4FE09A813068003E6
:10070000AD679385872D0145EF10506E930600313C
:1007100001468545032504FE9D310100F2406244F7
:10072000056182805D7186C6A2C480082326A4FC70
:100730002324B4FC2322C4FC2320D4FC232EE4FA7B
:10074000232CF4FA232A04FB231704FE232E04FC93
:10075000232004FE232204FE232404FE231604FE89
:10076000AD670327C4FC0A0793874768BA979C4381
:100770003E85EF30B01885450545EF30B0060327BC
:1007800004FCC1476311F7020327C4FBC947631C7C
:10079000F700032784FBC5476317F7008545054528
:1007A000EF30E04315A8032704FC9307000463150A
:1007B000F7020327C4FB93072004631FF7000327F6
:1007C00084FB930710046319F7008545B7172000D1
:1007D00013850710EF30A0408327C4FC91E78545BF
:1007E0000565EF30300025A00327C4FC854763175B
:1007F000F70085451165EF30500311A80327C4FCAD
:1008000089476316F70085452165EF30100283267E
:1008100044FB032684FB8325C4FB032504FC093326
:10082000231E04FC93074010231FF4FC231004FE36
:10083000032784FC85476305F702832784FC81CF67
:10084000032784FC89476303F702032784FC8D4751
:100850006304F7020DA8231104FE231204FE25A051
:10086000231104FE85472312F4FE31A88947231182
:10087000F4FE231204FE01A889472311F4FE8547E4
:100880002312F4FE010003A78184832744FCB3579D
:10089000F7022317F4FE0357E4FE9307F00F63F704
:1008A000E700930780032317F4FE61A80357E4FED3
:1008B0009307F00763F7E700930700032317F4FE9D
:1008C00049A00357E4FE9307F00363F7E70093079B
:1008D00080022317F4FEB5A00357E4FEFD4763F73B
:1008E000E700930700022317F4FEA1A80357E4FED4
:1008F000BD4763F6E700E1472317F4FE99A00357CD
:10090000E4FE9D4763F6E700C1472317F4FE15A8F0
:100910000357E4FE8D4763F6E700A1472317F4FE73
:100920000DA00357E4FE854763F5E700231704FE97
:1009300009A81306D008AD679385872D0145EF10F0
:10094000F04A8357E4FE2314F4FE93070020231398
:10095000F4FE231504FE9D472316F4FEAD6703271E
:10096000C4FC0A0793874768BA979C433E8793075E
:10097000C4FDBE853A85EF30007FAD670327C4FC18
:100980000A0793874768BA979C4385453E85EF30B1
:10099000100D0100B640264461618280011122CE13
:1009A00000102326A4FEAE87A305F4FEAD6703273F
:1009B000C4FE0A0793874768BA979C433E878347DC
:1009C000B4FEC207C1832316F7000100AD670327F9
:1009D000C4FE0A0793874768BA979C4383D787006A
:1009E000C207C18393F70708F5F30100724405615C
:1009F0008280011106CE22CC00102326A4FE2324DF
:100A0000B4FE8327C4FE99E7E146014685452545A6
:100A1000BD32E1A20327C4FE89476319F700E1460E
:100A20000146854513056002993A45AA0327C4FE8D
:100A3000C1476318F700E146014685450945813203
:100A400069AA0327C4FEC9476319F700E1460146B6
:100A5000854513055006253249A20327C4FE930796
:100A600000026319F700E146014685451305A0021F
:100A70003932A5A20327C4FE930720026319F700A9
:100A8000E146014685451305A004D538B9A20327E0
:100A9000C4FE93074002631AF700E146014685450C
:100AA00013058006EFF0BF8D0DAA0327C4FE930740
:100AB0000004631AF700E146014685451305A004CA
:100AC000EFF0FF8B19AA0327C4FE93072004631AD3
:100AD000F700E1460146854513050002EFF03F8A25
:100AE000EDA80327C4FE93070005631AF700E1464B
:100AF000014685451305C004EFF07F88F9A8032758
:100B0000C4FE93072005631AF700E14601468545B8
:100B100013058008EFF0BF86C9A00327C4FE930722
:100B20000006631AF700E1460146854513050004F7
:100B3000EFF0FF845DA00327C4FE93072006631A2D
:100B4000F700E1460146854513050004EFF03F83B9
:100B500069A00327C4FE93070007631AF700E14664
:100B60000146854513052004EFF07F81BDA00327D2
:100B7000C4FE930720076319F700E1460146854547
:100B80001945EFF0CFFF91A80327C4FE9307400754
:100B9000631AF700E146014685451305C008EFF0EA
:100BA0000FFE25A80327C4FE93070008631AF70069
:100BB000E1460146854513054004EFF04FFC31A89E
:100BC0000327C4FE930720086319F700E146014696
:100BD00085451305E008EFF08FFA032784FE85476B
:100BE000631AF70093068004014681452945EFF01A
:100BF0000FF9D5AA032784FE8D47631BF7009306E0
:100C000080040146814513057002EFF04FF7E1AA19
:100C1000032784FEC547631AF70093068004014644
:100C200081450D45EFF0AFF57DAA032784FECD4742
:100C3000631BF70093068004014681451305600697
:100C4000EFF0EFF34DA2032784FE93071002631B1E
:100C5000F70093068004014681451305B002EFF0CA
:100C60000FF251A2032784FE93073002631BF700A3
:100C700093068004014681451305B004EFF02FF080
:100C80009DA2032784FE93075002631BF70093067F
:100C900080040146814513059006EFF04FEEA1A2B6
:100CA000032784FE93071004631BF7009306800458
:100CB000014681451305B004EFF06FEC2DA2032728
:100CC00084FE93073004631BF700930680040146FB
:100CD000814513051002EFF08FEA31A2032784FE4D
:100CE00093071005631BF7009306800401468145B6
:100CF00013052006EFF0AFE8FDA0032784FE93075D
:100D00003005631BF70093068004014681451305F7
:100D10009008EFF0CFE6C1A8032784FE93071006E2
:100D2000631BF700930680040146814513051004F8
:100D3000EFF0EFE44DA8032784FE93073006631B12
:100D4000F70093068004014681451305B008EFF0D3
:100D50000FE351A8032784FE93071007631BF700D6
:100D6000930680040146814513053004EFF02FE11E
:100D70009DA8032784FE93073007631AF7009306A4
:100D80008004014681451D45EFF06FDFA9A80327C8
:100D900084FE93075007631BF70093068004014607
:100DA00081451305D008EFF08FDD35A8032784FEB9
:100DB00093071008631BF7009306800401468145E2
:100DC00013055004EFF0AFDB39A8032784FE930727
:100DD0003008631AF7009306800401468145130525
:100DE000F008EFF0CFD90100F24062440561828043
:100DF000011122CE00102326A4FEAE87A305F4FE27
:100E00000100AD670327C4FE0A0793870769BA97F5
:100E10009C4383D70700C207C18393F70708F5D324
:100E2000AD670327C4FE0A0793870769BA979C43F7
:100E30003E878347B4FEC207C1832312F700010037
:100E4000724405618280011106CE22CC0010232657
:100E5000A4FE2324B4FE39A8832784FE1387170039
:100E60002324E4FE8387070093F7F70FBE8503254D
:100E7000C4FEBD3F832784FE83870700F1FF010086
:100E8000F240624405618280011122CE00102326C7
:100E9000A4FE2324B4FEAD670327C4FE0A0793878C
:100EA0000769BA979C4383D70700C207C18393F7AA
:100EB00007028DC7AD670327C4FE0A07938707693A
:100EC000BA979C4383D74700C207C18313F7F70F34
:100ED000832784FE2380E700854711A081473E8554
:100EE000724405618280797106D622D40018232EBF
:100EF000A4FC232CB4FC232AC4FC2328D4FC2320E8
:100F000004FE232204FE232404FE232604FE85453A
:100F10000545EF30200D832504FD032544FDD13C1C
:100F2000032744FD8947631CF700032704FD8D4711
:100F30006317F70085451145EF20704A95AA0327EE
:100F400044FDC947631CF700032704FDCD47631721
:100F5000F70085452145EF20904899AA032744FDD5
:100F6000930720026310F702032704FD9307300262
:100F7000631AF7008545B707140013850701EF20B2
:100F800010463DA2032744FD930740026310F70279
:100F9000032704FD93075002631AF7008545B7073E
:100FA000140013850703EF20904319A2032744FD83
:100FB000930720046311F702032704FD930730040D
:100FC000631BF700B7070140D44FB70701404167E3
:100FD000558FD8CFF1A8032744FD9307200563124E
:100FE000F702032704FD93073005631CF700B707DA
:100FF0000140D44FB707014037070800558FD8CFBD
:1010000045A8032744FD930720066312F702032730
:1010100004FD93073006631CF700B7070140D44F67
:10102000B707014037072000558FD8CF51A00327BD
:1010300044FD930720076312F702032704FD93077B
:101040003007631CF700B7070140D44FB7070140D2
:1010500037074000558FD8CFA1A8032744FD930739
:1010600040076312F702032704FD93075007631C30
:10107000F700B7070140D44FB7070140370780009A
:10108000558FD8CF35A0032744FD9307200863115F
:10109000F702032704FD93073008631BF700B70727
:1010A0000140D44FB707014037070002558FD8CF12
:1010B0008327C4FD91E785451165EF20B07269A8CB
:1010C0000327C4FD85476318F700854537050200EF
:1010D000EF20B07551A00327C4FD89476318F700BE
:1010E000854537050400EF205074BDA00327C4FDDB
:1010F0008D476318F700854537050800EF20F0722B
:10110000A1A80327C4FD91476318F700854537055B
:101110001000EF20907189A00327C4FD9547631844
:10112000F700854513050004EF20307035A0032734
:10113000C4FD99476318F700854513050008EF20A3
:10114000D06E19A80327C4FD9D476317F700854596
:1011500013050010EF20706D832784FD2320F4FE1B
:10116000231204FE231304FE231404FE231604FE9C
:10117000B1472315F4FEAD670327C4FD0A07938723
:101180000769BA979C433E87930704FEBE853A855C
:10119000EF30601CAD670327C4FD0A07938707691A
:1011A000BA979C4385453E85EF30203E0100B25002
:1011B000225445618280411106C622C400089385ED
:1011C00001821945D1310546938501821385018835
:1011D000EF10C05E0100B240224441018280411103
:1011E00006C622C40008938511820545713905465B
:1011F0009385118213854189EF10405C0100B24054
:10120000224441018280411106C622C4000803A77E
:10121000C18389476300F70203A7C1838D47631425
:10122000F700A92001A803A7C18391476314F70021
:10123000EF00F0390100B2402244410182804111A7
:1012400006C622C4000803A7C18391476315F700AF
:10125000EF00503E39A003A7C1838D476313F70009
:1012600085280100B240224441018280411106C616
:1012700022C4000883C771823E8793874182BA9750
:10128000BE8511451131AA8781CB83C7718285073D
:1012900013F7F70FA383E18203C771828547631AAF
:1012A000F70003C741829307500A6304F700A38342
:1012B000018203C771828D476317F700A383018200
:1012C00005472384E1820100B2402244410182802B
:1012D000411122C6000805472381E1820100324402
:1012E00041018280011106CE22CC0010AA87A307FB
:1012F000F4FEAD6793870767DC473E87C1475CCB49
:10130000AD67938707679C4B3E8791471CCB83470C
:10131000F4FEBE850945EFF06FE8AD679387076778
:10132000DC473E87C1471CCB0100F24062440561A7
:101330008280011106CE22CC0010AA87A307F4FEFA
:10134000AD6793870767DC473E87C1475CCBAD67D6
:10135000938707679C4B3E8791475CCB8347F4FE9E
:10136000BE850945EFF08FE3AD6793870767DC47DC
:101370003E87C1471CCB0100F24062440561828078
:10138000011106CE22CC0010AA872E87A307F4FEF7
:10139000BA872307F4FE8307F4FE93C7F7FF93F79A
:1013A000F70F9D8393F7F70F3E8713065005AD6740
:1013B0009385C7313A85EF1060238347E4FE93B7E6
:1013C000870093F7F70F3E8713066005AD67938597
:1013D000C7313A85EF1080218347E4FE938707FBEE
:1013E00093F7F70F3E85B1378347F4FE918393F768
:1013F000F70F93E7070193F7F70F3E851D3F8347EC
:10140000F4FEBD8B93F7F70F3E8525370100F240C0
:10141000624405618280797106D622D40018930750
:10142000C4FD3E85EF1060228547231EF4FC930720
:101430000008231FF4FC930700042310F4FE83A785
:10144000018381EB99472301F4FE8547A301F4FE54
:1014500021A803A7018385476318F700A14723014B
:10146000F4FE8947A301F4FEB71700009387E75005
:101470002324F4FEB7170000938747492326F4FE80
:101480009307C4FD3E85EF10E0210100B2502254C5
:1014900045618280011106CE22CC0010A30704FE14
:1014A00081A08347F4FE938707FB93F7F70F3E85F0
:1014B00049350545BD3D4145AD3D230704FE01A825
:1014C00001450D358347E4FE85072307F4FE8307B6
:1014D000E4FEE3D707FE8347F4FE8507A307F4FE87
:1014E0000347F4FE9D47E3FEE7FA0100F240624441
:1014F00005618280011122CE00102326A4FE03275D
:10150000C4FE23A6E18201007244056182807971E4
:1015100006D622D40018AA872E87232CC4FC231FAA
:10152000F4FCBA87231EF4FC8357E4FD93B7070845
:1015300093F7F70F3E871306E00DAD679385C7312C
:101540003A85EF10A00A8357C4FD93B7870093F73D
:10155000F70F3E871306F00DAD679385C7313A85C7
:10156000EF10C008A30604FEA30704FE230704FE31
:1015700079A283A70183D1EF8347E4FE032784FD8B
:10158000BA978387070093F7F70F8117A306F4FE36
:101590000357E4FD9307E00763F9E700231F04FC0A
:1015A0008357C4FD8507231EF4FC8357E4FD93F79E
:1015B000F70F0357C4FD1377F70FBA853E85C9337C
:1015C000A30704FE3DA00347D4FE8346F4FE2D6628
:1015D000BA878607BA9786071307066BBA97B69736
:1015E00083C707003E85FD398347F4FE8507A307BF
:1015F000F4FE0347F4FE9547E3F7E7FC8357E4FD69
:101600009907231FF4FC8347E4FE85072307F4FEB4
:10161000FDA08347E4FE032784FDBA978387070074
:1016200093F7F70F8117A306F4FE0357E4FD930722
:10163000800763F9E700231F04FC8357C4FD850777
:10164000231EF4FC8357E4FD93F7F70F0357C4FD03
:101650001377F70FBA853E852533A30704FE2DA027
:101660008347D4FE139747008347F4FE3E97B16744
:101670009387878DBA9783C707003E85A531834737
:10168000F4FE8507A307F4FE0347F4FE9D47E3F944
:10169000E7FC8357E4FD13F7F70F8357C4FD93F777
:1016A000F70F850793F7F70FBE853A85D139A30762
:1016B00004FE3DA08347D4FE139747008347F4FE02
:1016C000BA9713878700B1679387878DBA9783C7C7
:1016D00007003E8501398347F4FE8507A307F4FE22
:1016E0000347F4FE9D47E3F7E7FC8357E4FDA107BA
:1016F000231FF4FC8347E4FE85072307F4FE83479A
:10170000E4FE032784FDBA9783870700E39307E687
:101710000100B250225445618280397106DE22DC1C
:101720008000AA882E852324C4FCB6853A86BE860E
:101730004287C6872317F4FCAA872316F4FCAE87DA
:101740002313F4FCB2872312F4FCB6872311F4FCB4
:10175000BA872310F4FC8357E4FC93B7070893F788
:10176000F70F3E871306D018AD679385C7313A85CA
:10177000EF00D0678357C4FC93B7870093F7F70F48
:101780003E871306E018AD679385C7313A85EF00B1
:10179000F065232604FE232404FE232204FE232EC8
:1017A00004FC232C04FC835704FCE19B2310F4FC71
:1017B000835724FCE19B2311F4FC232404FE09AE8F
:1017C0008357E4FC93F6F70F8357C4FC13F7F70F26
:1017D000832784FE8D8393F7F70FBA9793F7F70F5C
:1017E000BE853685713E035744FC832784FE33074C
:1017F000F702835704FCB357F702232CF4FC23268B
:1018000004FE65AC035764FC8327C4FE3307F7026C
:10181000835724FCB357F7028D83232EF4FC232235
:1018200004FE51A4A30104FE035764FC832784FD36
:10183000B307F70213D737008327C4FDBA970327EE
:1018400084FCBA9783C70700BE86832744FE13072C
:101850000008B357F740F58F99C7834734FE93E7E5
:101860001700A301F4FE035764FC832784FDB3072C
:10187000F70213D737008327C4FDBA97035764FCD8
:101880000D8342074183BA97032784FCBA9783C725
:101890000700BE86832744FE13070008B357F740AE
:1018A000F58F99C7834734FE93E72700A301F4FE21
:1018B000035764FC832784FDB307F70213D737006F
:1018C0008327C4FDBA97035764FC0D834207418305
:1018D0000607BA97032784FCBA9783C70700BE861A
:1018E000832744FE13070008B357F740F58F99C7C5
:1018F000834734FE93E74700A301F4FE035764FCDB
:10190000832784FDB307F70213D737008327C4FD6D
:101910003E97835764FC8D83C207C183BE86B6871A
:101920008607B697BA97032784FCBA9783C7070040
:10193000BE86832744FE13070008B357F740F58F90
:1019400099C7834734FE93E78700A301F4FE03574A
:1019500064FC832784FDB307F70213D7370083277E
:10196000C4FDBA97035764FC0D83420741830A07FD
:10197000BA97032784FCBA9783C70700BE868327DC
:1019800044FE13070008B357F740F58F99C7834704
:1019900034FE93E70701A301F4FE035764FC832799
:1019A00084FDB307F70213D737008327C4FD3E97A2
:1019B000835764FC8D83C207C183BE86B6878A07BE
:1019C000B697BA97032784FCBA9783C70700BE86E9
:1019D000832744FE13070008B357F740F58F99C7D4
:1019E000834734FE93E70702A301F4FE035764FC28
:1019F000832784FDB307F70213D737008327C4FD7D
:101A00003E97835764FC8D83C207C183BE86B68729
:101A10008607B6978607BA97032784FCBA9783C7C9
:101A20000700BE86832744FE13070008B357F7401C
:101A3000F58F99C7834734FE93E70704A301F4FEAB
:101A4000035764FC832784FDB307F70213D73700DD
:101A50008327C4FD3E97835764FC8D83C207C183EF
:101A6000BE86B6878E07958FBA97032784FCBA97F0
:101A700083C70700BE86832744FE13070008B357B9
:101A8000F740F58F99C7834734FE93E707F8A30122
:101A9000F4FE834734FE3E85EFF0DF84832744FE67
:101AA00085072322F4FE032744FE9D47E3FCE7D687
:101AB0008327C4FEA1072326F4FE835724FC0327B3
:101AC000C4FEE361F7D4832784FEA1072324F4FE38
:101AD000835704FC032784FEE364F7CE0100F25031
:101AE000625421618280797106D622D40018AA87B7
:101AF000232AD4FC231FF4FCAE87231EF4FCB287F8
:101B0000A30DF4FCBA87230DF4FC8357E4FD93B7CF
:101B1000070893F7F70F3E871306A021AD6793855B
:101B2000C7313A85EF00902C8357C4FD93B78700E7
:101B300093F7F70F3E871306B021AD679385C73142
:101B40003A85EF00B02A231704FE65A8231604FE89
:101B500079A08357E4FD13F7F70F8357E4FE93F65C
:101B6000F70F8347B4FDB387F60293F7F70FBA97E1
:101B700093F6F70F8357C4FD13F7F70F8357C4FE8F
:101B800093F7F70FBA9793F7F70FBE853685EFF007
:101B90002FFF231504FE35A0832744FD83C70700CC
:101BA0003E85EFF02FF4832744FD8507232AF4FCBC
:101BB0008317A4FEC207C1838507C207C18323150B
:101BC000F4FE0317A4FEBD47E3D8E7FC8317C4FE69
:101BD000C207C1838507C207C1832316F4FE83179A
:101BE000C4FE0347B4FD0D831377F70FE3C3E7F695
:101BF0008317E4FEC207C1838507C207C183231789
:101C0000F4FE0317E4FE8347A4FDE341F7F401006B
:101C1000B250225445618280411106C622C44AC294
:101C20004EC0000883A7818413D617001308F00F55
:101C30009307F00F1307200393060003814509451E
:101C4000EFE05FAEC1460546854513053008EFE07D
:101C50000FF3C1460546854513052008EFE02FF236
:101C6000C1460546854513054006EFE04FF183A7C1
:101C7000C1823E85EFF01F88EFF0EFF9AD679387E3
:101C80000767DC473E87C1475CCBAD679387076733
:101C90009C4B3E87A1475CCB03A7818489679387D0
:101CA00007F43357F70293072003B307F7023E897F
:101CB00081494A85CE85EFE06FE0AD67938707677E
:101CC0009C4B3E87A1471CCB1305E00AEFF06FE663
:101CD0000145EFF00FE64145EFF0AFE513050004D5
:101CE000EFF02FE513051008EFF0AFE41305F00750
:101CF000EFF02FE483A7C18291EB1305100AEFF0F8
:101D00004FE31305800CEFF0CFE209A81305000A9A
:101D1000EFF02FE21305000CEFF0AFE11305600ABE
:101D2000EFF02FE11305800AEFF0AFE01305F003A9
:101D3000EFF02FE01305300DEFF0AFDF0145EFF0CE
:101D40004FDF1305500DEFF0CFDE13050008EFF065
:101D50004FDE1305900DEFF0CFDD1305100FEFF000
:101D60004FDD1305A00DEFF0CFDC4945EFF06FDC40
:101D70001305B00DEFF0EFDB13050004EFF06FDBA0
:101D800013050002EFF0EFDA0945EFF08FDA1305E3
:101D9000D008EFF00FDA5145EFF0AFD91305400A44
:101DA000EFF02FD91305600AEFF0AFD81305F00A52
:101DB000EFF02FD8EFF00FEE81450145EFF04FDC4B
:101DC0000100B240224412498249410182804111FE
:101DD00006C622C4000883C771833E879387418368
:101DE000BA97BE851145EFF02F8AAA8781CB83C7AA
:101DF0007183850713F7F70FA38BE18203C7718304
:101E00008547631AF70003C741839307500A6304A9
:101E1000F700A38B018203C771838D476317F70017
:101E2000A38B01820547238CE1820100B24022444A
:101E300041018280411122C600080547A38CE1823E
:101E40000100324441018280411106C622C40008CB
:101E5000938541840545EFF02F83054693854184A2
:101E60001385818AEF0090150100B24022444101A0
:101E70008280411106C622C400089385518405451D
:101E8000EFF08F800546938551841385C18BEF0059
:101E9000F0120100B240224441018280011106CEBD
:101EA00022CC00102326A4FE0327C4FE23A4E18431
:101EB00019280325C4FE5920EF0050200100F240EC
:101EC000624405618280411122C60008B7170240B2
:101ED0009843B71702401367170098C3B71702401B
:101EE000D443B71702403707FFF8758FD8C3B71729
:101EF00002409443B71702403707F7FE7D17758FEE
:101F000098C3B71702409443B71702403707FCFF46
:101F10007D17758F98C3B7170240D443B717024097
:101F2000370781FF7D17758FD8C3B7170240370772
:101F30009F0098C70100324441018280797122D606
:101F40000018232EA4FC232604FE232404FEB71726
:101F500002409443B71702404167558F98C3B717A3
:101F600002409843B7070200F98F2324F4FE832729
:101F7000C4FE85072326F4FE832784FE99E7032702
:101F8000C4FE93070050E31CF7FCB71702409843C8
:101F9000B7070200F98F89C785472324F4FE19A0EB
:101FA000232404FE032784FE85476315F71EB72705
:101FB00002409843B72702401367070198C3B72729
:101FC00002409843B7270240719B98C3B72702404D
:101FD00094438327C4FD1387F7FFB7376E019387B8
:101FE0000760B357F70213F77700B7270240558F02
:101FF00098C337170240B71702405843D8C3371762
:102000000240B71702405843D8C337170240B717EA
:1020100002405843D8C30327C4FDB7177A009387FB
:102020000720631BF702B7170240D843B7170240D7
:10203000719BD8C3B7170240D843B7170240136744
:102040001700D8C30100B7170240DC4313F7C700DD
:102050009147E31AF7FE81A2B7170240D443B7179E
:1020600002403707C1FF7D17758FD8C30327C4FD12
:10207000B747950893870740631BF700B7170240DF
:10208000D443B71702404167558FD8C355A80327DB
:10209000C4FDB7172707938707E0631CF700B7173E
:1020A0000240D443B717024037073900558FD8C3D1
:1020B00041A80327C4FDB7E7B80593870780631CD1
:1020C000F700B7170240D443B7170240370729007B
:1020D000558FD8C3B5A00327C4FDB7A74A0493877B
:1020E0000720631CF700B7170240D443B71702401C
:1020F00037071D00558FD8C3A1A00327C4FDB777AC
:10210000DC02938707C0631CF700B7170240D44373
:10211000B717024037071100558FD8C315A0032702
:10212000C4FDB7376E0193870760631BF700B717CD
:102130000240D443B717024037070500558FD8C374
:10214000B71702409443B717024037070001558F75
:1021500098C30100B71702409843B7070002F98FF0
:10216000F5DBB7170240D843B7170240719BD8C3BD
:10217000B7170240D843B717024013672700D8C3E8
:102180000100B7170240DC4313F7C700A147E31A69
:10219000F7FE11A001A0325445618280411122C690
:1021A000000801000100324441018280011106CE85
:1021B00022CC0010232604FE232404FE232604FE42
:1021C00025A0232404FE39A0D13F832784FE850760
:1021D0002324F4FE032784FEC167E367F7FE832709
:1021E000C4FE85072326F4FE0327C4FE9307F00FE1
:1021F000E3F9E7FC0100F2406244056182800111CD
:1022000006CE22CC00102326A4FE8325C4FE094559
:10221000EFE07FC30100F2406244056182804171BA
:102220002326111E2324811E2322911E801B232E70
:10223000A4E0232CB4E0231504FE231404FE23138E
:1022400004FE231204FE0325C4E1EF604048AA8780
:10225000C207C1872313F4FE83D7018D89C79387F3
:10226000018D9C4B829783C7C18493F7F70F6388D6
:10227000072E83D7018D6389072A9387018DD8475D
:10228000AD67138687368145014502978327C4E1F0
:102290002326F4FE0325C4E1EF606043AA87C2074A
:1022A000C1872313F4FE9387018D83D727003E87D0
:1022B0009387018D83C76700B347F702C207C187C1
:1022C0002312F4FE01008327C4FE13871700232680
:1022D000E4FE83870700E5FB231404FEA1A88327FF
:1022E000C4FEFD172326F4FE8327C4FE03870700E0
:1022F0009307F002630AF7008327C4FE03870700F1
:102300009307C005631BF700835784FEC207C18390
:102310008507C207C1832314F4FE835764FEC207F6
:10232000C187C207C183FD17C207C183C207C18726
:102330002313F4FE835784FE1397070141838547D7
:1023400063E8E700835764FEC207C187E3D907F853
:10235000835764FEC207C18763C207028327C4FE96
:1023600085072326F4FE130744EE0326C4FEAD675B
:10237000938587373A85EF6020311DA8835784FE07
:10238000C207C18381EF130744EE0326C4FEAD6785
:10239000938547383A85EF60202F19A8130744EE3C
:1023A0000326C4FEAD67938587373A85EF60C02D5D
:1023B000231504FE01A2231404FE59A0930744EE42
:1023C0003E85EF60C0302A87835784FEC207C183F1
:1023D000BE868357A4FEC207C1833E86835744FE50
:1023E000C207C187B307F602B6976367F70683573C
:1023F00084FEC207C1833E878357A4FEC207C18300
:10240000BE86835744FEC207C187B387F602BA97D8
:10241000035784FE42074183BA86130704FFBA9725
:10242000038747EF930704FFB697238AE7EA8357AA
:1024300084FEC207C1838507C207C1832314F4FE4B
:10244000835784FEC207C1833E87835744FEC20779
:10245000C187E345F7F611A00100835784FEC20748
:10246000C183130704FFBA97238A07EA9387018D74
:10247000D4479387018D83C7770013970701418362
:102480008357A4FEC207C1838507C207C183B30770
:10249000F702C207C183130744EA3A86BE850145A5
:1024A00082968357A4FEC207C1838507C207C183F2
:1024B0002315F4FE8357A4FEC207C183BE8493078D
:1024C00044EE3E85EF60A0202A87835744FEC20772
:1024D000C187B357F7028507E3EFF4EC130744EE27
:1024E000032684E1AD67938547393A85EF60C019CB
:1024F0009387018DD4479387018D83C77700139706
:10250000070141838357A4FEC207C1838507C20721
:10251000C183B307F702C207C183130744EE3A86AB
:10252000BE850145829625A8930744E2130600085C
:1025300081453E85EFD01FCE130744E2832684E118
:102540000326C4E1AD679385073A3A85EF60C0136F
:102550009387018D9847930744E23E8502970100D7
:102560008320C11E0324811E8324411E7D6182803D
:10257000797106D622D40018232EA4FC232CB4FC97
:10258000232AC4FC232604FEA9A00100AD6793877B
:1025900007699C47930500043E85EF20E007AA8762
:1025A000F5D7AD67938707699C47BE86832784FD6F
:1025B00013871700232CE4FC83870700C207C1831D
:1025C000BE853685EF2060028327C4FE850723265B
:1025D000F4FE0327C4FE832744FDE348F7FA83276C
:1025E00044FD3E85B250225445618280011106CEE1
:1025F00022CC0010AA872324B4FE2322C4FEA30702
:10260000F4FE8347F4FE8DEFB707002083C707224F
:1026100093F7F70F95C783C7D18491C301A083C7F0
:10262000D184850713F7F70FA386E184F12483256E
:1026300044FE032584FEEFF09FBEEFF03FB7C5BF19
:102640000100F240624405618280011122CE001037
:102650002326A4FE8327C4FE239007008327C4FEFD
:102660007D572391E7008327C4FE7D572392E7001F
:102670008327C4FE7D572383E7008327C4FE7D574D
:10268000A383E7008327C4FE23A407008327C4FE97
:1026900023A607008327C4FE23A807000100724475
:1026A00005618280011122CE00102326A4FE83271B
:1026B000C4FE03D707002398E18C8327C4FE03D709
:1026C00027009387018D2391E7008327C4FE03D75A
:1026D00047009387018D2392E7008327C4FE03C739
:1026E00067009387018D2383E7008327C4FE03C718
:1026F00077009387018DA383E7008327C4FE984763
:102700009387018D98C78327C4FED8479387018D8F
:10271000D8C78327C4FE984B9387018D98CB054774
:102720002386E1840100724405618280797106D6B6
:1027300022D400189307C4FD3E85013FB72700004F
:102740009387E71F2322F4FE9307C4FD3E85993F3C
:102750009306100213060002F167938507200945CE
:10276000EFE06FF80100B250225445618280011100
:1027700022CE00102326A4FE2324B4FE8327C4FE09
:10278000D843832784FE3E978327C4FED8C319A865
:102790008327C4FED8438327C4FE9C4B1D8F832709
:1027A000C4FED8C38327C4FE984B8327C4FEDC43F2
:1027B000E3F0E7FE0100724405618280797106D67C
:1027C00022D40018232EA4FC232CB4FC232AC4FCFE
:1027D0008327C4FDDC47032744FD637BF70C292ACC
:1027E0008327C4FD984B8327C4FDDC43B307F74020
:1027F0002326F4FE032744FD8327C4FE63FBE7067C
:102800008327C4FD98438327C4FDDC43BA9703267E
:10281000C4FE832584FD3E85EF5020388325C4FE09
:102820000325C4FDA937032784FD8327C4FEBA9777
:10283000232CF4FC8327C4FD98438327C4FDDC4389
:10284000B306F700032744FD8327C4FEB307F74010
:102850003E86832584FD3685EF502034032744FDD2
:102860008327C4FEB307F740BE850325C4FD0137A7
:1028700025A08327C4FD98438327C4FDDC43BA9772
:10288000032644FD832584FD3E85EF5000318325DA
:1028900044FD0325C4FDE13D8327C4FDD8478327BC
:1028A00044FD1D8F8327C4FDD8C70520814711A093
:1028B00089473E85B250225445618280411122C62B
:1028C00000080100324441018280411106C622C441
:1028D000000883A7018599C783A701851387F7FFA0
:1028E00023A8E18483A7018599E3EFD0DF9101005C
:1028F000B240224441018280411106C622C4000830
:1029000083A7018599E3EFD0BF8F83A70185138744
:10291000170023A8E1840100B240224441018280D3
:102920001D71A2CE82E686E48AE28EE012FE16FCDB
:102930001AFA1EF82AF62EF432F236F03AEE3EEC8F
:1029400042EA46E872E676E47AE27EE08010930599
:102950005052B747014013850780EF105050AA87A7
:1029600089CB93055052B747014013850780EF107C
:10297000305F010076443660A6601661866172722F
:10298000E2725273C2733275A275127682767267E2
:10299000E2675268C268326EA26E126F826F256162
:1029A000730020301D71A2CE82E686E48AE28EE0BA
:1029B00012FE16FC1AFA1EF82AF62EF432F236F03F
:1029C0003AEE3EEC42EA46E872E676E47AE27EE0EF
:1029D000801093055052B747004013850740EF1011
:1029E0001048AA87A1C303A7018485476315F70090
:1029F000EFF02FC805A003A7018489476315F700EE
:102A0000EFE0EFFD01A803A701848D476314F700F1
:102A1000EFF08FC393055052B7470040138507402E
:102A2000EF101054010076443660A660166186618E
:102A30007272E2725273C2733275A2751276827626
:102A40007267E2675268C268326EA26E126F826F5E
:102A50002561730020301D71A2CE82E686E48AE2F1
:102A60008EE012FE16FC1AFA1EF82AF62EF432F246
:102A700036F03AEE3EEC42EA46E872E676E47AE276
:102A80007EE0801093055052B757004013850780B1
:102A9000EF10F03CAA8789CB93055052B7570040FE
:102AA00013850780EF10D04B010076443660A66096
:102AB000166186617272E2725273C2733275A275C8
:102AC000127682767267E2675268C268326EA26ED0
:102AD000126F826F2561730020301D71A2CE82E6D5
:102AE00086E48AE28EE012FE16FC1AFA1EF82AF636
:102AF0002EF432F236F03AEE3EEC42EA46E872E666
:102B000076E47AE27EE0801093055052B757004099
:102B1000138507C0EF10B034AA8789CB93055052B4
:102B2000B7570040138507C0EF109043010076446B
:102B30003660A660166186617272E2725273C27369
:102B40003275A275127682767267E2675268C26841
:102B5000326EA26E126F826F2561730020301D717C
:102B6000A2CE82E686E48AE28EE012FE16FC1AFA13
:102B70001EF82AF62EF432F236F03AEE3EEC42EA35
:102B800046E872E676E47AE27EE0801093055052E1
:102B900037550040EF10B02CAA8789CBEFE0AFE6A5
:102BA0009305505237550040EF10903B010076449A
:102BB0003660A660166186617272E2725273C273E9
:102BC0003275A275127682767267E2675268C268C1
:102BD000326EA26E126F826F2561730020301D71FC
:102BE000A2CE82E686E48AE28EE012FE16FC1AFA93
:102BF0001EF82AF62EF432F236F03AEE3EEC42EAB5
:102C000046E872E676E47AE27EE080109305505260
:102C1000B727004013850780EF107024AA8789CB5F
:102C200093055052B727004013850780EF105033AB
:102C3000010076443660A660166186617272E272A7
:102C40005273C2733275A275127682767267E2672A
:102C50005268C268326EA26E126F826F2561730075
:102C600020301D71A2CE82E686E48AE28EE012FE5A
:102C700016FC1AFA1EF82AF62EF432F236F03AEE64
:102C80003EEC42EA46E872E676E47AE27EE08010C4
:102C900093055052B7270040138507C0EF10301C32
:102CA000AA878DC703A7018485476309F70003A797
:102CB000018489476314F700EFE0EFCF930550528A
:102CC000B7270040138507C0EF1090290100764414
:102CD0003660A660166186617272E2725273C273C8
:102CE0003275A275127682767267E2675268C268A0
:102CF000326EA26E126F826F2561730020301D71DB
:102D0000A2CE82E686E48AE28EE012FE16FC1AFA71
:102D10001EF82AF62EF432F236F03AEE3EEC42EA93
:102D200046E872E676E47AE27EE08010930550523F
:102D300037250040EF10B012AA8799C7930550526B
:102D400037250040EF10D021010076443660A660A0
:102D5000166186617272E2725273C2733275A27525
:102D6000127682767267E2675268C268326EA26E2D
:102D7000126F826F2561730020301D71A2CE82E632
:102D800086E48AE28EE012FE16FC1AFA1EF82AF693
:102D90002EF432F236F03AEE3EEC42EA46E872E6C3
:102DA00076E47AE27EE08010B707055083C707011A
:102DB00093F7F70F918B85C3EFE06FC8B707055006
:102DC00083C7070113F7F70FB70705506D9B1377FC
:102DD000F70F2388E700010076443660A66016618D
:102DE00086617272E2725273C2733275A275127684
:102DF00082767267E2675268C268326EA26E126FA4
:102E0000826F2561730020301D71A2CE82E686E4B8
:102E10008AE28EE012FE16FC1AFA1EF82AF62EF44A
:102E200032F236F03AEE3EEC42EA46E872E676E4FA
:102E30007AE27EE080100545EF00F02C2A87854776
:102E40006315F7000545EF007031010076443660E8
:102E5000A660166186617272E2725273C273327535
:102E6000A275127682767267E2675268C268326E25
:102E7000A26E126F826F2561730020301D71A2CE89
:102E800082E686E48AE28EE012FE16FC1AFA1EF84A
:102E90002AF62EF432F236F03AEE3EEC42EA46E8FA
:102EA00072E676E47AE27EE080100945EF00B02514
:102EB0002A8785476315F7000945EF00302A01008E
:102EC00076443660A660166186617272E272527351
:102ED000C2733275A275127682767267E2675268A3
:102EE000C268326EA26E126F826F2561730020304D
:102EF0001D71A2CE82E686E48AE28EE012FE16FC06
:102F00001AFA1EF82AF62EF432F236F03AEE3EECB9
:102F100042EA46E872E676E47AE27EE08010114505
:102F2000EF00701E2A8785476315F7001145EF00F3
:102F3000F022010076443660A660166186617272E6
:102F4000E2725273C2733275A2751276827672671C
:102F5000E2675268C268326EA26E126F826F25619C
:102F6000730020301D71A2CE82E686E48AE28EE0F4
:102F700012FE16FC1AFA1EF82AF62EF432F236F079
:102F80003AEE3EEC42EA46E872E676E47AE27EE029
:102F900080102145EF0030172A8785476315F70019
:102FA0002145EF00B01B010076443660A660166133
:102FB00086617272E2725273C2733275A2751276B2
:102FC00082767267E2675268C268326EA26E126FD2
:102FD000826F2561730020301D71A2CE82E686E4E7
:102FE0008AE28EE012FE16FC1AFA1EF82AF62EF479
:102FF00032F236F03AEE3EEC42EA46E872E676E429
:103000007AE27EE080104145EF00F00F2A87854785
:103010006315F7004145EF007014010076443660F7
:10302000A660166186617272E2725273C273327563
:10303000A275127682767267E2675268C268326E53
:10304000A26E126F826F2561730020301D71A2CEB7
:1030500082E686E48AE28EE012FE16FC1AFA1EF878
:103060002AF62EF432F236F03AEE3EEC42EA46E828
:1030700072E676E47AE27EE0801013050002EF004B
:1030800090082A8785476316F70013050002EF00B2
:10309000F00C13050004EF0010072A87854763161C
:1030A000F70013050004EF00700B13050008EF0094
:1030B00090052A8785476316F70013050008EF007F
:1030C000F00913050010EF0010042A8785476316E6
:1030D000F70013050010EF00700813050020EF0043
:1030E00090022A8785476316F70013050020EF003A
:1030F000F006010076443660A66016618661727241
:10310000E2725273C2733275A2751276827672675A
:10311000E2675268C268326EA26E126F826F2561DA
:10312000730020301D71A2CE82E686E48AE28EE032
:1031300012FE16FC1AFA1EF82AF62EF432F236F0B7
:103140003AEE3EEC42EA46E872E676E47AE27EE067
:10315000801013050040EF00007B2A878547631627
:10316000F70013050040EF00607F85671385078037
:10317000EF0060792A8785476317F7008567138515
:103180000780EF00A07D0565EF00E0772A8785477F
:103190006315F7000565EF00607C0965EF00A07618
:1031A0002A8785476315F7000965EF00207B1165C5
:1031B000EF0060752A8785476315F7001165EF00FA
:1031C000E0792165EF0020742A8785476315F700B1
:1031D0002165EF00A078010076443660A660166194
:1031E00086617272E2725273C2733275A275127680
:1031F00082767267E2675268C268326EA26E126FA0
:10320000826F2561730020301D71A2CE82E686E4B4
:103210008AE28EE012FE16FC1AFA1EF82AF62EF446
:1032200032F236F03AEE3EEC42EA46E872E676E4F6
:103230007AE27EE080108545B7370140138507C0EC
:10324000EF108007AA8781CB8545B73701401385EA
:1032500007C0EF10600D010076443660A66016616D
:1032600086617272E2725273C2733275A2751276FF
:1032700082767267E2675268C268326EA26E126F1F
:10328000826F2561730020301D71A2CE82E686E434
:103290008AE28EE012FE16FC1AFA1EF82AF62EF4C6
:1032A00032F236F03AEE3EEC42EA46E872E676E476
:1032B0007AE27EE08010854537050040EF00D07F40
:1032C000AA8791CB854537050040EF10E00513052F
:1032D0002008EFD06F84010076443660A660166146
:1032E00086617272E2725273C2733275A27512767F
:1032F00082767267E2675268C268326EA26E126F9F
:10330000826F2561730020301D71A2CE82E686E4B3
:103310008AE28EE012FE16FC1AFA1EF82AF62EF445
:1033200032F236F03AEE3EEC42EA46E872E676E4F5
:103330007AE27EE080108545B7070040138507409C
:10334000EF009077AA8781CB8545B70700401385AA
:103350000740EF00707D010076443660A66016617C
:1033600086617272E2725273C2733275A2751276FE
:1033700082767267E2675268C268326EA26E126F1E
:10338000826F2561730020301D71A2CE82E686E433
:103390008AE28EE012FE16FC1AFA1EF82AF62EF4C5
:1033A00032F236F03AEE3EEC42EA46E872E676E475
:1033B0007AE27EE080108545B717004013850780CC
:1033C000EF00906FAA8781CB8545B7170040138522
:1033D0000780EF007075010076443660A6601661C4
:1033E00086617272E2725273C2733275A27512767E
:1033F00082767267E2675268C268326EA26E126F9E
:10340000826F2561730020301D71A2CE82E686E4B2
:103410008AE28EE012FE16FC1AFA1EF82AF62EF444
:1034200032F236F03AEE3EEC42EA46E872E676E4F4
:103430007AE27EE080108545B7170040138507C00B
:10344000EF009067AA8781CB8545B71700401385A9
:1034500007C0EF00706D010076443660A66016610B
:1034600086617272E2725273C2733275A2751276FD
:1034700082767267E2675268C268326EA26E126F1D
:10348000826F2561730020301D71A2CE82E686E432
:103490008AE28EE012FE16FC1AFA1EF82AF62EF4C4
:1034A00032F236F03AEE3EEC42EA46E872E676E474
:1034B0007AE27EE08010854537150040EF00D05F4E
:1034C000AA8791C7854537150040EF00F0650100D8
:1034D00076443660A660166186617272E27252733B
:1034E000C2733275A275127682767267E26752688D
:1034F000C268326EA26E126F826F25617300203037
:103500001D71A2CE82E686E48AE28EE012FE16FCEF
:103510001AFA1EF82AF62EF432F236F03AEE3EECA3
:1035200042EA46E872E676E47AE27EE0801085457B
:10353000B717004013850740EF001058AA8781CBCA
:103540008545B717004013850740EF00F05D010087
:1035500076443660A660166186617272E2725273BA
:10356000C2733275A275127682767267E26752680C
:10357000C268326EA26E126F826F256173002030B6
:103580001D71A2CE82E686E48AE28EE012FE16FC6F
:103590001AFA1EF82AF62EF432F236F03AEE3EEC23
:1035A00042EA46E872E676E47AE27EE080108545FB
:1035B000B737014013850740EF001050AA8781CB31
:1035C0008545B737014013850740EF00F0550100EE
:1035D00076443660A660166186617272E27252733A
:1035E000C2733275A275127682767267E26752688C
:1035F000C268326EA26E126F826F25617300203036
:103600001D71A2CE82E686E48AE28EE012FE16FCEE
:103610001AFA1EF82AF62EF432F236F03AEE3EECA2
:1036200042EA46E872E676E47AE27EE0801085457A
:10363000B7570140138507C0EF001048AA8781CB18
:103640008545B7570140138507C0EF00F04D0100D5
:1036500076443660A660166186617272E2725273B9
:10366000C2733275A275127682767267E26752680B
:10367000C268326EA26E126F826F256173002030B5
:103680001D71A2CE82E686E48AE28EE012FE16FC6E
:103690001AFA1EF82AF62EF432F236F03AEE3EEC22
:1036A00042EA46E872E676E47AE27EE080108545FA
:1036B00037550140EF005040AA8791C785453755DF
:1036C0000140EF007046010076443660A660166146
:1036D00086617272E2725273C2733275A27512768B
:1036E00082767267E2675268C268326EA26E126FAB
:1036F000826F256173002030411122C6000801004D
:103700003244410173002030411122C6000801A05B
:10371000130101DB2326112423248124800CEFF0E4
:10372000AF9DB747950813850740EFE02FF7EFE00F
:10373000FFFFEFE06FCEAD67130704FB9387473FB2
:10374000930600043686BE853A85EF400045AD6796
:10375000130784DB938747439306801F3686BE8515
:103760003A85EF408043EFF04F96AD671386873E72
:1037700081450145EFD0BFD9930704FB0947BE86B9
:10378000414699450145EFE00FB6130684DB130867
:10379000F003930700041307000493060004814517
:1037A00013051004EFD07FF7C9B701A001A001A055
:1037B00001A001A001A001A001A001A001A001A001
:1037C00001A001A001A001A001A001A001A001A0F1
:1037D00001A001A001A001A001A001A001A001A0E1
:1037E00001A001A001A001A001A001A001A001A0D1
:1037F00001A001A001A001A001A001A001A001A0C1
:1038000001A001A001A001A001A001A001A001A0B0
:1038100001A001A001A001A001A001A001A001A0A0
:1038200001A001A001A001A001A001A001A001A090
:1038300001A001A001A001A001A001A001A001A080
:1038400001A001A001A001A001A001A001A001A070
:1038500001A001A001A001A001A001A001A001A060
:1038600001A001A001A001A097D1FF1F9381811B9E
:1038700017C1002013010179179500001305C5C574
:1038800097C5FF1F938505781386018263FAC500EB
:103890008322050023A0550011059105E3EAC5FE2A
:1038A000138501829385818E6377B50023200500FF
:1038B0001105E36DB5FEFD42739002BCFD427390AD
:1038C0004280B78200009382828873A0023097C240
:1038D000FFFF9382A27693E232007390523037F565
:1038E000FF1F930500302318B51A3729024003251E
:1038F000C90005897DF9970200009382A2E17390C7
:10390000123473002030797122D60018232EA4FCC3
:10391000232604FE232404FEB707014093870740B3
:103920009C430327C4FDF98F2324F4FEB70701400D
:1039300093870740D84B8327C4FDF98F81CB83271A
:1039400084FE89C785472326F4FE19A0232604FE9A
:103950008327C4FE3E85325445618280011122CE08
:1039600000102326A4FEB7070140938707400327D2
:10397000C4FED8CB0100724405618280397122DE19
:1039800080002326A4FC2324B4FC232604FE232049
:1039900004FE232404FE232E04FC232204FE232CF5
:1039A00004FC832784FC9C47BD8B2326F4FE8327DD
:1039B00084FC9C47C18B89CB832784FCDC43032791
:1039C000C4FED98F2326F4FE832784FC83D7070007
:1039D00093F7F70FF1CF8327C4FC9C432322F4FE17
:1039E000232404FE65A8832784FE0547B317F70048
:1039F000232EF4FC832784FC83D707003E8783278C
:103A0000C4FDF98F2320F4FE032704FE8327C4FDA1
:103A10006311F708832784FE8A07232EF4FC83278B
:103A2000C4FD3D47B317F700232CF4FC832784FD26
:103A300093C7F7FF032744FEF98F2322F4FE832761
:103A4000C4FD0327C4FEB317F700032744FED98F34
:103A50002322F4FE832784FC984793078002631B8C
:103A6000F700832784FE05473317F7008327C4FC3C
:103A7000D8CB05A0832784FC984793078004631A5A
:103A8000F700832784FE05473317F7008327C4FC1C
:103A900098CB832784FE85072324F4FE032784FE26
:103AA0009D47E3F2E7F48327C4FC032744FE98C351
:103AB000832784FC03D707009307F00F63F1E70E19
:103AC0008327C4FCDC432322F4FE232404FE75A8D0
:103AD000832784FEA1070547B317F700232EF4FCC4
:103AE000832784FC83D707003E878327C4FDF98F93
:103AF0002320F4FE032704FE8327C4FD6312F70886
:103B0000832784FE8A07232EF4FC8327C4FD3D47C8
:103B1000B317F700232CF4FC832784FD93C7F7FF2A
:103B2000032744FEF98F2322F4FE8327C4FD0327D5
:103B3000C4FEB317F700032744FED98F2322F4FEF7
:103B4000832784FC984793078002631BF700832731
:103B500084FEA10705473317F7008327C4FCD8CBA1
:103B6000832784FC984793078004631BF70083270F
:103B700084FEA10705473317F7008327C4FC98CBC1
:103B8000832784FE85072324F4FE032784FE9D47B4
:103B9000E3F0E7F48327C4FC032744FED8C3010005
:103BA000725421618280011122CE00102326A4FECE
:103BB000AE872322C4FE2315F4FE832744FE99C753
:103BC0000357A4FE8327C4FE98CB31A00357A4FE5D
:103BD0008327C4FED8CB01007244056182807971CD
:103BE00022D60018232EA4FC232CB4FC232404FE8C
:103BF000232204FE232604FE232004FE8327C4FD83
:103C000063D80700B7070140DC4F2326F4FE31A03C
:103C1000B7070140DC432326F4FE8327C4FDC1839C
:103C2000BD8B2320F4FE0327C4FDC167FD17F98F68
:103C30002324F4FE0327C4FDB70730007D8FB707A8
:103C400030006315F7020327C4FEB70700F1FD1724
:103C5000F98F2326F4FEB7070140D443B70701408C
:103C6000370700F17D17758FD8C3ADA00327C4FDBA
:103C7000B7071000F98F8DCB832704FE0D47B317CC
:103C8000F7002322F4FE832744FE93C7F7FF0327A0
:103C9000C4FEF98F2326F4FE0327C4FEB707000FE6
:103CA000D98F2326F4FE3DA08327C4FDD583920738
:103CB000032784FEB317F70093C7F7FF0327C4FE5B
:103CC000F98F2326F4FE0327C4FEB707000FD98F10
:103CD0002326F4FE832784FD91CF8327C4FDD5835B
:103CE0009207032784FEB317F7000327C4FED98F7A
:103CF0002326F4FE8327C4FD63D80700B7070140DD
:103D00000327C4FED8CF31A0B70701400327C4FE64
:103D1000D8C30100325445618280397122DE8000AF
:103D20002326A4FC232204FE232604FE232004FED3
:103D3000232E04FC232404FEB7170240DC43B18B7E
:103D40002322F4FE032744FE91476303F70203276F
:103D500044FEA1476306F702832744FE63990714D4
:103D60008327C4FC37177A001307072098C389AA52
:103D70008327C4FC37177A001307072098C389A24A
:103D8000B7170240D843B7073C00F98F2326F4FE4B
:103D9000B7170240D843C167F98F2320F4FE832769
:103DA000C4FEC98389072326F4FEB7F7FF1F938754
:103DB000C77098439167F98F91EB0327C4FEC547FD
:103DC0006319F704C9472326F4FEA1A00327C4FE04
:103DD00089476315F700C9472326F4FE0327C4FE6D
:103DE000BD476318F700B5472326F4FE8547232413
:103DF000F4FE0327C4FEC1476315F700BD47232621
:103E0000F4FE0327C4FEC5476315F700C147232608
:103E1000F4FE832704FEA1E3B7470240938707809F
:103E20009C43C18B89CF0327C4FEB7177A009387C1
:103E300007203307F7028327C4FC98C399A80327F8
:103E4000C4FEB7173D00938707903307F702832717
:103E5000C4FC98C33DA8B7170240D843B707020077
:103E6000F98F89CF0327C4FEB7173D0093870790CA
:103E70003307F7028327C4FC98C321A80327C4FE95
:103E8000B7177A00938707203307F7028327C4FC0C
:103E900098C3032784FE85476313F7028327C4FC76
:103EA0009C4313D717008327C4FC98C309A8832712
:103EB000C4FC37177A001307072098C311A001002C
:103EC000B7170240DC4393F7070F2322F4FE832742
:103ED00044FE91832322F4FEB707002013870700D6
:103EE000832744FEBA9783C7070093F7F70F232E63
:103EF000F4FC8327C4FC98438327C4FD3357F700A1
:103F00008327C4FCD8C3B7170240DC4393F707707C
:103F10002322F4FE832744FEA1832322F4FEB70765
:103F2000002013870700832744FEBA9783C7070042
:103F300093F7F70F232EF4FC8327C4FCD843832781
:103F4000C4FD3357F7008327C4FC98C7B717024056
:103F5000D843916793870780F98F2322F4FE832744
:103F600044FEAD832322F4FEB70700201387070029
:103F7000832744FEBA9783C7070093F7F70F232ED2
:103F8000F4FC8327C4FCD8438327C4FD3357F700D0
:103F90008327C4FCD8C7B7170240D843B167F98F4D
:103FA0002322F4FE832744FEB9832322F4FEB707BD
:103FB000002013874722832744FEBA9783C7070050
:103FC00093F7F70F232EF4FC8327C4FCD8478327ED
:103FD000C4FD3357F7028327C4FC98CB0100725409
:103FE00021618280011122CE00102326A4FE232409
:103FF000B4FE832784FE99CBB7170240944FB717BE
:1040000002400327C4FE558F98CF21A8B71702405E
:10401000944F8327C4FE13C7F7FFB7170240758F6D
:1040200098CF0100724405618280011122CE0010F8
:104030002326A4FE2324B4FE832784FE99CBB7173E
:104040000240D44FB71702400327C4FE558FD8CF84
:1040500021A8B7170240D44F8327C4FE13C7F7FF28
:10406000B7170240758FD8CF010072440561828076
:10407000011122CE00102326A4FE2324B4FE8327A0
:1040800084FE99CBB7170240D447B71702400327E5
:10409000C4FE558FD8C721A8B7170240D44783273D
:1040A000C4FE13C7F7FFB7170240758FD8C70100CA
:1040B000724405618280011122CE00102326A4FEE5
:1040C0002324B4FE832784FE99CBB7170240944B78
:1040D000B71702400327C4FE558F98CB21A8B71706
:1040E0000240944B8327C4FE13C7F7FFB717024063
:1040F000758F98CB0100724405618280011106CE54
:1041000022CC00102326A4FE0327C4FEB7370140AB
:104110006319F70085450565A13F81450565893F20
:1041200035A80327C4FEB74700409387078063196B
:10413000F70085451165413781451165AD3F39A8C7
:104140000327C4FEB7470040938707C06318F700F2
:10415000854521658D3781452165B13F0100F240DC
:10416000624405618280797122D60018232EA4FC56
:10417000232CB4FC231704FE8327C4FD83D7070038
:104180002317F4FE0357E4FE8D6793870704F98F26
:104190002317F4FE832784FD03D70700832784FDBC
:1041A00083D72700D98F139707014183832784FD85
:1041B00083D74700D98F139707014183832784FD55
:1041C00083D76700D98F139707014183832784FD25
:1041D00083D78700D98F139707014183832784FDF5
:1041E00083D7A700D98F139707014183832784FDC5
:1041F00083D7C700D98F139707014183832784FD95
:1042000083D7E700D98F1397070141838357E4FED3
:10421000D98F2317F4FE8327C4FD0357E4FE2390B0
:10422000E7008327C4FD83D7C701139707014183A4
:10423000FD779387F77FF98F1397070141838327D2
:10424000C4FD239EE700832784FD03D7070183274E
:10425000C4FD2398E70001003254456182800111BA
:1042600022CE00102326A4FE2324B4FE832784FE3E
:104270008DC38327C4FE83D70700C207C18393E79A
:1042800007041397070141838327C4FE2390E700A7
:1042900005A08327C4FE83D70700C207C18393F715
:1042A000F7FB1397070141838327C4FE2390E700A0
:1042B0000100724405618280797122D60018232E94
:1042C000A4FCAE87231DF4FC232604FE231504FE64
:1042D000231404FE8327C4FD83D707011397070126
:1042E00041838357A4FDF98F2315F4FE8327C4FD72
:1042F00083D7C7001397070141838357A4FDF98F24
:104300002314F4FE8357A4FE81CB835784FE89C710
:1043100085472326F4FE19A0232604FE8327C4FE26
:104320003E85325445618280011122CE0010232641
:10433000A4FEAE872315F4FE8357A4FE93C7F7FFB0
:104340001397070141838327C4FE2398E7000100E8
:104350007244056182805D7186C6A2C48008232EE6
:10436000A4FA232CB4FA232604FE232404FE2322D9
:1043700004FE232004FE232E04FC8327C4FB232EEB
:10438000F4FC8327C4FB83D70701C207C18323261C
:10439000F4FE0327C4FEB567FD17F98F2326F4FE4C
:1043A000832784FB83D767003E878327C4FED98F8A
:1043B0002326F4FE8327C4FE139707014183832736
:1043C000C4FB2398E7008327C4FB83D7C700C20739
:1043D000C1832326F4FE0327C4FEBD679387379F5E
:1043E000F98F2326F4FE832784FB03D74700832716
:1043F00084FB83D78700D98F1397070141838327D5
:1044000084FB83D7A700D98FC207C1833E87832748
:10441000C4FED98F2326F4FE8327C4FE1397070119
:1044200041838327C4FB2396E7008327C4FB83D7FC
:104430004701C207C1832326F4FE0327C4FEC167D8
:104440009387F7CFF98F2326F4FE832784FB83D746
:10445000C7003E878327C4FED98F2326F4FE832717
:10446000C4FE1397070141838327C4FB239AE70007
:10447000930784FC3E85EFF05F8A0327C4FDB747AE
:104480000140938707806317F700832744FD2324A7
:10449000F4FE29A0832704FD2324F4FE8327C4FB14
:1044A00083D7C700C207C183C207C18763D207028F
:1044B000032784FEBA878607BA978E073E9783271D
:1044C00084FB9C438607B357F7022322F4FE05A022
:1044D000032784FEBA878607BA978E073E978327FD
:1044E00084FB9C438A07B357F7022322F4FE032779
:1044F00044FE93074006B357F70292072326F4FEC3
:104500008327C4FE13D7470093074006B307F7027B
:10451000032744FEB307F7402320F4FE8327C4FBA0
:1045200083D7C700C207C183C207C18763D207020E
:10453000832704FE8E071387270393074006B3578C
:10454000F7029D8B0327C4FED98F2326F4FE05A016
:10455000832704FE92071387270393074006B35768
:10456000F702BD8B0327C4FED98F2326F4FE8327D1
:10457000C4FE1397070141838327C4FB2394E700FC
:104580000100B640264461618280011122CE0010F4
:104590002326A4FE2324B4FE832784FE95C3832709
:1045A000C4FE83D7C7001397070141838967D98F5A
:1045B0001397070141838327C4FE2396E70015A0C4
:1045C0008327C4FE83D7C700139707014183F97778
:1045D000FD17F98F1397070141838327C4FE2396A4
:1045E000E7000100724405618280011122CE0010B3
:1045F0002326A4FEAE872315F4FE8357A4FE93F76B
:10460000F71F1397070141838327C4FE2392E70016
:104610000100724405618280797122D60018232E30
:10462000A4FCAE87231DF4FC232604FE8327C4FDCF
:1046300083D707001397070141838357A4FDF98FA0
:10464000C207C18389C785472326F4FE19A0232604
:1046500004FE8327C4FE3E85325445618280797111
:1046600022D60018232EA4FCAE87231DF4FC23229F
:1046700004FE232604FE232004FE232404FE835785
:10468000A4FD93F7F70F958393F7F70F2320F4FE1C
:104690008357A4FDFD8B2326F4FE8327C4FE054724
:1046A000B317F7002326F4FE032704FE8547631F94
:1046B000F7008327C4FD83D7C700C207C1833E87A5
:1046C0008327C4FEF98F2326F4FE3DA8032704FEAA
:1046D0008947631FF7008327C4FD83D70701C207FB
:1046E000C1833E878327C4FEF98F2326F4FE29A8C1
:1046F0008327C4FD83D74701C207C1833E87832731
:10470000C4FEF98F2326F4FE8357A4FDA183C207BC
:10471000C1832322F4FE832744FE0547B317F70025
:104720002322F4FE8327C4FD83D70700C207C18379
:104730003E87832744FEF98F2322F4FE8327C4FE9D
:1047400081CB832744FE89C785472324F4FE19A023
:10475000232404FE832784FE3E85325445618280F3
:10476000797122D60018232EA4FCAE87231DF4FCF9
:10477000231704FE231604FE8357A4FDA1832317E9
:10478000F4FE8357E4FE0547B317F7002316F4FE43
:104790008357C4FE93C7F7FF13970701418383270D
:1047A000C4FD2390E700010032544561828001116D
:1047B00022CE0010AA87A307F4FEB70700500347D4
:1047C000F4FE42074183239AE702B707005083C7EC
:1047D000670313F7F70FB7070050719B1377F70FB5
:1047E000238BE7020100724405618280011122CE11
:1047F0000010AA87A307F4FEB70700500347F4FE92
:1048000042074183239CE702B707005083C7A703F1
:1048100013F7F70FB7070050719B1377F70F238D2E
:10482000E7020100724405618280797106D622D4C4
:104830000018AA87A30FF4FCA30704FE15A803A77A
:1048400001868347F4FEBA9703C7070083A6018653
:104850008347F4FE93870704B6971347F7FF137750
:10486000F70F2380E7008347F4FE8507A307F4FED4
:104870000347F4FE8347F4FDE363F7FC8347F4FD4D
:104880003E8535370100B2502254456182807971EE
:1048900006D622D40018AA87A30FF4FCA30704FEAF
:1048A00015A803A741868347F4FEBA9703C70700FC
:1048B00083A641868347F4FE93870704B697134780
:1048C000F7FF1377F70F2380E7008347F4FE850790
:1048D000A307F4FE0347F4FE8347F4FDE363F7FC0C
:1048E0008347F4FD3E8519370100B25022544561DB
:1048F00082805971A2D682EE86EC8AEA8EE892E630
:1049000096E49AE29EE02AFE2EFC32FA36F83AF657
:104910003EF442F246F072EE76EC7AEA7EE88018D7
:10492000230F04F8B707005083C76700A30EF4F8FD
:104930008347D4F9898BE381073CB707005083C7CD
:10494000770093F7F70F93F707034147E38BE738B7
:1049500041476346F700E38E07206F00D038130706
:104960000002E386E70413070003E39EE736B70778
:10497000005019472389E702B70700501147A38960
:10498000E70283A7C18503C7670083C77700A20733
:10499000D98F1397070141832399E18683A7C185A6
:1049A00003C717002388E18683A7C18583C7070053
:1049B000230EF4F8A30F04F8230F04F883A7C1858E
:1049C00083C7070093F70706638B071283C7018726
:1049D00093F7F70F93F70702D5C383C7018793F7C0
:1049E000F70F13071002638BE70013072002638998
:1049F000E708130700026387E708ADA81387C180A3
:104A000023A4E1869D47A30FF4F883D7218713974A
:104A1000070141839D4763E9E70083D72187C207E8
:104A2000C18393F7F70F11A0A147A30FF4F803A7D1
:104A3000C18583A781868346F4F93686BE853A858B
:104A4000EF30A01583D72187139707014183834750
:104A5000F4F9C207C183B307F740139707014183F5
:104A60002399E18603A781868347F4F93E9723A41F
:104A7000E18611A8FD57230FF4F831A0010021A011
:104A8000010011A001000347E4F99307F00F63034D
:104A9000F7688347F4F913970701418383D7218788
:104AA000C207C1836379F7008347F4F913970701BD
:104AB00041832399E18683D7C186139707014183F8
:104AC0009D4763E9E70083D7C186C207C18393F797
:104AD000F70F11A0A147A30FF4F883A7818603471E
:104AE000F4F93A86BE8513854185EF30000B03A7A4
:104AF00081868347F4F93E9723A4E18621AD83C7DD
:104B0000018793F7F70F2D47636BF75E1397270025
:104B1000B167938747F7BA979C43828783A7C1857C
:104B200003C7270083C73700A207D98FC207C183F5
:104B3000A183C207C183130720026365F71213978D
:104B40002700B167938747FABA979C4382873167FA
:104B5000130787EC23A4E186C947A30FF4F839A211
:104B600031671307C7ED23A4E18693073004A30F31
:104B7000F4F8EDA883A7C18503C7270083C73700D2
:104B8000A207D98FC207C18393F7F70F0547638642
:104B9000E70205476344F70089CB99A80947638773
:104BA000E7020D47638DE702A1A01387818123A44B
:104BB000E1869147A30FF4F881A03167130747F30B
:104BC00023A4E186B947A30FF4F83DA0316713078A
:104BD00047F423A4E186B147A30FF4F831A8316765
:104BE000130707F523A4E186D947A30FF4F829A0FA
:104BF000FD57230FF4F8010095A83167130707F25A
:104C000023A4E186D147A30FF4F88DA031671307E1
:104C100087F623A4E186A947A30FF4F881A883C7E8
:104C2000818093F7F70F9DE713061004B167938512
:104C3000E7EDB707002013852701EF20107637072F
:104C400000201307070123A4E18693073004A30F74
:104C5000F4F829A8FD57230FF4F809A8FD57230FEE
:104C6000F4F829A0FD57230FF4F801008347F4F965
:104C700013970701418383D72187C207C1836379D3
:104C8000F7008347F4F91397070141832399E186DD
:104C900083D721871397070141839D4763E9E70085
:104CA00083D72187C207C18393F7F70F11A0A147CC
:104CB000A30FF4F803A7C18583A781868346F4F97F
:104CC0003686BE853A85EF20506D03A781868347DF
:104CD000F4F93E9723A4E18635A983A7C18503C7CC
:104CE000270083C73700A207D98FC207C18393F774
:104CF000F70F1397070141832399E18621A983A721
:104D0000C18503C7F1861377F70F2380E70083D7A8
:104D10002187139707014183854763F6E73E0547DF
:104D20002399E186CDA683A7C18503C7270083C742
:104D30003700A207D98FC207C18313F7F70FA387E4
:104D4000E186C9AE83A7C18583C7070013F7F701C2
:104D50008947631FF70C83A7C18503C7470083C733
:104D60005700A207D98FC207C18393F7F70F0947EE
:104D70006388E70409476346F70005476387E70848
:104D80005DA013071008638BE70413072008639CDA
:104D9000E708B707005083C7A70393F7F70FE207A9
:104DA000E187E19BE207E18793E7270013978701FB
:104DB0006187B70700501377F70F238DE702ADA87F
:104DC000B707005083C7B70313F7F70FB7070050B3
:104DD000619B1377F70FA38DE702B9A8B7070050BF
:104DE00083C7670393F7F70FE207E187E19BE207C9
:104DF000E18793E72700139787016187B707005082
:104E00001377F70F238BE70205A8B707005083C776
:104E1000770313F7F70FB7070050619B1377F70F6E
:104E2000A38BE70211A8FD57230FF4F8010029A076
:104E3000FD57230FF4F8F9ACF1AC9387418583C794
:104E40000700FD8BA1E39387418503C7270083C734
:104E50003700A207D98F1397070141838547631F46
:104E6000F7009307000A93F7070289C705472387CE
:104E7000E1864DA4FD57230FF4F869ACFD57230FCD
:104E8000F4F849AC9387418583C7070013F7F7010E
:104E90008947631CF7109387418503C7270083C7A1
:104EA0003700A207D98FC207C183E5EF93874185F9
:104EB00003C7470083C75700A207D98FC207C18322
:104EC00093F7F70F09476387E70409476346F7003D
:104ED0000547638DE708C9A0130710086382E7063A
:104EE00013072008639AE70AB707005083C7A70390
:104EF00093F7F70F37070050F19B93F7F70F230D48
:104F0000F7023707005093E7370093F7F70F230DA9
:104F1000F70245A0B707005083C7B70393F7F70F11
:104F200037070050F19B93F7F70FA30DF7023707F0
:104F3000005093E7370093F7F70FA30DF70295A8FA
:104F4000B707005083C7670393F7F70F3707005081
:104F5000F19B93F7F70F230BF7023707005093E706
:104F6000370093F7F70F230BF702A1A0B707005004
:104F700083C7770393F7F70F37070050F19B93F739
:104F8000F70FA30BF7023707005093E7370093F7AB
:104F9000F70FA30BF70231A8FD57230FF4F8010018
:104FA00009A8FD57230FF4F8B5A2FD57230FF4F815
:104FB00095A28DA283A7C1852380070083D721876F
:104FC000139707014183854763F1E7140547239948
:104FD000E18625AA238A018483D7C1861397070116
:104FE0004183854763F5E71205472396E18605A2CD
:104FF000238A018493874185A38007009387418595
:1050000003C7470083C75700A207D98F139707012B
:105010004183930710086311F702B707005083C755
:10502000670393F7F70F13F737008D47631DF70AF0
:105030000547238AE18445A89387418503C7470034
:1050400083C75700A207D98F13970701418385476C
:105050006311F702B707005083C7770393F7F70F81
:1050600013F737008D476310F7080547238AE1845B
:105070009DA89387418503C7470083C75700A207B0
:10508000D98F139707014183930720086311F70213
:10509000B707005083C7A70393F7F70F13F737003D
:1050A0008D476312F7040547238AE1842DA893876F
:1050B000418503C7470083C75700A207D98F1397BD
:1050C0000701418389476310F702B707005083C780
:1050D000B70393F7F70F13F737008D476315F70002
:1050E0000547238AE18483D7C1861397070141834B
:1050F000894763F0E70209472396E18619A8FD571F
:10510000230FF4F801A8010031A0010021A0010043
:1051100011A001000347E4F99307F00F631DF700A6
:10512000B70700501D472389E702B70700501D4706
:10513000A389E70265AE8307C4F963D5070483D763
:105140002187139707014183A14763E9E70083D7CC
:105150002187C207C18393F7F70F11A0A147A30FBF
:10516000F4F883D721871397070141838347F4F924
:10517000C207C183B307F7401397070141832399FF
:10518000E18619A0A30F04F8B70700500347F4F90C
:10519000420741832398E702B7070050114723894C
:1051A000E702B70700501147A389E70281A6B707B6
:1051B000005083C7770093F7F70F93F7F7031307B0
:1051C00010026385E71213072002638DE7141307AB
:1051D0000002639EE71883C7018793F7F70F15470F
:1051E0006380E70A19476394E70E83D721871397F3
:1051F000070141839D4763E9E70083D72187C20701
:10520000C18393F7F70F11A0A147A30FF4F803A7E9
:10521000C18583A781868346F4F93686BE853A85A3
:10522000EF20B01783D72187139707014183834766
:10523000F4F9C207C183B307F7401397070141830D
:105240002399E18603A781868347F4F93E9723A437
:10525000E186B70700500347F4F9420741832398DA
:10526000E702B707005083C7270313F7F70FB70705
:105270000050134747001377F70F2389E702B5A0C3
:10528000B707005083C7370093F7F70FE207E187AE
:1052900093F707F813978701618783D72187C207A0
:1052A000C183E207E187D98F139787016187B70729
:1052B00000501377F70FA381E700B70700500947A5
:1052C0002389E702B7070050A389070239A8B70767
:1052D000005023980702B707005009472389E702C7
:1052E000B7070050A3890702010059A0B707005073
:1052F00083C7670313F7F70FB7070050719B137746
:10530000F70F238BE702B707005083C7670313F734
:10531000F70FB7070050134747001377F70F238B9A
:10532000E702B9A0B707005083C7A70313F7F70F29
:10533000B7070050134747001377F70F238DE70295
:10534000B707005083C7A70393F7F70FE207E1877A
:10535000F19BE207E18793E72700139787016187B5
:10536000B70700501377F70F238DE70211A0010054
:10537000B5AAB707005083C7770093F7F70F93F7E5
:10538000F70305476387E70C09476386E710639EC9
:10539000071483C7018793F7F70F3E87930700022F
:1053A0006313F70A83A7C18583C7070085E383A733
:1053B000C18583C7170099EB83A7C18583C72700E1
:1053C00091E783A7C18583C737009DCF83A7C18598
:1053D00083C737001397870183A7C18583C7270039
:1053E000C2075D8F83A7C18583C71700A207D98F26
:1053F00003A7C18503470700D98FBE85AD67138515
:10540000C762EF3040243DA883A7C18583C76700EA
:10541000BE85AD671385C763EF30E02283A7C185E2
:1054200083C74700BE85AD671385C764EF30A021F1
:1054300083A7C18583C75700BE85AD671385C76540
:10544000EF3060200100B70700509C47A30FF4F82D
:1054500041A8B707005083C7770093F7F70F93F77A
:105460000704A5CFB707005083C7770313F7F70FDB
:10547000B7070050134747001377F70FA38BE702D6
:10548000B70700509C47A30FF4F88347F4F93E8513
:10549000EFF0AFB999A0B707005083C7770093F733
:1054A000F70F93F7070485CFB707005083C7B703FB
:1054B00013F7F70FB7070050134747001377F70F9D
:1054C000A38DE702B70700509C47A30FF4F883476A
:1054D000F4F93E85EFF0AFBB19A0010039A001003F
:1054E00029A0010021A0010011A00100B707005070
:1054F00009472383E70079A08347D4F9858BB9CF87
:10550000B7070050A3810700B7070050A38907021F
:10551000B7070050A38B0702B7070050A38D0702FF
:10552000B707005009472389E702B707005009472A
:10553000238BE702B70700500947238DE702B7071F
:10554000005083C7670013F7F70FB70700501367C2
:1055500017001377F70F2383E7002DA08347D4F9B3
:10556000918B99CBB707005083C75700B7070050FE
:1055700011472383E70039A0B70700500347D4F948
:105580002383E700010036547660E6605661C66109
:105590003662A662166386637275E2755276C276CB
:1055A0003277A27712788278726EE26E526FC26F93
:1055B000656173002030011106CE22CC26CA4AC88C
:1055C0004EC652C4F3292000B7081000FD18B3F7E7
:1055D000B80013DE4601B3F8D80013D445011353C5
:1055E000D6018E071357D5018E0813D9F501137410
:1055F000F47F9375FE7FFD82B36813015D8F1318EE
:105600003500131E36003303B4406305D91C6353C1
:10561000601663870520B70680009307F07FB3E824
:10562000D8006300F43E9307800363C86738FD47E2
:1056300063CC675293070002B3876740B394F800C6
:10564000B3566E00B317FE00D58C333EF000B3D8CE
:105650006800B3E4C40133071741B30498403338FA
:105660009800330707419317870063D80724131A5C
:105670009700135A9A00630A0A305285EF20804A35
:10568000611593070002898F3317AA00B3D7F4007E
:10569000D98F339AA40063478530018D1307150015
:1056A000FD4663CEE64893060002998EB394D70078
:1056B0003356EA00B316DA00D18CB336D000D58C5D
:1056C00033D7E700B3E7E400F5CF93F77400939581
:1056D00014001316170093D6F40113F57500B29653
:1056E000014311C909466383C9600D4605436383BD
:1056F000C9626386096037060001F18E13B6160091
:10570000E386070A01448947638EF9248D470543E0
:10571000638AF926638C0922B7078000F98F19C2C2
:1057200013632300E387070605049307F07F6308EC
:10573000F41AB70780FFFD17F98F1398D7018D80F2
:10574000A60733689800B1831374F47F1397C700DA
:10575000520431837E09418F336727014285BA8520
:1057600063150328F2406244D2444249B249224AB6
:10577000056182806314030C9307140093F7E77F9D
:105780006391072CB36E0701B3E7C8016314045C8F
:1057900063860E4E638A074EB305C841B337B8001F
:1057A000330617411D8E9317860063D8076EB30426
:1057B0000E41B3379E003387E8401D8FB3E7E40006
:1057C000368981F7014801440143B207B18313745C
:1057D000F47FADBF63566012DDC9B7068000930742
:1057E000F07FB3E8D800630EF4209307800363C60C
:1057F0006730FD4763DA673E930403FE93060002B9
:10580000B3D79800630AD30093060004338366403D
:10581000B3986800336E1E01B334C001DD8CD5A48B
:10582000B3E7C8016380071A9307F3FF6383074850
:105830009306F07F6307D31C3E83F5B3B38785409F
:1058400063110428336507012DC11385F7FF630D2C
:1058500005561303F07F638B6742AA871306800304
:105860006348F6327D46634DF652130600021D8EE4
:10587000B314C7003355F8003316C800C98C33364B
:10588000C000B357F700D18CB388F84031A6B3E716
:10589000C801638907129307F3FF638A07369306EB
:1058A000F07F630ED34C3E8389B71307F07F638B81
:1058B000E7624687F2843E843689B3E7E400E30575
:1058C00004E093F774000146E39F07E2B707800006
:1058D000F98F014381BD8D476380F90A1543638BBE
:1058E00009108D476386F9108947638DF934136376
:1058F0005300B70700207D58FD171304E07FF1B572
:10590000631803169306140093F7E67F6397074026
:10591000B3660701631D0432B3E7C801638F064A0B
:1059200063840736B304C801B307170133B8040111
:105930003387070193178700E3D607D8B70780FF9F
:10594000FD177D8F054493F77400B5BF93F7F400FE
:105950009146E383D7DC93874400B3B4970026973E
:10596000BE845DBB0543E30909DA93878400B3B4C1
:1059700097002697BE844DB37D57FD541304E07FF6
:1059800001461543E30309FE41BB2685EF2080193C
:10599000930785FF7D476105B397F400E353A7CED6
:1059A000E35D85CE370780FF7D177D8FD284098C1C
:1059B000B3E7E400E30A04D029B7B3E8C801B3347D
:1059C000100161B99307F07F6303F330B7078000DC
:1059D0001A84F98FC2840143B1B363888546639FFB
:1059E00007460145B705F87F4143732013009DBB6F
:1059F000E31F09EE136353001304F07F814701484E
:105A0000B1B333680701630C0802370340000E0589
:105A1000337367001318D7010D81133313003368F4
:105A2000A800935737001203B3E70701F1D70149E4
:105A30001304F07FB7070800014809BB368901430A
:105A400065BFB304C841B3379800330A1741330A1E
:105A5000FA4093178A0063C5072EB3E74401E39C1D
:105A600007C01389E9FF1339190001480144B1BB8C
:105A7000B3878540630B0412370580009306F07FDF
:105A8000498F638FD5349306800363C6F630FD4695
:105A900063CFF640930600029D8EB314D7003356B1
:105AA000F800B316D800D18CB336D000B357F70046
:105AB000D58CBE98F294B3B7C401338717012E84F6
:105AC000A9A0370380001305F07F33676700E397D1
:105AD000A5D8B3E7C801BDD3131836009397D801F2
